{
  "contractName": "Building",
  "abi": [
    {
      "inputs": [
        {
          "internalType": "address",
          "name": "_proxyRegistryAddress",
          "type": "address"
        }
      ],
      "stateMutability": "nonpayable",
      "type": "constructor"
    },
    {
      "anonymous": false,
      "inputs": [
        {
          "indexed": true,
          "internalType": "address",
          "name": "owner",
          "type": "address"
        },
        {
          "indexed": true,
          "internalType": "address",
          "name": "approved",
          "type": "address"
        },
        {
          "indexed": true,
          "internalType": "uint256",
          "name": "tokenId",
          "type": "uint256"
        }
      ],
      "name": "Approval",
      "type": "event"
    },
    {
      "anonymous": false,
      "inputs": [
        {
          "indexed": true,
          "internalType": "address",
          "name": "owner",
          "type": "address"
        },
        {
          "indexed": true,
          "internalType": "address",
          "name": "operator",
          "type": "address"
        },
        {
          "indexed": false,
          "internalType": "bool",
          "name": "approved",
          "type": "bool"
        }
      ],
      "name": "ApprovalForAll",
      "type": "event"
    },
    {
      "anonymous": false,
      "inputs": [
        {
          "indexed": false,
          "internalType": "address",
          "name": "userAddress",
          "type": "address"
        },
        {
          "indexed": false,
          "internalType": "address payable",
          "name": "relayerAddress",
          "type": "address"
        },
        {
          "indexed": false,
          "internalType": "bytes",
          "name": "functionSignature",
          "type": "bytes"
        }
      ],
      "name": "MetaTransactionExecuted",
      "type": "event"
    },
    {
      "anonymous": false,
      "inputs": [
        {
          "indexed": true,
          "internalType": "address",
          "name": "previousOwner",
          "type": "address"
        },
        {
          "indexed": true,
          "internalType": "address",
          "name": "newOwner",
          "type": "address"
        }
      ],
      "name": "OwnershipTransferred",
      "type": "event"
    },
    {
      "anonymous": false,
      "inputs": [
        {
          "indexed": true,
          "internalType": "address",
          "name": "from",
          "type": "address"
        },
        {
          "indexed": true,
          "internalType": "address",
          "name": "to",
          "type": "address"
        },
        {
          "indexed": true,
          "internalType": "uint256",
          "name": "tokenId",
          "type": "uint256"
        }
      ],
      "name": "Transfer",
      "type": "event"
    },
    {
      "inputs": [],
      "name": "ERC712_VERSION",
      "outputs": [
        {
          "internalType": "string",
          "name": "",
          "type": "string"
        }
      ],
      "stateMutability": "view",
      "type": "function"
    },
    {
      "inputs": [
        {
          "internalType": "address",
          "name": "to",
          "type": "address"
        },
        {
          "internalType": "uint256",
          "name": "tokenId",
          "type": "uint256"
        }
      ],
      "name": "approve",
      "outputs": [],
      "stateMutability": "nonpayable",
      "type": "function"
    },
    {
      "inputs": [
        {
          "internalType": "address",
          "name": "owner",
          "type": "address"
        }
      ],
      "name": "balanceOf",
      "outputs": [
        {
          "internalType": "uint256",
          "name": "",
          "type": "uint256"
        }
      ],
      "stateMutability": "view",
      "type": "function"
    },
    {
      "inputs": [
        {
          "internalType": "address",
          "name": "userAddress",
          "type": "address"
        },
        {
          "internalType": "bytes",
          "name": "functionSignature",
          "type": "bytes"
        },
        {
          "internalType": "bytes32",
          "name": "sigR",
          "type": "bytes32"
        },
        {
          "internalType": "bytes32",
          "name": "sigS",
          "type": "bytes32"
        },
        {
          "internalType": "uint8",
          "name": "sigV",
          "type": "uint8"
        }
      ],
      "name": "executeMetaTransaction",
      "outputs": [
        {
          "internalType": "bytes",
          "name": "",
          "type": "bytes"
        }
      ],
      "stateMutability": "payable",
      "type": "function"
    },
    {
      "inputs": [
        {
          "internalType": "uint256",
          "name": "tokenId",
          "type": "uint256"
        }
      ],
      "name": "getApproved",
      "outputs": [
        {
          "internalType": "address",
          "name": "",
          "type": "address"
        }
      ],
      "stateMutability": "view",
      "type": "function"
    },
    {
      "inputs": [],
      "name": "getChainId",
      "outputs": [
        {
          "internalType": "uint256",
          "name": "",
          "type": "uint256"
        }
      ],
      "stateMutability": "view",
      "type": "function"
    },
    {
      "inputs": [],
      "name": "getDomainSeperator",
      "outputs": [
        {
          "internalType": "bytes32",
          "name": "",
          "type": "bytes32"
        }
      ],
      "stateMutability": "view",
      "type": "function"
    },
    {
      "inputs": [
        {
          "internalType": "address",
          "name": "user",
          "type": "address"
        }
      ],
      "name": "getNonce",
      "outputs": [
        {
          "internalType": "uint256",
          "name": "nonce",
          "type": "uint256"
        }
      ],
      "stateMutability": "view",
      "type": "function"
    },
    {
      "inputs": [
        {
          "internalType": "address",
          "name": "owner",
          "type": "address"
        },
        {
          "internalType": "address",
          "name": "operator",
          "type": "address"
        }
      ],
      "name": "isApprovedForAll",
      "outputs": [
        {
          "internalType": "bool",
          "name": "",
          "type": "bool"
        }
      ],
      "stateMutability": "view",
      "type": "function"
    },
    {
      "inputs": [
        {
          "internalType": "address",
          "name": "_to",
          "type": "address"
        }
      ],
      "name": "mintTo",
      "outputs": [],
      "stateMutability": "nonpayable",
      "type": "function"
    },
    {
      "inputs": [],
      "name": "name",
      "outputs": [
        {
          "internalType": "string",
          "name": "",
          "type": "string"
        }
      ],
      "stateMutability": "view",
      "type": "function"
    },
    {
      "inputs": [],
      "name": "owner",
      "outputs": [
        {
          "internalType": "address",
          "name": "",
          "type": "address"
        }
      ],
      "stateMutability": "view",
      "type": "function"
    },
    {
      "inputs": [
        {
          "internalType": "uint256",
          "name": "tokenId",
          "type": "uint256"
        }
      ],
      "name": "ownerOf",
      "outputs": [
        {
          "internalType": "address",
          "name": "",
          "type": "address"
        }
      ],
      "stateMutability": "view",
      "type": "function"
    },
    {
      "inputs": [],
      "name": "renounceOwnership",
      "outputs": [],
      "stateMutability": "nonpayable",
      "type": "function"
    },
    {
      "inputs": [
        {
          "internalType": "address",
          "name": "from",
          "type": "address"
        },
        {
          "internalType": "address",
          "name": "to",
          "type": "address"
        },
        {
          "internalType": "uint256",
          "name": "tokenId",
          "type": "uint256"
        }
      ],
      "name": "safeTransferFrom",
      "outputs": [],
      "stateMutability": "nonpayable",
      "type": "function"
    },
    {
      "inputs": [
        {
          "internalType": "address",
          "name": "from",
          "type": "address"
        },
        {
          "internalType": "address",
          "name": "to",
          "type": "address"
        },
        {
          "internalType": "uint256",
          "name": "tokenId",
          "type": "uint256"
        },
        {
          "internalType": "bytes",
          "name": "_data",
          "type": "bytes"
        }
      ],
      "name": "safeTransferFrom",
      "outputs": [],
      "stateMutability": "nonpayable",
      "type": "function"
    },
    {
      "inputs": [
        {
          "internalType": "address",
          "name": "operator",
          "type": "address"
        },
        {
          "internalType": "bool",
          "name": "approved",
          "type": "bool"
        }
      ],
      "name": "setApprovalForAll",
      "outputs": [],
      "stateMutability": "nonpayable",
      "type": "function"
    },
    {
      "inputs": [
        {
          "internalType": "bytes4",
          "name": "interfaceId",
          "type": "bytes4"
        }
      ],
      "name": "supportsInterface",
      "outputs": [
        {
          "internalType": "bool",
          "name": "",
          "type": "bool"
        }
      ],
      "stateMutability": "view",
      "type": "function"
    },
    {
      "inputs": [],
      "name": "symbol",
      "outputs": [
        {
          "internalType": "string",
          "name": "",
          "type": "string"
        }
      ],
      "stateMutability": "view",
      "type": "function"
    },
    {
      "inputs": [
        {
          "internalType": "uint256",
          "name": "index",
          "type": "uint256"
        }
      ],
      "name": "tokenByIndex",
      "outputs": [
        {
          "internalType": "uint256",
          "name": "",
          "type": "uint256"
        }
      ],
      "stateMutability": "view",
      "type": "function"
    },
    {
      "inputs": [
        {
          "internalType": "address",
          "name": "owner",
          "type": "address"
        },
        {
          "internalType": "uint256",
          "name": "index",
          "type": "uint256"
        }
      ],
      "name": "tokenOfOwnerByIndex",
      "outputs": [
        {
          "internalType": "uint256",
          "name": "",
          "type": "uint256"
        }
      ],
      "stateMutability": "view",
      "type": "function"
    },
    {
      "inputs": [
        {
          "internalType": "uint256",
          "name": "_tokenId",
          "type": "uint256"
        }
      ],
      "name": "tokenURI",
      "outputs": [
        {
          "internalType": "string",
          "name": "",
          "type": "string"
        }
      ],
      "stateMutability": "pure",
      "type": "function"
    },
    {
      "inputs": [],
      "name": "totalSupply",
      "outputs": [
        {
          "internalType": "uint256",
          "name": "",
          "type": "uint256"
        }
      ],
      "stateMutability": "view",
      "type": "function"
    },
    {
      "inputs": [
        {
          "internalType": "address",
          "name": "from",
          "type": "address"
        },
        {
          "internalType": "address",
          "name": "to",
          "type": "address"
        },
        {
          "internalType": "uint256",
          "name": "tokenId",
          "type": "uint256"
        }
      ],
      "name": "transferFrom",
      "outputs": [],
      "stateMutability": "nonpayable",
      "type": "function"
    },
    {
      "inputs": [
        {
          "internalType": "address",
          "name": "newOwner",
          "type": "address"
        }
      ],
      "name": "transferOwnership",
      "outputs": [],
      "stateMutability": "nonpayable",
      "type": "function"
    },
    {
      "inputs": [],
      "name": "baseTokenURI",
      "outputs": [
        {
          "internalType": "string",
          "name": "",
          "type": "string"
        }
      ],
      "stateMutability": "pure",
      "type": "function"
    },
    {
      "inputs": [],
      "name": "contractURI",
      "outputs": [
        {
          "internalType": "string",
          "name": "",
          "type": "string"
        }
      ],
      "stateMutability": "pure",
      "type": "function"
    }
  ],
  "bytecode": "0x6080604052600a805460ff191690556000600f553480156200002057600080fd5b506040516200269b3803806200269b83398101604081905262000043916200037f565b6040518060400160405280601081526020016f4f70656e536561204275696c64696e6760801b8152506040518060400160405280600381526020016227a9a160e91b8152508282828160009080519060200190620000a3929190620002d9565b508051620000b9906001906020840190620002d9565b505050620000d6620000d06200010660201b60201c565b62000122565b600e80546001600160a01b0319166001600160a01b038316179055620000fc8362000174565b50505050620003ee565b60006200011d620001d860201b62000f621760201c565b905090565b600d80546001600160a01b038381166001600160a01b0319831681179093556040519116919082907f8be0079c531659141344cd1fd0a4f28419497f9722a3daafe3b4186f6b6457e090600090a35050565b600a5460ff1615620001bd5760405162461bcd60e51b815260206004820152600e60248201526d185b1c9958591e481a5b9a5d195960921b604482015260640160405180910390fd5b620001c88162000237565b50600a805460ff19166001179055565b6000333014156200023157600080368080601f0160208091040260200160405190810160405280939291908181526020018383808284376000920191909152505050503601516001600160a01b03169150620002349050565b50335b90565b6040518060800160405280604f81526020016200264c604f9139805160209182012082519282019290922060408051808201825260018152603160f81b90840152805180840194909452838101919091527fc89efdaa54c0f20c7adf612882df0950f5a951637e0307cdcb4c672f298b8bc660608401523060808401524660a0808501919091528151808503909101815260c090930190528151910120600b55565b828054620002e790620003b1565b90600052602060002090601f0160209004810192826200030b576000855562000356565b82601f106200032657805160ff191683800117855562000356565b8280016001018555821562000356579182015b828111156200035657825182559160200191906001019062000339565b506200036492915062000368565b5090565b5b8082111562000364576000815560010162000369565b6000602082840312156200039257600080fd5b81516001600160a01b0381168114620003aa57600080fd5b9392505050565b600181811c90821680620003c657607f821691505b60208210811415620003e857634e487b7160e01b600052602260045260246000fd5b50919050565b61224e80620003fe6000396000f3fe60806040526004361061013c5760003560e01c806301ffc9a71461014157806306fdde0314610176578063081812fc14610198578063095ea7b3146101c55780630c53c51c146101e75780630f7e5970146101fa57806318160ddd1461022757806320379ee51461024657806323b872dd1461025b5780632d0335ab1461027b5780632f745c59146102b15780633408e470146102d157806342842e0e146102e45780634f6ccce7146103045780636352211e1461032457806370a0823114610344578063715018a614610364578063755edd17146103795780638da5cb5b1461039957806395d89b41146103ae578063a22cb465146103c3578063b88d4fde146103e3578063c87b56dd14610403578063d547cfb714610423578063e8a3d48514610438578063e985e9c51461044d578063f2fde38b1461046d575b600080fd5b34801561014d57600080fd5b5061016161015c366004611d50565b61048d565b60405190151581526020015b60405180910390f35b34801561018257600080fd5b5061018b6104b8565b60405161016d9190611eef565b3480156101a457600080fd5b506101b86101b3366004611da7565b61054a565b60405161016d9190611e69565b3480156101d157600080fd5b506101e56101e0366004611d24565b6105d7565b005b61018b6101f5366004611ca7565b6106fa565b34801561020657600080fd5b5061018b604051806040016040528060018152602001603160f81b81525081565b34801561023357600080fd5b506008545b60405190815260200161016d565b34801561025257600080fd5b50600b54610238565b34801561026757600080fd5b506101e5610276366004611bc8565b6108e3565b34801561028757600080fd5b50610238610296366004611b72565b6001600160a01b03166000908152600c602052604090205490565b3480156102bd57600080fd5b506102386102cc366004611d24565b61091b565b3480156102dd57600080fd5b5046610238565b3480156102f057600080fd5b506101e56102ff366004611bc8565b6109b1565b34801561031057600080fd5b5061023861031f366004611da7565b6109cc565b34801561033057600080fd5b506101b861033f366004611da7565b610a5f565b34801561035057600080fd5b5061023861035f366004611b72565b610ad6565b34801561037057600080fd5b506101e5610b5d565b34801561038557600080fd5b506101e5610394366004611b72565b610ba8565b3480156103a557600080fd5b506101b8610c09565b3480156103ba57600080fd5b5061018b610c18565b3480156103cf57600080fd5b506101e56103de366004611c74565b610c27565b3480156103ef57600080fd5b506101e56103fe366004611c09565b610d25565b34801561040f57600080fd5b5061018b61041e366004611da7565b610d64565b34801561042f57600080fd5b5061018b610d9e565b34801561044457600080fd5b5061018b610dbe565b34801561045957600080fd5b50610161610468366004611b8f565b610dde565b34801561047957600080fd5b506101e5610488366004611b72565b610eb2565b60006001600160e01b0319821663780e9d6360e01b14806104b257506104b282610fbf565b92915050565b6060600080546104c790612049565b80601f01602080910402602001604051908101604052809291908181526020018280546104f390612049565b80156105405780601f1061051557610100808354040283529160200191610540565b820191906000526020600020905b81548152906001019060200180831161052357829003601f168201915b5050505050905090565b60006105558261100f565b6105bb5760405162461bcd60e51b815260206004820152602c60248201527f4552433732313a20617070726f76656420717565727920666f72206e6f6e657860448201526b34b9ba32b73a103a37b5b2b760a11b60648201526084015b60405180910390fd5b506000908152600460205260409020546001600160a01b031690565b60006105e282610a5f565b9050806001600160a01b0316836001600160a01b031614156106505760405162461bcd60e51b815260206004820152602160248201527f4552433732313a20617070726f76616c20746f2063757272656e74206f776e656044820152603960f91b60648201526084016105b2565b806001600160a01b031661066261102c565b6001600160a01b0316148061067e575061067e8161046861102c565b6106eb5760405162461bcd60e51b815260206004820152603860248201527f4552433732313a20617070726f76652063616c6c6572206973206e6f74206f776044820152771b995c881b9bdc88185c1c1c9bdd995908199bdc88185b1b60421b60648201526084016105b2565b6106f5838361103b565b505050565b60408051606081810183526001600160a01b0388166000818152600c60209081529085902054845283015291810186905261073887828787876110a9565b61078e5760405162461bcd60e51b815260206004820152602160248201527f5369676e657220616e64207369676e617475726520646f206e6f74206d6174636044820152600d60fb1b60648201526084016105b2565b6001600160a01b0387166000908152600c60205260409020546107b2906001611199565b6001600160a01b0388166000908152600c60205260409081902091909155517f5845892132946850460bff5a0083f71031bc5bf9aadcd40f1de79423eac9b10b9061080290899033908a90611e7d565b60405180910390a1600080306001600160a01b0316888a60405160200161082a929190611e08565b60408051601f198184030181529082905261084491611dec565b6000604051808303816000865af19150503d8060008114610881576040519150601f19603f3d011682016040523d82523d6000602084013e610886565b606091505b5091509150816108d75760405162461bcd60e51b815260206004820152601c60248201527b119d5b98dd1a5bdb8818d85b1b081b9bdd081cdd58d8d95cdcd99d5b60221b60448201526064016105b2565b98975050505050505050565b6108f46108ee61102c565b826111ac565b6109105760405162461bcd60e51b81526004016105b290611f89565b6106f583838361126e565b600061092683610ad6565b82106109885760405162461bcd60e51b815260206004820152602b60248201527f455243373231456e756d657261626c653a206f776e657220696e646578206f7560448201526a74206f6620626f756e647360a81b60648201526084016105b2565b506001600160a01b03919091166000908152600660209081526040808320938352929052205490565b6106f583838360405180602001604052806000815250610d25565b60006109d760085490565b8210610a3a5760405162461bcd60e51b815260206004820152602c60248201527f455243373231456e756d657261626c653a20676c6f62616c20696e646578206f60448201526b7574206f6620626f756e647360a01b60648201526084016105b2565b60088281548110610a4d57610a4d6120f5565b90600052602060002001549050919050565b6000818152600260205260408120546001600160a01b0316806104b25760405162461bcd60e51b815260206004820152602960248201527f4552433732313a206f776e657220717565727920666f72206e6f6e657869737460448201526832b73a103a37b5b2b760b91b60648201526084016105b2565b60006001600160a01b038216610b415760405162461bcd60e51b815260206004820152602a60248201527f4552433732313a2062616c616e636520717565727920666f7220746865207a65604482015269726f206164647265737360b01b60648201526084016105b2565b506001600160a01b031660009081526003602052604090205490565b610b6561102c565b6001600160a01b0316610b76610c09565b6001600160a01b031614610b9c5760405162461bcd60e51b81526004016105b290611f54565b610ba66000611407565b565b610bb061102c565b6001600160a01b0316610bc1610c09565b6001600160a01b031614610be75760405162461bcd60e51b81526004016105b290611f54565b6000610bf1611459565b9050610bfd828261146a565b610c05611596565b5050565b600d546001600160a01b031690565b6060600180546104c790612049565b610c2f61102c565b6001600160a01b0316826001600160a01b03161415610c8c5760405162461bcd60e51b815260206004820152601960248201527822a9219b99189d1030b8383937bb32903a379031b0b63632b960391b60448201526064016105b2565b8060056000610c9961102c565b6001600160a01b03908116825260208083019390935260409182016000908120918716808252919093529120805460ff191692151592909217909155610cdd61102c565b6001600160a01b03167f17307eab39ab6107e8899845ad3d59bd9653f200f220920489ca2b5937696c3183604051610d19911515815260200190565b60405180910390a35050565b610d36610d3061102c565b836111ac565b610d525760405162461bcd60e51b81526004016105b290611f89565b610d5e848484846115ad565b50505050565b6060610d6e610d9e565b610d77836115e0565b604051602001610d88929190611e3a565b6040516020818303038152906040529050919050565b60606040518060600160405280602e8152602001612190602e9139905090565b60606040518060600160405280603b81526020016121de603b9139905090565b600e5460405163c455279160e01b81526000916001600160a01b039081169190841690829063c455279190610e17908890600401611e69565b60206040518083038186803b158015610e2f57600080fd5b505afa158015610e43573d6000803e3d6000fd5b505050506040513d601f19601f82011682018060405250810190610e679190611d8a565b6001600160a01b03161415610e805760019150506104b2565b6001600160a01b0380851660009081526005602090815260408083209387168352929052205460ff165b949350505050565b610eba61102c565b6001600160a01b0316610ecb610c09565b6001600160a01b031614610ef15760405162461bcd60e51b81526004016105b290611f54565b6001600160a01b038116610f565760405162461bcd60e51b815260206004820152602660248201527f4f776e61626c653a206e6577206f776e657220697320746865207a65726f206160448201526564647265737360d01b60648201526084016105b2565b610f5f81611407565b50565b600033301415610fb957600080368080601f0160208091040260200160405190810160405280939291908181526020018383808284376000920191909152505050503601516001600160a01b03169150610fbc9050565b50335b90565b60006001600160e01b031982166380ac58cd60e01b1480610ff057506001600160e01b03198216635b5e139f60e01b145b806104b257506301ffc9a760e01b6001600160e01b03198316146104b2565b6000908152600260205260409020546001600160a01b0316151590565b6000611036610f62565b905090565b600081815260046020526040902080546001600160a01b0319166001600160a01b038416908117909155819061107082610a5f565b6001600160a01b03167f8c5be1e5ebec7d5bd14f71427d1e84f3dd0314c0f7b2291e5b200ac8c7c3b92560405160405180910390a45050565b60006001600160a01b03861661110f5760405162461bcd60e51b815260206004820152602560248201527f4e61746976654d6574615472616e73616374696f6e3a20494e56414c49445f5360448201526424a3a722a960d91b60648201526084016105b2565b600161112261111d876116dd565b61175a565b6040805160008152602081018083529290925260ff851690820152606081018690526080810185905260a0016020604051602081039080840390855afa158015611170573d6000803e3d6000fd5b505050602060405103516001600160a01b0316866001600160a01b031614905095945050505050565b60006111a58284611fda565b9392505050565b60006111b78261100f565b6112185760405162461bcd60e51b815260206004820152602c60248201527f4552433732313a206f70657261746f7220717565727920666f72206e6f6e657860448201526b34b9ba32b73a103a37b5b2b760a11b60648201526084016105b2565b600061122383610a5f565b9050806001600160a01b0316846001600160a01b0316148061125e5750836001600160a01b03166112538461054a565b6001600160a01b0316145b80610eaa5750610eaa8185610dde565b826001600160a01b031661128182610a5f565b6001600160a01b0316146112e95760405162461bcd60e51b815260206004820152602960248201527f4552433732313a207472616e73666572206f6620746f6b656e2074686174206960448201526839903737ba1037bbb760b91b60648201526084016105b2565b6001600160a01b03821661134b5760405162461bcd60e51b8152602060048201526024808201527f4552433732313a207472616e7366657220746f20746865207a65726f206164646044820152637265737360e01b60648201526084016105b2565b61135683838361178a565b61136160008261103b565b6001600160a01b038316600090815260036020526040812080546001929061138a908490612006565b90915550506001600160a01b03821660009081526003602052604081208054600192906113b8908490611fda565b909155505060008181526002602052604080822080546001600160a01b0319166001600160a01b0386811691821790925591518493918716916000805160206121be83398151915291a4505050565b600d80546001600160a01b038381166001600160a01b0319831681179093556040519116919082907f8be0079c531659141344cd1fd0a4f28419497f9722a3daafe3b4186f6b6457e090600090a35050565b600f54600090611036906001611199565b6001600160a01b0382166114c05760405162461bcd60e51b815260206004820181905260248201527f4552433732313a206d696e7420746f20746865207a65726f206164647265737360448201526064016105b2565b6114c98161100f565b156115155760405162461bcd60e51b815260206004820152601c60248201527b115490cdcc8c4e881d1bdad95b88185b1c9958591e481b5a5b9d195960221b60448201526064016105b2565b6115216000838361178a565b6001600160a01b038216600090815260036020526040812080546001929061154a908490611fda565b909155505060008181526002602052604080822080546001600160a01b0319166001600160a01b03861690811790915590518392906000805160206121be833981519152908290a45050565b600f80549060006115a683612084565b9190505550565b6115b884848461126e565b6115c484848484611842565b610d5e5760405162461bcd60e51b81526004016105b290611f02565b6060816116045750506040805180820190915260018152600360fc1b602082015290565b8160005b811561162e578061161881612084565b91506116279050600a83611ff2565b9150611608565b6000816001600160401b038111156116485761164861210b565b6040519080825280601f01601f191660200182016040528015611672576020820181803683370190505b5090505b8415610eaa57611687600183612006565b9150611694600a8661209f565b61169f906030611fda565b60f81b8183815181106116b4576116b46120f5565b60200101906001600160f81b031916908160001a9053506116d6600a86611ff2565b9450611676565b600060405180608001604052806043815260200161214d604391398051602091820120835184830151604080870151805190860120905161173d950193845260208401929092526001600160a01b03166040830152606082015260800190565b604051602081830303815290604052805190602001209050919050565b6000611765600b5490565b60405161190160f01b602082015260228101919091526042810183905260620161173d565b6001600160a01b0383166117e5576117e081600880546000838152600960205260408120829055600182018355919091527ff3f7a9fe364faab93b216da50a3214154f22a0a2b415b23a84c8169e8b636ee30155565b611808565b816001600160a01b0316836001600160a01b031614611808576118088382611956565b6001600160a01b03821661181f576106f5816119f3565b826001600160a01b0316826001600160a01b0316146106f5576106f58282611aa2565b60006001600160a01b0384163b1561194b57836001600160a01b031663150b7a0261186b61102c565b8786866040518563ffffffff1660e01b815260040161188d9493929190611eb2565b602060405180830381600087803b1580156118a757600080fd5b505af19250505080156118d7575060408051601f3d908101601f191682019092526118d491810190611d6d565b60015b611931573d808015611905576040519150601f19603f3d011682016040523d82523d6000602084013e61190a565b606091505b5080516119295760405162461bcd60e51b81526004016105b290611f02565b805181602001fd5b6001600160e01b031916630a85bd0160e11b149050610eaa565b506001949350505050565b6000600161196384610ad6565b61196d9190612006565b6000838152600760205260409020549091508082146119c0576001600160a01b03841660009081526006602090815260408083208584528252808320548484528184208190558352600790915290208190555b5060009182526007602090815260408084208490556001600160a01b039094168352600681528383209183525290812055565b600854600090611a0590600190612006565b60008381526009602052604081205460088054939450909284908110611a2d57611a2d6120f5565b906000526020600020015490508060088381548110611a4e57611a4e6120f5565b6000918252602080832090910192909255828152600990915260408082208490558582528120556008805480611a8657611a866120df565b6001900381819060005260206000200160009055905550505050565b6000611aad83610ad6565b6001600160a01b039093166000908152600660209081526040808320868452825280832085905593825260079052919091209190915550565b600082601f830112611af757600080fd5b81356001600160401b0380821115611b1157611b1161210b565b604051601f8301601f19908116603f01168101908282118183101715611b3957611b3961210b565b81604052838152866020858801011115611b5257600080fd5b836020870160208301376000602085830101528094505050505092915050565b600060208284031215611b8457600080fd5b81356111a581612121565b60008060408385031215611ba257600080fd5b8235611bad81612121565b91506020830135611bbd81612121565b809150509250929050565b600080600060608486031215611bdd57600080fd5b8335611be881612121565b92506020840135611bf881612121565b929592945050506040919091013590565b60008060008060808587031215611c1f57600080fd5b8435611c2a81612121565b93506020850135611c3a81612121565b92506040850135915060608501356001600160401b03811115611c5c57600080fd5b611c6887828801611ae6565b91505092959194509250565b60008060408385031215611c8757600080fd5b8235611c9281612121565b915060208301358015158114611bbd57600080fd5b600080600080600060a08688031215611cbf57600080fd5b8535611cca81612121565b945060208601356001600160401b03811115611ce557600080fd5b611cf188828901611ae6565b9450506040860135925060608601359150608086013560ff81168114611d1657600080fd5b809150509295509295909350565b60008060408385031215611d3757600080fd5b8235611d4281612121565b946020939093013593505050565b600060208284031215611d6257600080fd5b81356111a581612136565b600060208284031215611d7f57600080fd5b81516111a581612136565b600060208284031215611d9c57600080fd5b81516111a581612121565b600060208284031215611db957600080fd5b5035919050565b60008151808452611dd881602086016020860161201d565b601f01601f19169290920160200192915050565b60008251611dfe81846020870161201d565b9190910192915050565b60008351611e1a81846020880161201d565b60609390931b6001600160601b0319169190920190815260140192915050565b60008351611e4c81846020880161201d565b835190830190611e6081836020880161201d565b01949350505050565b6001600160a01b0391909116815260200190565b6001600160a01b03848116825283166020820152606060408201819052600090611ea990830184611dc0565b95945050505050565b6001600160a01b0385811682528416602082015260408101839052608060608201819052600090611ee590830184611dc0565b9695505050505050565b6020815260006111a56020830184611dc0565b60208082526032908201527f4552433732313a207472616e7366657220746f206e6f6e20455243373231526560408201527131b2b4bb32b91034b6b83632b6b2b73a32b960711b606082015260800190565b6020808252818101527f4f776e61626c653a2063616c6c6572206973206e6f7420746865206f776e6572604082015260600190565b60208082526031908201527f4552433732313a207472616e736665722063616c6c6572206973206e6f74206f6040820152701ddb995c881b9bdc88185c1c1c9bdd9959607a1b606082015260800190565b60008219821115611fed57611fed6120b3565b500190565b600082612001576120016120c9565b500490565b600082821015612018576120186120b3565b500390565b60005b83811015612038578181015183820152602001612020565b83811115610d5e5750506000910152565b600181811c9082168061205d57607f821691505b6020821081141561207e57634e487b7160e01b600052602260045260246000fd5b50919050565b6000600019821415612098576120986120b3565b5060010190565b6000826120ae576120ae6120c9565b500690565b634e487b7160e01b600052601160045260246000fd5b634e487b7160e01b600052601260045260246000fd5b634e487b7160e01b600052603160045260246000fd5b634e487b7160e01b600052603260045260246000fd5b634e487b7160e01b600052604160045260246000fd5b6001600160a01b0381168114610f5f57600080fd5b6001600160e01b031981168114610f5f57600080fdfe4d6574615472616e73616374696f6e2875696e74323536206e6f6e63652c616464726573732066726f6d2c62797465732066756e6374696f6e5369676e61747572652968747470733a2f2f6275696c64696e67732d6170692e6f70656e7365612e696f2f6170692f6275696c64696e672fddf252ad1be2c89b69c2b068fc378daa952ba7f163c4a11628f55a4df523b3ef68747470733a2f2f6275696c64696e67732d6170692e6f70656e7365612e696f2f636f6e74726163742f6f70656e7365612d6275696c64696e6773a264697066735822122014c65f072cac4c2bda49ed08a228fbf8050e752ec5d075838b57abf4d4f789a464736f6c63430008070033454950373132446f6d61696e28737472696e67206e616d652c737472696e672076657273696f6e2c6164647265737320766572696679696e67436f6e74726163742c627974657333322073616c7429",
  "immutableReferences": {},
  "source": "// SPDX-License-Identifier: MIT\r\n\r\npragma solidity ^0.8.0;\r\n\r\nimport \"./ERC721Tradable.sol\";\r\n\r\n/**\r\n * @title Building\r\n * Building - a contract for my non-fungible buildings.\r\n */\r\ncontract Building is ERC721Tradable {\r\n    constructor(address _proxyRegistryAddress)\r\n        ERC721Tradable(\"OpenSea Building\", \"OSB\", _proxyRegistryAddress)\r\n    {}\r\n\r\n    function baseTokenURI() override public pure returns (string memory) {\r\n        return \"https://buildings-api.opensea.io/api/building/\";\r\n    }\r\n\r\n    function contractURI() public pure returns (string memory) {\r\n        return \"https://buildings-api.opensea.io/contract/opensea-buildings\";\r\n    }\r\n}\r\n",
  "sourcePath": "D:\\04_Work\\001\\NFT_presale\\smart_contract\\contracts\\Building.sol",
  "compiler": {
    "name": "solc",
    "version": "0.8.7+commit.e28d00a7.Emscripten.clang"
  },
  "schemaVersion": "3.4.3",
  "updatedAt": "2021-10-19T18:53:42.506Z",
  "devdoc": {
    "kind": "dev",
    "methods": {
      "approve(address,uint256)": {
        "details": "See {IERC721-approve}."
      },
      "balanceOf(address)": {
        "details": "See {IERC721-balanceOf}."
      },
      "getApproved(uint256)": {
        "details": "See {IERC721-getApproved}."
      },
      "mintTo(address)": {
        "details": "Mints a token to an address with a tokenURI.",
        "params": {
          "_to": "address of the future owner of the token"
        }
      },
      "name()": {
        "details": "See {IERC721Metadata-name}."
      },
      "owner()": {
        "details": "Returns the address of the current owner."
      },
      "ownerOf(uint256)": {
        "details": "See {IERC721-ownerOf}."
      },
      "renounceOwnership()": {
        "details": "Leaves the contract without owner. It will not be possible to call `onlyOwner` functions anymore. Can only be called by the current owner. NOTE: Renouncing ownership will leave the contract without an owner, thereby removing any functionality that is only available to the owner."
      },
      "safeTransferFrom(address,address,uint256)": {
        "details": "See {IERC721-safeTransferFrom}."
      },
      "safeTransferFrom(address,address,uint256,bytes)": {
        "details": "See {IERC721-safeTransferFrom}."
      },
      "setApprovalForAll(address,bool)": {
        "details": "See {IERC721-setApprovalForAll}."
      },
      "supportsInterface(bytes4)": {
        "details": "See {IERC165-supportsInterface}."
      },
      "symbol()": {
        "details": "See {IERC721Metadata-symbol}."
      },
      "tokenByIndex(uint256)": {
        "details": "See {IERC721Enumerable-tokenByIndex}."
      },
      "tokenOfOwnerByIndex(address,uint256)": {
        "details": "See {IERC721Enumerable-tokenOfOwnerByIndex}."
      },
      "totalSupply()": {
        "details": "See {IERC721Enumerable-totalSupply}."
      },
      "transferFrom(address,address,uint256)": {
        "details": "See {IERC721-transferFrom}."
      },
      "transferOwnership(address)": {
        "details": "Transfers ownership of the contract to a new account (`newOwner`). Can only be called by the current owner."
      }
    },
    "title": "Building Building - a contract for my non-fungible buildings.",
    "version": 1
  },
  "userdoc": {
    "kind": "user",
    "methods": {
      "isApprovedForAll(address,address)": {
        "notice": "Override isApprovedForAll to whitelist user's OpenSea proxy accounts to enable gas-less listings."
      }
    },
    "version": 1
  }
}