{
  "contractName": "BuildingResource",
  "abi": [
    {
      "inputs": [
        {
          "internalType": "string",
          "name": "_name",
          "type": "string"
        },
        {
          "internalType": "string",
          "name": "_symbol",
          "type": "string"
        },
        {
          "internalType": "string",
          "name": "_uri",
          "type": "string"
        },
        {
          "internalType": "address",
          "name": "_proxyRegistryAddress",
          "type": "address"
        }
      ],
      "stateMutability": "nonpayable",
      "type": "constructor"
    },
    {
      "anonymous": false,
      "inputs": [
        {
          "indexed": true,
          "internalType": "address",
          "name": "account",
          "type": "address"
        },
        {
          "indexed": true,
          "internalType": "address",
          "name": "operator",
          "type": "address"
        },
        {
          "indexed": false,
          "internalType": "bool",
          "name": "approved",
          "type": "bool"
        }
      ],
      "name": "ApprovalForAll",
      "type": "event"
    },
    {
      "anonymous": false,
      "inputs": [
        {
          "indexed": false,
          "internalType": "address",
          "name": "userAddress",
          "type": "address"
        },
        {
          "indexed": false,
          "internalType": "address payable",
          "name": "relayerAddress",
          "type": "address"
        },
        {
          "indexed": false,
          "internalType": "bytes",
          "name": "functionSignature",
          "type": "bytes"
        }
      ],
      "name": "MetaTransactionExecuted",
      "type": "event"
    },
    {
      "anonymous": false,
      "inputs": [
        {
          "indexed": true,
          "internalType": "address",
          "name": "previousOwner",
          "type": "address"
        },
        {
          "indexed": true,
          "internalType": "address",
          "name": "newOwner",
          "type": "address"
        }
      ],
      "name": "OwnershipTransferred",
      "type": "event"
    },
    {
      "anonymous": false,
      "inputs": [
        {
          "indexed": true,
          "internalType": "address",
          "name": "operator",
          "type": "address"
        },
        {
          "indexed": true,
          "internalType": "address",
          "name": "from",
          "type": "address"
        },
        {
          "indexed": true,
          "internalType": "address",
          "name": "to",
          "type": "address"
        },
        {
          "indexed": false,
          "internalType": "uint256[]",
          "name": "ids",
          "type": "uint256[]"
        },
        {
          "indexed": false,
          "internalType": "uint256[]",
          "name": "values",
          "type": "uint256[]"
        }
      ],
      "name": "TransferBatch",
      "type": "event"
    },
    {
      "anonymous": false,
      "inputs": [
        {
          "indexed": true,
          "internalType": "address",
          "name": "operator",
          "type": "address"
        },
        {
          "indexed": true,
          "internalType": "address",
          "name": "from",
          "type": "address"
        },
        {
          "indexed": true,
          "internalType": "address",
          "name": "to",
          "type": "address"
        },
        {
          "indexed": false,
          "internalType": "uint256",
          "name": "id",
          "type": "uint256"
        },
        {
          "indexed": false,
          "internalType": "uint256",
          "name": "value",
          "type": "uint256"
        }
      ],
      "name": "TransferSingle",
      "type": "event"
    },
    {
      "anonymous": false,
      "inputs": [
        {
          "indexed": false,
          "internalType": "string",
          "name": "value",
          "type": "string"
        },
        {
          "indexed": true,
          "internalType": "uint256",
          "name": "id",
          "type": "uint256"
        }
      ],
      "name": "URI",
      "type": "event"
    },
    {
      "inputs": [],
      "name": "ERC712_VERSION",
      "outputs": [
        {
          "internalType": "string",
          "name": "",
          "type": "string"
        }
      ],
      "stateMutability": "view",
      "type": "function",
      "constant": true
    },
    {
      "inputs": [
        {
          "internalType": "address",
          "name": "account",
          "type": "address"
        },
        {
          "internalType": "uint256",
          "name": "id",
          "type": "uint256"
        }
      ],
      "name": "balanceOf",
      "outputs": [
        {
          "internalType": "uint256",
          "name": "",
          "type": "uint256"
        }
      ],
      "stateMutability": "view",
      "type": "function",
      "constant": true
    },
    {
      "inputs": [
        {
          "internalType": "address[]",
          "name": "accounts",
          "type": "address[]"
        },
        {
          "internalType": "uint256[]",
          "name": "ids",
          "type": "uint256[]"
        }
      ],
      "name": "balanceOfBatch",
      "outputs": [
        {
          "internalType": "uint256[]",
          "name": "",
          "type": "uint256[]"
        }
      ],
      "stateMutability": "view",
      "type": "function",
      "constant": true
    },
    {
      "inputs": [
        {
          "internalType": "address",
          "name": "_to",
          "type": "address"
        },
        {
          "internalType": "uint256[]",
          "name": "_ids",
          "type": "uint256[]"
        },
        {
          "internalType": "uint256[]",
          "name": "_quantities",
          "type": "uint256[]"
        },
        {
          "internalType": "bytes",
          "name": "_data",
          "type": "bytes"
        }
      ],
      "name": "batchMint",
      "outputs": [],
      "stateMutability": "nonpayable",
      "type": "function"
    },
    {
      "inputs": [],
      "name": "contractURI",
      "outputs": [
        {
          "internalType": "string",
          "name": "",
          "type": "string"
        }
      ],
      "stateMutability": "view",
      "type": "function",
      "constant": true
    },
    {
      "inputs": [
        {
          "internalType": "address",
          "name": "_initialOwner",
          "type": "address"
        },
        {
          "internalType": "uint256",
          "name": "_id",
          "type": "uint256"
        },
        {
          "internalType": "uint256",
          "name": "_initialSupply",
          "type": "uint256"
        },
        {
          "internalType": "string",
          "name": "_uri",
          "type": "string"
        },
        {
          "internalType": "bytes",
          "name": "_data",
          "type": "bytes"
        }
      ],
      "name": "create",
      "outputs": [
        {
          "internalType": "uint256",
          "name": "",
          "type": "uint256"
        }
      ],
      "stateMutability": "nonpayable",
      "type": "function"
    },
    {
      "inputs": [
        {
          "internalType": "uint256",
          "name": "_id",
          "type": "uint256"
        }
      ],
      "name": "creatorbyID",
      "outputs": [
        {
          "internalType": "address",
          "name": "",
          "type": "address"
        }
      ],
      "stateMutability": "view",
      "type": "function",
      "constant": true
    },
    {
      "inputs": [
        {
          "internalType": "uint256",
          "name": "",
          "type": "uint256"
        }
      ],
      "name": "creators",
      "outputs": [
        {
          "internalType": "address",
          "name": "",
          "type": "address"
        }
      ],
      "stateMutability": "view",
      "type": "function",
      "constant": true
    },
    {
      "inputs": [
        {
          "internalType": "address",
          "name": "userAddress",
          "type": "address"
        },
        {
          "internalType": "bytes",
          "name": "functionSignature",
          "type": "bytes"
        },
        {
          "internalType": "bytes32",
          "name": "sigR",
          "type": "bytes32"
        },
        {
          "internalType": "bytes32",
          "name": "sigS",
          "type": "bytes32"
        },
        {
          "internalType": "uint8",
          "name": "sigV",
          "type": "uint8"
        }
      ],
      "name": "executeMetaTransaction",
      "outputs": [
        {
          "internalType": "bytes",
          "name": "",
          "type": "bytes"
        }
      ],
      "stateMutability": "payable",
      "type": "function",
      "payable": true
    },
    {
      "inputs": [
        {
          "internalType": "uint256",
          "name": "_id",
          "type": "uint256"
        }
      ],
      "name": "exists",
      "outputs": [
        {
          "internalType": "bool",
          "name": "",
          "type": "bool"
        }
      ],
      "stateMutability": "view",
      "type": "function",
      "constant": true
    },
    {
      "inputs": [],
      "name": "getChainId",
      "outputs": [
        {
          "internalType": "uint256",
          "name": "",
          "type": "uint256"
        }
      ],
      "stateMutability": "view",
      "type": "function",
      "constant": true
    },
    {
      "inputs": [],
      "name": "getDomainSeperator",
      "outputs": [
        {
          "internalType": "bytes32",
          "name": "",
          "type": "bytes32"
        }
      ],
      "stateMutability": "view",
      "type": "function",
      "constant": true
    },
    {
      "inputs": [
        {
          "internalType": "address",
          "name": "user",
          "type": "address"
        }
      ],
      "name": "getNonce",
      "outputs": [
        {
          "internalType": "uint256",
          "name": "nonce",
          "type": "uint256"
        }
      ],
      "stateMutability": "view",
      "type": "function",
      "constant": true
    },
    {
      "inputs": [
        {
          "internalType": "address",
          "name": "_owner",
          "type": "address"
        },
        {
          "internalType": "address",
          "name": "_operator",
          "type": "address"
        }
      ],
      "name": "isApprovedForAll",
      "outputs": [
        {
          "internalType": "bool",
          "name": "isOperator",
          "type": "bool"
        }
      ],
      "stateMutability": "view",
      "type": "function",
      "constant": true
    },
    {
      "inputs": [],
      "name": "isProxyUseForLive",
      "outputs": [
        {
          "internalType": "bool",
          "name": "",
          "type": "bool"
        }
      ],
      "stateMutability": "view",
      "type": "function",
      "constant": true
    },
    {
      "inputs": [
        {
          "internalType": "address",
          "name": "_to",
          "type": "address"
        },
        {
          "internalType": "uint256",
          "name": "_id",
          "type": "uint256"
        },
        {
          "internalType": "uint256",
          "name": "_quantity",
          "type": "uint256"
        },
        {
          "internalType": "bytes",
          "name": "_data",
          "type": "bytes"
        }
      ],
      "name": "mint",
      "outputs": [],
      "stateMutability": "nonpayable",
      "type": "function"
    },
    {
      "inputs": [],
      "name": "name",
      "outputs": [
        {
          "internalType": "string",
          "name": "",
          "type": "string"
        }
      ],
      "stateMutability": "view",
      "type": "function",
      "constant": true
    },
    {
      "inputs": [],
      "name": "owner",
      "outputs": [
        {
          "internalType": "address",
          "name": "",
          "type": "address"
        }
      ],
      "stateMutability": "view",
      "type": "function",
      "constant": true
    },
    {
      "inputs": [],
      "name": "renounceOwnership",
      "outputs": [],
      "stateMutability": "nonpayable",
      "type": "function"
    },
    {
      "inputs": [
        {
          "internalType": "address",
          "name": "from",
          "type": "address"
        },
        {
          "internalType": "address",
          "name": "to",
          "type": "address"
        },
        {
          "internalType": "uint256[]",
          "name": "ids",
          "type": "uint256[]"
        },
        {
          "internalType": "uint256[]",
          "name": "amounts",
          "type": "uint256[]"
        },
        {
          "internalType": "bytes",
          "name": "data",
          "type": "bytes"
        }
      ],
      "name": "safeBatchTransferFrom",
      "outputs": [],
      "stateMutability": "nonpayable",
      "type": "function"
    },
    {
      "inputs": [
        {
          "internalType": "address",
          "name": "from",
          "type": "address"
        },
        {
          "internalType": "address",
          "name": "to",
          "type": "address"
        },
        {
          "internalType": "uint256",
          "name": "id",
          "type": "uint256"
        },
        {
          "internalType": "uint256",
          "name": "amount",
          "type": "uint256"
        },
        {
          "internalType": "bytes",
          "name": "data",
          "type": "bytes"
        }
      ],
      "name": "safeTransferFrom",
      "outputs": [],
      "stateMutability": "nonpayable",
      "type": "function"
    },
    {
      "inputs": [
        {
          "internalType": "address",
          "name": "operator",
          "type": "address"
        },
        {
          "internalType": "bool",
          "name": "approved",
          "type": "bool"
        }
      ],
      "name": "setApprovalForAll",
      "outputs": [],
      "stateMutability": "nonpayable",
      "type": "function"
    },
    {
      "inputs": [
        {
          "internalType": "address",
          "name": "_to",
          "type": "address"
        },
        {
          "internalType": "uint256[]",
          "name": "_ids",
          "type": "uint256[]"
        }
      ],
      "name": "setCreator",
      "outputs": [],
      "stateMutability": "nonpayable",
      "type": "function"
    },
    {
      "inputs": [
        {
          "internalType": "uint256",
          "name": "_tokenId",
          "type": "uint256"
        },
        {
          "internalType": "string",
          "name": "_newURI",
          "type": "string"
        }
      ],
      "name": "setCustomURI",
      "outputs": [],
      "stateMutability": "nonpayable",
      "type": "function"
    },
    {
      "inputs": [
        {
          "internalType": "bool",
          "name": "_bUse",
          "type": "bool"
        }
      ],
      "name": "setProxyUseForLive",
      "outputs": [],
      "stateMutability": "nonpayable",
      "type": "function"
    },
    {
      "inputs": [
        {
          "internalType": "string",
          "name": "_newURI",
          "type": "string"
        }
      ],
      "name": "setURI",
      "outputs": [],
      "stateMutability": "nonpayable",
      "type": "function"
    },
    {
      "inputs": [
        {
          "internalType": "bytes4",
          "name": "interfaceId",
          "type": "bytes4"
        }
      ],
      "name": "supportsInterface",
      "outputs": [
        {
          "internalType": "bool",
          "name": "",
          "type": "bool"
        }
      ],
      "stateMutability": "view",
      "type": "function",
      "constant": true
    },
    {
      "inputs": [],
      "name": "symbol",
      "outputs": [
        {
          "internalType": "string",
          "name": "",
          "type": "string"
        }
      ],
      "stateMutability": "view",
      "type": "function",
      "constant": true
    },
    {
      "inputs": [],
      "name": "tokenPool",
      "outputs": [
        {
          "internalType": "address",
          "name": "",
          "type": "address"
        }
      ],
      "stateMutability": "view",
      "type": "function",
      "constant": true
    },
    {
      "inputs": [
        {
          "internalType": "uint256",
          "name": "",
          "type": "uint256"
        }
      ],
      "name": "tokenSupply",
      "outputs": [
        {
          "internalType": "uint256",
          "name": "",
          "type": "uint256"
        }
      ],
      "stateMutability": "view",
      "type": "function",
      "constant": true
    },
    {
      "inputs": [
        {
          "internalType": "uint256",
          "name": "_id",
          "type": "uint256"
        }
      ],
      "name": "totalSupply",
      "outputs": [
        {
          "internalType": "uint256",
          "name": "",
          "type": "uint256"
        }
      ],
      "stateMutability": "view",
      "type": "function",
      "constant": true
    },
    {
      "inputs": [
        {
          "internalType": "uint256",
          "name": "_id",
          "type": "uint256"
        }
      ],
      "name": "uri",
      "outputs": [
        {
          "internalType": "string",
          "name": "",
          "type": "string"
        }
      ],
      "stateMutability": "view",
      "type": "function",
      "constant": true
    },
    {
      "inputs": [
        {
          "internalType": "string",
          "name": "_contractURI",
          "type": "string"
        }
      ],
      "name": "setContractURI",
      "outputs": [],
      "stateMutability": "nonpayable",
      "type": "function"
    },
    {
      "inputs": [
        {
          "internalType": "uint256",
          "name": "_id",
          "type": "uint256"
        },
        {
          "internalType": "uint256",
          "name": "_initialSupply",
          "type": "uint256"
        },
        {
          "internalType": "string",
          "name": "_uri",
          "type": "string"
        }
      ],
      "name": "createResource",
      "outputs": [
        {
          "internalType": "uint256",
          "name": "",
          "type": "uint256"
        }
      ],
      "stateMutability": "nonpayable",
      "type": "function"
    },
    {
      "inputs": [
        {
          "internalType": "address",
          "name": "_newOwner",
          "type": "address"
        }
      ],
      "name": "transferOwnership",
      "outputs": [],
      "stateMutability": "nonpayable",
      "type": "function"
    }
  ],
  "bytecode": "0x6003805460ff19908116909155600e8054909116905560e06040526039608081815290620036e560a03980516200003f91600f91602090910190620003a7565b503480156200004d57600080fd5b506040516200371e3803806200371e833981016040819052620000709162000504565b83838383816200008081620001bb565b50620000956200008f620001d4565b620001f0565b8351620000aa90600c906020870190620003a7565b508251620000c090600d906020860190620003a7565b50600780546001600160a01b0319166001600160a01b038316179055600c80546200017c9190620000f190620005b7565b80601f01602080910402602001604051908101604052809291908181526020018280546200011f90620005b7565b8015620001705780601f10620001445761010080835404028352916020019162000170565b820191906000526020600020905b8154815290600101906020018083116200015257829003601f168201915b50506200024292505050565b5050505062000190620002a660201b60201c565b601080546001600160a01b0319166001600160a01b0392909216919091179055506200060a92505050565b8051620001d0906002906020840190620003a7565b5050565b6000620001eb620002a660201b620016dd1760201c565b905090565b600680546001600160a01b038381166001600160a01b0319831681179093556040519116919082907f8be0079c531659141344cd1fd0a4f28419497f9722a3daafe3b4186f6b6457e090600090a35050565b60035460ff16156200028b5760405162461bcd60e51b815260206004820152600e60248201526d185b1c9958591e481a5b9a5d195960921b604482015260640160405180910390fd5b620002968162000305565b506003805460ff19166001179055565b600033301415620002ff57600080368080601f0160208091040260200160405190810160405280939291908181526020018383808284376000920191909152505050503601516001600160a01b03169150620003029050565b50335b90565b6040518060800160405280604f815260200162003696604f9139805160209182012082519282019290922060408051808201825260018152603160f81b90840152805180840194909452838101919091527fc89efdaa54c0f20c7adf612882df0950f5a951637e0307cdcb4c672f298b8bc660608401523060808401524660a0808501919091528151808503909101815260c090930190528151910120600455565b828054620003b590620005b7565b90600052602060002090601f016020900481019282620003d9576000855562000424565b82601f10620003f457805160ff191683800117855562000424565b8280016001018555821562000424579182015b828111156200042457825182559160200191906001019062000407565b506200043292915062000436565b5090565b5b8082111562000432576000815560010162000437565b600082601f8301126200045f57600080fd5b81516001600160401b03808211156200047c576200047c620005f4565b604051601f8301601f19908116603f01168101908282118183101715620004a757620004a7620005f4565b81604052838152602092508683858801011115620004c457600080fd5b600091505b83821015620004e85785820183015181830184015290820190620004c9565b83821115620004fa5760008385830101525b9695505050505050565b600080600080608085870312156200051b57600080fd5b84516001600160401b03808211156200053357600080fd5b62000541888389016200044d565b955060208701519150808211156200055857600080fd5b62000566888389016200044d565b945060408701519150808211156200057d57600080fd5b506200058c878288016200044d565b606087015190935090506001600160a01b0381168114620005ac57600080fd5b939692955090935050565b600181811c90821680620005cc57607f821691505b60208210811415620005ee57634e487b7160e01b600052602260045260246000fd5b50919050565b634e487b7160e01b600052604160045260246000fd5b61307c806200061a6000396000f3fe6080604052600436106101935760003560e01c8062fdd58e1461019857806301ffc9a7146101cb57806302fe5305146101fb57806306fdde031461021d5780630c53c51c1461023f5780630e89341c146102525780630f7e597014610272578063104e99291461029f57806320379ee5146102cc5780632693ebf2146102e15780632d0335ab1461030e5780632eb2c2d6146103445780633408e4701461036457806336a100d5146103775780633adf80b4146103975780634e1273f4146103b75780634f558e79146103e45780636105671614610404578063715018a61461041e578063731133e9146104335780638da5cb5b14610453578063938e3d7b1461046857806395d89b4114610488578063a22cb4651461049d578063ad8ce332146104bd578063b48ab8b6146104dd578063bd85b039146104fd578063c5df056a1461052a578063cd53d08e1461054a578063d2a6b51a14610580578063e8a3d485146105a0578063e985e9c5146105b5578063ee5e81f5146105d5578063f242432a146105f5578063f2fde38b14610615575b600080fd5b3480156101a457600080fd5b506101b86101b33660046126fc565b610635565b6040519081526020015b60405180910390f35b3480156101d757600080fd5b506101eb6101e63660046128ba565b6106cf565b60405190151581526020016101c2565b34801561020757600080fd5b5061021b610216366004612911565b61071f565b005b34801561022957600080fd5b5061023261076a565b6040516101c29190612bb6565b61023261024d36600461267f565b6107f8565b34801561025e57600080fd5b5061023261026d366004612945565b6109e1565b34801561027e57600080fd5b50610232604051806040016040528060018152602001603160f81b81525081565b3480156102ab57600080fd5b506010546102bf906001600160a01b031681565b6040516101c29190612a9e565b3480156102d857600080fd5b506004546101b8565b3480156102ed57600080fd5b506101b86102fc366004612945565b60096020526000908152604090205481565b34801561031a57600080fd5b506101b86103293660046123f6565b6001600160a01b031660009081526005602052604090205490565b34801561035057600080fd5b5061021b61035f36600461244c565b610b9f565b34801561037057600080fd5b50466101b8565b34801561038357600080fd5b506101b861039236600461277e565b610c48565b3480156103a357600080fd5b5061021b6103b236600461295e565b610daf565b3480156103c357600080fd5b506103d76103d23660046127d7565b610e3c565b6040516101c29190612b7e565b3480156103f057600080fd5b506101eb6103ff366004612945565b610f65565b34801561041057600080fd5b50600e546101eb9060ff1681565b34801561042a57600080fd5b5061021b610f70565b34801561043f57600080fd5b5061021b61044e366004612728565b610fbb565b34801561045f57600080fd5b506102bf61103b565b34801561047457600080fd5b5061021b610483366004612911565b61104a565b34801561049457600080fd5b506102326110a0565b3480156104a957600080fd5b5061021b6104b836600461264a565b6110ad565b3480156104c957600080fd5b506101b86104d836600461299a565b6111c1565b3480156104e957600080fd5b5061021b6104f83660046125b0565b611241565b34801561050957600080fd5b506101b8610518366004612945565b60009081526009602052604090205490565b34801561053657600080fd5b5061021b61054536600461289f565b611371565b34801561055657600080fd5b506102bf610565366004612945565b6008602052600090815260409020546001600160a01b031681565b34801561058c57600080fd5b5061021b61059b366004612561565b6113c3565b3480156105ac57600080fd5b5061023261147a565b3480156105c157600080fd5b506101eb6105d0366004612413565b611487565b3480156105e157600080fd5b506102bf6105f0366004612945565b611572565b34801561060157600080fd5b5061021b6106103660046124f9565b6115fc565b34801561062157600080fd5b5061021b6106303660046123f6565b611695565b60006001600160a01b0383166106a65760405162461bcd60e51b815260206004820152602b60248201527f455243313135353a2062616c616e636520717565727920666f7220746865207a60448201526a65726f206164647265737360a81b60648201526084015b60405180910390fd5b506000818152602081815260408083206001600160a01b03861684529091529020545b92915050565b60006001600160e01b03198216636cdb3d1360e11b148061070057506001600160e01b031982166303a24d0760e21b145b806106c957506301ffc9a760e01b6001600160e01b03198316146106c9565b61072761173a565b6001600160a01b031661073861103b565b6001600160a01b03161461075e5760405162461bcd60e51b815260040161069d90612ca0565b61076781611749565b50565b600c805461077790612e16565b80601f01602080910402602001604051908101604052809291908181526020018280546107a390612e16565b80156107f05780601f106107c5576101008083540402835291602001916107f0565b820191906000526020600020905b8154815290600101906020018083116107d357829003601f168201915b505050505081565b60408051606081810183526001600160a01b03881660008181526005602090815290859020548452830152918101869052610836878287878761175c565b61088c5760405162461bcd60e51b815260206004820152602160248201527f5369676e657220616e64207369676e617475726520646f206e6f74206d6174636044820152600d60fb1b606482015260840161069d565b6001600160a01b0387166000908152600560205260409020546108b090600161184c565b6001600160a01b0388166000908152600560205260409081902091909155517f5845892132946850460bff5a0083f71031bc5bf9aadcd40f1de79423eac9b10b9061090090899033908a90612ab2565b60405180910390a1600080306001600160a01b0316888a604051602001610928929190612a6c565b60408051601f198184030181529082905261094291612a50565b6000604051808303816000865af19150503d806000811461097f576040519150601f19603f3d011682016040523d82523d6000602084013e610984565b606091505b5091509150816109d55760405162461bcd60e51b815260206004820152601c60248201527b119d5b98dd1a5bdb8818d85b1b081b9bdd081cdd58d8d95cdcd99d5b60221b604482015260640161069d565b98975050505050505050565b60606109ec82611858565b610a475760405162461bcd60e51b815260206004820152602660248201527f455243313135355472616461626c65237572693a204e4f4e4558495354454e546044820152652faa27a5a2a760d11b606482015260840161069d565b6000828152600a602052604081208054610a6090612e16565b80601f0160208091040260200160405190810160405280929190818152602001828054610a8c90612e16565b8015610ad95780601f10610aae57610100808354040283529160200191610ad9565b820191906000526020600020905b815481529060010190602001808311610abc57829003601f168201915b50505050509050600081511115610b89576000838152600a602052604090208054610b0390612e16565b80601f0160208091040260200160405190810160405280929190818152602001828054610b2f90612e16565b8015610b7c5780601f10610b5157610100808354040283529160200191610b7c565b820191906000526020600020905b815481529060010190602001808311610b5f57829003601f168201915b5050505050915050919050565b610b9283611875565b9392505050565b50919050565b610ba761173a565b6001600160a01b0316856001600160a01b03161480610bcd5750610bcd856105d061173a565b610c345760405162461bcd60e51b815260206004820152603260248201527f455243313135353a207472616e736665722063616c6c6572206973206e6f74206044820152711bdddb995c881b9bdc88185c1c1c9bdd995960721b606482015260840161069d565b610c418585858585611909565b5050505050565b6000610c5261173a565b6001600160a01b0316610c6361103b565b6001600160a01b031614610c895760405162461bcd60e51b815260040161069d90612ca0565b610c9285611858565b15610cda5760405162461bcd60e51b8152602060048201526018602482015277746f6b656e205f696420616c72656164792065786973747360401b604482015260640161069d565b610ce261173a565b600086815260086020526040902080546001600160a01b0319166001600160a01b0392909216919091179055825115610d5c576000858152600a602090815260409091208451610d349286019061225e565b508460008051602061302783398151915284604051610d539190612bb6565b60405180910390a25b610d6886868685611a9e565b5050600b8054600181019091557f0175b7a638427703f0dbe7bb9bbf987a2551717b34e79f33b5b1008d1fa01db90183905550600082815260096020526040902055919050565b81610db861173a565b6000828152600860205260409020546001600160a01b03908116911614610df15760405162461bcd60e51b815260040161069d90612d5e565b6000838152600a602090815260409091208351610e109285019061225e565b508260008051602061302783398151915283604051610e2f9190612bb6565b60405180910390a2505050565b60608151835114610ea15760405162461bcd60e51b815260206004820152602960248201527f455243313135353a206163636f756e747320616e6420696473206c656e677468604482015268040dad2e6dac2e8c6d60bb1b606482015260840161069d565b600083516001600160401b03811115610ebc57610ebc612ebe565b604051908082528060200260200182016040528015610ee5578160200160208202803683370190505b50905060005b8451811015610f5d57610f30858281518110610f0957610f09612ea8565b6020026020010151858381518110610f2357610f23612ea8565b6020026020010151610635565b828281518110610f4257610f42612ea8565b6020908102919091010152610f5681612e77565b9050610eeb565b509392505050565b60006106c982611858565b610f7861173a565b6001600160a01b0316610f8961103b565b6001600160a01b031614610faf5760405162461bcd60e51b815260040161069d90612ca0565b610fb96000611b67565b565b82610fc461173a565b6000828152600860205260409020546001600160a01b03908116911614610ffd5760405162461bcd60e51b815260040161069d90612d5e565b61100985858585611a9e565b600084815260096020526040902054611022908461184c565b6000948552600960205260409094209390935550505050565b6006546001600160a01b031690565b61105261173a565b6001600160a01b031661106361103b565b6001600160a01b0316146110895760405162461bcd60e51b815260040161069d90612ca0565b805161109c90600f90602084019061225e565b5050565b600d805461077790612e16565b816001600160a01b03166110bf61173a565b6001600160a01b031614156111285760405162461bcd60e51b815260206004820152602960248201527f455243313135353a2073657474696e6720617070726f76616c20737461747573604482015268103337b91039b2b63360b91b606482015260840161069d565b806001600061113561173a565b6001600160a01b03908116825260208083019390935260409182016000908120918716808252919093529120805460ff19169215159290921790915561117961173a565b6001600160a01b03167f17307eab39ab6107e8899845ad3d59bd9653f200f220920489ca2b5937696c31836040516111b5911515815260200190565b60405180910390a35050565b60006111cb61173a565b6001600160a01b03166111dc61103b565b6001600160a01b0316146112025760405162461bcd60e51b815260040161069d90612ca0565b6010546040805180820190915260048152630307830360e41b6020820152611239916001600160a01b031690869086908690610c48565b949350505050565b60005b835181101561135e57600084828151811061126157611261612ea8565b6020026020010151905061127361173a565b6000828152600860205260409020546001600160a01b039081169116146112f45760405162461bcd60e51b815260206004820152602f60248201527f455243313135355472616461626c652362617463684d696e743a204f4e4c595f60448201526e10d491505513d497d0531313d5d151608a1b606482015260840161069d565b600084838151811061130857611308612ea8565b6020026020010151905061133881600960008581526020019081526020016000205461184c90919063ffffffff16565b60009283526009602052604090922091909155508061135681612e77565b915050611244565b5061136b84848484611bb9565b50505050565b61137961173a565b6001600160a01b031661138a61103b565b6001600160a01b0316146113b05760405162461bcd60e51b815260040161069d90612ca0565b600e805460ff1916911515919091179055565b6001600160a01b03821661142e5760405162461bcd60e51b815260206004820152602c60248201527f455243313135355472616461626c652373657443726561746f723a20494e564160448201526b2624a22fa0a2222922a9a99760a11b606482015260840161069d565b60005b815181101561147557600082828151811061144e5761144e612ea8565b602002602001015190506114628482611cfd565b508061146d81612e77565b915050611431565b505050565b600f805461077790612e16565b600754600e546000916001600160a01b03169060ff1680156115355750826001600160a01b0316816001600160a01b031663c4552791866040518263ffffffff1660e01b81526004016114da9190612a9e565b60206040518083038186803b1580156114f257600080fd5b505afa158015611506573d6000803e3d6000fd5b505050506040513d601f19601f8201168201806040525081019061152a91906128f4565b6001600160a01b0316145b156115445760019150506106c9565b6001600160a01b0380851660009081526001602090815260408083209387168352929052205460ff16611239565b600061157d82611858565b6115e05760405162461bcd60e51b815260206004820152602e60248201527f455243313135355472616461626c652363726561746f72627949443a204e4f4e60448201526d22ac24a9aa22a72a2faa27a5a2a760911b606482015260840161069d565b506000908152600860205260409020546001600160a01b031690565b61160461173a565b6001600160a01b0316856001600160a01b0316148061162a575061162a856105d061173a565b6116885760405162461bcd60e51b815260206004820152602960248201527f455243313135353a2063616c6c6572206973206e6f74206f776e6572206e6f7260448201526808185c1c1c9bdd995960ba1b606482015260840161069d565b610c418585858585611d6e565b61169d61173a565b6001600160a01b03166116ae61103b565b6001600160a01b0316146116d45760405162461bcd60e51b815260040161069d90612ca0565b61076781611e84565b60003330141561173457600080368080601f0160208091040260200160405190810160405280939291908181526020018383808284376000920191909152505050503601516001600160a01b031691506117379050565b50335b90565b60006117446116dd565b905090565b805161109c90600290602084019061225e565b60006001600160a01b0386166117c25760405162461bcd60e51b815260206004820152602560248201527f4e61746976654d6574615472616e73616374696f6e3a20494e56414c49445f5360448201526424a3a722a960d91b606482015260840161069d565b60016117d56117d087611f31565b611fae565b6040805160008152602081018083529290925260ff851690820152606081018690526080810185905260a0016020604051602081039080840390855afa158015611823573d6000803e3d6000fd5b505050602060405103516001600160a01b0316866001600160a01b031614905095945050505050565b6000610b928284612dd2565b6000908152600860205260409020546001600160a01b0316151590565b60606002805461188490612e16565b80601f01602080910402602001604051908101604052809291908181526020018280546118b090612e16565b80156118fd5780601f106118d2576101008083540402835291602001916118fd565b820191906000526020600020905b8154815290600101906020018083116118e057829003601f168201915b50505050509050919050565b815183511461192a5760405162461bcd60e51b815260040161069d90612cd5565b6001600160a01b0384166119505760405162461bcd60e51b815260040161069d90612c11565b600061195a61173a565b905060005b8451811015611a4257600085828151811061197c5761197c612ea8565b60200260200101519050600085838151811061199a5761199a612ea8565b602090810291909101810151600084815280835260408082206001600160a01b038e1683529093529190912054909150818110156119ea5760405162461bcd60e51b815260040161069d90612c56565b6000838152602081815260408083206001600160a01b038e8116855292528083208585039055908b16825281208054849290611a27908490612dd2565b9250508190555050505080611a3b90612e77565b905061195f565b50846001600160a01b0316866001600160a01b0316826001600160a01b0316600080516020612fa48339815191528787604051611a80929190612b91565b60405180910390a4611a96818787878787611fde565b505050505050565b6001600160a01b038416611ac45760405162461bcd60e51b815260040161069d90612d1d565b6000611ace61173a565b9050611ae981600087611ae088612149565b610c4188612149565b6000848152602081815260408083206001600160a01b038916845290915281208054859290611b19908490612dd2565b909155505060408051858152602081018590526001600160a01b038088169260009291851691600080516020612fc4833981519152910160405180910390a4610c4181600087878787612194565b600680546001600160a01b038381166001600160a01b0319831681179093556040519116919082907f8be0079c531659141344cd1fd0a4f28419497f9722a3daafe3b4186f6b6457e090600090a35050565b6001600160a01b038416611bdf5760405162461bcd60e51b815260040161069d90612d1d565b8151835114611c005760405162461bcd60e51b815260040161069d90612cd5565b6000611c0a61173a565b905060005b8451811015611ca757838181518110611c2a57611c2a612ea8565b6020026020010151600080878481518110611c4757611c47612ea8565b602002602001015181526020019081526020016000206000886001600160a01b03166001600160a01b031681526020019081526020016000206000828254611c8f9190612dd2565b90915550819050611c9f81612e77565b915050611c0f565b50846001600160a01b031660006001600160a01b0316826001600160a01b0316600080516020612fa48339815191528787604051611ce6929190612b91565b60405180910390a4610c4181600087878787611fde565b80611d0661173a565b6000828152600860205260409020546001600160a01b03908116911614611d3f5760405162461bcd60e51b815260040161069d90612d5e565b50600090815260086020526040902080546001600160a01b0319166001600160a01b0392909216919091179055565b6001600160a01b038416611d945760405162461bcd60e51b815260040161069d90612c11565b6000611d9e61173a565b9050611daf818787611ae088612149565b6000848152602081815260408083206001600160a01b038a16845290915290205483811015611df05760405162461bcd60e51b815260040161069d90612c56565b6000858152602081815260408083206001600160a01b038b8116855292528083208785039055908816825281208054869290611e2d908490612dd2565b909155505060408051868152602081018690526001600160a01b03808916928a82169291861691600080516020612fc4833981519152910160405180910390a4611e7b828888888888612194565b50505050505050565b611e8c61173a565b6001600160a01b0316611e9d61103b565b6001600160a01b031614611ec35760405162461bcd60e51b815260040161069d90612ca0565b6001600160a01b038116611f285760405162461bcd60e51b815260206004820152602660248201527f4f776e61626c653a206e6577206f776e657220697320746865207a65726f206160448201526564647265737360d01b606482015260840161069d565b61076781611b67565b6000604051806080016040528060438152602001612fe46043913980516020918201208351848301516040808701518051908601209051611f91950193845260208401929092526001600160a01b03166040830152606082015260800190565b604051602081830303815290604052805190602001209050919050565b6000611fb960045490565b60405161190160f01b6020820152602281019190915260428101839052606201611f91565b6001600160a01b0384163b15611a965760405163bc197c8160e01b81526001600160a01b0385169063bc197c81906120229089908990889088908890600401612ae7565b602060405180830381600087803b15801561203c57600080fd5b505af192505050801561206c575060408051601f3d908101601f19168201909252612069918101906128d7565b60015b61211957612078612ed4565b806308c379a014156120b2575061208d612eef565b8061209857506120b4565b8060405162461bcd60e51b815260040161069d9190612bb6565b505b60405162461bcd60e51b815260206004820152603460248201527f455243313135353a207472616e7366657220746f206e6f6e20455243313135356044820152732932b1b2b4bb32b91034b6b83632b6b2b73a32b960611b606482015260840161069d565b6001600160e01b0319811663bc197c8160e01b14611e7b5760405162461bcd60e51b815260040161069d90612bc9565b6040805160018082528183019092526060916000919060208083019080368337019050509050828160008151811061218357612183612ea8565b602090810291909101015292915050565b6001600160a01b0384163b15611a965760405163f23a6e6160e01b81526001600160a01b0385169063f23a6e61906121d89089908990889088908890600401612b39565b602060405180830381600087803b1580156121f257600080fd5b505af1925050508015612222575060408051601f3d908101601f1916820190925261221f918101906128d7565b60015b61222e57612078612ed4565b6001600160e01b0319811663f23a6e6160e01b14611e7b5760405162461bcd60e51b815260040161069d90612bc9565b82805461226a90612e16565b90600052602060002090601f01602090048101928261228c57600085556122d2565b82601f106122a557805160ff19168380011785556122d2565b828001600101855582156122d2579182015b828111156122d25782518255916020019190600101906122b7565b506122de9291506122e2565b5090565b5b808211156122de57600081556001016122e3565b600082601f83011261230857600080fd5b8135602061231582612daf565b6040516123228282612e4b565b8381528281019150858301600585901b8701840188101561234257600080fd5b60005b8581101561236157813584529284019290840190600101612345565b5090979650505050505050565b8035801515811461237e57600080fd5b919050565b600082601f83011261239457600080fd5b81356001600160401b038111156123ad576123ad612ebe565b6040516123c4601f8301601f191660200182612e4b565b8181528460208386010111156123d957600080fd5b816020850160208301376000918101602001919091529392505050565b60006020828403121561240857600080fd5b8135610b9281612f78565b6000806040838503121561242657600080fd5b823561243181612f78565b9150602083013561244181612f78565b809150509250929050565b600080600080600060a0868803121561246457600080fd5b853561246f81612f78565b9450602086013561247f81612f78565b935060408601356001600160401b038082111561249b57600080fd5b6124a789838a016122f7565b945060608801359150808211156124bd57600080fd5b6124c989838a016122f7565b935060808801359150808211156124df57600080fd5b506124ec88828901612383565b9150509295509295909350565b600080600080600060a0868803121561251157600080fd5b853561251c81612f78565b9450602086013561252c81612f78565b9350604086013592506060860135915060808601356001600160401b0381111561255557600080fd5b6124ec88828901612383565b6000806040838503121561257457600080fd5b823561257f81612f78565b915060208301356001600160401b0381111561259a57600080fd5b6125a6858286016122f7565b9150509250929050565b600080600080608085870312156125c657600080fd5b84356125d181612f78565b935060208501356001600160401b03808211156125ed57600080fd5b6125f9888389016122f7565b9450604087013591508082111561260f57600080fd5b61261b888389016122f7565b9350606087013591508082111561263157600080fd5b5061263e87828801612383565b91505092959194509250565b6000806040838503121561265d57600080fd5b823561266881612f78565b91506126766020840161236e565b90509250929050565b600080600080600060a0868803121561269757600080fd5b85356126a281612f78565b945060208601356001600160401b038111156126bd57600080fd5b6126c988828901612383565b9450506040860135925060608601359150608086013560ff811681146126ee57600080fd5b809150509295509295909350565b6000806040838503121561270f57600080fd5b823561271a81612f78565b946020939093013593505050565b6000806000806080858703121561273e57600080fd5b843561274981612f78565b9350602085013592506040850135915060608501356001600160401b0381111561277257600080fd5b61263e87828801612383565b600080600080600060a0868803121561279657600080fd5b85356127a181612f78565b9450602086013593506040860135925060608601356001600160401b03808211156127cb57600080fd5b6124c989838a01612383565b600080604083850312156127ea57600080fd5b82356001600160401b038082111561280157600080fd5b818501915085601f83011261281557600080fd5b8135602061282282612daf565b60405161282f8282612e4b565b8381528281019150858301600585901b870184018b101561284f57600080fd5b600096505b8487101561287b57803561286781612f78565b835260019690960195918301918301612854565b509650508601359250508082111561289257600080fd5b506125a6858286016122f7565b6000602082840312156128b157600080fd5b610b928261236e565b6000602082840312156128cc57600080fd5b8135610b9281612f8d565b6000602082840312156128e957600080fd5b8151610b9281612f8d565b60006020828403121561290657600080fd5b8151610b9281612f78565b60006020828403121561292357600080fd5b81356001600160401b0381111561293957600080fd5b61123984828501612383565b60006020828403121561295757600080fd5b5035919050565b6000806040838503121561297157600080fd5b8235915060208301356001600160401b0381111561298e57600080fd5b6125a685828601612383565b6000806000606084860312156129af57600080fd5b833592506020840135915060408401356001600160401b038111156129d357600080fd5b6129df86828701612383565b9150509250925092565b600081518084526020808501945080840160005b83811015612a19578151875295820195908201906001016129fd565b509495945050505050565b60008151808452612a3c816020860160208601612dea565b601f01601f19169290920160200192915050565b60008251612a62818460208701612dea565b9190910192915050565b60008351612a7e818460208801612dea565b60609390931b6001600160601b0319169190920190815260140192915050565b6001600160a01b0391909116815260200190565b6001600160a01b03848116825283166020820152606060408201819052600090612ade90830184612a24565b95945050505050565b6001600160a01b0386811682528516602082015260a060408201819052600090612b13908301866129e9565b8281036060840152612b2581866129e9565b905082810360808401526109d58185612a24565b6001600160a01b03868116825285166020820152604081018490526060810183905260a060808201819052600090612b7390830184612a24565b979650505050505050565b602081526000610b9260208301846129e9565b604081526000612ba460408301856129e9565b8281036020840152612ade81856129e9565b602081526000610b926020830184612a24565b60208082526028908201527f455243313135353a204552433131353552656365697665722072656a656374656040820152676420746f6b656e7360c01b606082015260800190565b60208082526025908201527f455243313135353a207472616e7366657220746f20746865207a65726f206164604082015264647265737360d81b606082015260800190565b6020808252602a908201527f455243313135353a20696e73756666696369656e742062616c616e636520666f60408201526939103a3930b739b332b960b11b606082015260800190565b6020808252818101527f4f776e61626c653a2063616c6c6572206973206e6f7420746865206f776e6572604082015260600190565b60208082526028908201527f455243313135353a2069647320616e6420616d6f756e7473206c656e677468206040820152670dad2e6dac2e8c6d60c31b606082015260800190565b60208082526021908201527f455243313135353a206d696e7420746f20746865207a65726f206164647265736040820152607360f81b606082015260800190565b60208082526031908201527f455243313135355472616461626c652363726561746f724f6e6c793a204f4e4c6040820152701657d0d491505513d497d0531313d5d151607a1b606082015260800190565b60006001600160401b03821115612dc857612dc8612ebe565b5060051b60200190565b60008219821115612de557612de5612e92565b500190565b60005b83811015612e05578181015183820152602001612ded565b8381111561136b5750506000910152565b600181811c90821680612e2a57607f821691505b60208210811415610b9957634e487b7160e01b600052602260045260246000fd5b601f8201601f191681016001600160401b0381118282101715612e7057612e70612ebe565b6040525050565b6000600019821415612e8b57612e8b612e92565b5060010190565b634e487b7160e01b600052601160045260246000fd5b634e487b7160e01b600052603260045260246000fd5b634e487b7160e01b600052604160045260246000fd5b600060033d11156117375760046000803e5060005160e01c90565b600060443d1015612efd5790565b6040516003193d81016004833e81513d6001600160401b038083116024840183101715612f2c57505050505090565b8285019150815181811115612f445750505050505090565b843d8701016020828501011115612f5e5750505050505090565b612f6d60208286010187612e4b565b509095945050505050565b6001600160a01b038116811461076757600080fd5b6001600160e01b03198116811461076757600080fdfe4a39dc06d4c0dbc64b70af90fd698a233a518aa5d07e595d983b8c0526c8f7fbc3d58168c5ae7397731d063d5bbf3d657854427343f4c083240f7aacaa2d0f624d6574615472616e73616374696f6e2875696e74323536206e6f6e63652c616464726573732066726f6d2c62797465732066756e6374696f6e5369676e6174757265296bb7ff708619ba0610cba295a58592e0451dee2622938c8755667688daf3529ba264697066735822122056816742f1848fbf8dec3b92b1e2140bc513e92a7e9474f53bd2b70dcdfe481664736f6c63430008070033454950373132446f6d61696e28737472696e67206e616d652c737472696e672076657273696f6e2c6164647265737320766572696679696e67436f6e74726163742c627974657333322073616c742968747470733a2f2f6275696c64696e67732d6170692e6f70656e7365612e696f2f636f6e74726163742f6f70656e7365612d65726331313535",
  "immutableReferences": {},
  "source": "// SPDX-License-Identifier: MIT\r\n\r\npragma solidity ^0.8.0;\r\n\r\nimport \"../ERC1155Tradable.sol\";\r\n\r\n/**\r\n * @title Material\r\n * Material - a contract for Building Accessory semi-fungible tokens.\r\n */\r\ncontract BuildingResource is ERC1155Tradable {\r\n    string public contractURI =\"https://buildings-api.opensea.io/contract/opensea-erc1155\";\r\n    address public tokenPool;\r\n    constructor(\r\n        string memory _name,\r\n        string memory _symbol,\r\n        string memory _uri,\r\n        address _proxyRegistryAddress)\r\n        ERC1155Tradable(\r\n            _name,\r\n            _symbol,\r\n            _uri,\r\n            _proxyRegistryAddress\r\n        ) {\r\n            tokenPool = msgSender();\r\n        }\r\n\r\n    function setContractURI(string memory _contractURI) public onlyOwner {\r\n        contractURI = _contractURI;\r\n    }\r\n    function createResource(\r\n        uint256 _id,\r\n        uint256 _initialSupply,\r\n        string memory _uri\r\n        ) public onlyOwner returns (uint256) {\r\n        return create(tokenPool, _id, _initialSupply, _uri, \"0x00\");\r\n    }\r\n    function transferOwnership(address _newOwner) public override onlyOwner {\r\n        // for(uint256 i = 0 ; i< tpIds.length ; i++) {\r\n        //     uint256 _id = tpIds[i];\r\n        //     creators[_id] = _newOwner;\r\n        // }\r\n        Ownable.transferOwnership(_newOwner);\r\n    }\r\n}\r\n",
  "sourcePath": "D:\\04_Work\\001\\NFT_presale\\smart_contract\\contracts\\presale\\BuildingResource.sol",
  "compiler": {
    "name": "solc",
    "version": "0.8.7+commit.e28d00a7.Emscripten.clang"
  },
  "schemaVersion": "3.4.3",
  "updatedAt": "2021-10-19T18:58:35.285Z",
  "networkType": "ethereum",
  "devdoc": {
    "kind": "dev",
    "methods": {
      "balanceOf(address,uint256)": {
        "details": "See {IERC1155-balanceOf}. Requirements: - `account` cannot be the zero address."
      },
      "balanceOfBatch(address[],uint256[])": {
        "details": "See {IERC1155-balanceOfBatch}. Requirements: - `accounts` and `ids` must have the same length."
      },
      "batchMint(address,uint256[],uint256[],bytes)": {
        "details": "Mint tokens for each id in _ids",
        "params": {
          "_data": "Data to pass if receiver is contract",
          "_ids": "Array of ids to mint",
          "_quantities": "Array of amounts of tokens to mint per id",
          "_to": "The address to mint tokens to"
        }
      },
      "create(address,uint256,uint256,string,bytes)": {
        "details": "Creates a new token type and assigns _initialSupply to an address NOTE: remove onlyOwner if you want third parties to create new tokens on       your contract (which may change your IDs) NOTE: The token id must be passed. This allows lazy creation of tokens or       creating NFTs by setting the id's high bits with the method       described in ERC1155 or to use ids representing values other than       successive small integers. If you wish to create ids as successive       small integers you can either subclass this class to count onchain       or maintain the offchain cache of identifiers recommended in       ERC1155 and calculate successive ids from that.",
        "params": {
          "_data": "Data to pass if receiver is contract",
          "_id": "The id of the token to create (must not currenty exist).",
          "_initialOwner": "address of the first owner of the token",
          "_initialSupply": "amount to supply the first owner",
          "_uri": "Optional URI for this token type"
        },
        "returns": {
          "_0": "The newly created token ID"
        }
      },
      "mint(address,uint256,uint256,bytes)": {
        "details": "Mints some amount of tokens to an address",
        "params": {
          "_data": "Data to pass if receiver is contract",
          "_id": "Token ID to mint",
          "_quantity": "Amount of tokens to mint",
          "_to": "Address of the future owner of the token"
        }
      },
      "owner()": {
        "details": "Returns the address of the current owner."
      },
      "renounceOwnership()": {
        "details": "Leaves the contract without owner. It will not be possible to call `onlyOwner` functions anymore. Can only be called by the current owner. NOTE: Renouncing ownership will leave the contract without an owner, thereby removing any functionality that is only available to the owner."
      },
      "safeBatchTransferFrom(address,address,uint256[],uint256[],bytes)": {
        "details": "See {IERC1155-safeBatchTransferFrom}."
      },
      "safeTransferFrom(address,address,uint256,uint256,bytes)": {
        "details": "See {IERC1155-safeTransferFrom}."
      },
      "setApprovalForAll(address,bool)": {
        "details": "See {IERC1155-setApprovalForAll}."
      },
      "setCreator(address,uint256[])": {
        "details": "Change the creator address for given tokens",
        "params": {
          "_ids": "Array of Token IDs to change creator",
          "_to": "Address of the new creator"
        }
      },
      "setCustomURI(uint256,string)": {
        "details": "Will update the base URI for the token",
        "params": {
          "_newURI": "New URI for the token.",
          "_tokenId": "The token to update. _msgSender() must be its creator."
        }
      },
      "setURI(string)": {
        "details": "Sets a new URI for all token types, by relying on the token type ID substitution mechanism https://eips.ethereum.org/EIPS/eip-1155#metadata[defined in the EIP].",
        "params": {
          "_newURI": "New URI for all tokens"
        }
      },
      "supportsInterface(bytes4)": {
        "details": "See {IERC165-supportsInterface}."
      },
      "totalSupply(uint256)": {
        "details": "Returns the total quantity for a token ID",
        "params": {
          "_id": "uint256 ID of the token to query"
        },
        "returns": {
          "_0": "amount of token in existence"
        }
      }
    },
    "title": "Material Material - a contract for Building Accessory semi-fungible tokens.",
    "version": 1
  },
  "userdoc": {
    "kind": "user",
    "methods": {
      "isApprovedForAll(address,address)": {
        "notice": "Override isApprovedForAll to whitelist user's OpenSea proxy accounts to enable gas-free listings."
      }
    },
    "version": 1
  }
}