{
  "contractName": "BuildingResourceProvider",
  "abi": [
    {
      "inputs": [
        {
          "internalType": "address",
          "name": "_proxyRegistryAddress",
          "type": "address"
        },
        {
          "internalType": "address",
          "name": "_nftAddress",
          "type": "address"
        },
        {
          "internalType": "address",
          "name": "_lootBoxAddress",
          "type": "address"
        }
      ],
      "stateMutability": "nonpayable",
      "type": "constructor"
    },
    {
      "anonymous": false,
      "inputs": [
        {
          "indexed": true,
          "internalType": "address",
          "name": "previousOwner",
          "type": "address"
        },
        {
          "indexed": true,
          "internalType": "address",
          "name": "newOwner",
          "type": "address"
        }
      ],
      "name": "OwnershipTransferred",
      "type": "event"
    },
    {
      "inputs": [],
      "name": "baseMetadataURI",
      "outputs": [
        {
          "internalType": "string",
          "name": "",
          "type": "string"
        }
      ],
      "stateMutability": "view",
      "type": "function",
      "constant": true
    },
    {
      "inputs": [],
      "name": "deployer",
      "outputs": [
        {
          "internalType": "address",
          "name": "",
          "type": "address"
        }
      ],
      "stateMutability": "view",
      "type": "function",
      "constant": true
    },
    {
      "inputs": [],
      "name": "isProxyUseForLive",
      "outputs": [
        {
          "internalType": "bool",
          "name": "",
          "type": "bool"
        }
      ],
      "stateMutability": "view",
      "type": "function",
      "constant": true
    },
    {
      "inputs": [],
      "name": "locked",
      "outputs": [
        {
          "internalType": "bool",
          "name": "",
          "type": "bool"
        }
      ],
      "stateMutability": "view",
      "type": "function",
      "constant": true
    },
    {
      "inputs": [
        {
          "internalType": "uint256",
          "name": "",
          "type": "uint256"
        }
      ],
      "name": "maxSupplies",
      "outputs": [
        {
          "internalType": "uint256",
          "name": "",
          "type": "uint256"
        }
      ],
      "stateMutability": "view",
      "type": "function",
      "constant": true
    },
    {
      "inputs": [],
      "name": "nftAddress",
      "outputs": [
        {
          "internalType": "address",
          "name": "",
          "type": "address"
        }
      ],
      "stateMutability": "view",
      "type": "function",
      "constant": true
    },
    {
      "inputs": [],
      "name": "owner",
      "outputs": [
        {
          "internalType": "address",
          "name": "",
          "type": "address"
        }
      ],
      "stateMutability": "view",
      "type": "function",
      "constant": true
    },
    {
      "inputs": [],
      "name": "presaleLive",
      "outputs": [
        {
          "internalType": "bool",
          "name": "",
          "type": "bool"
        }
      ],
      "stateMutability": "view",
      "type": "function",
      "constant": true
    },
    {
      "inputs": [
        {
          "internalType": "uint256",
          "name": "",
          "type": "uint256"
        }
      ],
      "name": "presalePurchaseLimit",
      "outputs": [
        {
          "internalType": "uint256",
          "name": "",
          "type": "uint256"
        }
      ],
      "stateMutability": "view",
      "type": "function",
      "constant": true
    },
    {
      "inputs": [
        {
          "internalType": "uint256",
          "name": "",
          "type": "uint256"
        },
        {
          "internalType": "address",
          "name": "",
          "type": "address"
        }
      ],
      "name": "presalerListPurchases",
      "outputs": [
        {
          "internalType": "uint256",
          "name": "",
          "type": "uint256"
        }
      ],
      "stateMutability": "view",
      "type": "function",
      "constant": true
    },
    {
      "inputs": [
        {
          "internalType": "uint256",
          "name": "",
          "type": "uint256"
        }
      ],
      "name": "prices",
      "outputs": [
        {
          "internalType": "uint256",
          "name": "",
          "type": "uint256"
        }
      ],
      "stateMutability": "view",
      "type": "function",
      "constant": true
    },
    {
      "inputs": [],
      "name": "renounceOwnership",
      "outputs": [],
      "stateMutability": "nonpayable",
      "type": "function"
    },
    {
      "inputs": [],
      "name": "saleLive",
      "outputs": [
        {
          "internalType": "bool",
          "name": "",
          "type": "bool"
        }
      ],
      "stateMutability": "view",
      "type": "function",
      "constant": true
    },
    {
      "inputs": [
        {
          "internalType": "address",
          "name": "newOwner",
          "type": "address"
        }
      ],
      "name": "transferOwnership",
      "outputs": [],
      "stateMutability": "nonpayable",
      "type": "function"
    },
    {
      "inputs": [
        {
          "internalType": "uint256",
          "name": "_option",
          "type": "uint256"
        },
        {
          "internalType": "uint256",
          "name": "_value",
          "type": "uint256"
        }
      ],
      "name": "setPurchaseLimit",
      "outputs": [],
      "stateMutability": "nonpayable",
      "type": "function"
    },
    {
      "inputs": [
        {
          "internalType": "uint256",
          "name": "_option",
          "type": "uint256"
        },
        {
          "internalType": "uint256",
          "name": "_value",
          "type": "uint256"
        }
      ],
      "name": "setPrice",
      "outputs": [],
      "stateMutability": "nonpayable",
      "type": "function"
    },
    {
      "inputs": [],
      "name": "name",
      "outputs": [
        {
          "internalType": "string",
          "name": "",
          "type": "string"
        }
      ],
      "stateMutability": "pure",
      "type": "function",
      "constant": true
    },
    {
      "inputs": [],
      "name": "symbol",
      "outputs": [
        {
          "internalType": "string",
          "name": "",
          "type": "string"
        }
      ],
      "stateMutability": "pure",
      "type": "function",
      "constant": true
    },
    {
      "inputs": [],
      "name": "supportsProviderInterface",
      "outputs": [
        {
          "internalType": "bool",
          "name": "",
          "type": "bool"
        }
      ],
      "stateMutability": "pure",
      "type": "function",
      "constant": true
    },
    {
      "inputs": [],
      "name": "providerSchemaName",
      "outputs": [
        {
          "internalType": "string",
          "name": "",
          "type": "string"
        }
      ],
      "stateMutability": "pure",
      "type": "function",
      "constant": true
    },
    {
      "inputs": [],
      "name": "numOptions",
      "outputs": [
        {
          "internalType": "uint256",
          "name": "",
          "type": "uint256"
        }
      ],
      "stateMutability": "pure",
      "type": "function",
      "constant": true
    },
    {
      "inputs": [
        {
          "internalType": "uint256",
          "name": "_optionId",
          "type": "uint256"
        }
      ],
      "name": "uri",
      "outputs": [
        {
          "internalType": "string",
          "name": "",
          "type": "string"
        }
      ],
      "stateMutability": "view",
      "type": "function",
      "constant": true
    },
    {
      "inputs": [
        {
          "internalType": "uint256",
          "name": "_option",
          "type": "uint256"
        },
        {
          "internalType": "uint256",
          "name": "tokenQuantity",
          "type": "uint256"
        },
        {
          "internalType": "bytes",
          "name": "_data",
          "type": "bytes"
        }
      ],
      "name": "presaleBuy",
      "outputs": [],
      "stateMutability": "payable",
      "type": "function",
      "payable": true
    },
    {
      "inputs": [
        {
          "internalType": "uint256[]",
          "name": "_ids",
          "type": "uint256[]"
        },
        {
          "internalType": "uint256[]",
          "name": "_quantities",
          "type": "uint256[]"
        },
        {
          "internalType": "bytes",
          "name": "_data",
          "type": "bytes"
        }
      ],
      "name": "presaleBuyBatch",
      "outputs": [],
      "stateMutability": "payable",
      "type": "function",
      "payable": true
    },
    {
      "inputs": [
        {
          "internalType": "string",
          "name": "_uri",
          "type": "string"
        }
      ],
      "name": "setBaseMetadataURI",
      "outputs": [],
      "stateMutability": "nonpayable",
      "type": "function"
    },
    {
      "inputs": [
        {
          "internalType": "bool",
          "name": "_bUse",
          "type": "bool"
        }
      ],
      "name": "setProxyUseForLive",
      "outputs": [],
      "stateMutability": "nonpayable",
      "type": "function"
    },
    {
      "inputs": [],
      "name": "toggleLockedStatus",
      "outputs": [],
      "stateMutability": "nonpayable",
      "type": "function"
    },
    {
      "inputs": [],
      "name": "togglePresaleStatus",
      "outputs": [],
      "stateMutability": "nonpayable",
      "type": "function"
    },
    {
      "inputs": [],
      "name": "toggleSaleStatus",
      "outputs": [],
      "stateMutability": "nonpayable",
      "type": "function"
    },
    {
      "inputs": [],
      "name": "withdraw",
      "outputs": [],
      "stateMutability": "payable",
      "type": "function",
      "payable": true
    }
  ],
  "bytecode": "0x610100604052602560a0818152906200259f60c03980516200002a91600b9160209091019062000800565b50600c805460ff191690553480156200004257600080fd5b50604051620025c4380380620025c48339810160408190526200006591620008c3565b6200007033620007b0565b6001808055600880546001600160a01b038087166001600160a01b031992831617835560098054878316908416179055600a8054918616919092161781556004805461ffff19169093179092556105787fe90b7bceb6e7df5418fb78d8ee546e97c83a08bbccc01a0644d599ccd2a7c2e0556104b07f679795a0195a1b76cdebb7c51d74e058aee92919b8c3389af86ef24535e8a28c556103e87f88601476d11616a71c5be67555bd1dff4b1cbf21533d2669b768b61518cfe1c3556103207fee60d0579bcffd98e668647d59fec1ff86a7fb340ce572e844f234ae73a6918f556102587fb98b78633099fa36ed8b8680c4f8092689e1e04080eb9cbb077ca38a14d7e3848190556706f05b59d3b200007fa15bc60c955c405d20d9149c709e2460f1c2d9a497496a7f46004d1772c3054c55670a688906bd8b00007fc3a24b0501bd2c13a7e57f2db4369ec4c223447539fc0724a9d55ac4a06ebd4d55670de0b6b3a76400007fcbc4e5fb02c3d1de23a9f1e014b4d2ee5aeaea9505df5e855c9210bf472495af55671158e460913d00007f83ec6a1f0257b830b5e016457c9cf1435391bf56cc98f369a58a54fe93772465556714d1120d7b1600007f405aad32e1adbac89bb7f176e338b8fc6e994ca210c9bb7bdca249b46594225055600e7f3e5fec24aa4dc4e5aee2e025e51e1392c72a2500577559fae9665c6d52bd6a3155600c7f8819ef417987f8ae7a81f42cdfb18815282fe989326fbff903d13cf0e03ace29557f75f96ab15d697e93042dc45b5c896c4b27e89bb6eaf39475c5c371cb2513f7d2929092557fc5069e24aaadb2addc3e52e868fcf3f4f8acf5a87e24300992fd4540c2a87eed5560067fbfd358e93f18da3ed276c3afdbdba00b8f0b6008a03476a6a86bd6320ee6938b819055617d007f59dd4b18488d12f51eda69757a0ed42a2010c14b564330cc74a06895e60c077b556175307facd8ef244210bb6898e73c48bf820ed8ecc857a3bab8d79c10e4fa92b1e9ca6555614e207f3a5ea591190eeb3f8fcdced843c78df04ec0dfd42f5510375207515664fa0a75556161a87ff85cc6ffc513dc6cf7d199ef87b7a63cf9defe62251c1c247cd12f1eec7bff2955612ee07fd3604db978f6137b0d18816b77b2ce810487a3af08a922e0b184963be5f3adfc5566b1a2bc2ec500007fc69056f16cbaa3c616b828e333ab7d3a32310765507f8f58359e99ebb7a885f381905566efcee47256c0007ff2c49132ed1cee2a7e75bde50d332a2f81f1d01e5456d8a19d1df09bd561dbd25567010a741a462780007f85aaa47b6dc46495bb8824fad4583769726fea36efd831a35556690b830a8fbe556701351609ff7580007f8a8dc4e5242ea8b1ab1d60606dae757e6c2cca9f92a2cced9f72c19960bcb4585567016345785d8a00007f9dcb9783ba5cd0b54745f65f4f918525e461e91888c334e5342cb380ac558d53556101407f697b2bd7bb2984c4e0dc14c79c987d37818484a62958b9c45a0e8b962f20650f5561012c7f4ced6d0d36392b04cc5d8761b1327b3bbba6e1089c77f60a9a9ca18e05e4f00e5560c87fb8d683c9d414f481826f3e7fe14b3ac6ae8c73450778287390c4bb8cb9f2e80b5560fa7fca4d0c6c94a9477136dd41a99cc19ecbe441c8f6609efe7c6fa65be007a473235560787f4da38fc8e544afc56a4c2a17752b8ddb67d8e23ac4583c9029d2e2d1dbe6c9885562036ee87fab9952baf6478d8cfb7253ce86a6c53a7b7549582c76210b1581ae682b7e556f556201fbd07fbd814762a7e35d5c162a7570d14baa68bd622cabb1ad83d40dd70f8a88aa67c055620124f87feb5d92aa5b18af35c2d0c0d14a538792cf1a66aa06ab9dae49d32446e9063ca155619c407f20de3dd312970f46a1d560f6c70f0e5bd10e638b9bb3836368f28838c607ea3e5561ea607f0353061a88c0592f32d7468be32ff6e5e91e49a3ea3ffb3c4fbe417c36501ba255662386f26fc100007f2d72af3c1b2b2956e6f694fb741556d5ca9524373974378cdbec16afa8b841645566470de4df8200007fd56a60595ebefebed7f22dcee6c2acc61b06cf8c68e84c88677840365d1ff92b55666a94d74f4300007fa8f2d96126c6d0ad63adabaef7bf5cf47f163fb0c218a473d28f62312d197bcf557fd6ebcc64c739277b117ce359e436534b234b76e914c80ad276abf5b5620789395566f8b0a10e4700007ff60b7f6a315ec68a6ac240e69dca53652b38627f709a2caa217d9e18af4d7a60556020526108ca7f85291c2e7881182c13e19eca9b58927ebfdc2c5d04882018eeb33d8241d35711556105147f0b94fa1b86997cc1f1148bfbe25b674e8cefc7cc6f976aa8d7c7966bd4cca347556102ee7f248457bacb20e239ae314d8db91c0f270e453c28ee138c84f97aea6cfcf9a499556101907faca6cdb4b5fe0ec50731a73f714dd191dc1911bfeb3f9eeb9e94ed0f6065ef8d55600f6000527ff130046d53bc87538ab17e4752ba5f5082985eecc06ccb932c5a55e8242dd50255620007963390565b60601b6001600160601b031916608052506200094a915050565b600080546001600160a01b038381166001600160a01b0319831681178455604051919092169283917f8be0079c531659141344cd1fd0a4f28419497f9722a3daafe3b4186f6b6457e09190a35050565b8280546200080e906200090d565b90600052602060002090601f0160209004810192826200083257600085556200087d565b82601f106200084d57805160ff19168380011785556200087d565b828001600101855582156200087d579182015b828111156200087d57825182559160200191906001019062000860565b506200088b9291506200088f565b5090565b5b808211156200088b576000815560010162000890565b80516001600160a01b0381168114620008be57600080fd5b919050565b600080600060608486031215620008d957600080fd5b620008e484620008a6565b9250620008f460208501620008a6565b91506200090460408501620008a6565b90509250925092565b600181811c908216806200092257607f821691505b602082108114156200094457634e487b7160e01b600052602260045260246000fd5b50919050565b60805160601c611c366200096960003960006104a30152611c366000f3fe60806040526004361061015d5760003560e01c8063049c5c4914610162578063057536ae1461017957806306fdde03146101c45780630e89341c1461020757806323ab9455146102275780632ea53e72146102575780633ccfd60b1461026c57806347841056146102745780634b97aed914610294578063530ed694146102a85780635b2bd79e146102bb5780635bf8633a146102d05780636105671614610308578063715018a61461032257806371b2164d146103375780637bffb4ce146103645780637e518ec81461037957806383a9e0491461039957806387962dcc146103b35780638da5cb5b146103e057806395d89b41146103f5578063bc31c1c114610424578063c5df056a14610451578063cf30901214610471578063d5f3948814610491578063e081b781146104c5578063e59f61a9146104e4578063f2fde38b146104f7578063f7d9757714610517578063fefd229d14610537575b600080fd5b34801561016e57600080fd5b50610177610557565b005b34801561018557600080fd5b506101b16101943660046116bf565b600560209081526000928352604080842090915290825290205481565b6040519081526020015b60405180910390f35b3480156101d057600080fd5b506040805180820190915260118152704d6174657269616c205072652d53616c6560781b60208201525b6040516101bb919061191a565b34801561021357600080fd5b506101fa61022236600461168d565b6105d1565b34801561023357600080fd5b506040805180820190915260078152664552433131353560c81b60208201526101fa565b34801561026357600080fd5b50610177610605565b610177610678565b34801561028057600080fd5b5060015b60405190151581526020016101bb565b3480156102a057600080fd5b50600f6101b1565b6101776102b6366004611711565b6106fb565b3480156102c757600080fd5b506101fa610771565b3480156102dc57600080fd5b506009546102f0906001600160a01b031681565b6040516001600160a01b0390911681526020016101bb565b34801561031457600080fd5b50600c546102849060ff1681565b34801561032e57600080fd5b506101776107ff565b34801561034357600080fd5b506101b161035236600461168d565b60066020526000908152604090205481565b34801561037057600080fd5b5061017761083a565b34801561038557600080fd5b50610177610394366004611645565b6108a2565b3480156103a557600080fd5b506004546102849060ff1681565b3480156103bf57600080fd5b506101b16103ce36600461168d565b60026020526000908152604090205481565b3480156103ec57600080fd5b506102f06108e8565b34801561040157600080fd5b50604080518082019091526006815265118d5353919560d21b60208201526101fa565b34801561043057600080fd5b506101b161043f36600461168d565b60036020526000908152604090205481565b34801561045d57600080fd5b5061017761046c366004611623565b6108f7565b34801561047d57600080fd5b506004546102849062010000900460ff1681565b34801561049d57600080fd5b506102f07f000000000000000000000000000000000000000000000000000000000000000081565b3480156104d157600080fd5b5060045461028490610100900460ff1681565b6101776104f236600461159c565b610939565b34801561050357600080fd5b50610177610512366004611562565b610a20565b34801561052357600080fd5b506101776105323660046116ef565b610abd565b34801561054357600080fd5b506101776105523660046116ef565b610b2d565b336105606108e8565b6001600160a01b0316148061058f5750600a546001600160a01b03166105846108e8565b6001600160a01b0316145b6105b45760405162461bcd60e51b81526004016105ab906119ab565b60405180910390fd5b6004805461ff001981166101009182900460ff1615909102179055565b6060600b6105de83610b9d565b6040516020016105ef9291906117d9565b6040516020818303038152906040529050919050565b3361060e6108e8565b6001600160a01b0316148061063d5750600a546001600160a01b03166106326108e8565b6001600160a01b0316145b6106595760405162461bcd60e51b81526004016105ab906119ab565b6004805462ff0000198116620100009182900460ff1615909102179055565b336106816108e8565b6001600160a01b031614806106b05750600a546001600160a01b03166106a56108e8565b6001600160a01b0316145b6106cc5760405162461bcd60e51b81526004016105ab906119ab565b60405133904780156108fc02916000818181858888f193505050501580156106f8573d6000803e3d6000fd5b50565b6002600154141561071e5760405162461bcd60e51b81526004016105ab90611a06565b6002600155600083815260036020526040902054349061073f908490611ac3565b111561075d5760405162461bcd60e51b81526004016105ab90611a3d565b610768838383610ca2565b50506001805550565b600b805461077e90611b29565b80601f01602080910402602001604051908101604052809291908181526020018280546107aa90611b29565b80156107f75780601f106107cc576101008083540402835291602001916107f7565b820191906000526020600020905b8154815290600101906020018083116107da57829003601f168201915b505050505081565b336108086108e8565b6001600160a01b03161461082e5760405162461bcd60e51b81526004016105ab906119ab565b6108386000610eaf565b565b336108436108e8565b6001600160a01b031614806108725750600a546001600160a01b03166108676108e8565b6001600160a01b0316145b61088e5760405162461bcd60e51b81526004016105ab906119ab565b6004805460ff19811660ff90911615179055565b336108ab6108e8565b6001600160a01b0316146108d15760405162461bcd60e51b81526004016105ab906119ab565b80516108e490600b9060208401906113c6565b5050565b6000546001600160a01b031690565b336109006108e8565b6001600160a01b0316146109265760405162461bcd60e51b81526004016105ab906119ab565b600c805460ff1916911515919091179055565b6002600154141561095c5760405162461bcd60e51b81526004016105ab90611a06565b60026001556000805b84518110156109ea57600085828151811061098257610982611bbf565b6020026020010151905060008583815181106109a0576109a0611bbf565b602002602001015190508060036000848152602001908152602001600020546109c99190611ac3565b6109d39085611a97565b9350505080806109e290611b64565b915050610965565b5034811115610a0b5760405162461bcd60e51b81526004016105ab90611a3d565b610a16848484610eff565b5050600180555050565b33610a296108e8565b6001600160a01b031614610a4f5760405162461bcd60e51b81526004016105ab906119ab565b6001600160a01b038116610ab45760405162461bcd60e51b815260206004820152602660248201527f4f776e61626c653a206e6577206f776e657220697320746865207a65726f206160448201526564647265737360d01b60648201526084016105ab565b6106f881610eaf565b33610ac66108e8565b6001600160a01b031614610aec5760405162461bcd60e51b81526004016105ab906119ab565b81600081118015610afe5750600f8111155b610b1a5760405162461bcd60e51b81526004016105ab9061197b565b5060009182526003602052604090912055565b33610b366108e8565b6001600160a01b031614610b5c5760405162461bcd60e51b81526004016105ab906119ab565b81600081118015610b6e5750600f8111155b610b8a5760405162461bcd60e51b81526004016105ab9061197b565b5060009182526006602052604090912055565b606081610bc15750506040805180820190915260018152600360fc1b602082015290565b8160005b8115610beb5780610bd581611b64565b9150610be49050600a83611aaf565b9150610bc5565b6000816001600160401b03811115610c0557610c05611bd5565b6040519080825280601f01601f191660200182016040528015610c2f576020820181803683370190505b5090505b8415610c9a57610c44600183611ae2565b9150610c51600a86611b7f565b610c5c906030611a97565b60f81b818381518110610c7157610c71611bbf565b60200101906001600160f81b031916908160001a905350610c93600a86611aaf565b9450610c33565b949350505050565b82600081118015610cb45750600f8111155b610cd05760405162461bcd60e51b81526004016105ab9061197b565b6009546040805163104e992960e01b8152905133926001600160a01b031691600091839163104e9929916004808301926020929190829003018186803b158015610d1957600080fd5b505afa158015610d2d573d6000803e3d6000fd5b505050506040513d601f19601f82011682018060405250810190610d51919061157f565b600454909150610100900460ff16158015610d6e575060045460ff165b610d8a5760405162461bcd60e51b81526004016105ab9061192d565b610d948188611336565b8610610db25760405162461bcd60e51b81526004016105ab90611955565b600087815260066020908152604080832054600583528184206001600160a01b038816855290925290912054610de9908890611a97565b1115610e075760405162461bcd60e51b81526004016105ab906119e0565b604051637921219560e11b81526001600160a01b0383169063f242432a90610e3b90849087908c908c908c906004016118d5565b600060405180830381600087803b158015610e5557600080fd5b505af1158015610e69573d6000803e3d6000fd5b50505060008881526005602090815260408083206001600160a01b038816845290915281208054899350909190610ea1908490611a97565b909155505050505050505050565b600080546001600160a01b038381166001600160a01b0319831681178455604051919092169283917f8be0079c531659141344cd1fd0a4f28419497f9722a3daafe3b4186f6b6457e09190a35050565b8260005b8151811015610fa4576000828281518110610f2057610f20611bbf565b60200260200101519050600081118015610f3b5750600f8111155b610f915760405162461bcd60e51b815260206004820152602160248201527f4e4654205479706520494420697320696e76616c696420696e204944206c69736044820152601d60fa1b60648201526084016105ab565b5080610f9c81611b64565b915050610f03565b506009546040805163104e992960e01b8152905133926001600160a01b031691600091839163104e9929916004808301926020929190829003018186803b158015610fee57600080fd5b505afa158015611002573d6000803e3d6000fd5b505050506040513d601f19601f82011682018060405250810190611026919061157f565b600454909150610100900460ff16158015611043575060045460ff165b61105f5760405162461bcd60e51b81526004016105ab9061192d565b85518751146110ca5760405162461bcd60e51b815260206004820152603160248201527f546865206c656e67746873206f6620494420616e642076616c7565206172726160448201527079732073686f756c642062652073616d6560781b60648201526084016105ab565b6001600160a01b03811661111f5760405162461bcd60e51b815260206004820152601c60248201527b104818dc99585d1bdc88189e48125108191bd95cdb9d08195e1a5cdd60221b60448201526064016105ab565b60005b865181101561122b57600088828151811061113f5761113f611bbf565b60200260200101519050600088838151811061115d5761115d611bbf565b6020026020010151905061118a848b858151811061117d5761117d611bbf565b6020026020010151611336565b89848151811061119c5761119c611bbf565b6020026020010151106111c15760405162461bcd60e51b81526004016105ab90611955565b600082815260066020908152604080832054600583528184206001600160a01b038b168552909252909120546111f8908390611a97565b11156112165760405162461bcd60e51b81526004016105ab906119e0565b5050808061122390611b64565b915050611122565b50604051631759616b60e11b81526001600160a01b03831690632eb2c2d69061126090849087908c908c908c90600401611877565b600060405180830381600087803b15801561127a57600080fd5b505af115801561128e573d6000803e3d6000fd5b5050505060005b865181101561132c5760008882815181106112b2576112b2611bbf565b6020026020010151905060008883815181106112d0576112d0611bbf565b60209081029190910181015160008481526005835260408082206001600160a01b038b168352909352918220805491935083929091611310908490611a97565b925050819055505050808061132490611b64565b915050611295565b5050505050505050565b600954604051627eeac760e11b81526001600160a01b0384811660048301526024820184905260009216908290829062fdd58e9060440160206040518083038186803b15801561138557600080fd5b505afa158015611399573d6000803e3d6000fd5b505050506040513d601f19601f820116820180604052508101906113bd91906116a6565b95945050505050565b8280546113d290611b29565b90600052602060002090601f0160209004810192826113f4576000855561143a565b82601f1061140d57805160ff191683800117855561143a565b8280016001018555821561143a579182015b8281111561143a57825182559160200191906001019061141f565b5061144692915061144a565b5090565b5b80821115611446576000815560010161144b565b60006001600160401b0383111561147857611478611bd5565b61148b601f8401601f1916602001611a67565b905082815283838301111561149f57600080fd5b828260208301376000602084830101529392505050565b600082601f8301126114c757600080fd5b813560206001600160401b038211156114e2576114e2611bd5565b8160051b6114f1828201611a67565b83815282810190868401838801850189101561150c57600080fd5b600093505b8584101561152f578035835260019390930192918401918401611511565b50979650505050505050565b600082601f83011261154c57600080fd5b61155b8383356020850161145f565b9392505050565b60006020828403121561157457600080fd5b813561155b81611beb565b60006020828403121561159157600080fd5b815161155b81611beb565b6000806000606084860312156115b157600080fd5b83356001600160401b03808211156115c857600080fd5b6115d4878388016114b6565b945060208601359150808211156115ea57600080fd5b6115f6878388016114b6565b9350604086013591508082111561160c57600080fd5b506116198682870161153b565b9150509250925092565b60006020828403121561163557600080fd5b8135801515811461155b57600080fd5b60006020828403121561165757600080fd5b81356001600160401b0381111561166d57600080fd5b8201601f8101841361167e57600080fd5b610c9a8482356020840161145f565b60006020828403121561169f57600080fd5b5035919050565b6000602082840312156116b857600080fd5b5051919050565b600080604083850312156116d257600080fd5b8235915060208301356116e481611beb565b809150509250929050565b6000806040838503121561170257600080fd5b50508035926020909101359150565b60008060006060848603121561172657600080fd5b833592506020840135915060408401356001600160401b0381111561174a57600080fd5b6116198682870161153b565b600081518084526020808501945080840160005b838110156117865781518752958201959082019060010161176a565b509495945050505050565b600081518084526117a9816020860160208601611af9565b601f01601f19169290920160200192915050565b600081516117cf818560208601611af9565b9290920192915050565b600080845481600182811c9150808316806117f557607f831692505b602080841082141561181557634e487b7160e01b86526022600452602486fd5b818015611829576001811461183a57611867565b60ff19861689528489019650611867565b60008b81526020902060005b8681101561185f5781548b820152908501908301611846565b505084890196505b5050505050506113bd81856117bd565b6001600160a01b0386811682528516602082015260a0604082018190526000906118a390830186611756565b82810360608401526118b58186611756565b905082810360808401526118c98185611791565b98975050505050505050565b6001600160a01b03868116825285166020820152604081018490526060810183905260a06080820181905260009061190f90830184611791565b979650505050505050565b60208152600061155b6020830184611791565b6020808252600e908201526d14149154d0531157d0d313d4d15160921b604082015260600190565b6020808252600c908201526b4f55545f4f465f53544f434b60a01b604082015260600190565b60208082526016908201527513919508151e5c19481251081a5cc81a5b9d985b1a5960521b604082015260600190565b6020808252818101527f4f776e61626c653a2063616c6c6572206973206e6f7420746865206f776e6572604082015260600190565b6020808252600c908201526b4558434545445f414c4c4f4360a01b604082015260600190565b6020808252601f908201527f5265656e7472616e637947756172643a207265656e7472616e742063616c6c00604082015260600190565b60208082526010908201526f0929ca6aa8c8c9286928a9ca8be8aa8960831b604082015260600190565b604051601f8201601f191681016001600160401b0381118282101715611a8f57611a8f611bd5565b604052919050565b60008219821115611aaa57611aaa611b93565b500190565b600082611abe57611abe611ba9565b500490565b6000816000190483118215151615611add57611add611b93565b500290565b600082821015611af457611af4611b93565b500390565b60005b83811015611b14578181015183820152602001611afc565b83811115611b23576000848401525b50505050565b600181811c90821680611b3d57607f821691505b60208210811415611b5e57634e487b7160e01b600052602260045260246000fd5b50919050565b6000600019821415611b7857611b78611b93565b5060010190565b600082611b8e57611b8e611ba9565b500690565b634e487b7160e01b600052601160045260246000fd5b634e487b7160e01b600052601260045260246000fd5b634e487b7160e01b600052603260045260246000fd5b634e487b7160e01b600052604160045260246000fd5b6001600160a01b03811681146106f857600080fdfea26469706673582212202bb8786f34eee5ce320008029e605da286978c40c69e284d50f2c557235a57d864736f6c6343000807003368747470733a2f2f6275696c64696e67732d6170692e6f70656e7365612e696f2f6170692f",
  "immutableReferences": {
    "7119": [
      {
        "length": 32,
        "start": 1187
      }
    ]
  },
  "source": "// SPDX-License-Identifier: MIT\r\n\r\npragma solidity ^0.8.0;\r\n\r\n\r\nimport \"./AccessoryProvider.sol\";\r\nimport \"./BuildingResource.sol\";\r\ncontract BuildingResourceProvider is AccessoryProvider{\r\n\r\n    uint256 private constant NUM_ITEM_OPTIONS = 15;\r\n\r\n    uint256 private constant ID_B_HOUSE = 1;\r\n    uint256 private constant ID_B_APART = 2;\r\n    uint256 private constant ID_B_STORE = 3;\r\n    uint256 private constant ID_B_OFFICE = 4;\r\n    uint256 private constant ID_B_SKYSCRAPER = 5;\r\n\r\n    uint256 private constant ID_T_DRILL = 6;\r\n    uint256 private constant ID_T_HAMMER = 7;\r\n    uint256 private constant ID_T_WRENCH = 8;\r\n    uint256 private constant ID_T_SAW = 9;\r\n    uint256 private constant ID_T_TORCH = 10;\r\n\r\n    uint256 private constant ID_M_NAIL = 11;\r\n    uint256 private constant ID_M_WOOD = 12;\r\n    uint256 private constant ID_M_PAINT = 13;\r\n    uint256 private constant ID_M_GLASS = 14;\r\n    uint256 private constant ID_M_METAL = 15;\r\n\r\n    mapping(uint => uint256) public maxSupplies;\r\n    mapping(uint => uint256) public prices;\r\n\r\n\r\n    address public immutable deployer;\r\n\r\n    bool public presaleLive;\r\n    bool public saleLive;\r\n    bool public locked;\r\n    mapping(uint256 => mapping(address => uint256)) public presalerListPurchases;\r\n    mapping(uint256 => uint256) public  presalePurchaseLimit;\r\n    mapping(string => bool) private _usedNonces;\r\n\r\n    address  private proxyRegistryAddress;\r\n    address public nftAddress;\r\n    address  private lootBoxAddress;\r\n    string  public baseMetadataURI = \"https://buildings-api.opensea.io/api/\";\r\n    bool public isProxyUseForLive = false;\r\n\r\n\r\n    constructor(\r\n        address _proxyRegistryAddress,\r\n        address _nftAddress,\r\n        address _lootBoxAddress\r\n    )\r\n    //AccessoryProvider(_proxyRegistryAddress, _nftAddress, _lootBoxAddress) {\r\n    {\r\n        proxyRegistryAddress = _proxyRegistryAddress;\r\n        nftAddress = _nftAddress;\r\n        lootBoxAddress = _lootBoxAddress;\r\n        //nftContract = ERC1155Tradable(_nftAddress);\r\n        //lootBox = ERC1155Tradable(_lootBoxAddress);\r\n        presaleLive = true;\r\n        saleLive = false;\r\n\r\n        maxSupplies[ID_B_HOUSE] = 1400;\r\n        maxSupplies[ID_B_APART] = 1200;\r\n        maxSupplies[ID_B_STORE] = 1000;\r\n        maxSupplies[ID_B_OFFICE] = 800;\r\n        maxSupplies[ID_B_SKYSCRAPER] = 600;\r\n\r\n        prices[ID_B_HOUSE]   = 0.50 ether;\r\n        prices[ID_B_APART]   = 0.75 ether;\r\n        prices[ID_B_STORE]  = 1.00 ether;\r\n        prices[ID_B_OFFICE]  = 1.25 ether;\r\n        prices[ID_B_SKYSCRAPER]  = 1.5 ether;\r\n\r\n        presalePurchaseLimit[ID_B_HOUSE] = 14;\r\n        presalePurchaseLimit[ID_B_APART] = 12;\r\n        presalePurchaseLimit[ID_B_STORE] = 10;\r\n        presalePurchaseLimit[ID_B_OFFICE] = 8;\r\n        presalePurchaseLimit[ID_B_SKYSCRAPER] = 6;\r\n\r\n        //------------------------------------\r\n\r\n        maxSupplies[ID_T_DRILL] = 32000;\r\n        maxSupplies[ID_T_HAMMER] = 30000;\r\n        maxSupplies[ID_T_WRENCH] = 20000;\r\n        maxSupplies[ID_T_SAW] = 25000;\r\n        maxSupplies[ID_T_TORCH] = 12000;\r\n\r\n        prices[ID_T_DRILL]   = 0.05 ether;\r\n        prices[ID_T_HAMMER]   = 0.0675 ether;\r\n        prices[ID_T_WRENCH]  = 0.075 ether;\r\n        prices[ID_T_SAW]  = 0.087 ether;\r\n        prices[ID_T_TORCH]  = 0.1 ether;\r\n\r\n        presalePurchaseLimit[ID_T_DRILL] = 320;\r\n        presalePurchaseLimit[ID_T_HAMMER] = 300;\r\n        presalePurchaseLimit[ID_T_WRENCH] = 200;\r\n        presalePurchaseLimit[ID_T_SAW] = 250;\r\n        presalePurchaseLimit[ID_T_TORCH] = 120;\r\n\r\n        //------------------------------------\r\n\r\n\r\n        maxSupplies[ID_M_NAIL] = 225000;\r\n        maxSupplies[ID_M_WOOD] = 130000;\r\n        maxSupplies[ID_M_PAINT] = 75000;\r\n        maxSupplies[ID_M_GLASS] = 40000;\r\n        maxSupplies[ID_M_METAL] = 60000;\r\n\r\n        prices[ID_M_NAIL]   = 0.01 ether;\r\n        prices[ID_M_WOOD]   = 0.02 ether;\r\n        prices[ID_M_PAINT]  = 0.03 ether;\r\n        prices[ID_M_GLASS]  = 0.05 ether;\r\n        prices[ID_M_METAL]  = 0.07 ether;\r\n\r\n        presalePurchaseLimit[ID_M_NAIL] = 2250;\r\n        presalePurchaseLimit[ID_M_WOOD] = 1300;\r\n        presalePurchaseLimit[ID_M_PAINT] = 750;\r\n        presalePurchaseLimit[ID_M_GLASS] = 400;\r\n        presalePurchaseLimit[ID_M_METAL] = 600;\r\n        \r\n        deployer = _msgSender();\r\n    }\r\n    \r\n    function setPurchaseLimit(uint256 _option, uint256 _value) external onlyOwner onlyValidOption(_option) {\r\n        presalePurchaseLimit[_option] = _value;\r\n    }\r\n    function setPrice(uint256 _option, uint256 _value) external onlyOwner onlyValidOption(_option) {\r\n        prices[_option] = _value;\r\n    }\r\n    function name() override external pure returns (string memory) {\r\n        return \"Material Pre-Sale\";\r\n    }\r\n\r\n    function symbol() override external pure returns (string memory) {\r\n        return \"F5MNFT\";\r\n    }\r\n\r\n    function supportsProviderInterface() override external pure returns (bool) {\r\n        return true;\r\n    }\r\n\r\n    function providerSchemaName() override external pure returns (string memory) {\r\n        return \"ERC1155\";\r\n    }\r\n\r\n    function numOptions() override external pure returns (uint256) {\r\n        return NUM_ITEM_OPTIONS;\r\n    }\r\n\r\n    function uri(uint256 _optionId) override external view returns (string memory) {\r\n        return\r\n            string(\r\n                abi.encodePacked(\r\n                    baseMetadataURI,\r\n                    Strings.toString(_optionId)\r\n                    )\r\n                );\r\n    }\r\n   \r\n    /**\r\n     * Get the provider's ownership of Option.\r\n     * Should be the amount it can still mint.\r\n     * NOTE: Called by `canMint`\r\n     */\r\n    function balanceOf(address _owner, uint256 _optionId)\r\n        internal\r\n        view\r\n        returns (uint256)\r\n    {\r\n            // The pre-minted balance belongs to the address that minted this contract\r\n            BuildingResource nftContract = BuildingResource(nftAddress);\r\n            // OptionId is used as a token ID here\r\n            uint256 currentSupply = nftContract.balanceOf(_owner, _optionId);\r\n            return currentSupply;\r\n    }\r\n    function _presaleBuy(uint256 _option, uint256 tokenQuantity, bytes memory _data) internal onlyValidOption(_option) {\r\n        address toBuyer = _msgSender();\r\n        BuildingResource nftContract = BuildingResource(nftAddress);\r\n        address fromAddress = nftContract.tokenPool();\r\n\r\n        require(!saleLive && presaleLive, \"PRESALE_CLOSED\");\r\n        require(tokenQuantity < balanceOf(fromAddress, _option), \"OUT_OF_STOCK\");\r\n        require(presalerListPurchases[_option][toBuyer] + tokenQuantity <= presalePurchaseLimit[_option], \"EXCEED_ALLOC\");\r\n\r\n            // Option is used as a token ID here\r\n            nftContract.safeTransferFrom(\r\n                fromAddress,\r\n                toBuyer,\r\n                _option,\r\n                tokenQuantity,\r\n                _data\r\n            );\r\n        presalerListPurchases[_option][toBuyer] += tokenQuantity;\r\n        \r\n\r\n    }\r\n    function presaleBuy(uint256 _option, uint256 tokenQuantity, bytes memory _data) \r\n            external nonReentrant payable {\r\n\r\n        require(prices[_option] * tokenQuantity <= msg.value, \"INSUFFICIENT_ETH\");\r\n       _presaleBuy(_option,tokenQuantity, _data);\r\n    }\r\n    function _presaleBatchBuy(uint256[] memory _options, uint256[] memory _values, bytes memory _data) internal onlyValidOptions(_options) {\r\n        address toBuyer = _msgSender();\r\n        BuildingResource nftContract = BuildingResource(nftAddress);\r\n        address fromAddress = nftContract.tokenPool();\r\n        require(!saleLive && presaleLive, \"PRESALE_CLOSED\");\r\n        require(_options.length == _values.length, \"The lengths of ID and value arrays should be same\");\r\n        require(fromAddress != address(0), \"A creator by ID doesnt exist\");\r\n        for(uint i = 0; i < _values.length; i++) {\r\n            uint256 id = _options[i];\r\n            uint256 qt = _values[i];\r\n            require(_values[i] < balanceOf(fromAddress, _options[i]), \"OUT_OF_STOCK\");\r\n            require(presalerListPurchases[id][toBuyer] + qt <= presalePurchaseLimit[id], \"EXCEED_ALLOC\");\r\n        }\r\n            // Option is used as a token ID here\r\n            nftContract.safeBatchTransferFrom(\r\n                fromAddress,\r\n                toBuyer,\r\n                _options,\r\n                _values,\r\n                _data\r\n            );\r\n\r\n        for(uint i = 0; i < _values.length; i++) {\r\n            uint256 id = _options[i];\r\n            uint256 qt = _values[i];\r\n            presalerListPurchases[id][toBuyer] += qt;\r\n        }            \r\n    }\r\n\r\n    function presaleBuyBatch(uint256[] memory _ids,uint256[] memory _quantities, bytes memory _data) \r\n            external nonReentrant payable {\r\n        uint256 totalPay = 0;\r\n        for (uint256 i = 0; i < _ids.length; i++) {\r\n            uint256 _id = _ids[i];\r\n            uint256 quantity = _quantities[i];\r\n            totalPay += prices[_id] * quantity;\r\n        }\r\n        require(totalPay <= msg.value, \"INSUFFICIENT_ETH\");\r\n        //for (uint256 i = 0; i < _ids.length; i++) {\r\n        //    _presaleBuy(_ids[i],_quantities[i], _data);\r\n        //}\r\n        _presaleBatchBuy(_ids, _quantities, _data);\r\n    }\r\n    /*\r\n    function buy(bytes32 hash, bytes memory signature, string memory nonce, uint256 tokenQuantity) external payable {\r\n        require(saleLive, \"SALE_CLOSED\");\r\n        require(!presaleLive, \"ONLY_PRESALE\");\r\n        require(matchAddresSigner(hash, signature), \"DIRECT_MINT_DISALLOWED\");\r\n        require(!_usedNonces[nonce], \"HASH_USED\");\r\n        require(hashTransaction(msg.sender, tokenQuantity, nonce) == hash, \"HASH_FAIL\");\r\n        require(totalSupply() < SVS_MAX, \"OUT_OF_STOCK\");\r\n        require(publicAmountMinted + tokenQuantity <= SVS_PUBLIC, \"EXCEED_PUBLIC\");\r\n        require(tokenQuantity <= SVS_PER_MINT, \"EXCEED_SVS_PER_MINT\");\r\n        require(SVS_PRICE * tokenQuantity <= msg.value, \"INSUFFICIENT_ETH\");\r\n        \r\n        for(uint256 i = 0; i < tokenQuantity; i++) {\r\n            publicAmountMinted++;\r\n            _safeMint(msg.sender, totalSupply() + 1);\r\n        }\r\n        \r\n        _usedNonces[nonce] = true;\r\n    }\r\n    */\r\n     function setBaseMetadataURI(string memory _uri) public onlyOwner{\r\n        baseMetadataURI = _uri;\r\n    }\r\n\r\n    /*\r\n     * Note: make sure code that calls this is non-reentrant.\r\n     * Note: this is the token _id *within* the ERC1155 contract, not the option\r\n     *       id from this contract.\r\n     */\r\n    function _createOrMint(\r\n        address _to,\r\n        uint256 _id,\r\n        uint256 _amount,\r\n        bytes memory _data\r\n    ) internal {\r\n        ERC1155Tradable tradable = ERC1155Tradable(nftAddress);\r\n        // Lazily create the token\r\n        if (!tradable.exists(_id)) {\r\n            tradable.create(_to, _id, _amount, \"\", _data);\r\n        } else {\r\n            tradable.mint(_to, _id, _amount, _data);\r\n        }\r\n    }\r\n\r\n    // function _isOwnerOrProxy(address _address) internal view returns (bool) {\r\n    //     ProxyRegistry proxyRegistry = ProxyRegistry(proxyRegistryAddress);\r\n    //     return\r\n    //         owner() == _address || (isProxyUseForLive && (address(proxyRegistry.proxies(owner())) == _address));\r\n    // }\r\n    function setProxyUseForLive(bool _bUse) external onlyOwner {\r\n        isProxyUseForLive = _bUse;\r\n    }\r\n    modifier onlyValidOption(uint _option) {\r\n        require(_option > 0 && _option <= NUM_ITEM_OPTIONS, \"NFT Type ID is invalid\");\r\n        _;\r\n    }\r\n    modifier onlyValidOptions(uint[] memory _options) {\r\n        for (uint256 i = 0; i < _options.length; i++) {\r\n            uint256 _id = _options[i];\r\n            require(_id > 0 && _id <= NUM_ITEM_OPTIONS, \"NFT Type ID is invalid in ID list\");\r\n        }\r\n        _;\r\n    }\r\n    modifier notLocked {\r\n        require(!locked, \"Contract metadata methods are locked\");\r\n        _;\r\n    }\r\n    modifier onlyOwners() {\r\n        require(owner() == _msgSender() || owner() == lootBoxAddress, \"Ownable: caller is not the owner\");\r\n        _;\r\n    }\r\n\r\n    function toggleLockedStatus() external onlyOwners {\r\n        locked = !locked;\r\n    }\r\n    function togglePresaleStatus() external onlyOwners {\r\n        presaleLive = !presaleLive;\r\n    }\r\n    \r\n    function toggleSaleStatus() external onlyOwners {\r\n        saleLive = !saleLive;\r\n    }\r\n    function withdraw() public payable onlyOwners {\r\n        //(bool success, ) = payable(msg.sender).call{value: address(this).balance}(\"\");\r\n        payable(msg.sender).transfer(address(this).balance);\r\n        //  require(success);\r\n    }\r\n}",
  "sourcePath": "D:\\04_Work\\001\\NFT_presale\\smart_contract\\contracts\\presale\\BuildingResourceProvider.sol",
  "compiler": {
    "name": "solc",
    "version": "0.8.7+commit.e28d00a7.Emscripten.clang"
  },
  "schemaVersion": "3.4.3",
  "updatedAt": "2021-10-19T18:58:35.312Z",
  "networkType": "ethereum",
  "devdoc": {
    "kind": "dev",
    "methods": {
      "owner()": {
        "details": "Returns the address of the current owner."
      },
      "renounceOwnership()": {
        "details": "Leaves the contract without owner. It will not be possible to call `onlyOwner` functions anymore. Can only be called by the current owner. NOTE: Renouncing ownership will leave the contract without an owner, thereby removing any functionality that is only available to the owner."
      },
      "transferOwnership(address)": {
        "details": "Transfers ownership of the contract to a new account (`newOwner`). Can only be called by the current owner."
      },
      "uri(uint256)": {
        "details": "Returns a URL specifying some metadata about the option. This metadata can be of the same structure as the ERC1155 metadata."
      }
    },
    "version": 1
  },
  "userdoc": {
    "kind": "user",
    "methods": {
      "name()": {
        "notice": "Returns the name of this provider."
      },
      "numOptions()": {
        "notice": "Number of options the provider supports."
      },
      "providerSchemaName()": {
        "notice": "Indicates the Wyvern schema name for assets in this lootbox, e.g. \"ERC1155\""
      },
      "supportsProviderInterface()": {
        "notice": "Indicates that this is a provider contract. Ideally would use EIP 165 supportsInterface()"
      },
      "symbol()": {
        "notice": "Returns the symbol for this provider."
      }
    },
    "version": 1
  }
}