{
  "contractName": "BuildingLootBox",
  "abi": [
    {
      "inputs": [
        {
          "internalType": "address",
          "name": "_proxyRegistryAddress",
          "type": "address"
        },
        {
          "internalType": "address",
          "name": "_providerAddress",
          "type": "address"
        }
      ],
      "stateMutability": "nonpayable",
      "type": "constructor"
    },
    {
      "anonymous": false,
      "inputs": [
        {
          "indexed": true,
          "internalType": "address",
          "name": "owner",
          "type": "address"
        },
        {
          "indexed": true,
          "internalType": "address",
          "name": "approved",
          "type": "address"
        },
        {
          "indexed": true,
          "internalType": "uint256",
          "name": "tokenId",
          "type": "uint256"
        }
      ],
      "name": "Approval",
      "type": "event"
    },
    {
      "anonymous": false,
      "inputs": [
        {
          "indexed": true,
          "internalType": "address",
          "name": "owner",
          "type": "address"
        },
        {
          "indexed": true,
          "internalType": "address",
          "name": "operator",
          "type": "address"
        },
        {
          "indexed": false,
          "internalType": "bool",
          "name": "approved",
          "type": "bool"
        }
      ],
      "name": "ApprovalForAll",
      "type": "event"
    },
    {
      "anonymous": false,
      "inputs": [
        {
          "indexed": false,
          "internalType": "address",
          "name": "userAddress",
          "type": "address"
        },
        {
          "indexed": false,
          "internalType": "address payable",
          "name": "relayerAddress",
          "type": "address"
        },
        {
          "indexed": false,
          "internalType": "bytes",
          "name": "functionSignature",
          "type": "bytes"
        }
      ],
      "name": "MetaTransactionExecuted",
      "type": "event"
    },
    {
      "anonymous": false,
      "inputs": [
        {
          "indexed": true,
          "internalType": "address",
          "name": "previousOwner",
          "type": "address"
        },
        {
          "indexed": true,
          "internalType": "address",
          "name": "newOwner",
          "type": "address"
        }
      ],
      "name": "OwnershipTransferred",
      "type": "event"
    },
    {
      "anonymous": false,
      "inputs": [
        {
          "indexed": true,
          "internalType": "address",
          "name": "from",
          "type": "address"
        },
        {
          "indexed": true,
          "internalType": "address",
          "name": "to",
          "type": "address"
        },
        {
          "indexed": true,
          "internalType": "uint256",
          "name": "tokenId",
          "type": "uint256"
        }
      ],
      "name": "Transfer",
      "type": "event"
    },
    {
      "inputs": [],
      "name": "ERC712_VERSION",
      "outputs": [
        {
          "internalType": "string",
          "name": "",
          "type": "string"
        }
      ],
      "stateMutability": "view",
      "type": "function"
    },
    {
      "inputs": [
        {
          "internalType": "address",
          "name": "to",
          "type": "address"
        },
        {
          "internalType": "uint256",
          "name": "tokenId",
          "type": "uint256"
        }
      ],
      "name": "approve",
      "outputs": [],
      "stateMutability": "nonpayable",
      "type": "function"
    },
    {
      "inputs": [
        {
          "internalType": "address",
          "name": "owner",
          "type": "address"
        }
      ],
      "name": "balanceOf",
      "outputs": [
        {
          "internalType": "uint256",
          "name": "",
          "type": "uint256"
        }
      ],
      "stateMutability": "view",
      "type": "function"
    },
    {
      "inputs": [
        {
          "internalType": "address",
          "name": "userAddress",
          "type": "address"
        },
        {
          "internalType": "bytes",
          "name": "functionSignature",
          "type": "bytes"
        },
        {
          "internalType": "bytes32",
          "name": "sigR",
          "type": "bytes32"
        },
        {
          "internalType": "bytes32",
          "name": "sigS",
          "type": "bytes32"
        },
        {
          "internalType": "uint8",
          "name": "sigV",
          "type": "uint8"
        }
      ],
      "name": "executeMetaTransaction",
      "outputs": [
        {
          "internalType": "bytes",
          "name": "",
          "type": "bytes"
        }
      ],
      "stateMutability": "payable",
      "type": "function"
    },
    {
      "inputs": [
        {
          "internalType": "uint256",
          "name": "tokenId",
          "type": "uint256"
        }
      ],
      "name": "getApproved",
      "outputs": [
        {
          "internalType": "address",
          "name": "",
          "type": "address"
        }
      ],
      "stateMutability": "view",
      "type": "function"
    },
    {
      "inputs": [],
      "name": "getChainId",
      "outputs": [
        {
          "internalType": "uint256",
          "name": "",
          "type": "uint256"
        }
      ],
      "stateMutability": "view",
      "type": "function"
    },
    {
      "inputs": [],
      "name": "getDomainSeperator",
      "outputs": [
        {
          "internalType": "bytes32",
          "name": "",
          "type": "bytes32"
        }
      ],
      "stateMutability": "view",
      "type": "function"
    },
    {
      "inputs": [
        {
          "internalType": "address",
          "name": "user",
          "type": "address"
        }
      ],
      "name": "getNonce",
      "outputs": [
        {
          "internalType": "uint256",
          "name": "nonce",
          "type": "uint256"
        }
      ],
      "stateMutability": "view",
      "type": "function"
    },
    {
      "inputs": [
        {
          "internalType": "address",
          "name": "owner",
          "type": "address"
        },
        {
          "internalType": "address",
          "name": "operator",
          "type": "address"
        }
      ],
      "name": "isApprovedForAll",
      "outputs": [
        {
          "internalType": "bool",
          "name": "",
          "type": "bool"
        }
      ],
      "stateMutability": "view",
      "type": "function"
    },
    {
      "inputs": [
        {
          "internalType": "address",
          "name": "_to",
          "type": "address"
        }
      ],
      "name": "mintTo",
      "outputs": [],
      "stateMutability": "nonpayable",
      "type": "function"
    },
    {
      "inputs": [],
      "name": "name",
      "outputs": [
        {
          "internalType": "string",
          "name": "",
          "type": "string"
        }
      ],
      "stateMutability": "view",
      "type": "function"
    },
    {
      "inputs": [],
      "name": "owner",
      "outputs": [
        {
          "internalType": "address",
          "name": "",
          "type": "address"
        }
      ],
      "stateMutability": "view",
      "type": "function"
    },
    {
      "inputs": [
        {
          "internalType": "uint256",
          "name": "tokenId",
          "type": "uint256"
        }
      ],
      "name": "ownerOf",
      "outputs": [
        {
          "internalType": "address",
          "name": "",
          "type": "address"
        }
      ],
      "stateMutability": "view",
      "type": "function"
    },
    {
      "inputs": [],
      "name": "renounceOwnership",
      "outputs": [],
      "stateMutability": "nonpayable",
      "type": "function"
    },
    {
      "inputs": [
        {
          "internalType": "address",
          "name": "from",
          "type": "address"
        },
        {
          "internalType": "address",
          "name": "to",
          "type": "address"
        },
        {
          "internalType": "uint256",
          "name": "tokenId",
          "type": "uint256"
        }
      ],
      "name": "safeTransferFrom",
      "outputs": [],
      "stateMutability": "nonpayable",
      "type": "function"
    },
    {
      "inputs": [
        {
          "internalType": "address",
          "name": "from",
          "type": "address"
        },
        {
          "internalType": "address",
          "name": "to",
          "type": "address"
        },
        {
          "internalType": "uint256",
          "name": "tokenId",
          "type": "uint256"
        },
        {
          "internalType": "bytes",
          "name": "_data",
          "type": "bytes"
        }
      ],
      "name": "safeTransferFrom",
      "outputs": [],
      "stateMutability": "nonpayable",
      "type": "function"
    },
    {
      "inputs": [
        {
          "internalType": "address",
          "name": "operator",
          "type": "address"
        },
        {
          "internalType": "bool",
          "name": "approved",
          "type": "bool"
        }
      ],
      "name": "setApprovalForAll",
      "outputs": [],
      "stateMutability": "nonpayable",
      "type": "function"
    },
    {
      "inputs": [
        {
          "internalType": "bytes4",
          "name": "interfaceId",
          "type": "bytes4"
        }
      ],
      "name": "supportsInterface",
      "outputs": [
        {
          "internalType": "bool",
          "name": "",
          "type": "bool"
        }
      ],
      "stateMutability": "view",
      "type": "function"
    },
    {
      "inputs": [],
      "name": "symbol",
      "outputs": [
        {
          "internalType": "string",
          "name": "",
          "type": "string"
        }
      ],
      "stateMutability": "view",
      "type": "function"
    },
    {
      "inputs": [
        {
          "internalType": "uint256",
          "name": "index",
          "type": "uint256"
        }
      ],
      "name": "tokenByIndex",
      "outputs": [
        {
          "internalType": "uint256",
          "name": "",
          "type": "uint256"
        }
      ],
      "stateMutability": "view",
      "type": "function"
    },
    {
      "inputs": [
        {
          "internalType": "address",
          "name": "owner",
          "type": "address"
        },
        {
          "internalType": "uint256",
          "name": "index",
          "type": "uint256"
        }
      ],
      "name": "tokenOfOwnerByIndex",
      "outputs": [
        {
          "internalType": "uint256",
          "name": "",
          "type": "uint256"
        }
      ],
      "stateMutability": "view",
      "type": "function"
    },
    {
      "inputs": [
        {
          "internalType": "uint256",
          "name": "_tokenId",
          "type": "uint256"
        }
      ],
      "name": "tokenURI",
      "outputs": [
        {
          "internalType": "string",
          "name": "",
          "type": "string"
        }
      ],
      "stateMutability": "pure",
      "type": "function"
    },
    {
      "inputs": [],
      "name": "totalSupply",
      "outputs": [
        {
          "internalType": "uint256",
          "name": "",
          "type": "uint256"
        }
      ],
      "stateMutability": "view",
      "type": "function"
    },
    {
      "inputs": [
        {
          "internalType": "address",
          "name": "from",
          "type": "address"
        },
        {
          "internalType": "address",
          "name": "to",
          "type": "address"
        },
        {
          "internalType": "uint256",
          "name": "tokenId",
          "type": "uint256"
        }
      ],
      "name": "transferFrom",
      "outputs": [],
      "stateMutability": "nonpayable",
      "type": "function"
    },
    {
      "inputs": [
        {
          "internalType": "address",
          "name": "newOwner",
          "type": "address"
        }
      ],
      "name": "transferOwnership",
      "outputs": [],
      "stateMutability": "nonpayable",
      "type": "function"
    },
    {
      "inputs": [
        {
          "internalType": "uint256",
          "name": "_tokenId",
          "type": "uint256"
        }
      ],
      "name": "unpack",
      "outputs": [],
      "stateMutability": "nonpayable",
      "type": "function"
    },
    {
      "inputs": [],
      "name": "baseTokenURI",
      "outputs": [
        {
          "internalType": "string",
          "name": "",
          "type": "string"
        }
      ],
      "stateMutability": "pure",
      "type": "function"
    },
    {
      "inputs": [],
      "name": "itemsPerLootbox",
      "outputs": [
        {
          "internalType": "uint256",
          "name": "",
          "type": "uint256"
        }
      ],
      "stateMutability": "view",
      "type": "function"
    }
  ],
  "bytecode": "0x6080604052600a805460ff191690556000600f81905560036010556011553480156200002a57600080fd5b5060405162002826380380620028268339810160408190526200004d91620003cb565b6040518060400160405280600f81526020016e084ead2d8c8d2dcce98dedee884def608b1b815250604051806040016040528060078152602001660989e9ea8849eb60cb1b8152508382828160009080519060200190620000b092919062000308565b508051620000c690600190602084019062000308565b505050620000e3620000dd6200013560201b60201c565b62000151565b600e80546001600160a01b0319166001600160a01b0383161790556200010983620001a3565b5050601280546001600160a01b0319166001600160a01b03939093169290921790915550620004409050565b60006200014c6200020760201b620010461760201c565b905090565b600d80546001600160a01b038381166001600160a01b0319831681179093556040519116919082907f8be0079c531659141344cd1fd0a4f28419497f9722a3daafe3b4186f6b6457e090600090a35050565b600a5460ff1615620001ec5760405162461bcd60e51b815260206004820152600e60248201526d185b1c9958591e481a5b9a5d195960921b604482015260640160405180910390fd5b620001f78162000266565b50600a805460ff19166001179055565b6000333014156200026057600080368080601f0160208091040260200160405190810160405280939291908181526020018383808284376000920191909152505050503601516001600160a01b03169150620002639050565b50335b90565b6040518060800160405280604f8152602001620027d7604f9139805160209182012082519282019290922060408051808201825260018152603160f81b90840152805180840194909452838101919091527fc89efdaa54c0f20c7adf612882df0950f5a951637e0307cdcb4c672f298b8bc660608401523060808401524660a0808501919091528151808503909101815260c090930190528151910120600b55565b828054620003169062000403565b90600052602060002090601f0160209004810192826200033a576000855562000385565b82601f106200035557805160ff191683800117855562000385565b8280016001018555821562000385579182015b828111156200038557825182559160200191906001019062000368565b506200039392915062000397565b5090565b5b8082111562000393576000815560010162000398565b80516001600160a01b0381168114620003c657600080fd5b919050565b60008060408385031215620003df57600080fd5b620003ea83620003ae565b9150620003fa60208401620003ae565b90509250929050565b600181811c908216806200041857607f821691505b602082108114156200043a57634e487b7160e01b600052602260045260246000fd5b50919050565b61238780620004506000396000f3fe6080604052600436106101475760003560e01c806301ffc9a71461014c57806306fdde0314610181578063081812fc146101a3578063095ea7b3146101d05780630c53c51c146101f25780630f7e59701461020557806318160ddd1461023257806319d554e11461025157806320379ee51461026657806323b872dd1461027b5780632d0335ab1461029b5780632f745c59146102d15780633408e470146102f157806342842e0e146103045780634f6ccce7146103245780636352211e1461034457806370a0823114610364578063715018a614610384578063755edd17146103995780638a02be68146103b95780638da5cb5b146103d957806395d89b41146103ee578063a22cb46514610403578063b88d4fde14610423578063c87b56dd14610443578063d547cfb714610463578063e985e9c514610478578063f2fde38b14610498575b600080fd5b34801561015857600080fd5b5061016c610167366004611ec9565b6104b8565b60405190151581526020015b60405180910390f35b34801561018d57600080fd5b506101966104e3565b6040516101789190612068565b3480156101af57600080fd5b506101c36101be366004611f20565b610575565b6040516101789190611fe2565b3480156101dc57600080fd5b506101f06101eb366004611e9d565b610602565b005b610196610200366004611e20565b610725565b34801561021157600080fd5b50610196604051806040016040528060018152602001603160f81b81525081565b34801561023e57600080fd5b506008545b604051908152602001610178565b34801561025d57600080fd5b50601054610243565b34801561027257600080fd5b50600b54610243565b34801561028757600080fd5b506101f0610296366004611d41565b61090e565b3480156102a757600080fd5b506102436102b6366004611ceb565b6001600160a01b03166000908152600c602052604090205490565b3480156102dd57600080fd5b506102436102ec366004611e9d565b610946565b3480156102fd57600080fd5b5046610243565b34801561031057600080fd5b506101f061031f366004611d41565b6109dc565b34801561033057600080fd5b5061024361033f366004611f20565b6109f7565b34801561035057600080fd5b506101c361035f366004611f20565b610a8a565b34801561037057600080fd5b5061024361037f366004611ceb565b610b01565b34801561039057600080fd5b506101f0610b88565b3480156103a557600080fd5b506101f06103b4366004611ceb565b610bd3565b3480156103c557600080fd5b506101f06103d4366004611f20565b610c34565b3480156103e557600080fd5b506101c3610d10565b3480156103fa57600080fd5b50610196610d1f565b34801561040f57600080fd5b506101f061041e366004611ded565b610d2e565b34801561042f57600080fd5b506101f061043e366004611d82565b610e2c565b34801561044f57600080fd5b5061019661045e366004611f20565b610e6b565b34801561046f57600080fd5b50610196610ea5565b34801561048457600080fd5b5061016c610493366004611d08565b610ec5565b3480156104a457600080fd5b506101f06104b3366004611ceb565b610f99565b60006001600160e01b0319821663780e9d6360e01b14806104dd57506104dd826110a3565b92915050565b6060600080546104f2906121c2565b80601f016020809104026020016040519081016040528092919081815260200182805461051e906121c2565b801561056b5780601f106105405761010080835404028352916020019161056b565b820191906000526020600020905b81548152906001019060200180831161054e57829003601f168201915b5050505050905090565b6000610580826110f3565b6105e65760405162461bcd60e51b815260206004820152602c60248201527f4552433732313a20617070726f76656420717565727920666f72206e6f6e657860448201526b34b9ba32b73a103a37b5b2b760a11b60648201526084015b60405180910390fd5b506000908152600460205260409020546001600160a01b031690565b600061060d82610a8a565b9050806001600160a01b0316836001600160a01b0316141561067b5760405162461bcd60e51b815260206004820152602160248201527f4552433732313a20617070726f76616c20746f2063757272656e74206f776e656044820152603960f91b60648201526084016105dd565b806001600160a01b031661068d611110565b6001600160a01b031614806106a957506106a981610493611110565b6107165760405162461bcd60e51b815260206004820152603860248201527f4552433732313a20617070726f76652063616c6c6572206973206e6f74206f776044820152771b995c881b9bdc88185c1c1c9bdd995908199bdc88185b1b60421b60648201526084016105dd565b610720838361111f565b505050565b60408051606081810183526001600160a01b0388166000818152600c602090815290859020548452830152918101869052610763878287878761118d565b6107b95760405162461bcd60e51b815260206004820152602160248201527f5369676e657220616e64207369676e617475726520646f206e6f74206d6174636044820152600d60fb1b60648201526084016105dd565b6001600160a01b0387166000908152600c60205260409020546107dd90600161127d565b6001600160a01b0388166000908152600c60205260409081902091909155517f5845892132946850460bff5a0083f71031bc5bf9aadcd40f1de79423eac9b10b9061082d90899033908a90611ff6565b60405180910390a1600080306001600160a01b0316888a604051602001610855929190611f81565b60408051601f198184030181529082905261086f91611f65565b6000604051808303816000865af19150503d80600081146108ac576040519150601f19603f3d011682016040523d82523d6000602084013e6108b1565b606091505b5091509150816109025760405162461bcd60e51b815260206004820152601c60248201527b119d5b98dd1a5bdb8818d85b1b081b9bdd081cdd58d8d95cdcd99d5b60221b60448201526064016105dd565b98975050505050505050565b61091f610919611110565b82611290565b61093b5760405162461bcd60e51b81526004016105dd90612102565b610720838383611352565b600061095183610b01565b82106109b35760405162461bcd60e51b815260206004820152602b60248201527f455243373231456e756d657261626c653a206f776e657220696e646578206f7560448201526a74206f6620626f756e647360a81b60648201526084016105dd565b506001600160a01b03919091166000908152600660209081526040808320938352929052205490565b61072083838360405180602001604052806000815250610e2c565b6000610a0260085490565b8210610a655760405162461bcd60e51b815260206004820152602c60248201527f455243373231456e756d657261626c653a20676c6f62616c20696e646578206f60448201526b7574206f6620626f756e647360a01b60648201526084016105dd565b60088281548110610a7857610a7861226e565b90600052602060002001549050919050565b6000818152600260205260408120546001600160a01b0316806104dd5760405162461bcd60e51b815260206004820152602960248201527f4552433732313a206f776e657220717565727920666f72206e6f6e657869737460448201526832b73a103a37b5b2b760b91b60648201526084016105dd565b60006001600160a01b038216610b6c5760405162461bcd60e51b815260206004820152602a60248201527f4552433732313a2062616c616e636520717565727920666f7220746865207a65604482015269726f206164647265737360b01b60648201526084016105dd565b506001600160a01b031660009081526003602052604090205490565b610b90611110565b6001600160a01b0316610ba1610d10565b6001600160a01b031614610bc75760405162461bcd60e51b81526004016105dd906120cd565b610bd160006114eb565b565b610bdb611110565b6001600160a01b0316610bec610d10565b6001600160a01b031614610c125760405162461bcd60e51b81526004016105dd906120cd565b6000610c1c61153d565b9050610c28828261154e565b610c3061167a565b5050565b610c3c611110565b6001600160a01b0316610c4e82610a8a565b6001600160a01b031614610c6157600080fd5b60005b601054811015610d03576012546011546001600160a01b039091169081906394bf804d90610c90611110565b6040516001600160e01b031960e085901b16815260048101929092526001600160a01b03166024820152604401600060405180830381600087803b158015610cd757600080fd5b505af1158015610ceb573d6000803e3d6000fd5b50505050508080610cfb906121fd565b915050610c64565b50610d0d81611691565b50565b600d546001600160a01b031690565b6060600180546104f2906121c2565b610d36611110565b6001600160a01b0316826001600160a01b03161415610d935760405162461bcd60e51b815260206004820152601960248201527822a9219b99189d1030b8383937bb32903a379031b0b63632b960391b60448201526064016105dd565b8060056000610da0611110565b6001600160a01b03908116825260208083019390935260409182016000908120918716808252919093529120805460ff191692151592909217909155610de4611110565b6001600160a01b03167f17307eab39ab6107e8899845ad3d59bd9653f200f220920489ca2b5937696c3183604051610e20911515815260200190565b60405180910390a35050565b610e3d610e37611110565b83611290565b610e595760405162461bcd60e51b81526004016105dd90612102565b610e6584848484611726565b50505050565b6060610e75610ea5565b610e7e83611759565b604051602001610e8f929190611fb3565b6040516020818303038152906040529050919050565b606060405180606001604052806029815260200161230960299139905090565b600e5460405163c455279160e01b81526000916001600160a01b039081169190841690829063c455279190610efe908890600401611fe2565b60206040518083038186803b158015610f1657600080fd5b505afa158015610f2a573d6000803e3d6000fd5b505050506040513d601f19601f82011682018060405250810190610f4e9190611f03565b6001600160a01b03161415610f675760019150506104dd565b6001600160a01b0380851660009081526005602090815260408083209387168352929052205460ff165b949350505050565b610fa1611110565b6001600160a01b0316610fb2610d10565b6001600160a01b031614610fd85760405162461bcd60e51b81526004016105dd906120cd565b6001600160a01b03811661103d5760405162461bcd60e51b815260206004820152602660248201527f4f776e61626c653a206e6577206f776e657220697320746865207a65726f206160448201526564647265737360d01b60648201526084016105dd565b610d0d816114eb565b60003330141561109d57600080368080601f0160208091040260200160405190810160405280939291908181526020018383808284376000920191909152505050503601516001600160a01b031691506110a09050565b50335b90565b60006001600160e01b031982166380ac58cd60e01b14806110d457506001600160e01b03198216635b5e139f60e01b145b806104dd57506301ffc9a760e01b6001600160e01b03198316146104dd565b6000908152600260205260409020546001600160a01b0316151590565b600061111a611046565b905090565b600081815260046020526040902080546001600160a01b0319166001600160a01b038416908117909155819061115482610a8a565b6001600160a01b03167f8c5be1e5ebec7d5bd14f71427d1e84f3dd0314c0f7b2291e5b200ac8c7c3b92560405160405180910390a45050565b60006001600160a01b0386166111f35760405162461bcd60e51b815260206004820152602560248201527f4e61746976654d6574615472616e73616374696f6e3a20494e56414c49445f5360448201526424a3a722a960d91b60648201526084016105dd565b600161120661120187611856565b6118d3565b6040805160008152602081018083529290925260ff851690820152606081018690526080810185905260a0016020604051602081039080840390855afa158015611254573d6000803e3d6000fd5b505050602060405103516001600160a01b0316866001600160a01b031614905095945050505050565b60006112898284612153565b9392505050565b600061129b826110f3565b6112fc5760405162461bcd60e51b815260206004820152602c60248201527f4552433732313a206f70657261746f7220717565727920666f72206e6f6e657860448201526b34b9ba32b73a103a37b5b2b760a11b60648201526084016105dd565b600061130783610a8a565b9050806001600160a01b0316846001600160a01b031614806113425750836001600160a01b031661133784610575565b6001600160a01b0316145b80610f915750610f918185610ec5565b826001600160a01b031661136582610a8a565b6001600160a01b0316146113cd5760405162461bcd60e51b815260206004820152602960248201527f4552433732313a207472616e73666572206f6620746f6b656e2074686174206960448201526839903737ba1037bbb760b91b60648201526084016105dd565b6001600160a01b03821661142f5760405162461bcd60e51b8152602060048201526024808201527f4552433732313a207472616e7366657220746f20746865207a65726f206164646044820152637265737360e01b60648201526084016105dd565b61143a838383611903565b61144560008261111f565b6001600160a01b038316600090815260036020526040812080546001929061146e90849061217f565b90915550506001600160a01b038216600090815260036020526040812080546001929061149c908490612153565b909155505060008181526002602052604080822080546001600160a01b0319166001600160a01b03868116918217909255915184939187169160008051602061233283398151915291a4505050565b600d80546001600160a01b038381166001600160a01b0319831681179093556040519116919082907f8be0079c531659141344cd1fd0a4f28419497f9722a3daafe3b4186f6b6457e090600090a35050565b600f5460009061111a90600161127d565b6001600160a01b0382166115a45760405162461bcd60e51b815260206004820181905260248201527f4552433732313a206d696e7420746f20746865207a65726f206164647265737360448201526064016105dd565b6115ad816110f3565b156115f95760405162461bcd60e51b815260206004820152601c60248201527b115490cdcc8c4e881d1bdad95b88185b1c9958591e481b5a5b9d195960221b60448201526064016105dd565b61160560008383611903565b6001600160a01b038216600090815260036020526040812080546001929061162e908490612153565b909155505060008181526002602052604080822080546001600160a01b0319166001600160a01b0386169081179091559051839290600080516020612332833981519152908290a45050565b600f805490600061168a836121fd565b9190505550565b600061169c82610a8a565b90506116aa81600084611903565b6116b560008361111f565b6001600160a01b03811660009081526003602052604081208054600192906116de90849061217f565b909155505060008281526002602052604080822080546001600160a01b0319169055518391906001600160a01b03841690600080516020612332833981519152908390a45050565b611731848484611352565b61173d848484846119bb565b610e655760405162461bcd60e51b81526004016105dd9061207b565b60608161177d5750506040805180820190915260018152600360fc1b602082015290565b8160005b81156117a75780611791816121fd565b91506117a09050600a8361216b565b9150611781565b6000816001600160401b038111156117c1576117c1612284565b6040519080825280601f01601f1916602001820160405280156117eb576020820181803683370190505b5090505b8415610f915761180060018361217f565b915061180d600a86612218565b611818906030612153565b60f81b81838151811061182d5761182d61226e565b60200101906001600160f81b031916908160001a90535061184f600a8661216b565b94506117ef565b60006040518060800160405280604381526020016122c660439139805160209182012083518483015160408087015180519086012090516118b6950193845260208401929092526001600160a01b03166040830152606082015260800190565b604051602081830303815290604052805190602001209050919050565b60006118de600b5490565b60405161190160f01b60208201526022810191909152604281018390526062016118b6565b6001600160a01b03831661195e5761195981600880546000838152600960205260408120829055600182018355919091527ff3f7a9fe364faab93b216da50a3214154f22a0a2b415b23a84c8169e8b636ee30155565b611981565b816001600160a01b0316836001600160a01b031614611981576119818382611acf565b6001600160a01b0382166119985761072081611b6c565b826001600160a01b0316826001600160a01b031614610720576107208282611c1b565b60006001600160a01b0384163b15611ac457836001600160a01b031663150b7a026119e4611110565b8786866040518563ffffffff1660e01b8152600401611a06949392919061202b565b602060405180830381600087803b158015611a2057600080fd5b505af1925050508015611a50575060408051601f3d908101601f19168201909252611a4d91810190611ee6565b60015b611aaa573d808015611a7e576040519150601f19603f3d011682016040523d82523d6000602084013e611a83565b606091505b508051611aa25760405162461bcd60e51b81526004016105dd9061207b565b805181602001fd5b6001600160e01b031916630a85bd0160e11b149050610f91565b506001949350505050565b60006001611adc84610b01565b611ae6919061217f565b600083815260076020526040902054909150808214611b39576001600160a01b03841660009081526006602090815260408083208584528252808320548484528184208190558352600790915290208190555b5060009182526007602090815260408084208490556001600160a01b039094168352600681528383209183525290812055565b600854600090611b7e9060019061217f565b60008381526009602052604081205460088054939450909284908110611ba657611ba661226e565b906000526020600020015490508060088381548110611bc757611bc761226e565b6000918252602080832090910192909255828152600990915260408082208490558582528120556008805480611bff57611bff612258565b6001900381819060005260206000200160009055905550505050565b6000611c2683610b01565b6001600160a01b039093166000908152600660209081526040808320868452825280832085905593825260079052919091209190915550565b600082601f830112611c7057600080fd5b81356001600160401b0380821115611c8a57611c8a612284565b604051601f8301601f19908116603f01168101908282118183101715611cb257611cb2612284565b81604052838152866020858801011115611ccb57600080fd5b836020870160208301376000602085830101528094505050505092915050565b600060208284031215611cfd57600080fd5b81356112898161229a565b60008060408385031215611d1b57600080fd5b8235611d268161229a565b91506020830135611d368161229a565b809150509250929050565b600080600060608486031215611d5657600080fd5b8335611d618161229a565b92506020840135611d718161229a565b929592945050506040919091013590565b60008060008060808587031215611d9857600080fd5b8435611da38161229a565b93506020850135611db38161229a565b92506040850135915060608501356001600160401b03811115611dd557600080fd5b611de187828801611c5f565b91505092959194509250565b60008060408385031215611e0057600080fd5b8235611e0b8161229a565b915060208301358015158114611d3657600080fd5b600080600080600060a08688031215611e3857600080fd5b8535611e438161229a565b945060208601356001600160401b03811115611e5e57600080fd5b611e6a88828901611c5f565b9450506040860135925060608601359150608086013560ff81168114611e8f57600080fd5b809150509295509295909350565b60008060408385031215611eb057600080fd5b8235611ebb8161229a565b946020939093013593505050565b600060208284031215611edb57600080fd5b8135611289816122af565b600060208284031215611ef857600080fd5b8151611289816122af565b600060208284031215611f1557600080fd5b81516112898161229a565b600060208284031215611f3257600080fd5b5035919050565b60008151808452611f51816020860160208601612196565b601f01601f19169290920160200192915050565b60008251611f77818460208701612196565b9190910192915050565b60008351611f93818460208801612196565b60609390931b6001600160601b0319169190920190815260140192915050565b60008351611fc5818460208801612196565b835190830190611fd9818360208801612196565b01949350505050565b6001600160a01b0391909116815260200190565b6001600160a01b0384811682528316602082015260606040820181905260009061202290830184611f39565b95945050505050565b6001600160a01b038581168252841660208201526040810183905260806060820181905260009061205e90830184611f39565b9695505050505050565b6020815260006112896020830184611f39565b60208082526032908201527f4552433732313a207472616e7366657220746f206e6f6e20455243373231526560408201527131b2b4bb32b91034b6b83632b6b2b73a32b960711b606082015260800190565b6020808252818101527f4f776e61626c653a2063616c6c6572206973206e6f7420746865206f776e6572604082015260600190565b60208082526031908201527f4552433732313a207472616e736665722063616c6c6572206973206e6f74206f6040820152701ddb995c881b9bdc88185c1c1c9bdd9959607a1b606082015260800190565b600082198211156121665761216661222c565b500190565b60008261217a5761217a612242565b500490565b6000828210156121915761219161222c565b500390565b60005b838110156121b1578181015183820152602001612199565b83811115610e655750506000910152565b600181811c908216806121d657607f821691505b602082108114156121f757634e487b7160e01b600052602260045260246000fd5b50919050565b60006000198214156122115761221161222c565b5060010190565b60008261222757612227612242565b500690565b634e487b7160e01b600052601160045260246000fd5b634e487b7160e01b600052601260045260246000fd5b634e487b7160e01b600052603160045260246000fd5b634e487b7160e01b600052603260045260246000fd5b634e487b7160e01b600052604160045260246000fd5b6001600160a01b0381168114610d0d57600080fd5b6001600160e01b031981168114610d0d57600080fdfe4d6574615472616e73616374696f6e2875696e74323536206e6f6e63652c616464726573732066726f6d2c62797465732066756e6374696f6e5369676e61747572652968747470733a2f2f6275696c64696e67732d6170692e6f70656e7365612e696f2f6170692f626f782fddf252ad1be2c89b69c2b068fc378daa952ba7f163c4a11628f55a4df523b3efa26469706673582212205b5b6227a86a49cbd7f897155443bff080a807d6e8ab52b8542721d40308a5ba64736f6c63430008070033454950373132446f6d61696e28737472696e67206e616d652c737472696e672076657273696f6e2c6164647265737320766572696679696e67436f6e74726163742c627974657333322073616c7429",
  "immutableReferences": {},
  "source": "// SPDX-License-Identifier: MIT\r\n\r\npragma solidity ^0.8.0;\r\n\r\nimport \"./ERC721Tradable.sol\";\r\nimport \"./Building.sol\";\r\nimport \"./IProviderERC721.sol\";\r\nimport \"openzeppelin-solidity/contracts/access/Ownable.sol\";\r\n\r\n/**\r\n * @title BuildingLootBox\r\n *\r\n * BuildingLootBox - a tradeable loot box of Buildings.\r\n */\r\ncontract BuildingLootBox is ERC721Tradable {\r\n    uint256 NUM_BUILDINGS_PER_BOX = 3;\r\n    uint256 OPTION_ID = 0;\r\n    address providerAddress;\r\n\r\n    constructor(address _proxyRegistryAddress, address _providerAddress)\r\n        ERC721Tradable(\"BuildingLootBox\", \"LOOTBOX\", _proxyRegistryAddress)\r\n    {\r\n        providerAddress = _providerAddress;\r\n    }\r\n\r\n    function unpack(uint256 _tokenId) public {\r\n        require(ownerOf(_tokenId) == _msgSender());\r\n\r\n        // Insert custom logic for configuring the item here.\r\n        for (uint256 i = 0; i < NUM_BUILDINGS_PER_BOX; i++) {\r\n            // Mint the ERC721 item(s).\r\n            ProviderERC721 provider = ProviderERC721(providerAddress);\r\n            provider.mint(OPTION_ID, _msgSender());\r\n        }\r\n\r\n        // Burn the presale item.\r\n        _burn(_tokenId);\r\n    }\r\n\r\n    function baseTokenURI() override public pure returns (string memory) {\r\n        return \"https://buildings-api.opensea.io/api/box/\";\r\n    }\r\n\r\n    function itemsPerLootbox() public view returns (uint256) {\r\n        return NUM_BUILDINGS_PER_BOX;\r\n    }\r\n}\r\n",
  "sourcePath": "D:\\04_Work\\001\\NFT_presale\\smart_contract\\contracts\\BuildingLootBox.sol",
  "compiler": {
    "name": "solc",
    "version": "0.8.7+commit.e28d00a7.Emscripten.clang"
  },
  "schemaVersion": "3.4.3",
  "updatedAt": "2021-10-19T18:53:42.598Z",
  "devdoc": {
    "kind": "dev",
    "methods": {
      "approve(address,uint256)": {
        "details": "See {IERC721-approve}."
      },
      "balanceOf(address)": {
        "details": "See {IERC721-balanceOf}."
      },
      "getApproved(uint256)": {
        "details": "See {IERC721-getApproved}."
      },
      "mintTo(address)": {
        "details": "Mints a token to an address with a tokenURI.",
        "params": {
          "_to": "address of the future owner of the token"
        }
      },
      "name()": {
        "details": "See {IERC721Metadata-name}."
      },
      "owner()": {
        "details": "Returns the address of the current owner."
      },
      "ownerOf(uint256)": {
        "details": "See {IERC721-ownerOf}."
      },
      "renounceOwnership()": {
        "details": "Leaves the contract without owner. It will not be possible to call `onlyOwner` functions anymore. Can only be called by the current owner. NOTE: Renouncing ownership will leave the contract without an owner, thereby removing any functionality that is only available to the owner."
      },
      "safeTransferFrom(address,address,uint256)": {
        "details": "See {IERC721-safeTransferFrom}."
      },
      "safeTransferFrom(address,address,uint256,bytes)": {
        "details": "See {IERC721-safeTransferFrom}."
      },
      "setApprovalForAll(address,bool)": {
        "details": "See {IERC721-setApprovalForAll}."
      },
      "supportsInterface(bytes4)": {
        "details": "See {IERC165-supportsInterface}."
      },
      "symbol()": {
        "details": "See {IERC721Metadata-symbol}."
      },
      "tokenByIndex(uint256)": {
        "details": "See {IERC721Enumerable-tokenByIndex}."
      },
      "tokenOfOwnerByIndex(address,uint256)": {
        "details": "See {IERC721Enumerable-tokenOfOwnerByIndex}."
      },
      "totalSupply()": {
        "details": "See {IERC721Enumerable-totalSupply}."
      },
      "transferFrom(address,address,uint256)": {
        "details": "See {IERC721-transferFrom}."
      },
      "transferOwnership(address)": {
        "details": "Transfers ownership of the contract to a new account (`newOwner`). Can only be called by the current owner."
      }
    },
    "title": "BuildingLootBox BuildingLootBox - a tradeable loot box of Buildings.",
    "version": 1
  },
  "userdoc": {
    "kind": "user",
    "methods": {
      "isApprovedForAll(address,address)": {
        "notice": "Override isApprovedForAll to whitelist user's OpenSea proxy accounts to enable gas-less listings."
      }
    },
    "version": 1
  }
}