{
  "contractName": "BuildingAccessoryLootBox",
  "abi": [
    {
      "inputs": [
        {
          "internalType": "address",
          "name": "_proxyRegistryAddress",
          "type": "address"
        }
      ],
      "stateMutability": "nonpayable",
      "type": "constructor"
    },
    {
      "anonymous": false,
      "inputs": [
        {
          "indexed": true,
          "internalType": "address",
          "name": "account",
          "type": "address"
        },
        {
          "indexed": true,
          "internalType": "address",
          "name": "operator",
          "type": "address"
        },
        {
          "indexed": false,
          "internalType": "bool",
          "name": "approved",
          "type": "bool"
        }
      ],
      "name": "ApprovalForAll",
      "type": "event"
    },
    {
      "anonymous": false,
      "inputs": [
        {
          "indexed": false,
          "internalType": "address",
          "name": "userAddress",
          "type": "address"
        },
        {
          "indexed": false,
          "internalType": "address payable",
          "name": "relayerAddress",
          "type": "address"
        },
        {
          "indexed": false,
          "internalType": "bytes",
          "name": "functionSignature",
          "type": "bytes"
        }
      ],
      "name": "MetaTransactionExecuted",
      "type": "event"
    },
    {
      "anonymous": false,
      "inputs": [
        {
          "indexed": true,
          "internalType": "address",
          "name": "previousOwner",
          "type": "address"
        },
        {
          "indexed": true,
          "internalType": "address",
          "name": "newOwner",
          "type": "address"
        }
      ],
      "name": "OwnershipTransferred",
      "type": "event"
    },
    {
      "anonymous": false,
      "inputs": [
        {
          "indexed": true,
          "internalType": "address",
          "name": "operator",
          "type": "address"
        },
        {
          "indexed": true,
          "internalType": "address",
          "name": "from",
          "type": "address"
        },
        {
          "indexed": true,
          "internalType": "address",
          "name": "to",
          "type": "address"
        },
        {
          "indexed": false,
          "internalType": "uint256[]",
          "name": "ids",
          "type": "uint256[]"
        },
        {
          "indexed": false,
          "internalType": "uint256[]",
          "name": "values",
          "type": "uint256[]"
        }
      ],
      "name": "TransferBatch",
      "type": "event"
    },
    {
      "anonymous": false,
      "inputs": [
        {
          "indexed": true,
          "internalType": "address",
          "name": "operator",
          "type": "address"
        },
        {
          "indexed": true,
          "internalType": "address",
          "name": "from",
          "type": "address"
        },
        {
          "indexed": true,
          "internalType": "address",
          "name": "to",
          "type": "address"
        },
        {
          "indexed": false,
          "internalType": "uint256",
          "name": "id",
          "type": "uint256"
        },
        {
          "indexed": false,
          "internalType": "uint256",
          "name": "value",
          "type": "uint256"
        }
      ],
      "name": "TransferSingle",
      "type": "event"
    },
    {
      "anonymous": false,
      "inputs": [
        {
          "indexed": false,
          "internalType": "string",
          "name": "value",
          "type": "string"
        },
        {
          "indexed": true,
          "internalType": "uint256",
          "name": "id",
          "type": "uint256"
        }
      ],
      "name": "URI",
      "type": "event"
    },
    {
      "inputs": [],
      "name": "ERC712_VERSION",
      "outputs": [
        {
          "internalType": "string",
          "name": "",
          "type": "string"
        }
      ],
      "stateMutability": "view",
      "type": "function"
    },
    {
      "inputs": [
        {
          "internalType": "address",
          "name": "account",
          "type": "address"
        },
        {
          "internalType": "uint256",
          "name": "id",
          "type": "uint256"
        }
      ],
      "name": "balanceOf",
      "outputs": [
        {
          "internalType": "uint256",
          "name": "",
          "type": "uint256"
        }
      ],
      "stateMutability": "view",
      "type": "function"
    },
    {
      "inputs": [
        {
          "internalType": "address[]",
          "name": "accounts",
          "type": "address[]"
        },
        {
          "internalType": "uint256[]",
          "name": "ids",
          "type": "uint256[]"
        }
      ],
      "name": "balanceOfBatch",
      "outputs": [
        {
          "internalType": "uint256[]",
          "name": "",
          "type": "uint256[]"
        }
      ],
      "stateMutability": "view",
      "type": "function"
    },
    {
      "inputs": [
        {
          "internalType": "address",
          "name": "_to",
          "type": "address"
        },
        {
          "internalType": "uint256[]",
          "name": "_ids",
          "type": "uint256[]"
        },
        {
          "internalType": "uint256[]",
          "name": "_quantities",
          "type": "uint256[]"
        },
        {
          "internalType": "bytes",
          "name": "_data",
          "type": "bytes"
        }
      ],
      "name": "batchMint",
      "outputs": [],
      "stateMutability": "nonpayable",
      "type": "function"
    },
    {
      "inputs": [
        {
          "internalType": "address",
          "name": "_initialOwner",
          "type": "address"
        },
        {
          "internalType": "uint256",
          "name": "_id",
          "type": "uint256"
        },
        {
          "internalType": "uint256",
          "name": "_initialSupply",
          "type": "uint256"
        },
        {
          "internalType": "string",
          "name": "_uri",
          "type": "string"
        },
        {
          "internalType": "bytes",
          "name": "_data",
          "type": "bytes"
        }
      ],
      "name": "create",
      "outputs": [
        {
          "internalType": "uint256",
          "name": "",
          "type": "uint256"
        }
      ],
      "stateMutability": "nonpayable",
      "type": "function"
    },
    {
      "inputs": [
        {
          "internalType": "uint256",
          "name": "_id",
          "type": "uint256"
        }
      ],
      "name": "creatorbyID",
      "outputs": [
        {
          "internalType": "address",
          "name": "",
          "type": "address"
        }
      ],
      "stateMutability": "view",
      "type": "function"
    },
    {
      "inputs": [
        {
          "internalType": "uint256",
          "name": "",
          "type": "uint256"
        }
      ],
      "name": "creators",
      "outputs": [
        {
          "internalType": "address",
          "name": "",
          "type": "address"
        }
      ],
      "stateMutability": "view",
      "type": "function"
    },
    {
      "inputs": [
        {
          "internalType": "address",
          "name": "userAddress",
          "type": "address"
        },
        {
          "internalType": "bytes",
          "name": "functionSignature",
          "type": "bytes"
        },
        {
          "internalType": "bytes32",
          "name": "sigR",
          "type": "bytes32"
        },
        {
          "internalType": "bytes32",
          "name": "sigS",
          "type": "bytes32"
        },
        {
          "internalType": "uint8",
          "name": "sigV",
          "type": "uint8"
        }
      ],
      "name": "executeMetaTransaction",
      "outputs": [
        {
          "internalType": "bytes",
          "name": "",
          "type": "bytes"
        }
      ],
      "stateMutability": "payable",
      "type": "function"
    },
    {
      "inputs": [
        {
          "internalType": "uint256",
          "name": "_id",
          "type": "uint256"
        }
      ],
      "name": "exists",
      "outputs": [
        {
          "internalType": "bool",
          "name": "",
          "type": "bool"
        }
      ],
      "stateMutability": "view",
      "type": "function"
    },
    {
      "inputs": [],
      "name": "getChainId",
      "outputs": [
        {
          "internalType": "uint256",
          "name": "",
          "type": "uint256"
        }
      ],
      "stateMutability": "view",
      "type": "function"
    },
    {
      "inputs": [],
      "name": "getDomainSeperator",
      "outputs": [
        {
          "internalType": "bytes32",
          "name": "",
          "type": "bytes32"
        }
      ],
      "stateMutability": "view",
      "type": "function"
    },
    {
      "inputs": [
        {
          "internalType": "address",
          "name": "user",
          "type": "address"
        }
      ],
      "name": "getNonce",
      "outputs": [
        {
          "internalType": "uint256",
          "name": "nonce",
          "type": "uint256"
        }
      ],
      "stateMutability": "view",
      "type": "function"
    },
    {
      "inputs": [
        {
          "internalType": "address",
          "name": "_owner",
          "type": "address"
        },
        {
          "internalType": "address",
          "name": "_operator",
          "type": "address"
        }
      ],
      "name": "isApprovedForAll",
      "outputs": [
        {
          "internalType": "bool",
          "name": "isOperator",
          "type": "bool"
        }
      ],
      "stateMutability": "view",
      "type": "function"
    },
    {
      "inputs": [],
      "name": "isProxyUseForLive",
      "outputs": [
        {
          "internalType": "bool",
          "name": "",
          "type": "bool"
        }
      ],
      "stateMutability": "view",
      "type": "function"
    },
    {
      "inputs": [],
      "name": "name",
      "outputs": [
        {
          "internalType": "string",
          "name": "",
          "type": "string"
        }
      ],
      "stateMutability": "view",
      "type": "function"
    },
    {
      "inputs": [],
      "name": "owner",
      "outputs": [
        {
          "internalType": "address",
          "name": "",
          "type": "address"
        }
      ],
      "stateMutability": "view",
      "type": "function"
    },
    {
      "inputs": [],
      "name": "renounceOwnership",
      "outputs": [],
      "stateMutability": "nonpayable",
      "type": "function"
    },
    {
      "inputs": [
        {
          "internalType": "address",
          "name": "from",
          "type": "address"
        },
        {
          "internalType": "address",
          "name": "to",
          "type": "address"
        },
        {
          "internalType": "uint256[]",
          "name": "ids",
          "type": "uint256[]"
        },
        {
          "internalType": "uint256[]",
          "name": "amounts",
          "type": "uint256[]"
        },
        {
          "internalType": "bytes",
          "name": "data",
          "type": "bytes"
        }
      ],
      "name": "safeBatchTransferFrom",
      "outputs": [],
      "stateMutability": "nonpayable",
      "type": "function"
    },
    {
      "inputs": [
        {
          "internalType": "address",
          "name": "from",
          "type": "address"
        },
        {
          "internalType": "address",
          "name": "to",
          "type": "address"
        },
        {
          "internalType": "uint256",
          "name": "id",
          "type": "uint256"
        },
        {
          "internalType": "uint256",
          "name": "amount",
          "type": "uint256"
        },
        {
          "internalType": "bytes",
          "name": "data",
          "type": "bytes"
        }
      ],
      "name": "safeTransferFrom",
      "outputs": [],
      "stateMutability": "nonpayable",
      "type": "function"
    },
    {
      "inputs": [
        {
          "internalType": "address",
          "name": "operator",
          "type": "address"
        },
        {
          "internalType": "bool",
          "name": "approved",
          "type": "bool"
        }
      ],
      "name": "setApprovalForAll",
      "outputs": [],
      "stateMutability": "nonpayable",
      "type": "function"
    },
    {
      "inputs": [
        {
          "internalType": "address",
          "name": "_to",
          "type": "address"
        },
        {
          "internalType": "uint256[]",
          "name": "_ids",
          "type": "uint256[]"
        }
      ],
      "name": "setCreator",
      "outputs": [],
      "stateMutability": "nonpayable",
      "type": "function"
    },
    {
      "inputs": [
        {
          "internalType": "uint256",
          "name": "_tokenId",
          "type": "uint256"
        },
        {
          "internalType": "string",
          "name": "_newURI",
          "type": "string"
        }
      ],
      "name": "setCustomURI",
      "outputs": [],
      "stateMutability": "nonpayable",
      "type": "function"
    },
    {
      "inputs": [
        {
          "internalType": "bool",
          "name": "_bUse",
          "type": "bool"
        }
      ],
      "name": "setProxyUseForLive",
      "outputs": [],
      "stateMutability": "nonpayable",
      "type": "function"
    },
    {
      "inputs": [
        {
          "internalType": "string",
          "name": "_newURI",
          "type": "string"
        }
      ],
      "name": "setURI",
      "outputs": [],
      "stateMutability": "nonpayable",
      "type": "function"
    },
    {
      "inputs": [
        {
          "internalType": "bytes4",
          "name": "interfaceId",
          "type": "bytes4"
        }
      ],
      "name": "supportsInterface",
      "outputs": [
        {
          "internalType": "bool",
          "name": "",
          "type": "bool"
        }
      ],
      "stateMutability": "view",
      "type": "function"
    },
    {
      "inputs": [],
      "name": "symbol",
      "outputs": [
        {
          "internalType": "string",
          "name": "",
          "type": "string"
        }
      ],
      "stateMutability": "view",
      "type": "function"
    },
    {
      "inputs": [
        {
          "internalType": "uint256",
          "name": "",
          "type": "uint256"
        }
      ],
      "name": "tokenSupply",
      "outputs": [
        {
          "internalType": "uint256",
          "name": "",
          "type": "uint256"
        }
      ],
      "stateMutability": "view",
      "type": "function"
    },
    {
      "inputs": [
        {
          "internalType": "uint256",
          "name": "_id",
          "type": "uint256"
        }
      ],
      "name": "totalSupply",
      "outputs": [
        {
          "internalType": "uint256",
          "name": "",
          "type": "uint256"
        }
      ],
      "stateMutability": "view",
      "type": "function"
    },
    {
      "inputs": [
        {
          "internalType": "address",
          "name": "newOwner",
          "type": "address"
        }
      ],
      "name": "transferOwnership",
      "outputs": [],
      "stateMutability": "nonpayable",
      "type": "function"
    },
    {
      "inputs": [
        {
          "internalType": "uint256",
          "name": "_id",
          "type": "uint256"
        }
      ],
      "name": "uri",
      "outputs": [
        {
          "internalType": "string",
          "name": "",
          "type": "string"
        }
      ],
      "stateMutability": "view",
      "type": "function"
    },
    {
      "inputs": [
        {
          "internalType": "address",
          "name": "_providerAddress",
          "type": "address"
        },
        {
          "internalType": "uint256",
          "name": "_numOptions",
          "type": "uint256"
        },
        {
          "internalType": "uint256",
          "name": "_numClasses",
          "type": "uint256"
        },
        {
          "internalType": "uint256",
          "name": "_seed",
          "type": "uint256"
        }
      ],
      "name": "setState",
      "outputs": [],
      "stateMutability": "nonpayable",
      "type": "function"
    },
    {
      "inputs": [
        {
          "internalType": "uint256",
          "name": "_classId",
          "type": "uint256"
        },
        {
          "internalType": "uint256[]",
          "name": "_tokenIds",
          "type": "uint256[]"
        }
      ],
      "name": "setTokenIdsForClass",
      "outputs": [],
      "stateMutability": "nonpayable",
      "type": "function"
    },
    {
      "inputs": [
        {
          "internalType": "uint256",
          "name": "_option",
          "type": "uint256"
        },
        {
          "internalType": "uint256",
          "name": "_maxQuantityPerOpen",
          "type": "uint256"
        },
        {
          "internalType": "uint16[]",
          "name": "_classProbabilities",
          "type": "uint16[]"
        },
        {
          "internalType": "uint16[]",
          "name": "_guarantees",
          "type": "uint16[]"
        }
      ],
      "name": "setOptionSettings",
      "outputs": [],
      "stateMutability": "nonpayable",
      "type": "function"
    },
    {
      "inputs": [
        {
          "internalType": "uint256",
          "name": "_optionId",
          "type": "uint256"
        },
        {
          "internalType": "address",
          "name": "_toAddress",
          "type": "address"
        },
        {
          "internalType": "uint256",
          "name": "_amount",
          "type": "uint256"
        }
      ],
      "name": "unpack",
      "outputs": [],
      "stateMutability": "nonpayable",
      "type": "function"
    },
    {
      "inputs": [
        {
          "internalType": "address",
          "name": "_to",
          "type": "address"
        },
        {
          "internalType": "uint256",
          "name": "_optionId",
          "type": "uint256"
        },
        {
          "internalType": "uint256",
          "name": "_amount",
          "type": "uint256"
        },
        {
          "internalType": "bytes",
          "name": "_data",
          "type": "bytes"
        }
      ],
      "name": "mint",
      "outputs": [],
      "stateMutability": "nonpayable",
      "type": "function"
    }
  ],
  "bytecode": "0x60806040526003805460ff19908116909155600e805490911690553480156200002757600080fd5b50604051620043eb380380620043eb8339810160408190526200004a9162000447565b604051806060016040528060238152602001620043c8602391396040518060400160405280600881526020016713d4d0d05313d3d560c21b815250604051806020016040528060008152508381620000a881620001b560201b60201c565b50620000bd620000b7620001ce565b620001ea565b8351620000d290600c906020870190620003a1565b508251620000e890600d906020860190620003a1565b50600780546001600160a01b0319166001600160a01b038316179055600c8054620001a49190620001199062000479565b80601f0160208091040260200160405190810160405280929190818152602001828054620001479062000479565b8015620001985780601f106200016c5761010080835404028352916020019162000198565b820191906000526020600020905b8154815290600101906020018083116200017a57829003601f168201915b50506200023c92505050565b50506001600f5550620004b6915050565b8051620001ca906002906020840190620003a1565b5050565b6000620001e5620002a060201b6200192e1760201c565b905090565b600680546001600160a01b038381166001600160a01b0319831681179093556040519116919082907f8be0079c531659141344cd1fd0a4f28419497f9722a3daafe3b4186f6b6457e090600090a35050565b60035460ff1615620002855760405162461bcd60e51b815260206004820152600e60248201526d185b1c9958591e481a5b9a5d195960921b604482015260640160405180910390fd5b6200029081620002ff565b506003805460ff19166001179055565b600033301415620002f957600080368080601f0160208091040260200160405190810160405280939291908181526020018383808284376000920191909152505050503601516001600160a01b03169150620002fc9050565b50335b90565b6040518060800160405280604f815260200162004379604f9139805160209182012082519282019290922060408051808201825260018152603160f81b90840152805180840194909452838101919091527fc89efdaa54c0f20c7adf612882df0950f5a951637e0307cdcb4c672f298b8bc660608401523060808401524660a0808501919091528151808503909101815260c090930190528151910120600455565b828054620003af9062000479565b90600052602060002090601f016020900481019282620003d357600085556200041e565b82601f10620003ee57805160ff19168380011785556200041e565b828001600101855582156200041e579182015b828111156200041e57825182559160200191906001019062000401565b506200042c92915062000430565b5090565b5b808211156200042c576000815560010162000431565b6000602082840312156200045a57600080fd5b81516001600160a01b03811681146200047257600080fd5b9392505050565b600181811c908216806200048e57607f821691505b60208210811415620004b057634e487b7160e01b600052602260045260246000fd5b50919050565b613eb380620004c66000396000f3fe6080604052600436106101935760003560e01c8062fdd58e1461019857806301ffc9a7146101cb57806302fe5305146101fb57806306fdde031461021d5780630c53c51c1461023f5780630e89341c146102525780630f7e59701461027257806320379ee51461029f57806322629f9e146102b45780632693ebf2146102d45780632d0335ab146103015780632eb2c2d6146103375780633408e4701461035757806336a100d51461036a5780633adf80b41461038a5780634e1273f4146103aa5780634f558e79146103d757806360ea2797146103f75780636105671614610417578063715018a614610431578063731133e9146104465780638da5cb5b1461046657806395d89b4114610488578063a22cb4651461049d578063b48ab8b6146104bd578063bd85b039146104dd578063c5df056a1461050a578063cd53d08e1461052a578063d2a6b51a14610560578063e985e9c514610580578063ee5e81f5146105a0578063f0fee98c146105c0578063f242432a146105e0578063f2fde38b14610600578063f718824614610620575b600080fd5b3480156101a457600080fd5b506101b86101b33660046132ee565b610640565b6040519081526020015b60405180910390f35b3480156101d757600080fd5b506101eb6101e63660046134e7565b6106da565b60405190151581526020016101c2565b34801561020757600080fd5b5061021b61021636600461353e565b61072a565b005b34801561022957600080fd5b50610232610775565b6040516101c291906138b3565b61023261024d366004613271565b610803565b34801561025e57600080fd5b5061023261026d366004613572565b6109ec565b34801561027e57600080fd5b50610232604051806040016040528060018152602001603160f81b81525081565b3480156102ab57600080fd5b506004546101b8565b3480156102c057600080fd5b5061021b6102cf3660046133c9565b610baa565b3480156102e057600080fd5b506101b86102ef366004613572565b60096020526000908152604090205481565b34801561030d57600080fd5b506101b861031c366004612fe8565b6001600160a01b031660009081526005602052604090205490565b34801561034357600080fd5b5061021b61035236600461303e565b610c77565b34801561036357600080fd5b50466101b8565b34801561037657600080fd5b506101b8610385366004613370565b610d20565b34801561039657600080fd5b5061021b6103a536600461360c565b610e87565b3480156103b657600080fd5b506103ca6103c5366004613404565b610f14565b6040516101c2919061387b565b3480156103e357600080fd5b506101eb6103f2366004613572565b61103d565b34801561040357600080fd5b5061021b610412366004613648565b611048565b34801561042357600080fd5b50600e546101eb9060ff1681565b34801561043d57600080fd5b5061021b6110c7565b34801561045257600080fd5b5061021b61046136600461331a565b611112565b34801561047257600080fd5b5061047b611227565b6040516101c2919061379b565b34801561049457600080fd5b50610232611236565b3480156104a957600080fd5b5061021b6104b836600461323c565b611243565b3480156104c957600080fd5b5061021b6104d83660046131a2565b611357565b3480156104e957600080fd5b506101b86104f8366004613572565b60009081526009602052604090205490565b34801561051657600080fd5b5061021b6105253660046134cc565b611487565b34801561053657600080fd5b5061047b610545366004613572565b6008602052600090815260409020546001600160a01b031681565b34801561056c57600080fd5b5061021b61057b366004613153565b6114d9565b34801561058c57600080fd5b506101eb61059b366004613005565b611590565b3480156105ac57600080fd5b5061047b6105bb366004613572565b61167f565b3480156105cc57600080fd5b5061021b6105db3660046135a4565b611709565b3480156105ec57600080fd5b5061021b6105fb3660046130eb565b611739565b34801561060c57600080fd5b5061021b61061b366004612fe8565b6117d2565b34801561062c57600080fd5b5061021b61063b3660046135dc565b61187f565b60006001600160a01b0383166106b15760405162461bcd60e51b815260206004820152602b60248201527f455243313135353a2062616c616e636520717565727920666f7220746865207a60448201526a65726f206164647265737360a81b60648201526084015b60405180910390fd5b506000818152602081815260408083206001600160a01b03861684529091529020545b92915050565b60006001600160e01b03198216636cdb3d1360e11b148061070b57506001600160e01b031982166303a24d0760e21b145b806106d457506301ffc9a760e01b6001600160e01b03198316146106d4565b61073261198b565b6001600160a01b0316610743611227565b6001600160a01b0316146107695760405162461bcd60e51b81526004016106a8906139ca565b6107728161199a565b50565b600c805461078290613c2b565b80601f01602080910402602001604051908101604052809291908181526020018280546107ae90613c2b565b80156107fb5780601f106107d0576101008083540402835291602001916107fb565b820191906000526020600020905b8154815290600101906020018083116107de57829003601f168201915b505050505081565b60408051606081810183526001600160a01b0388166000818152600560209081529085902054845283015291810186905261084187828787876119b1565b6108975760405162461bcd60e51b815260206004820152602160248201527f5369676e657220616e64207369676e617475726520646f206e6f74206d6174636044820152600d60fb1b60648201526084016106a8565b6001600160a01b0387166000908152600560205260409020546108bb906001611aa1565b6001600160a01b0388166000908152600560205260409081902091909155517f5845892132946850460bff5a0083f71031bc5bf9aadcd40f1de79423eac9b10b9061090b90899033908a906137af565b60405180910390a1600080306001600160a01b0316888a604051602001610933929190613769565b60408051601f198184030181529082905261094d9161374d565b6000604051808303816000865af19150503d806000811461098a576040519150601f19603f3d011682016040523d82523d6000602084013e61098f565b606091505b5091509150816109e05760405162461bcd60e51b815260206004820152601c60248201527b119d5b98dd1a5bdb8818d85b1b081b9bdd081cdd58d8d95cdcd99d5b60221b60448201526064016106a8565b98975050505050505050565b60606109f782611aad565b610a525760405162461bcd60e51b815260206004820152602660248201527f455243313135355472616461626c65237572693a204e4f4e4558495354454e546044820152652faa27a5a2a760d11b60648201526084016106a8565b6000828152600a602052604081208054610a6b90613c2b565b80601f0160208091040260200160405190810160405280929190818152602001828054610a9790613c2b565b8015610ae45780601f10610ab957610100808354040283529160200191610ae4565b820191906000526020600020905b815481529060010190602001808311610ac757829003601f168201915b50505050509050600081511115610b94576000838152600a602052604090208054610b0e90613c2b565b80601f0160208091040260200160405190810160405280929190818152602001828054610b3a90613c2b565b8015610b875780601f10610b5c57610100808354040283529160200191610b87565b820191906000526020600020905b815481529060010190602001808311610b6a57829003601f168201915b5050505050915050919050565b610b9d83611aca565b9392505050565b50919050565b610bb261198b565b6001600160a01b0316610bc3611227565b6001600160a01b031614610be95760405162461bcd60e51b81526004016106a8906139ca565b604051636306b42b60e01b8152601060048201526001600160a01b038516602482015260448101849052606481018390526084810182905273__LootBoxRandomness_____________________90636306b42b9060a4015b60006040518083038186803b158015610c5957600080fd5b505af4158015610c6d573d6000803e3d6000fd5b5050505050505050565b610c7f61198b565b6001600160a01b0316856001600160a01b03161480610ca55750610ca58561059b61198b565b610d0c5760405162461bcd60e51b815260206004820152603260248201527f455243313135353a207472616e736665722063616c6c6572206973206e6f74206044820152711bdddb995c881b9bdc88185c1c1c9bdd995960721b60648201526084016106a8565b610d198585858585611b5e565b5050505050565b6000610d2a61198b565b6001600160a01b0316610d3b611227565b6001600160a01b031614610d615760405162461bcd60e51b81526004016106a8906139ca565b610d6a85611aad565b15610db25760405162461bcd60e51b8152602060048201526018602482015277746f6b656e205f696420616c72656164792065786973747360401b60448201526064016106a8565b610dba61198b565b600086815260086020526040902080546001600160a01b0319166001600160a01b0392909216919091179055825115610e34576000858152600a602090815260409091208451610e0c92860190612dc8565b5084600080516020613e5e83398151915284604051610e2b91906138b3565b60405180910390a25b610e4086868685611ceb565b5050600b8054600181019091557f0175b7a638427703f0dbe7bb9bbf987a2551717b34e79f33b5b1008d1fa01db90183905550600082815260096020526040902055919050565b81610e9061198b565b6000828152600860205260409020546001600160a01b03908116911614610ec95760405162461bcd60e51b81526004016106a890613a88565b6000838152600a602090815260409091208351610ee892850190612dc8565b5082600080516020613e5e83398151915283604051610f0791906138b3565b60405180910390a2505050565b60608151835114610f795760405162461bcd60e51b815260206004820152602960248201527f455243313135353a206163636f756e747320616e6420696473206c656e677468604482015268040dad2e6dac2e8c6d60bb1b60648201526084016106a8565b600083516001600160401b03811115610f9457610f94613cf5565b604051908082528060200260200182016040528015610fbd578160200160208202803683370190505b50905060005b845181101561103557611008858281518110610fe157610fe1613cdf565b6020026020010151858381518110610ffb57610ffb613cdf565b6020026020010151610640565b82828151811061101a5761101a613cdf565b602090810291909101015261102e81613c8c565b9050610fc3565b509392505050565b60006106d482611aad565b61105061198b565b6001600160a01b0316611061611227565b6001600160a01b0316146110875760405162461bcd60e51b81526004016106a8906139ca565b60405163b13d6c3560e01b815273__LootBoxRandomness_____________________9063b13d6c3590610c41906010908890889088908890600401613b2e565b6110cf61198b565b6001600160a01b03166110e0611227565b6001600160a01b0316146111065760405162461bcd60e51b81526004016106a8906139ca565b6111106000611d1f565b565b6002600f5414156111655760405162461bcd60e51b815260206004820152601f60248201527f5265656e7472616e637947756172643a207265656e7472616e742063616c6c0060448201526064016106a8565b6002600f5561117a61117561198b565b611d71565b6111c55760405162461bcd60e51b815260206004820152601c60248201527b4c6f6f74626f783a206f776e6572206f722070726f7879206f6e6c7960201b60448201526064016106a8565b60115483106112105760405162461bcd60e51b81526020600482015260176024820152762637b7ba3137bc1d1024b73b30b634b21027b83a34b7b760491b60448201526064016106a8565b61121c84848484611ceb565b50506001600f555050565b6006546001600160a01b031690565b600d805461078290613c2b565b816001600160a01b031661125561198b565b6001600160a01b031614156112be5760405162461bcd60e51b815260206004820152602960248201527f455243313135353a2073657474696e6720617070726f76616c20737461747573604482015268103337b91039b2b63360b91b60648201526084016106a8565b80600160006112cb61198b565b6001600160a01b03908116825260208083019390935260409182016000908120918716808252919093529120805460ff19169215159290921790915561130f61198b565b6001600160a01b03167f17307eab39ab6107e8899845ad3d59bd9653f200f220920489ca2b5937696c318360405161134b911515815260200190565b60405180910390a35050565b60005b835181101561147457600084828151811061137757611377613cdf565b6020026020010151905061138961198b565b6000828152600860205260409020546001600160a01b0390811691161461140a5760405162461bcd60e51b815260206004820152602f60248201527f455243313135355472616461626c652362617463684d696e743a204f4e4c595f60448201526e10d491505513d497d0531313d5d151608a1b60648201526084016106a8565b600084838151811061141e5761141e613cdf565b6020026020010151905061144e816009600085815260200190815260200160002054611aa190919063ffffffff16565b60009283526009602052604090922091909155508061146c81613c8c565b91505061135a565b5061148184848484611e3b565b50505050565b61148f61198b565b6001600160a01b03166114a0611227565b6001600160a01b0316146114c65760405162461bcd60e51b81526004016106a8906139ca565b600e805460ff1916911515919091179055565b6001600160a01b0382166115445760405162461bcd60e51b815260206004820152602c60248201527f455243313135355472616461626c652373657443726561746f723a20494e564160448201526b2624a22fa0a2222922a9a99760a11b60648201526084016106a8565b60005b815181101561158b57600082828151811061156457611564613cdf565b602002602001015190506115788482611f7f565b508061158381613c8c565b915050611547565b505050565b600754600e546000916001600160a01b03169060ff16801561163e5750826001600160a01b0316816001600160a01b031663c4552791866040518263ffffffff1660e01b81526004016115e3919061379b565b60206040518083038186803b1580156115fb57600080fd5b505afa15801561160f573d6000803e3d6000fd5b505050506040513d601f19601f820116820180604052508101906116339190613521565b6001600160a01b0316145b1561164d5760019150506106d4565b6001600160a01b0380851660009081526001602090815260408083209387168352929052205460ff165b949350505050565b600061168a82611aad565b6116ed5760405162461bcd60e51b815260206004820152602e60248201527f455243313135355472616461626c652363726561746f72627949443a204e4f4e60448201526d22ac24a9aa22a72a2faa27a5a2a760911b60648201526084016106a8565b506000908152600860205260409020546001600160a01b031690565b61171b61171461198b565b8483611ff0565b61158b60108484846040518060200160405280600081525030612166565b61174161198b565b6001600160a01b0316856001600160a01b0316148061176757506117678561059b61198b565b6117c55760405162461bcd60e51b815260206004820152602960248201527f455243313135353a2063616c6c6572206973206e6f74206f776e6572206e6f7260448201526808185c1c1c9bdd995960ba1b60648201526084016106a8565b610d19858585858561247d565b6117da61198b565b6001600160a01b03166117eb611227565b6001600160a01b0316146118115760405162461bcd60e51b81526004016106a8906139ca565b6001600160a01b0381166118765760405162461bcd60e51b815260206004820152602660248201527f4f776e61626c653a206e6577206f776e657220697320746865207a65726f206160448201526564647265737360d01b60648201526084016106a8565b61077281611d1f565b61188761198b565b6001600160a01b0316611898611227565b6001600160a01b0316146118be5760405162461bcd60e51b81526004016106a8906139ca565b60405163195f3e8960e21b815273__LootBoxRandomness_____________________9063657cfa24906118fa9060109086908690600401613ad9565b60006040518083038186803b15801561191257600080fd5b505af4158015611926573d6000803e3d6000fd5b505050505050565b60003330141561198557600080368080601f0160208091040260200160405190810160405280939291908181526020018383808284376000920191909152505050503601516001600160a01b031691506119889050565b50335b90565b600061199561192e565b905090565b80516119ad906002906020840190612dc8565b5050565b60006001600160a01b038616611a175760405162461bcd60e51b815260206004820152602560248201527f4e61746976654d6574615472616e73616374696f6e3a20494e56414c49445f5360448201526424a3a722a960d91b60648201526084016106a8565b6001611a2a611a25876125a8565b612625565b6040805160008152602081018083529290925260ff851690820152606081018690526080810185905260a0016020604051602081039080840390855afa158015611a78573d6000803e3d6000fd5b505050602060405103516001600160a01b0316866001600160a01b031614905095945050505050565b6000610b9d8284613b96565b6000908152600860205260409020546001600160a01b0316151590565b606060028054611ad990613c2b565b80601f0160208091040260200160405190810160405280929190818152602001828054611b0590613c2b565b8015611b525780601f10611b2757610100808354040283529160200191611b52565b820191906000526020600020905b815481529060010190602001808311611b3557829003601f168201915b50505050509050919050565b8151835114611b7f5760405162461bcd60e51b81526004016106a8906139ff565b6001600160a01b038416611ba55760405162461bcd60e51b81526004016106a89061393b565b6000611baf61198b565b905060005b8451811015611c97576000858281518110611bd157611bd1613cdf565b602002602001015190506000858381518110611bef57611bef613cdf565b602090810291909101810151600084815280835260408082206001600160a01b038e168352909352919091205490915081811015611c3f5760405162461bcd60e51b81526004016106a890613980565b6000838152602081815260408083206001600160a01b038e8116855292528083208585039055908b16825281208054849290611c7c908490613b96565b9250508190555050505080611c9090613c8c565b9050611bb4565b50846001600160a01b0316866001600160a01b0316826001600160a01b0316600080516020613ddb8339815191528787604051611cd592919061388e565b60405180910390a4611926818787878787612655565b600083815260096020526040902054611d049083611aa1565b600084815260096020526040902055611481848484846127c0565b600680546001600160a01b038381166001600160a01b0319831681179093556040519116919082907f8be0079c531659141344cd1fd0a4f28419497f9722a3daafe3b4186f6b6457e090600090a35050565b6007546000906001600160a01b03908116908316611d8d611227565b6001600160a01b03161480610b9d5750826001600160a01b0316816001600160a01b031663c4552791611dbe611227565b6040518263ffffffff1660e01b8152600401611dda919061379b565b60206040518083038186803b158015611df257600080fd5b505afa158015611e06573d6000803e3d6000fd5b505050506040513d601f19601f82011682018060405250810190611e2a9190613521565b6001600160a01b0316149392505050565b6001600160a01b038416611e615760405162461bcd60e51b81526004016106a890613a47565b8151835114611e825760405162461bcd60e51b81526004016106a8906139ff565b6000611e8c61198b565b905060005b8451811015611f2957838181518110611eac57611eac613cdf565b6020026020010151600080878481518110611ec957611ec9613cdf565b602002602001015181526020019081526020016000206000886001600160a01b03166001600160a01b031681526020019081526020016000206000828254611f119190613b96565b90915550819050611f2181613c8c565b915050611e91565b50846001600160a01b031660006001600160a01b0316826001600160a01b0316600080516020613ddb8339815191528787604051611f6892919061388e565b60405180910390a4610d1981600087878787612655565b80611f8861198b565b6000828152600860205260409020546001600160a01b03908116911614611fc15760405162461bcd60e51b81526004016106a890613a88565b50600090815260086020526040902080546001600160a01b0319166001600160a01b0392909216919091179055565b6001600160a01b0383166120525760405162461bcd60e51b815260206004820152602360248201527f455243313135353a206275726e2066726f6d20746865207a65726f206164647260448201526265737360e81b60648201526084016106a8565b600061205c61198b565b905061208d8185600061206e8761288e565b6120778761288e565b5050604080516020810190915260009052505050565b6000838152602081815260408083206001600160a01b03881684529091529020548281101561210a5760405162461bcd60e51b8152602060048201526024808201527f455243313135353a206275726e20616d6f756e7420657863656564732062616c604482015263616e636560e01b60648201526084016106a8565b6000848152602081815260408083206001600160a01b03808a1680865291909352818420878603905590519091851690600080516020613dfb833981519152906121579089908990613b65565b60405180910390a45050505050565b856001015485106121b05760405162461bcd60e51b81526020600482015260146024820152735f6f7074696f6e206f7574206f662072616e676560601b60448201526064016106a8565b60008581526003870160209081526040808320815160808101835281548152600182018054845181870281018701909552808552919492938584019390929083018282801561224657602002820191906000526020600020906000905b82829054906101000a900461ffff1661ffff168152602001906002019060208260010104928301926001038202915080841161220d5790505b5050509183525050600282015460ff16151560208083019190915260038301805460408051828502810185018252828152940193928301828280156122d257602002820191906000526020600020906000905b82829054906101000a900461ffff1661ffff16815260200190600201906020826001010492830192600103820291508084116122995790505b505050505081525050905060008160000151116123455760405162461bcd60e51b815260206004820152602b60248201527f4c6f6f74426f7852616e646f6d6e657373235f6d696e743a204f5054494f4e5f60448201526a1393d517d0531313d5d15160aa1b60648201526084016106a8565b6000805b8581101561242e5760008360400151156123cc5760005b8460600151518110156123ca5760008560600151828151811061238557612385613cdf565b602002602001015161ffff16905060008111156123b7576123a98c838c848b6128d9565b506123b48184613b96565b92505b50806123c281613c8c565b915050612360565b505b835181101561240e5760006001905060006123eb8c876020015161299e565b90506123fa8c828c858b6128d9565b506124058284613b96565b925050506123cc565b6124188184613b96565b925050808061242690613c8c565b915050612349565b50856001600160a01b0316877fd8c55eae4f6ffa3dfbfba23f50cb5e242e86d347736fe1b910ad11bff616d839878460405161246b929190613b65565b60405180910390a35050505050505050565b6001600160a01b0384166124a35760405162461bcd60e51b81526004016106a89061393b565b60006124ad61198b565b90506124c78187876124be8861288e565b610d198861288e565b6000848152602081815260408083206001600160a01b038a168452909152902054838110156125085760405162461bcd60e51b81526004016106a890613980565b6000858152602081815260408083206001600160a01b038b8116855292528083208785039055908816825281208054869290612545908490613b96565b92505081905550856001600160a01b0316876001600160a01b0316836001600160a01b0316600080516020613dfb8339815191528888604051612589929190613b65565b60405180910390a461259f828888888888612a33565b50505050505050565b6000604051806080016040528060438152602001613e1b6043913980516020918201208351848301516040808701518051908601209051612608950193845260208401929092526001600160a01b03166040830152606082015260800190565b604051602081830303815290604052805190602001209050919050565b600061263060045490565b60405161190160f01b6020820152602281019190915260428101839052606201612608565b6001600160a01b0384163b156119265760405163bc197c8160e01b81526001600160a01b0385169063bc197c819061269990899089908890889088906004016137e4565b602060405180830381600087803b1580156126b357600080fd5b505af19250505080156126e3575060408051601f3d908101601f191682019092526126e091810190613504565b60015b612790576126ef613d0b565b806308c379a014156127295750612704613d26565b8061270f575061272b565b8060405162461bcd60e51b81526004016106a891906138b3565b505b60405162461bcd60e51b815260206004820152603460248201527f455243313135353a207472616e7366657220746f206e6f6e20455243313135356044820152732932b1b2b4bb32b91034b6b83632b6b2b73a32b960611b60648201526084016106a8565b6001600160e01b0319811663bc197c8160e01b1461259f5760405162461bcd60e51b81526004016106a8906138c6565b6001600160a01b0384166127e65760405162461bcd60e51b81526004016106a890613a47565b60006127f061198b565b9050612802816000876124be8861288e565b6000848152602081815260408083206001600160a01b038916845290915281208054859290612832908490613b96565b92505081905550846001600160a01b031660006001600160a01b0316826001600160a01b0316600080516020613dfb8339815191528787604051612877929190613b65565b60405180910390a4610d1981600087878787612a33565b604080516001808252818301909252606091600091906020808301908036833701905050905082816000815181106128c8576128c8613cdf565b602090810291909101015292915050565b6000856002015485106128fe5760405162461bcd60e51b81526004016106a89061390e565b85546001600160a01b0316600061291788888787612afd565b6040516363bdb36160e11b8152600481018290526001600160a01b0388811660248301526044820188905260806064830152600060848301529192509083169063c77b66c29060a401600060405180830381600087803b15801561297a57600080fd5b505af115801561298e573d6000803e3d6000fd5b50929a9950505050505050505050565b6000806129b66127106129b086612d5d565b90612dbc565b90506000600184516129c89190613bd1565b90505b8015612a285760008482815181106129e5576129e5613cdf565b602002602001015190508061ffff168361ffff161015612a09575091506106d49050565b612a138184613bae565b92505080612a2081613c14565b9150506129cb565b506000949350505050565b6001600160a01b0384163b156119265760405163f23a6e6160e01b81526001600160a01b0385169063f23a6e6190612a779089908990889088908890600401613836565b602060405180830381600087803b158015612a9157600080fd5b505af1925050508015612ac1575060408051601f3d908101601f19168201909252612abe91810190613504565b60015b612acd576126ef613d0b565b6001600160e01b0319811663f23a6e6160e01b1461259f5760405162461bcd60e51b81526004016106a8906138c6565b600084600201548410612b225760405162461bcd60e51b81526004016106a89061390e565b6000848152600486016020908152604080832080548251818502810185019093528083529192909190830182828015612b7a57602002820191906000526020600020905b815481526020019060010190808311612b66575b505050505090506000815111612bce5760405162461bcd60e51b8152602060048201526019602482015278139bc81d1bdad95b881a591cc8199bdc8817d8db185cdcd259603a1b60448201526064016106a8565b6000612bde82516129b089612d5d565b87549091506001600160a01b0316815b8351612bfa9084613b96565b811015612cd357600084855183612c119190613ca7565b81518110612c2157612c21613cdf565b6020908102919091010151604051627eeac760e11b81526001600160a01b03898116600483015260248201839052919250899185169062fdd58e9060440160206040518083038186803b158015612c7757600080fd5b505afa158015612c8b573d6000803e3d6000fd5b505050506040513d601f19601f82011682018060405250810190612caf919061358b565b10612cc05794506116779350505050565b5080612ccb81613c8c565b915050612bee565b5060405162461bcd60e51b815260206004820152605260248201527f4c6f6f74426f7852616e646f6d6e657373235f7069636b52616e646f6d41766160448201527f696c61626c65546f6b656e4964466f72436c6173733a204e4f545f454e4f5547606482015271485f544f4b454e535f464f525f434c41535360701b608482015260a4016106a8565b600080612d6b600143613bd1565b600584015460408051924060208401526001600160601b03193360601b1690830152605482015260740160408051601f19818403018152919052805160209091012060059093018390555090919050565b6000610b9d8284613ca7565b828054612dd490613c2b565b90600052602060002090601f016020900481019282612df65760008555612e3c565b82601f10612e0f57805160ff1916838001178555612e3c565b82800160010185558215612e3c579182015b82811115612e3c578251825591602001919060010190612e21565b50612e48929150612e4c565b5090565b5b80821115612e485760008155600101612e4d565b600082601f830112612e7257600080fd5b81356020612e7f82613b73565b604051612e8c8282613c60565b8381528281019150858301600585901b87018401881015612eac57600080fd5b6000805b86811015612edb57823561ffff81168114612ec9578283fd5b85529385019391850191600101612eb0565b509198975050505050505050565b600082601f830112612efa57600080fd5b81356020612f0782613b73565b604051612f148282613c60565b8381528281019150858301600585901b87018401881015612f3457600080fd5b60005b85811015612f5357813584529284019290840190600101612f37565b5090979650505050505050565b80358015158114612f7057600080fd5b919050565b600082601f830112612f8657600080fd5b81356001600160401b03811115612f9f57612f9f613cf5565b604051612fb6601f8301601f191660200182613c60565b818152846020838601011115612fcb57600080fd5b816020850160208301376000918101602001919091529392505050565b600060208284031215612ffa57600080fd5b8135610b9d81613daf565b6000806040838503121561301857600080fd5b823561302381613daf565b9150602083013561303381613daf565b809150509250929050565b600080600080600060a0868803121561305657600080fd5b853561306181613daf565b9450602086013561307181613daf565b935060408601356001600160401b038082111561308d57600080fd5b61309989838a01612ee9565b945060608801359150808211156130af57600080fd5b6130bb89838a01612ee9565b935060808801359150808211156130d157600080fd5b506130de88828901612f75565b9150509295509295909350565b600080600080600060a0868803121561310357600080fd5b853561310e81613daf565b9450602086013561311e81613daf565b9350604086013592506060860135915060808601356001600160401b0381111561314757600080fd5b6130de88828901612f75565b6000806040838503121561316657600080fd5b823561317181613daf565b915060208301356001600160401b0381111561318c57600080fd5b61319885828601612ee9565b9150509250929050565b600080600080608085870312156131b857600080fd5b84356131c381613daf565b935060208501356001600160401b03808211156131df57600080fd5b6131eb88838901612ee9565b9450604087013591508082111561320157600080fd5b61320d88838901612ee9565b9350606087013591508082111561322357600080fd5b5061323087828801612f75565b91505092959194509250565b6000806040838503121561324f57600080fd5b823561325a81613daf565b915061326860208401612f60565b90509250929050565b600080600080600060a0868803121561328957600080fd5b853561329481613daf565b945060208601356001600160401b038111156132af57600080fd5b6132bb88828901612f75565b9450506040860135925060608601359150608086013560ff811681146132e057600080fd5b809150509295509295909350565b6000806040838503121561330157600080fd5b823561330c81613daf565b946020939093013593505050565b6000806000806080858703121561333057600080fd5b843561333b81613daf565b9350602085013592506040850135915060608501356001600160401b0381111561336457600080fd5b61323087828801612f75565b600080600080600060a0868803121561338857600080fd5b853561339381613daf565b9450602086013593506040860135925060608601356001600160401b03808211156133bd57600080fd5b6130bb89838a01612f75565b600080600080608085870312156133df57600080fd5b84356133ea81613daf565b966020860135965060408601359560600135945092505050565b6000806040838503121561341757600080fd5b82356001600160401b038082111561342e57600080fd5b818501915085601f83011261344257600080fd5b8135602061344f82613b73565b60405161345c8282613c60565b8381528281019150858301600585901b870184018b101561347c57600080fd5b600096505b848710156134a857803561349481613daf565b835260019690960195918301918301613481565b50965050860135925050808211156134bf57600080fd5b5061319885828601612ee9565b6000602082840312156134de57600080fd5b610b9d82612f60565b6000602082840312156134f957600080fd5b8135610b9d81613dc4565b60006020828403121561351657600080fd5b8151610b9d81613dc4565b60006020828403121561353357600080fd5b8151610b9d81613daf565b60006020828403121561355057600080fd5b81356001600160401b0381111561356657600080fd5b61167784828501612f75565b60006020828403121561358457600080fd5b5035919050565b60006020828403121561359d57600080fd5b5051919050565b6000806000606084860312156135b957600080fd5b8335925060208401356135cb81613daf565b929592945050506040919091013590565b600080604083850312156135ef57600080fd5b8235915060208301356001600160401b0381111561318c57600080fd5b6000806040838503121561361f57600080fd5b8235915060208301356001600160401b0381111561363c57600080fd5b61319885828601612f75565b6000806000806080858703121561365e57600080fd5b843593506020850135925060408501356001600160401b038082111561368357600080fd5b61368f88838901612e61565b935060608701359150808211156136a557600080fd5b5061323087828801612e61565b600081518084526020808501945080840160005b838110156136e657815161ffff16875295820195908201906001016136c6565b509495945050505050565b600081518084526020808501945080840160005b838110156136e657815187529582019590820190600101613705565b60008151808452613739816020860160208601613be8565b601f01601f19169290920160200192915050565b6000825161375f818460208701613be8565b9190910192915050565b6000835161377b818460208801613be8565b60609390931b6001600160601b0319169190920190815260140192915050565b6001600160a01b0391909116815260200190565b6001600160a01b038481168252831660208201526060604082018190526000906137db90830184613721565b95945050505050565b6001600160a01b0386811682528516602082015260a060408201819052600090613810908301866136f1565b828103606084015261382281866136f1565b905082810360808401526109e08185613721565b6001600160a01b03868116825285166020820152604081018490526060810183905260a06080820181905260009061387090830184613721565b979650505050505050565b602081526000610b9d60208301846136f1565b6040815260006138a160408301856136f1565b82810360208401526137db81856136f1565b602081526000610b9d6020830184613721565b60208082526028908201527f455243313135353a204552433131353552656365697665722072656a656374656040820152676420746f6b656e7360c01b606082015260800190565b6020808252601390820152725f636c617373206f7574206f662072616e676560681b604082015260600190565b60208082526025908201527f455243313135353a207472616e7366657220746f20746865207a65726f206164604082015264647265737360d81b606082015260800190565b6020808252602a908201527f455243313135353a20696e73756666696369656e742062616c616e636520666f60408201526939103a3930b739b332b960b11b606082015260800190565b6020808252818101527f4f776e61626c653a2063616c6c6572206973206e6f7420746865206f776e6572604082015260600190565b60208082526028908201527f455243313135353a2069647320616e6420616d6f756e7473206c656e677468206040820152670dad2e6dac2e8c6d60c31b606082015260800190565b60208082526021908201527f455243313135353a206d696e7420746f20746865207a65726f206164647265736040820152607360f81b606082015260800190565b60208082526031908201527f455243313135355472616461626c652363726561746f724f6e6c793a204f4e4c6040820152701657d0d491505513d497d0531313d5d151607a1b606082015260800190565b6000606082018583526020858185015260606040850152818551808452608086019150828701935060005b81811015613b2057845183529383019391830191600101613b04565b509098975050505050505050565b85815284602082015283604082015260a060608201526000613b5360a08301856136b2565b82810360808401526109e081856136b2565b918252602082015260400190565b60006001600160401b03821115613b8c57613b8c613cf5565b5060051b60200190565b60008219821115613ba957613ba9613cc9565b500190565b600061ffff83811690831681811015613bc957613bc9613cc9565b039392505050565b600082821015613be357613be3613cc9565b500390565b60005b83811015613c03578181015183820152602001613beb565b838111156114815750506000910152565b600081613c2357613c23613cc9565b506000190190565b600181811c90821680613c3f57607f821691505b60208210811415610ba457634e487b7160e01b600052602260045260246000fd5b601f8201601f191681016001600160401b0381118282101715613c8557613c85613cf5565b6040525050565b6000600019821415613ca057613ca0613cc9565b5060010190565b600082613cc457634e487b7160e01b600052601260045260246000fd5b500690565b634e487b7160e01b600052601160045260246000fd5b634e487b7160e01b600052603260045260246000fd5b634e487b7160e01b600052604160045260246000fd5b600060033d11156119885760046000803e5060005160e01c90565b600060443d1015613d345790565b6040516003193d81016004833e81513d6001600160401b038083116024840183101715613d6357505050505090565b8285019150815181811115613d7b5750505050505090565b843d8701016020828501011115613d955750505050505090565b613da460208286010187613c60565b509095945050505050565b6001600160a01b038116811461077257600080fd5b6001600160e01b03198116811461077257600080fdfe4a39dc06d4c0dbc64b70af90fd698a233a518aa5d07e595d983b8c0526c8f7fbc3d58168c5ae7397731d063d5bbf3d657854427343f4c083240f7aacaa2d0f624d6574615472616e73616374696f6e2875696e74323536206e6f6e63652c616464726573732066726f6d2c62797465732066756e6374696f6e5369676e6174757265296bb7ff708619ba0610cba295a58592e0451dee2622938c8755667688daf3529ba2646970667358221220b2610596692f51d382e33344386047b09e8635a1cd037b67afb446c6b4145ff064736f6c63430008070033454950373132446f6d61696e28737472696e67206e616d652c737472696e672076657273696f6e2c6164647265737320766572696679696e67436f6e74726163742c627974657333322073616c74294f70656e536561204275696c64696e67204163636573736f7279204c6f6f7420426f78",
  "immutableReferences": {},
  "source": "// SPDX-License-Identifier: MIT\r\n\r\npragma solidity ^0.8.0;\r\n\r\nimport \"openzeppelin-solidity/contracts/security/ReentrancyGuard.sol\";\r\nimport \"openzeppelin-solidity/contracts/utils/math/SafeMath.sol\";\r\nimport \"./ERC1155Tradable.sol\";\r\nimport \"./LootBoxRandomness.sol\";\r\n\r\n\r\n/**\r\n * @title BuildingAccessoryLootBox\r\n * BuildingAccessoryLootBox - a randomized and openable lootbox of Building\r\n * Accessories.\r\n */\r\ncontract BuildingAccessoryLootBox is ERC1155Tradable, ReentrancyGuard {\r\n  using LootBoxRandomness for LootBoxRandomness.LootBoxRandomnessState;\r\n  using SafeMath for uint256;\r\n\r\n  LootBoxRandomness.LootBoxRandomnessState state;\r\n\r\n  /**\r\n   * @dev Example constructor. Sets minimal configuration.\r\n   * @param _proxyRegistryAddress The address of the OpenSea/Wyvern proxy registry\r\n   *                              On Rinkeby: \"0xf57b2c51ded3a29e6891aba85459d600256cf317\"\r\n   *                              On mainnet: \"0xa5409ec958c83c3f309868babaca7c86dcb077c1\"\r\n   */\r\n  constructor(address _proxyRegistryAddress)\r\n  ERC1155Tradable(\r\n    \"OpenSea Building Accessory Loot Box\",\r\n    \"OSCALOOT\",\r\n    \"\",\r\n    _proxyRegistryAddress\r\n  ) {}\r\n\r\n  function setState(\r\n    address _providerAddress,\r\n    uint256 _numOptions,\r\n    uint256 _numClasses,\r\n    uint256 _seed\r\n  ) public onlyOwner {\r\n    LootBoxRandomness.initState(state, _providerAddress, _numOptions, _numClasses, _seed);\r\n  }\r\n\r\n  function setTokenIdsForClass(\r\n    uint256 _classId,\r\n    uint256[] memory _tokenIds\r\n  ) public onlyOwner {\r\n      LootBoxRandomness.setTokenIdsForClass(state, _classId, _tokenIds);\r\n  }\r\n\r\n  function setOptionSettings(\r\n    uint256 _option,\r\n    uint256 _maxQuantityPerOpen,\r\n    uint16[] memory _classProbabilities,\r\n    uint16[] memory _guarantees\r\n  ) public onlyOwner {\r\n    LootBoxRandomness.setOptionSettings(state, _option, _maxQuantityPerOpen, _classProbabilities, _guarantees);\r\n  }\r\n\r\n  ///////\r\n  // MAIN FUNCTIONS\r\n  //////\r\n\r\n  function unpack(\r\n    uint256 _optionId,\r\n    address _toAddress,\r\n    uint256 _amount\r\n  ) external {\r\n    // This will underflow if _msgSender() does not own enough tokens.\r\n    _burn(_msgSender(), _optionId, _amount);\r\n    // Mint nfts contained by LootBox\r\n    LootBoxRandomness._mint(state, _optionId, _toAddress, _amount, \"\", address(this));\r\n  }\r\n\r\n  /**\r\n   *  @dev Mint the token/option id.\r\n   */\r\n  function mint(\r\n    address _to,\r\n    uint256 _optionId,\r\n    uint256 _amount,\r\n    bytes memory _data\r\n  ) override public nonReentrant {\r\n    require(_isOwnerOrProxy(_msgSender()), \"Lootbox: owner or proxy only\");\r\n    require(_optionId < state.numOptions, \"Lootbox: Invalid Option\");\r\n    // Option ID is used as a token ID here\r\n    _mint(_to, _optionId, _amount, _data);\r\n  }\r\n\r\n  /**\r\n   *  @dev track the number of tokens minted.\r\n   */\r\n  function _mint(\r\n    address _to,\r\n    uint256 _id,\r\n    uint256 _quantity,\r\n    bytes memory _data\r\n  ) override internal  {\r\n    tokenSupply[_id] = tokenSupply[_id].add(_quantity);\r\n    super._mint(_to, _id, _quantity, _data);\r\n  }\r\n\r\n  function _isOwnerOrProxy(\r\n    address _address\r\n  ) internal view returns (bool) {\r\n    ProxyRegistry proxyRegistry = ProxyRegistry(proxyRegistryAddress);\r\n    return owner() == _address || address(proxyRegistry.proxies(owner())) == _address;\r\n  }\r\n}\r\n",
  "sourcePath": "D:\\04_Work\\001\\NFT_presale\\smart_contract\\contracts\\BuildingAccessoryLootBox.sol",
  "compiler": {
    "name": "solc",
    "version": "0.8.7+commit.e28d00a7.Emscripten.clang"
  },
  "schemaVersion": "3.4.3",
  "updatedAt": "2021-10-19T18:53:42.556Z",
  "devdoc": {
    "kind": "dev",
    "methods": {
      "balanceOf(address,uint256)": {
        "details": "See {IERC1155-balanceOf}. Requirements: - `account` cannot be the zero address."
      },
      "balanceOfBatch(address[],uint256[])": {
        "details": "See {IERC1155-balanceOfBatch}. Requirements: - `accounts` and `ids` must have the same length."
      },
      "batchMint(address,uint256[],uint256[],bytes)": {
        "details": "Mint tokens for each id in _ids",
        "params": {
          "_data": "Data to pass if receiver is contract",
          "_ids": "Array of ids to mint",
          "_quantities": "Array of amounts of tokens to mint per id",
          "_to": "The address to mint tokens to"
        }
      },
      "constructor": {
        "details": "Example constructor. Sets minimal configuration.",
        "params": {
          "_proxyRegistryAddress": "The address of the OpenSea/Wyvern proxy registry                              On Rinkeby: \"0xf57b2c51ded3a29e6891aba85459d600256cf317\"                              On mainnet: \"0xa5409ec958c83c3f309868babaca7c86dcb077c1\""
        }
      },
      "create(address,uint256,uint256,string,bytes)": {
        "details": "Creates a new token type and assigns _initialSupply to an address NOTE: remove onlyOwner if you want third parties to create new tokens on       your contract (which may change your IDs) NOTE: The token id must be passed. This allows lazy creation of tokens or       creating NFTs by setting the id's high bits with the method       described in ERC1155 or to use ids representing values other than       successive small integers. If you wish to create ids as successive       small integers you can either subclass this class to count onchain       or maintain the offchain cache of identifiers recommended in       ERC1155 and calculate successive ids from that.",
        "params": {
          "_data": "Data to pass if receiver is contract",
          "_id": "The id of the token to create (must not currenty exist).",
          "_initialOwner": "address of the first owner of the token",
          "_initialSupply": "amount to supply the first owner",
          "_uri": "Optional URI for this token type"
        },
        "returns": {
          "_0": "The newly created token ID"
        }
      },
      "mint(address,uint256,uint256,bytes)": {
        "details": "Mint the token/option id."
      },
      "owner()": {
        "details": "Returns the address of the current owner."
      },
      "renounceOwnership()": {
        "details": "Leaves the contract without owner. It will not be possible to call `onlyOwner` functions anymore. Can only be called by the current owner. NOTE: Renouncing ownership will leave the contract without an owner, thereby removing any functionality that is only available to the owner."
      },
      "safeBatchTransferFrom(address,address,uint256[],uint256[],bytes)": {
        "details": "See {IERC1155-safeBatchTransferFrom}."
      },
      "safeTransferFrom(address,address,uint256,uint256,bytes)": {
        "details": "See {IERC1155-safeTransferFrom}."
      },
      "setApprovalForAll(address,bool)": {
        "details": "See {IERC1155-setApprovalForAll}."
      },
      "setCreator(address,uint256[])": {
        "details": "Change the creator address for given tokens",
        "params": {
          "_ids": "Array of Token IDs to change creator",
          "_to": "Address of the new creator"
        }
      },
      "setCustomURI(uint256,string)": {
        "details": "Will update the base URI for the token",
        "params": {
          "_newURI": "New URI for the token.",
          "_tokenId": "The token to update. _msgSender() must be its creator."
        }
      },
      "setURI(string)": {
        "details": "Sets a new URI for all token types, by relying on the token type ID substitution mechanism https://eips.ethereum.org/EIPS/eip-1155#metadata[defined in the EIP].",
        "params": {
          "_newURI": "New URI for all tokens"
        }
      },
      "supportsInterface(bytes4)": {
        "details": "See {IERC165-supportsInterface}."
      },
      "totalSupply(uint256)": {
        "details": "Returns the total quantity for a token ID",
        "params": {
          "_id": "uint256 ID of the token to query"
        },
        "returns": {
          "_0": "amount of token in existence"
        }
      },
      "transferOwnership(address)": {
        "details": "Transfers ownership of the contract to a new account (`newOwner`). Can only be called by the current owner."
      }
    },
    "title": "BuildingAccessoryLootBox BuildingAccessoryLootBox - a randomized and openable lootbox of Building Accessories.",
    "version": 1
  },
  "userdoc": {
    "kind": "user",
    "methods": {
      "isApprovedForAll(address,address)": {
        "notice": "Override isApprovedForAll to whitelist user's OpenSea proxy accounts to enable gas-free listings."
      }
    },
    "version": 1
  }
}