{
  "contractName": "BuildingAccessoryProvider",
  "abi": [
    {
      "inputs": [
        {
          "internalType": "address",
          "name": "_proxyRegistryAddress",
          "type": "address"
        },
        {
          "internalType": "address",
          "name": "_nftAddress",
          "type": "address"
        },
        {
          "internalType": "address",
          "name": "_lootBoxAddress",
          "type": "address"
        }
      ],
      "stateMutability": "nonpayable",
      "type": "constructor"
    },
    {
      "anonymous": false,
      "inputs": [
        {
          "indexed": true,
          "internalType": "address",
          "name": "previousOwner",
          "type": "address"
        },
        {
          "indexed": true,
          "internalType": "address",
          "name": "newOwner",
          "type": "address"
        }
      ],
      "name": "OwnershipTransferred",
      "type": "event"
    },
    {
      "inputs": [],
      "name": "BASIC_LOOTBOX",
      "outputs": [
        {
          "internalType": "uint256",
          "name": "",
          "type": "uint256"
        }
      ],
      "stateMutability": "view",
      "type": "function"
    },
    {
      "inputs": [],
      "name": "GOLD_LOOTBOX",
      "outputs": [
        {
          "internalType": "uint256",
          "name": "",
          "type": "uint256"
        }
      ],
      "stateMutability": "view",
      "type": "function"
    },
    {
      "inputs": [],
      "name": "NUM_LOOTBOX_OPTIONS",
      "outputs": [
        {
          "internalType": "uint256",
          "name": "",
          "type": "uint256"
        }
      ],
      "stateMutability": "view",
      "type": "function"
    },
    {
      "inputs": [],
      "name": "NUM_OPTIONS",
      "outputs": [
        {
          "internalType": "uint256",
          "name": "",
          "type": "uint256"
        }
      ],
      "stateMutability": "view",
      "type": "function"
    },
    {
      "inputs": [],
      "name": "PREMIUM_LOOTBOX",
      "outputs": [
        {
          "internalType": "uint256",
          "name": "",
          "type": "uint256"
        }
      ],
      "stateMutability": "view",
      "type": "function"
    },
    {
      "inputs": [],
      "name": "lootBoxAddress",
      "outputs": [
        {
          "internalType": "address",
          "name": "",
          "type": "address"
        }
      ],
      "stateMutability": "view",
      "type": "function"
    },
    {
      "inputs": [],
      "name": "nftAddress",
      "outputs": [
        {
          "internalType": "address",
          "name": "",
          "type": "address"
        }
      ],
      "stateMutability": "view",
      "type": "function"
    },
    {
      "inputs": [],
      "name": "owner",
      "outputs": [
        {
          "internalType": "address",
          "name": "",
          "type": "address"
        }
      ],
      "stateMutability": "view",
      "type": "function"
    },
    {
      "inputs": [],
      "name": "proxyRegistryAddress",
      "outputs": [
        {
          "internalType": "address",
          "name": "",
          "type": "address"
        }
      ],
      "stateMutability": "view",
      "type": "function"
    },
    {
      "inputs": [],
      "name": "renounceOwnership",
      "outputs": [],
      "stateMutability": "nonpayable",
      "type": "function"
    },
    {
      "inputs": [
        {
          "internalType": "address",
          "name": "newOwner",
          "type": "address"
        }
      ],
      "name": "transferOwnership",
      "outputs": [],
      "stateMutability": "nonpayable",
      "type": "function"
    },
    {
      "inputs": [],
      "name": "name",
      "outputs": [
        {
          "internalType": "string",
          "name": "",
          "type": "string"
        }
      ],
      "stateMutability": "pure",
      "type": "function"
    },
    {
      "inputs": [],
      "name": "symbol",
      "outputs": [
        {
          "internalType": "string",
          "name": "",
          "type": "string"
        }
      ],
      "stateMutability": "pure",
      "type": "function"
    },
    {
      "inputs": [],
      "name": "supportsProviderInterface",
      "outputs": [
        {
          "internalType": "bool",
          "name": "",
          "type": "bool"
        }
      ],
      "stateMutability": "pure",
      "type": "function"
    },
    {
      "inputs": [],
      "name": "providerSchemaName",
      "outputs": [
        {
          "internalType": "string",
          "name": "",
          "type": "string"
        }
      ],
      "stateMutability": "pure",
      "type": "function"
    },
    {
      "inputs": [],
      "name": "numOptions",
      "outputs": [
        {
          "internalType": "uint256",
          "name": "",
          "type": "uint256"
        }
      ],
      "stateMutability": "pure",
      "type": "function"
    },
    {
      "inputs": [
        {
          "internalType": "uint256",
          "name": "_optionId",
          "type": "uint256"
        }
      ],
      "name": "uri",
      "outputs": [
        {
          "internalType": "string",
          "name": "",
          "type": "string"
        }
      ],
      "stateMutability": "pure",
      "type": "function"
    },
    {
      "inputs": [
        {
          "internalType": "uint256",
          "name": "_optionId",
          "type": "uint256"
        },
        {
          "internalType": "uint256",
          "name": "_amount",
          "type": "uint256"
        }
      ],
      "name": "canMint",
      "outputs": [
        {
          "internalType": "bool",
          "name": "",
          "type": "bool"
        }
      ],
      "stateMutability": "view",
      "type": "function"
    },
    {
      "inputs": [
        {
          "internalType": "uint256",
          "name": "_optionId",
          "type": "uint256"
        },
        {
          "internalType": "address",
          "name": "_toAddress",
          "type": "address"
        },
        {
          "internalType": "uint256",
          "name": "_amount",
          "type": "uint256"
        },
        {
          "internalType": "bytes",
          "name": "_data",
          "type": "bytes"
        }
      ],
      "name": "mint",
      "outputs": [],
      "stateMutability": "nonpayable",
      "type": "function"
    },
    {
      "inputs": [
        {
          "internalType": "address",
          "name": "_owner",
          "type": "address"
        },
        {
          "internalType": "uint256",
          "name": "_optionId",
          "type": "uint256"
        }
      ],
      "name": "balanceOf",
      "outputs": [
        {
          "internalType": "uint256",
          "name": "",
          "type": "uint256"
        }
      ],
      "stateMutability": "view",
      "type": "function"
    }
  ],
  "bytecode": "0x608060405234801561001057600080fd5b506040516200122038038062001220833981016040819052610031916100ec565b61003a33610080565b60018055600280546001600160a01b039485166001600160a01b03199182161790915560038054938516938216939093179092556004805491909316911617905561012f565b600080546001600160a01b038381166001600160a01b0319831681178455604051919092169283917f8be0079c531659141344cd1fd0a4f28419497f9722a3daafe3b4186f6b6457e09190a35050565b80516001600160a01b03811681146100e757600080fd5b919050565b60008060006060848603121561010157600080fd5b61010a846100d0565b9250610118602085016100d0565b9150610126604085016100d0565b90509250925092565b6110e1806200013f6000396000f3fe608060405234801561001057600080fd5b50600436106100fb5760003560e01c8062fdd58e1461010057806306fdde03146101265780630e89341c1461013b57806322e1dea91461014e57806323ab9455146101715780633db62e2c14610194578063478410561461019c5780634b97aed9146101a357806350c9b436146101ab5780635bf8633a146101b3578063715018a6146101d35780638531b06b146101dd5780638da5cb5b146101f057806395d89b41146101f8578063a01d9ee414610219578063c0cdf20f14610221578063c77b66c214610229578063cd7c03261461023c578063f21af56d1461024f578063f2fde38b14610257575b600080fd5b61011361010e366004610c81565b61026a565b6040519081526020015b60405180910390f35b61012e61040e565b60405161011d9190610f10565b61012e610149366004610cec565b61042e565b61016161015c366004610db3565b610479565b604051901515815260200161011d565b6040805180820190915260078152664552433131353560c81b602082015261012e565b61011361048d565b6001610161565b61011361049c565b6101136104af565b6003546101c6906001600160a01b031681565b60405161011d9190610e45565b6101db6104bb565b005b6004546101c6906001600160a01b031681565b6101c66104ff565b60408051808201909152600581526404f534341560dc1b602082015261012e565b610113600381565b61011361050e565b6101db610237366004610d1e565b61051a565b6002546101c6906001600160a01b031681565b6101136105c2565b6101db610265366004610c64565b6105ce565b600060068210156103495761027e8361066e565b15801561029957506004546001600160a01b03848116911614155b156102a657506000610408565b6003546001600160a01b031660008162fdd58e6102c16104ff565b6040516001600160e01b031960e084901b1681526001600160a01b0390911660048201526024810187905260440160206040518083038186803b15801561030757600080fd5b505afa15801561031b573d6000803e3d6000fd5b505050506040513d601f19601f8201168201806040525081019061033f9190610d05565b9250610408915050565b6103528361066e565b61035e57506000610408565b600061036b600684610f84565b6004805460405163bd85b03960e01b81529293506001600160a01b031691600091839163bd85b039916103a49187910190815260200190565b60206040518083038186803b1580156103bc57600080fd5b505afa1580156103d0573d6000803e3d6000fd5b505050506040513d601f19601f820116820180604052508101906103f49190610d05565b905061040260001982610738565b93505050505b92915050565b606060405180606001604052806023815260200161108960239139905090565b60606040518060600160405280602581526020016110646025913961045283610744565b604051602001610463929190610e01565b6040516020818303038152906040529050919050565b6000610486338484610849565b9392505050565b61049960036006610f58565b81565b60006104aa60066003610f58565b905090565b61049960066002610f58565b336104c46104ff565b6001600160a01b0316146104f35760405162461bcd60e51b81526004016104ea90610f23565b60405180910390fd5b6104fd600061086a565b565b6000546001600160a01b031690565b61049960066000610f58565b6002600154141561056d5760405162461bcd60e51b815260206004820152601f60248201527f5265656e7472616e637947756172643a207265656e7472616e742063616c6c0060448201526064016104ea565b60026001819055506105b785858585858080601f0160208091040260200160405190810160405280939291908181526020018383808284376000920191909152506108ba92505050565b505060018055505050565b61049960066001610f58565b336105d76104ff565b6001600160a01b0316146105fd5760405162461bcd60e51b81526004016104ea90610f23565b6001600160a01b0381166106625760405162461bcd60e51b815260206004820152602660248201527f4f776e61626c653a206e6577206f776e657220697320746865207a65726f206160448201526564647265737360d01b60648201526084016104ea565b61066b8161086a565b50565b6002546000906001600160a01b0390811690831661068a6104ff565b6001600160a01b031614806104865750826001600160a01b0316816001600160a01b031663c45527916106bb6104ff565b6040518263ffffffff1660e01b81526004016106d79190610e45565b60206040518083038186803b1580156106ef57600080fd5b505afa158015610703573d6000803e3d6000fd5b505050506040513d601f19601f820116820180604052508101906107279190610ccf565b6001600160a01b0316149392505050565b60006104868284610f84565b6060816107685750506040805180820190915260018152600360fc1b602082015290565b8160005b8115610792578061077c81610fc7565b915061078b9050600a83610f70565b915061076c565b6000816001600160401b038111156107ac576107ac611038565b6040519080825280601f01601f1916602001820160405280156107d6576020820181803683370190505b5090505b8415610841576107eb600183610f84565b91506107f8600a86610fe2565b610803906030610f58565b60f81b81838151811061081857610818611022565b60200101906001600160f81b031916908160001a90535061083a600a86610f70565b94506107da565b949350505050565b60008082118015610841575081610860858561026a565b1015949350505050565b600080546001600160a01b038381166001600160a01b0319831681178455604051919092169283917f8be0079c531659141344cd1fd0a4f28419497f9722a3daafe3b4186f6b6457e09190a35050565b6108c5338584610849565b61092b5760405162461bcd60e51b815260206004820152603160248201527f4275696c64696e674163636573736f727950726f7669646572235f6d696e743a6044820152702043414e4e4f545f4d494e545f4d4f524560781b60648201526084016104ea565b6006841015610a1d5761093d3361066e565b8061095b57506004546001600160a01b0316336001600160a01b0316145b6109a75760405162461bcd60e51b815260206004820152601e60248201527f43616c6c65722063616e6e6f74206d696e74206163636573736f72696573000060448201526064016104ea565b6003546001600160a01b03168063f242432a6109c16104ff565b868887876040518663ffffffff1660e01b81526004016109e5959493929190610e59565b600060405180830381600087803b1580156109ff57600080fd5b505af1158015610a13573d6000803e3d6000fd5b5050505050610ae9565b610a2960036006610f58565b841015610aaf57610a393361066e565b610a805760405162461bcd60e51b815260206004820152601860248201527743616c6c65722063616e6e6f74206d696e7420626f78657360401b60448201526064016104ea565b6000610a8d600686610f84565b600454909150610aa9906001600160a01b031685838686610aef565b50610ae9565b60405162461bcd60e51b815260206004820152600f60248201526e2ab735b737bbb7102fb7b83a34b7b760891b60448201526064016104ea565b50505050565b604051634f558e7960e01b81526004810184905285906001600160a01b03821690634f558e799060240160206040518083038186803b158015610b3157600080fd5b505afa158015610b45573d6000803e3d6000fd5b505050506040513d601f19601f82011682018060405250810190610b699190610cad565b610bf7576040516336a100d560e01b81526001600160a01b038216906336a100d590610b9f908890889088908890600401610ed5565b602060405180830381600087803b158015610bb957600080fd5b505af1158015610bcd573d6000803e3d6000fd5b505050506040513d601f19601f82011682018060405250810190610bf19190610d05565b50610c5c565b60405163731133e960e01b81526001600160a01b0382169063731133e990610c29908890889088908890600401610e9e565b600060405180830381600087803b158015610c4357600080fd5b505af1158015610c57573d6000803e3d6000fd5b505050505b505050505050565b600060208284031215610c7657600080fd5b81356104868161104e565b60008060408385031215610c9457600080fd5b8235610c9f8161104e565b946020939093013593505050565b600060208284031215610cbf57600080fd5b8151801515811461048657600080fd5b600060208284031215610ce157600080fd5b81516104868161104e565b600060208284031215610cfe57600080fd5b5035919050565b600060208284031215610d1757600080fd5b5051919050565b600080600080600060808688031215610d3657600080fd5b853594506020860135610d488161104e565b93506040860135925060608601356001600160401b0380821115610d6b57600080fd5b818801915088601f830112610d7f57600080fd5b813581811115610d8e57600080fd5b896020828501011115610da057600080fd5b9699959850939650602001949392505050565b60008060408385031215610dc657600080fd5b50508035926020909101359150565b60008151808452610ded816020860160208601610f9b565b601f01601f19169290920160200192915050565b60008351610e13818460208801610f9b565b6870726f76696465722f60b81b9083019081528351610e39816009840160208801610f9b565b01600901949350505050565b6001600160a01b0391909116815260200190565b6001600160a01b03868116825285166020820152604081018490526060810183905260a060808201819052600090610e9390830184610dd5565b979650505050505050565b60018060a01b0385168152836020820152826040820152608060608201526000610ecb6080830184610dd5565b9695505050505050565b60018060a01b038516815283602082015282604082015260a06060820152600060a082015260c060808201526000610ecb60c0830184610dd5565b6020815260006104866020830184610dd5565b6020808252818101527f4f776e61626c653a2063616c6c6572206973206e6f7420746865206f776e6572604082015260600190565b60008219821115610f6b57610f6b610ff6565b500190565b600082610f7f57610f7f61100c565b500490565b600082821015610f9657610f96610ff6565b500390565b60005b83811015610fb6578181015183820152602001610f9e565b83811115610ae95750506000910152565b6000600019821415610fdb57610fdb610ff6565b5060010190565b600082610ff157610ff161100c565b500690565b634e487b7160e01b600052601160045260246000fd5b634e487b7160e01b600052601260045260246000fd5b634e487b7160e01b600052603260045260246000fd5b634e487b7160e01b600052604160045260246000fd5b6001600160a01b038116811461066b57600080fdfe68747470733a2f2f6275696c64696e67732d6170692e6f70656e7365612e696f2f6170692f4f70656e536561204275696c64696e67204163636573736f7279205072652d53616c65a264697066735822122049d58d4adf45e17befeaf58b8278e96669a18629cce69d5f2b9309c8b411ebf964736f6c63430008070033",
  "immutableReferences": {},
  "source": "// SPDX-License-Identifier: MIT\r\n\r\npragma solidity ^0.8.0;\r\n\r\nimport \"openzeppelin-solidity/contracts/access/Ownable.sol\";\r\nimport \"openzeppelin-solidity/contracts/security/ReentrancyGuard.sol\";\r\nimport \"openzeppelin-solidity/contracts/utils/Strings.sol\";\r\nimport \"./IProviderERC1155.sol\";\r\nimport \"./ERC1155Tradable.sol\";\r\n\r\n/**\r\n * @title BuildingAccessoryProvider\r\n * BuildingAccessory - a provider contract for Building Accessory semi-fungible\r\n * tokens.\r\n */\r\ncontract BuildingAccessoryProvider is ProviderERC1155, Ownable, ReentrancyGuard {\r\n    using Strings for string;\r\n    using SafeMath for uint256;\r\n\r\n    address public proxyRegistryAddress;\r\n    address public nftAddress;\r\n    address public lootBoxAddress;\r\n    string\r\n        internal constant baseMetadataURI = \"https://buildings-api.opensea.io/api/\";\r\n    uint256 constant UINT256_MAX = ~uint256(0);\r\n\r\n    /*\r\n     * Optionally set this to a small integer to enforce limited existence per option/token ID\r\n     * (Otherwise rely on sell orders on OpenSea, which can only be made by the provider owner.)\r\n     */\r\n    uint256 constant SUPPLY_PER_TOKEN_ID = UINT256_MAX;\r\n\r\n    // The number of building accessories (not building accessory rarity classes!)\r\n    uint256 constant NUM_ITEM_OPTIONS = 6;\r\n\r\n    /*\r\n     * Three different options for minting BuildingAccessories (basic, premium, and gold).\r\n     */\r\n    uint256 public constant BASIC_LOOTBOX = NUM_ITEM_OPTIONS + 0;\r\n    uint256 public constant PREMIUM_LOOTBOX = NUM_ITEM_OPTIONS + 1;\r\n    uint256 public constant GOLD_LOOTBOX = NUM_ITEM_OPTIONS + 2;\r\n    uint256 public constant NUM_LOOTBOX_OPTIONS = 3;\r\n\r\n    uint256 public constant NUM_OPTIONS = NUM_ITEM_OPTIONS +\r\n        NUM_LOOTBOX_OPTIONS;\r\n\r\n    constructor(\r\n        address _proxyRegistryAddress,\r\n        address _nftAddress,\r\n        address _lootBoxAddress\r\n    ) {\r\n        proxyRegistryAddress = _proxyRegistryAddress;\r\n        nftAddress = _nftAddress;\r\n        lootBoxAddress = _lootBoxAddress;\r\n    }\r\n\r\n    /////\r\n    // PROVIDER INTERFACE METHODS\r\n    /////\r\n\r\n    function name() override external pure returns (string memory) {\r\n        return \"OpenSea Building Accessory Pre-Sale\";\r\n    }\r\n\r\n    function symbol() override external pure returns (string memory) {\r\n        return \"OSCAP\";\r\n    }\r\n\r\n    function supportsProviderInterface() override external pure returns (bool) {\r\n        return true;\r\n    }\r\n\r\n    function providerSchemaName() override external pure returns (string memory) {\r\n        return \"ERC1155\";\r\n    }\r\n\r\n    function numOptions() override external pure returns (uint256) {\r\n        return NUM_LOOTBOX_OPTIONS + NUM_ITEM_OPTIONS;\r\n    }\r\n\r\n    function uri(uint256 _optionId) override external pure returns (string memory) {\r\n        return\r\n            string(\r\n                abi.encodePacked(\r\n                    baseMetadataURI,\r\n                    \"provider/\",\r\n                    Strings.toString(_optionId)\r\n                    )\r\n                );\r\n    }\r\n\r\n    function canMint(uint256 _optionId, uint256 _amount)\r\n        override\r\n        external\r\n        view\r\n        returns (bool)\r\n    {\r\n        return _canMint(_msgSender(), _optionId, _amount);\r\n    }\r\n\r\n    function mint(\r\n        uint256 _optionId,\r\n        address _toAddress,\r\n        uint256 _amount,\r\n        bytes calldata _data\r\n    ) override external nonReentrant() {\r\n        return _mint(_optionId, _toAddress, _amount, _data);\r\n    }\r\n\r\n    /**\r\n     * @dev Main minting logic implemented here!\r\n     */\r\n    function _mint(\r\n        uint256 _option,\r\n        address _toAddress,\r\n        uint256 _amount,\r\n        bytes memory _data\r\n    ) internal {\r\n        require(\r\n            _canMint(_msgSender(), _option, _amount),\r\n            \"BuildingAccessoryProvider#_mint: CANNOT_MINT_MORE\"\r\n        );\r\n        if (_option < NUM_ITEM_OPTIONS) {\r\n            require(\r\n                _isOwnerOrProxy(_msgSender()) || _msgSender() == lootBoxAddress,\r\n                \"Caller cannot mint accessories\"\r\n            );\r\n            // Items are pre-mined (by the owner), so transfer them (We are an\r\n            // operator for the owner).\r\n            ERC1155Tradable items = ERC1155Tradable(nftAddress);\r\n            // Option is used as a token ID here\r\n            items.safeTransferFrom(\r\n                owner(),\r\n                _toAddress,\r\n                _option,\r\n                _amount,\r\n                _data\r\n            );\r\n        } else if (_option < NUM_OPTIONS) {\r\n            require(_isOwnerOrProxy(_msgSender()), \"Caller cannot mint boxes\");\r\n            uint256 lootBoxOption = _option - NUM_ITEM_OPTIONS;\r\n            // LootBoxes are not premined, so we need to create or mint them.\r\n            // lootBoxOption is used as a token ID here.\r\n            _createOrMint(\r\n                lootBoxAddress,\r\n                _toAddress,\r\n                lootBoxOption,\r\n                _amount,\r\n                _data\r\n            );\r\n        } else {\r\n            revert(\"Unknown _option\");\r\n        }\r\n    }\r\n\r\n    /*\r\n     * Note: make sure code that calls this is non-reentrant.\r\n     * Note: this is the token _id *within* the ERC1155 contract, not the option\r\n     *       id from this contract.\r\n     */\r\n    function _createOrMint(\r\n        address _erc1155Address,\r\n        address _to,\r\n        uint256 _id,\r\n        uint256 _amount,\r\n        bytes memory _data\r\n    ) internal {\r\n        ERC1155Tradable tradable = ERC1155Tradable(_erc1155Address);\r\n        // Lazily create the token\r\n        if (!tradable.exists(_id)) {\r\n            tradable.create(_to, _id, _amount, \"\", _data);\r\n        } else {\r\n            tradable.mint(_to, _id, _amount, _data);\r\n        }\r\n    }\r\n\r\n    /**\r\n     * Get the provider's ownership of Option.\r\n     * Should be the amount it can still mint.\r\n     * NOTE: Called by `canMint`\r\n     */\r\n    function balanceOf(address _owner, uint256 _optionId)\r\n        override\r\n        public\r\n        view\r\n        returns (uint256)\r\n    {\r\n        if (_optionId < NUM_ITEM_OPTIONS) {\r\n            if (!_isOwnerOrProxy(_owner) && _owner != lootBoxAddress) {\r\n                // Only the provider's owner or owner's proxy,\r\n                // or the lootbox can have supply\r\n                return 0;\r\n            }\r\n            // The pre-minted balance belongs to the address that minted this contract\r\n            ERC1155Tradable lootBox = ERC1155Tradable(nftAddress);\r\n            // OptionId is used as a token ID here\r\n            uint256 currentSupply = lootBox.balanceOf(owner(), _optionId);\r\n            return currentSupply;\r\n        } else {\r\n            if (!_isOwnerOrProxy(_owner)) {\r\n                // Only the provider owner or owner's proxy can have supply\r\n                return 0;\r\n            }\r\n            // We explicitly calculate the token ID here\r\n            uint256 tokenId = (_optionId - NUM_ITEM_OPTIONS);\r\n            ERC1155Tradable lootBox = ERC1155Tradable(lootBoxAddress);\r\n            uint256 currentSupply = lootBox.totalSupply(tokenId);\r\n            // We can mint up to a balance of SUPPLY_PER_TOKEN_ID\r\n            return SUPPLY_PER_TOKEN_ID.sub(currentSupply);\r\n        }\r\n    }\r\n\r\n    function _canMint(\r\n        address _fromAddress,\r\n        uint256 _optionId,\r\n        uint256 _amount\r\n    ) internal view returns (bool) {\r\n        return _amount > 0 && balanceOf(_fromAddress, _optionId) >= _amount;\r\n    }\r\n\r\n    function _isOwnerOrProxy(address _address) internal view returns (bool) {\r\n        ProxyRegistry proxyRegistry = ProxyRegistry(proxyRegistryAddress);\r\n        return\r\n            owner() == _address ||\r\n            address(proxyRegistry.proxies(owner())) == _address;\r\n    }\r\n}\r\n",
  "sourcePath": "D:\\04_Work\\001\\NFT_presale\\smart_contract\\contracts\\BuildingAccessoryProvider.sol",
  "compiler": {
    "name": "solc",
    "version": "0.8.7+commit.e28d00a7.Emscripten.clang"
  },
  "schemaVersion": "3.4.3",
  "updatedAt": "2021-10-19T18:53:42.583Z",
  "devdoc": {
    "kind": "dev",
    "methods": {
      "canMint(uint256,uint256)": {
        "details": "Returns whether the option ID can be minted. Can return false if the developer wishes to restrict a total supply per option ID (or overall)."
      },
      "mint(uint256,address,uint256,bytes)": {
        "details": "Mints asset(s) in accordance to a specific address with a particular \"option\". This should be callable only by the contract owner or the owner's Wyvern Proxy (later universal login will solve this). Options should also be delineated 0 - (numOptions() - 1) for convenient indexing.",
        "params": {
          "_amount": "amount of the option to mint",
          "_data": "Extra data to pass during safeTransferFrom",
          "_optionId": "the option id",
          "_toAddress": "address of the future owner of the asset(s)"
        }
      },
      "owner()": {
        "details": "Returns the address of the current owner."
      },
      "renounceOwnership()": {
        "details": "Leaves the contract without owner. It will not be possible to call `onlyOwner` functions anymore. Can only be called by the current owner. NOTE: Renouncing ownership will leave the contract without an owner, thereby removing any functionality that is only available to the owner."
      },
      "transferOwnership(address)": {
        "details": "Transfers ownership of the contract to a new account (`newOwner`). Can only be called by the current owner."
      },
      "uri(uint256)": {
        "details": "Returns a URL specifying some metadata about the option. This metadata can be of the same structure as the ERC1155 metadata."
      }
    },
    "title": "BuildingAccessoryProvider BuildingAccessory - a provider contract for Building Accessory semi-fungible tokens.",
    "version": 1
  },
  "userdoc": {
    "kind": "user",
    "methods": {
      "balanceOf(address,uint256)": {
        "notice": "Get the provider's ownership of Option. Should be the amount it can still mint. NOTE: Called by `canMint`"
      },
      "name()": {
        "notice": "Returns the name of this provider."
      },
      "numOptions()": {
        "notice": "Number of options the provider supports."
      },
      "providerSchemaName()": {
        "notice": "Indicates the Wyvern schema name for assets in this lootbox, e.g. \"ERC1155\""
      },
      "supportsProviderInterface()": {
        "notice": "Indicates that this is a provider contract. Ideally would use EIP 165 supportsInterface()"
      },
      "symbol()": {
        "notice": "Returns the symbol for this provider."
      }
    },
    "version": 1
  }
}