{
  "contractName": "BuildingAccessory",
  "abi": [
    {
      "inputs": [
        {
          "internalType": "address",
          "name": "_proxyRegistryAddress",
          "type": "address"
        }
      ],
      "stateMutability": "nonpayable",
      "type": "constructor"
    },
    {
      "anonymous": false,
      "inputs": [
        {
          "indexed": true,
          "internalType": "address",
          "name": "account",
          "type": "address"
        },
        {
          "indexed": true,
          "internalType": "address",
          "name": "operator",
          "type": "address"
        },
        {
          "indexed": false,
          "internalType": "bool",
          "name": "approved",
          "type": "bool"
        }
      ],
      "name": "ApprovalForAll",
      "type": "event"
    },
    {
      "anonymous": false,
      "inputs": [
        {
          "indexed": false,
          "internalType": "address",
          "name": "userAddress",
          "type": "address"
        },
        {
          "indexed": false,
          "internalType": "address payable",
          "name": "relayerAddress",
          "type": "address"
        },
        {
          "indexed": false,
          "internalType": "bytes",
          "name": "functionSignature",
          "type": "bytes"
        }
      ],
      "name": "MetaTransactionExecuted",
      "type": "event"
    },
    {
      "anonymous": false,
      "inputs": [
        {
          "indexed": true,
          "internalType": "address",
          "name": "previousOwner",
          "type": "address"
        },
        {
          "indexed": true,
          "internalType": "address",
          "name": "newOwner",
          "type": "address"
        }
      ],
      "name": "OwnershipTransferred",
      "type": "event"
    },
    {
      "anonymous": false,
      "inputs": [
        {
          "indexed": true,
          "internalType": "address",
          "name": "operator",
          "type": "address"
        },
        {
          "indexed": true,
          "internalType": "address",
          "name": "from",
          "type": "address"
        },
        {
          "indexed": true,
          "internalType": "address",
          "name": "to",
          "type": "address"
        },
        {
          "indexed": false,
          "internalType": "uint256[]",
          "name": "ids",
          "type": "uint256[]"
        },
        {
          "indexed": false,
          "internalType": "uint256[]",
          "name": "values",
          "type": "uint256[]"
        }
      ],
      "name": "TransferBatch",
      "type": "event"
    },
    {
      "anonymous": false,
      "inputs": [
        {
          "indexed": true,
          "internalType": "address",
          "name": "operator",
          "type": "address"
        },
        {
          "indexed": true,
          "internalType": "address",
          "name": "from",
          "type": "address"
        },
        {
          "indexed": true,
          "internalType": "address",
          "name": "to",
          "type": "address"
        },
        {
          "indexed": false,
          "internalType": "uint256",
          "name": "id",
          "type": "uint256"
        },
        {
          "indexed": false,
          "internalType": "uint256",
          "name": "value",
          "type": "uint256"
        }
      ],
      "name": "TransferSingle",
      "type": "event"
    },
    {
      "anonymous": false,
      "inputs": [
        {
          "indexed": false,
          "internalType": "string",
          "name": "value",
          "type": "string"
        },
        {
          "indexed": true,
          "internalType": "uint256",
          "name": "id",
          "type": "uint256"
        }
      ],
      "name": "URI",
      "type": "event"
    },
    {
      "inputs": [],
      "name": "ERC712_VERSION",
      "outputs": [
        {
          "internalType": "string",
          "name": "",
          "type": "string"
        }
      ],
      "stateMutability": "view",
      "type": "function"
    },
    {
      "inputs": [
        {
          "internalType": "address",
          "name": "account",
          "type": "address"
        },
        {
          "internalType": "uint256",
          "name": "id",
          "type": "uint256"
        }
      ],
      "name": "balanceOf",
      "outputs": [
        {
          "internalType": "uint256",
          "name": "",
          "type": "uint256"
        }
      ],
      "stateMutability": "view",
      "type": "function"
    },
    {
      "inputs": [
        {
          "internalType": "address[]",
          "name": "accounts",
          "type": "address[]"
        },
        {
          "internalType": "uint256[]",
          "name": "ids",
          "type": "uint256[]"
        }
      ],
      "name": "balanceOfBatch",
      "outputs": [
        {
          "internalType": "uint256[]",
          "name": "",
          "type": "uint256[]"
        }
      ],
      "stateMutability": "view",
      "type": "function"
    },
    {
      "inputs": [
        {
          "internalType": "address",
          "name": "_to",
          "type": "address"
        },
        {
          "internalType": "uint256[]",
          "name": "_ids",
          "type": "uint256[]"
        },
        {
          "internalType": "uint256[]",
          "name": "_quantities",
          "type": "uint256[]"
        },
        {
          "internalType": "bytes",
          "name": "_data",
          "type": "bytes"
        }
      ],
      "name": "batchMint",
      "outputs": [],
      "stateMutability": "nonpayable",
      "type": "function"
    },
    {
      "inputs": [
        {
          "internalType": "address",
          "name": "_initialOwner",
          "type": "address"
        },
        {
          "internalType": "uint256",
          "name": "_id",
          "type": "uint256"
        },
        {
          "internalType": "uint256",
          "name": "_initialSupply",
          "type": "uint256"
        },
        {
          "internalType": "string",
          "name": "_uri",
          "type": "string"
        },
        {
          "internalType": "bytes",
          "name": "_data",
          "type": "bytes"
        }
      ],
      "name": "create",
      "outputs": [
        {
          "internalType": "uint256",
          "name": "",
          "type": "uint256"
        }
      ],
      "stateMutability": "nonpayable",
      "type": "function"
    },
    {
      "inputs": [
        {
          "internalType": "uint256",
          "name": "_id",
          "type": "uint256"
        }
      ],
      "name": "creatorbyID",
      "outputs": [
        {
          "internalType": "address",
          "name": "",
          "type": "address"
        }
      ],
      "stateMutability": "view",
      "type": "function"
    },
    {
      "inputs": [
        {
          "internalType": "uint256",
          "name": "",
          "type": "uint256"
        }
      ],
      "name": "creators",
      "outputs": [
        {
          "internalType": "address",
          "name": "",
          "type": "address"
        }
      ],
      "stateMutability": "view",
      "type": "function"
    },
    {
      "inputs": [
        {
          "internalType": "address",
          "name": "userAddress",
          "type": "address"
        },
        {
          "internalType": "bytes",
          "name": "functionSignature",
          "type": "bytes"
        },
        {
          "internalType": "bytes32",
          "name": "sigR",
          "type": "bytes32"
        },
        {
          "internalType": "bytes32",
          "name": "sigS",
          "type": "bytes32"
        },
        {
          "internalType": "uint8",
          "name": "sigV",
          "type": "uint8"
        }
      ],
      "name": "executeMetaTransaction",
      "outputs": [
        {
          "internalType": "bytes",
          "name": "",
          "type": "bytes"
        }
      ],
      "stateMutability": "payable",
      "type": "function"
    },
    {
      "inputs": [
        {
          "internalType": "uint256",
          "name": "_id",
          "type": "uint256"
        }
      ],
      "name": "exists",
      "outputs": [
        {
          "internalType": "bool",
          "name": "",
          "type": "bool"
        }
      ],
      "stateMutability": "view",
      "type": "function"
    },
    {
      "inputs": [],
      "name": "getChainId",
      "outputs": [
        {
          "internalType": "uint256",
          "name": "",
          "type": "uint256"
        }
      ],
      "stateMutability": "view",
      "type": "function"
    },
    {
      "inputs": [],
      "name": "getDomainSeperator",
      "outputs": [
        {
          "internalType": "bytes32",
          "name": "",
          "type": "bytes32"
        }
      ],
      "stateMutability": "view",
      "type": "function"
    },
    {
      "inputs": [
        {
          "internalType": "address",
          "name": "user",
          "type": "address"
        }
      ],
      "name": "getNonce",
      "outputs": [
        {
          "internalType": "uint256",
          "name": "nonce",
          "type": "uint256"
        }
      ],
      "stateMutability": "view",
      "type": "function"
    },
    {
      "inputs": [
        {
          "internalType": "address",
          "name": "_owner",
          "type": "address"
        },
        {
          "internalType": "address",
          "name": "_operator",
          "type": "address"
        }
      ],
      "name": "isApprovedForAll",
      "outputs": [
        {
          "internalType": "bool",
          "name": "isOperator",
          "type": "bool"
        }
      ],
      "stateMutability": "view",
      "type": "function"
    },
    {
      "inputs": [],
      "name": "isProxyUseForLive",
      "outputs": [
        {
          "internalType": "bool",
          "name": "",
          "type": "bool"
        }
      ],
      "stateMutability": "view",
      "type": "function"
    },
    {
      "inputs": [
        {
          "internalType": "address",
          "name": "_to",
          "type": "address"
        },
        {
          "internalType": "uint256",
          "name": "_id",
          "type": "uint256"
        },
        {
          "internalType": "uint256",
          "name": "_quantity",
          "type": "uint256"
        },
        {
          "internalType": "bytes",
          "name": "_data",
          "type": "bytes"
        }
      ],
      "name": "mint",
      "outputs": [],
      "stateMutability": "nonpayable",
      "type": "function"
    },
    {
      "inputs": [],
      "name": "name",
      "outputs": [
        {
          "internalType": "string",
          "name": "",
          "type": "string"
        }
      ],
      "stateMutability": "view",
      "type": "function"
    },
    {
      "inputs": [],
      "name": "owner",
      "outputs": [
        {
          "internalType": "address",
          "name": "",
          "type": "address"
        }
      ],
      "stateMutability": "view",
      "type": "function"
    },
    {
      "inputs": [],
      "name": "renounceOwnership",
      "outputs": [],
      "stateMutability": "nonpayable",
      "type": "function"
    },
    {
      "inputs": [
        {
          "internalType": "address",
          "name": "from",
          "type": "address"
        },
        {
          "internalType": "address",
          "name": "to",
          "type": "address"
        },
        {
          "internalType": "uint256[]",
          "name": "ids",
          "type": "uint256[]"
        },
        {
          "internalType": "uint256[]",
          "name": "amounts",
          "type": "uint256[]"
        },
        {
          "internalType": "bytes",
          "name": "data",
          "type": "bytes"
        }
      ],
      "name": "safeBatchTransferFrom",
      "outputs": [],
      "stateMutability": "nonpayable",
      "type": "function"
    },
    {
      "inputs": [
        {
          "internalType": "address",
          "name": "from",
          "type": "address"
        },
        {
          "internalType": "address",
          "name": "to",
          "type": "address"
        },
        {
          "internalType": "uint256",
          "name": "id",
          "type": "uint256"
        },
        {
          "internalType": "uint256",
          "name": "amount",
          "type": "uint256"
        },
        {
          "internalType": "bytes",
          "name": "data",
          "type": "bytes"
        }
      ],
      "name": "safeTransferFrom",
      "outputs": [],
      "stateMutability": "nonpayable",
      "type": "function"
    },
    {
      "inputs": [
        {
          "internalType": "address",
          "name": "operator",
          "type": "address"
        },
        {
          "internalType": "bool",
          "name": "approved",
          "type": "bool"
        }
      ],
      "name": "setApprovalForAll",
      "outputs": [],
      "stateMutability": "nonpayable",
      "type": "function"
    },
    {
      "inputs": [
        {
          "internalType": "address",
          "name": "_to",
          "type": "address"
        },
        {
          "internalType": "uint256[]",
          "name": "_ids",
          "type": "uint256[]"
        }
      ],
      "name": "setCreator",
      "outputs": [],
      "stateMutability": "nonpayable",
      "type": "function"
    },
    {
      "inputs": [
        {
          "internalType": "uint256",
          "name": "_tokenId",
          "type": "uint256"
        },
        {
          "internalType": "string",
          "name": "_newURI",
          "type": "string"
        }
      ],
      "name": "setCustomURI",
      "outputs": [],
      "stateMutability": "nonpayable",
      "type": "function"
    },
    {
      "inputs": [
        {
          "internalType": "bool",
          "name": "_bUse",
          "type": "bool"
        }
      ],
      "name": "setProxyUseForLive",
      "outputs": [],
      "stateMutability": "nonpayable",
      "type": "function"
    },
    {
      "inputs": [
        {
          "internalType": "string",
          "name": "_newURI",
          "type": "string"
        }
      ],
      "name": "setURI",
      "outputs": [],
      "stateMutability": "nonpayable",
      "type": "function"
    },
    {
      "inputs": [
        {
          "internalType": "bytes4",
          "name": "interfaceId",
          "type": "bytes4"
        }
      ],
      "name": "supportsInterface",
      "outputs": [
        {
          "internalType": "bool",
          "name": "",
          "type": "bool"
        }
      ],
      "stateMutability": "view",
      "type": "function"
    },
    {
      "inputs": [],
      "name": "symbol",
      "outputs": [
        {
          "internalType": "string",
          "name": "",
          "type": "string"
        }
      ],
      "stateMutability": "view",
      "type": "function"
    },
    {
      "inputs": [
        {
          "internalType": "uint256",
          "name": "",
          "type": "uint256"
        }
      ],
      "name": "tokenSupply",
      "outputs": [
        {
          "internalType": "uint256",
          "name": "",
          "type": "uint256"
        }
      ],
      "stateMutability": "view",
      "type": "function"
    },
    {
      "inputs": [
        {
          "internalType": "uint256",
          "name": "_id",
          "type": "uint256"
        }
      ],
      "name": "totalSupply",
      "outputs": [
        {
          "internalType": "uint256",
          "name": "",
          "type": "uint256"
        }
      ],
      "stateMutability": "view",
      "type": "function"
    },
    {
      "inputs": [
        {
          "internalType": "address",
          "name": "newOwner",
          "type": "address"
        }
      ],
      "name": "transferOwnership",
      "outputs": [],
      "stateMutability": "nonpayable",
      "type": "function"
    },
    {
      "inputs": [
        {
          "internalType": "uint256",
          "name": "_id",
          "type": "uint256"
        }
      ],
      "name": "uri",
      "outputs": [
        {
          "internalType": "string",
          "name": "",
          "type": "string"
        }
      ],
      "stateMutability": "view",
      "type": "function"
    },
    {
      "inputs": [],
      "name": "contractURI",
      "outputs": [
        {
          "internalType": "string",
          "name": "",
          "type": "string"
        }
      ],
      "stateMutability": "pure",
      "type": "function"
    }
  ],
  "bytecode": "0x60806040526003805460ff19908116909155600e805490911690553480156200002757600080fd5b5060405162003440380380620034408339810160408190526200004a916200045d565b6040518060400160405280601a81526020017f4f70656e536561204275696c64696e67204163636573736f7279000000000000815250604051806040016040528060048152602001634f53424160e01b8152506040518060600160405280603381526020016200340d603391398381620000c481620001cb565b50620000d9620000d3620001e4565b62000200565b8351620000ee90600c906020870190620003b7565b5082516200010490600d906020860190620003b7565b50600780546001600160a01b0319166001600160a01b038316179055600c8054620001c0919062000135906200048f565b80601f016020809104026020016040519081016040528092919081815260200182805462000163906200048f565b8015620001b45780601f106200018857610100808354040283529160200191620001b4565b820191906000526020600020905b8154815290600101906020018083116200019657829003601f168201915b50506200025292505050565b5050505050620004cc565b8051620001e0906002906020840190620003b7565b5050565b6000620001fb620002b660201b620016021760201c565b905090565b600680546001600160a01b038381166001600160a01b0319831681179093556040519116919082907f8be0079c531659141344cd1fd0a4f28419497f9722a3daafe3b4186f6b6457e090600090a35050565b60035460ff16156200029b5760405162461bcd60e51b815260206004820152600e60248201526d185b1c9958591e481a5b9a5d195960921b604482015260640160405180910390fd5b620002a68162000315565b506003805460ff19166001179055565b6000333014156200030f57600080368080601f0160208091040260200160405190810160405280939291908181526020018383808284376000920191909152505050503601516001600160a01b03169150620003129050565b50335b90565b6040518060800160405280604f8152602001620033be604f9139805160209182012082519282019290922060408051808201825260018152603160f81b90840152805180840194909452838101919091527fc89efdaa54c0f20c7adf612882df0950f5a951637e0307cdcb4c672f298b8bc660608401523060808401524660a0808501919091528151808503909101815260c090930190528151910120600455565b828054620003c5906200048f565b90600052602060002090601f016020900481019282620003e9576000855562000434565b82601f106200040457805160ff191683800117855562000434565b8280016001018555821562000434579182015b828111156200043457825182559160200191906001019062000417565b506200044292915062000446565b5090565b5b8082111562000442576000815560010162000447565b6000602082840312156200047057600080fd5b81516001600160a01b03811681146200048857600080fd5b9392505050565b600181811c90821680620004a457607f821691505b60208210811415620004c657634e487b7160e01b600052602260045260246000fd5b50919050565b612ee280620004dc6000396000f3fe6080604052600436106101725760003560e01c8062fdd58e1461017757806301ffc9a7146101aa57806302fe5305146101da57806306fdde03146101fc5780630c53c51c1461021e5780630e89341c146102315780630f7e59701461025157806320379ee51461027e5780632693ebf2146102935780632d0335ab146102c05780632eb2c2d6146102f65780633408e4701461031657806336a100d5146103295780633adf80b4146103495780634e1273f4146103695780634f558e791461039657806361056716146103b6578063715018a6146103d0578063731133e9146103e55780638da5cb5b1461040557806395d89b4114610427578063a22cb4651461043c578063b48ab8b61461045c578063bd85b0391461047c578063c5df056a146104a9578063cd53d08e146104c9578063d2a6b51a146104ff578063e8a3d4851461051f578063e985e9c514610534578063ee5e81f514610554578063f242432a14610574578063f2fde38b14610594575b600080fd5b34801561018357600080fd5b50610197610192366004612578565b6105b4565b6040519081526020015b60405180910390f35b3480156101b657600080fd5b506101ca6101c5366004612736565b61064e565b60405190151581526020016101a1565b3480156101e657600080fd5b506101fa6101f536600461278d565b61069e565b005b34801561020857600080fd5b506102116106e9565b6040516101a191906129e3565b61021161022c3660046124fb565b610777565b34801561023d57600080fd5b5061021161024c3660046127c1565b610960565b34801561025d57600080fd5b50610211604051806040016040528060018152602001603160f81b81525081565b34801561028a57600080fd5b50600454610197565b34801561029f57600080fd5b506101976102ae3660046127c1565b60096020526000908152604090205481565b3480156102cc57600080fd5b506101976102db366004612272565b6001600160a01b031660009081526005602052604090205490565b34801561030257600080fd5b506101fa6103113660046122c8565b610b1e565b34801561032257600080fd5b5046610197565b34801561033557600080fd5b506101976103443660046125fa565b610bc7565b34801561035557600080fd5b506101fa6103643660046127da565b610d2e565b34801561037557600080fd5b50610389610384366004612653565b610dbb565b6040516101a191906129ab565b3480156103a257600080fd5b506101ca6103b13660046127c1565b610ee4565b3480156103c257600080fd5b50600e546101ca9060ff1681565b3480156103dc57600080fd5b506101fa610eef565b3480156103f157600080fd5b506101fa6104003660046125a4565b610f3a565b34801561041157600080fd5b5061041a610fba565b6040516101a191906128cb565b34801561043357600080fd5b50610211610fc9565b34801561044857600080fd5b506101fa6104573660046124c6565b610fd6565b34801561046857600080fd5b506101fa61047736600461242c565b6110ea565b34801561048857600080fd5b506101976104973660046127c1565b60009081526009602052604090205490565b3480156104b557600080fd5b506101fa6104c436600461271b565b61121a565b3480156104d557600080fd5b5061041a6104e43660046127c1565b6008602052600090815260409020546001600160a01b031681565b34801561050b57600080fd5b506101fa61051a3660046123dd565b61126c565b34801561052b57600080fd5b50610211611323565b34801561054057600080fd5b506101ca61054f36600461228f565b611343565b34801561056057600080fd5b5061041a61056f3660046127c1565b611432565b34801561058057600080fd5b506101fa61058f366004612375565b6114bc565b3480156105a057600080fd5b506101fa6105af366004612272565b611555565b60006001600160a01b0383166106255760405162461bcd60e51b815260206004820152602b60248201527f455243313135353a2062616c616e636520717565727920666f7220746865207a60448201526a65726f206164647265737360a81b60648201526084015b60405180910390fd5b506000818152602081815260408083206001600160a01b03861684529091529020545b92915050565b60006001600160e01b03198216636cdb3d1360e11b148061067f57506001600160e01b031982166303a24d0760e21b145b8061064857506301ffc9a760e01b6001600160e01b0319831614610648565b6106a661165f565b6001600160a01b03166106b7610fba565b6001600160a01b0316146106dd5760405162461bcd60e51b815260040161061c90612acd565b6106e68161166e565b50565b600c80546106f690612c43565b80601f016020809104026020016040519081016040528092919081815260200182805461072290612c43565b801561076f5780601f106107445761010080835404028352916020019161076f565b820191906000526020600020905b81548152906001019060200180831161075257829003601f168201915b505050505081565b60408051606081810183526001600160a01b038816600081815260056020908152908590205484528301529181018690526107b58782878787611685565b61080b5760405162461bcd60e51b815260206004820152602160248201527f5369676e657220616e64207369676e617475726520646f206e6f74206d6174636044820152600d60fb1b606482015260840161061c565b6001600160a01b03871660009081526005602052604090205461082f906001611775565b6001600160a01b0388166000908152600560205260409081902091909155517f5845892132946850460bff5a0083f71031bc5bf9aadcd40f1de79423eac9b10b9061087f90899033908a906128df565b60405180910390a1600080306001600160a01b0316888a6040516020016108a7929190612899565b60408051601f19818403018152908290526108c19161287d565b6000604051808303816000865af19150503d80600081146108fe576040519150601f19603f3d011682016040523d82523d6000602084013e610903565b606091505b5091509150816109545760405162461bcd60e51b815260206004820152601c60248201527b119d5b98dd1a5bdb8818d85b1b081b9bdd081cdd58d8d95cdcd99d5b60221b604482015260640161061c565b98975050505050505050565b606061096b82611781565b6109c65760405162461bcd60e51b815260206004820152602660248201527f455243313135355472616461626c65237572693a204e4f4e4558495354454e546044820152652faa27a5a2a760d11b606482015260840161061c565b6000828152600a6020526040812080546109df90612c43565b80601f0160208091040260200160405190810160405280929190818152602001828054610a0b90612c43565b8015610a585780601f10610a2d57610100808354040283529160200191610a58565b820191906000526020600020905b815481529060010190602001808311610a3b57829003601f168201915b50505050509050600081511115610b08576000838152600a602052604090208054610a8290612c43565b80601f0160208091040260200160405190810160405280929190818152602001828054610aae90612c43565b8015610afb5780601f10610ad057610100808354040283529160200191610afb565b820191906000526020600020905b815481529060010190602001808311610ade57829003601f168201915b5050505050915050919050565b610b118361179e565b9392505050565b50919050565b610b2661165f565b6001600160a01b0316856001600160a01b03161480610b4c5750610b4c8561054f61165f565b610bb35760405162461bcd60e51b815260206004820152603260248201527f455243313135353a207472616e736665722063616c6c6572206973206e6f74206044820152711bdddb995c881b9bdc88185c1c1c9bdd995960721b606482015260840161061c565b610bc08585858585611832565b5050505050565b6000610bd161165f565b6001600160a01b0316610be2610fba565b6001600160a01b031614610c085760405162461bcd60e51b815260040161061c90612acd565b610c1185611781565b15610c595760405162461bcd60e51b8152602060048201526018602482015277746f6b656e205f696420616c72656164792065786973747360401b604482015260640161061c565b610c6161165f565b600086815260086020526040902080546001600160a01b0319166001600160a01b0392909216919091179055825115610cdb576000858152600a602090815260409091208451610cb3928601906120da565b5084600080516020612e5483398151915284604051610cd291906129e3565b60405180910390a25b610ce7868686856119c7565b5050600b8054600181019091557f0175b7a638427703f0dbe7bb9bbf987a2551717b34e79f33b5b1008d1fa01db90183905550600082815260096020526040902055919050565b81610d3761165f565b6000828152600860205260409020546001600160a01b03908116911614610d705760405162461bcd60e51b815260040161061c90612b8b565b6000838152600a602090815260409091208351610d8f928501906120da565b5082600080516020612e5483398151915283604051610dae91906129e3565b60405180910390a2505050565b60608151835114610e205760405162461bcd60e51b815260206004820152602960248201527f455243313135353a206163636f756e747320616e6420696473206c656e677468604482015268040dad2e6dac2e8c6d60bb1b606482015260840161061c565b600083516001600160401b03811115610e3b57610e3b612ceb565b604051908082528060200260200182016040528015610e64578160200160208202803683370190505b50905060005b8451811015610edc57610eaf858281518110610e8857610e88612cd5565b6020026020010151858381518110610ea257610ea2612cd5565b60200260200101516105b4565b828281518110610ec157610ec1612cd5565b6020908102919091010152610ed581612ca4565b9050610e6a565b509392505050565b600061064882611781565b610ef761165f565b6001600160a01b0316610f08610fba565b6001600160a01b031614610f2e5760405162461bcd60e51b815260040161061c90612acd565b610f386000611a90565b565b82610f4361165f565b6000828152600860205260409020546001600160a01b03908116911614610f7c5760405162461bcd60e51b815260040161061c90612b8b565b610f88858585856119c7565b600084815260096020526040902054610fa19084611775565b6000948552600960205260409094209390935550505050565b6006546001600160a01b031690565b600d80546106f690612c43565b816001600160a01b0316610fe861165f565b6001600160a01b031614156110515760405162461bcd60e51b815260206004820152602960248201527f455243313135353a2073657474696e6720617070726f76616c20737461747573604482015268103337b91039b2b63360b91b606482015260840161061c565b806001600061105e61165f565b6001600160a01b03908116825260208083019390935260409182016000908120918716808252919093529120805460ff1916921515929092179091556110a261165f565b6001600160a01b03167f17307eab39ab6107e8899845ad3d59bd9653f200f220920489ca2b5937696c31836040516110de911515815260200190565b60405180910390a35050565b60005b835181101561120757600084828151811061110a5761110a612cd5565b6020026020010151905061111c61165f565b6000828152600860205260409020546001600160a01b0390811691161461119d5760405162461bcd60e51b815260206004820152602f60248201527f455243313135355472616461626c652362617463684d696e743a204f4e4c595f60448201526e10d491505513d497d0531313d5d151608a1b606482015260840161061c565b60008483815181106111b1576111b1612cd5565b602002602001015190506111e181600960008581526020019081526020016000205461177590919063ffffffff16565b6000928352600960205260409092209190915550806111ff81612ca4565b9150506110ed565b5061121484848484611ae2565b50505050565b61122261165f565b6001600160a01b0316611233610fba565b6001600160a01b0316146112595760405162461bcd60e51b815260040161061c90612acd565b600e805460ff1916911515919091179055565b6001600160a01b0382166112d75760405162461bcd60e51b815260206004820152602c60248201527f455243313135355472616461626c652373657443726561746f723a20494e564160448201526b2624a22fa0a2222922a9a99760a11b606482015260840161061c565b60005b815181101561131e5760008282815181106112f7576112f7612cd5565b6020026020010151905061130b8482611c26565b508061131681612ca4565b9150506112da565b505050565b6060604051806060016040528060398152602001612e7460399139905090565b600754600e546000916001600160a01b03169060ff1680156113f15750826001600160a01b0316816001600160a01b031663c4552791866040518263ffffffff1660e01b815260040161139691906128cb565b60206040518083038186803b1580156113ae57600080fd5b505afa1580156113c2573d6000803e3d6000fd5b505050506040513d601f19601f820116820180604052508101906113e69190612770565b6001600160a01b0316145b15611400576001915050610648565b6001600160a01b0380851660009081526001602090815260408083209387168352929052205460ff165b949350505050565b600061143d82611781565b6114a05760405162461bcd60e51b815260206004820152602e60248201527f455243313135355472616461626c652363726561746f72627949443a204e4f4e60448201526d22ac24a9aa22a72a2faa27a5a2a760911b606482015260840161061c565b506000908152600860205260409020546001600160a01b031690565b6114c461165f565b6001600160a01b0316856001600160a01b031614806114ea57506114ea8561054f61165f565b6115485760405162461bcd60e51b815260206004820152602960248201527f455243313135353a2063616c6c6572206973206e6f74206f776e6572206e6f7260448201526808185c1c1c9bdd995960ba1b606482015260840161061c565b610bc08585858585611c97565b61155d61165f565b6001600160a01b031661156e610fba565b6001600160a01b0316146115945760405162461bcd60e51b815260040161061c90612acd565b6001600160a01b0381166115f95760405162461bcd60e51b815260206004820152602660248201527f4f776e61626c653a206e6577206f776e657220697320746865207a65726f206160448201526564647265737360d01b606482015260840161061c565b6106e681611a90565b60003330141561165957600080368080601f0160208091040260200160405190810160405280939291908181526020018383808284376000920191909152505050503601516001600160a01b0316915061165c9050565b50335b90565b6000611669611602565b905090565b80516116819060029060208401906120da565b5050565b60006001600160a01b0386166116eb5760405162461bcd60e51b815260206004820152602560248201527f4e61746976654d6574615472616e73616374696f6e3a20494e56414c49445f5360448201526424a3a722a960d91b606482015260840161061c565b60016116fe6116f987611dad565b611e2a565b6040805160008152602081018083529290925260ff851690820152606081018690526080810185905260a0016020604051602081039080840390855afa15801561174c573d6000803e3d6000fd5b505050602060405103516001600160a01b0316866001600160a01b031614905095945050505050565b6000610b118284612bff565b6000908152600860205260409020546001600160a01b0316151590565b6060600280546117ad90612c43565b80601f01602080910402602001604051908101604052809291908181526020018280546117d990612c43565b80156118265780601f106117fb57610100808354040283529160200191611826565b820191906000526020600020905b81548152906001019060200180831161180957829003601f168201915b50505050509050919050565b81518351146118535760405162461bcd60e51b815260040161061c90612b02565b6001600160a01b0384166118795760405162461bcd60e51b815260040161061c90612a3e565b600061188361165f565b905060005b845181101561196b5760008582815181106118a5576118a5612cd5565b6020026020010151905060008583815181106118c3576118c3612cd5565b602090810291909101810151600084815280835260408082206001600160a01b038e1683529093529190912054909150818110156119135760405162461bcd60e51b815260040161061c90612a83565b6000838152602081815260408083206001600160a01b038e8116855292528083208585039055908b16825281208054849290611950908490612bff565b925050819055505050508061196490612ca4565b9050611888565b50846001600160a01b0316866001600160a01b0316826001600160a01b0316600080516020612dd183398151915287876040516119a99291906129be565b60405180910390a46119bf818787878787611e5a565b505050505050565b6001600160a01b0384166119ed5760405162461bcd60e51b815260040161061c90612b4a565b60006119f761165f565b9050611a1281600087611a0988611fc5565b610bc088611fc5565b6000848152602081815260408083206001600160a01b038916845290915281208054859290611a42908490612bff565b909155505060408051858152602081018590526001600160a01b038088169260009291851691600080516020612df1833981519152910160405180910390a4610bc081600087878787612010565b600680546001600160a01b038381166001600160a01b0319831681179093556040519116919082907f8be0079c531659141344cd1fd0a4f28419497f9722a3daafe3b4186f6b6457e090600090a35050565b6001600160a01b038416611b085760405162461bcd60e51b815260040161061c90612b4a565b8151835114611b295760405162461bcd60e51b815260040161061c90612b02565b6000611b3361165f565b905060005b8451811015611bd057838181518110611b5357611b53612cd5565b6020026020010151600080878481518110611b7057611b70612cd5565b602002602001015181526020019081526020016000206000886001600160a01b03166001600160a01b031681526020019081526020016000206000828254611bb89190612bff565b90915550819050611bc881612ca4565b915050611b38565b50846001600160a01b031660006001600160a01b0316826001600160a01b0316600080516020612dd18339815191528787604051611c0f9291906129be565b60405180910390a4610bc081600087878787611e5a565b80611c2f61165f565b6000828152600860205260409020546001600160a01b03908116911614611c685760405162461bcd60e51b815260040161061c90612b8b565b50600090815260086020526040902080546001600160a01b0319166001600160a01b0392909216919091179055565b6001600160a01b038416611cbd5760405162461bcd60e51b815260040161061c90612a3e565b6000611cc761165f565b9050611cd8818787611a0988611fc5565b6000848152602081815260408083206001600160a01b038a16845290915290205483811015611d195760405162461bcd60e51b815260040161061c90612a83565b6000858152602081815260408083206001600160a01b038b8116855292528083208785039055908816825281208054869290611d56908490612bff565b909155505060408051868152602081018690526001600160a01b03808916928a82169291861691600080516020612df1833981519152910160405180910390a4611da4828888888888612010565b50505050505050565b6000604051806080016040528060438152602001612e116043913980516020918201208351848301516040808701518051908601209051611e0d950193845260208401929092526001600160a01b03166040830152606082015260800190565b604051602081830303815290604052805190602001209050919050565b6000611e3560045490565b60405161190160f01b6020820152602281019190915260428101839052606201611e0d565b6001600160a01b0384163b156119bf5760405163bc197c8160e01b81526001600160a01b0385169063bc197c8190611e9e9089908990889088908890600401612914565b602060405180830381600087803b158015611eb857600080fd5b505af1925050508015611ee8575060408051601f3d908101601f19168201909252611ee591810190612753565b60015b611f9557611ef4612d01565b806308c379a01415611f2e5750611f09612d1c565b80611f145750611f30565b8060405162461bcd60e51b815260040161061c91906129e3565b505b60405162461bcd60e51b815260206004820152603460248201527f455243313135353a207472616e7366657220746f206e6f6e20455243313135356044820152732932b1b2b4bb32b91034b6b83632b6b2b73a32b960611b606482015260840161061c565b6001600160e01b0319811663bc197c8160e01b14611da45760405162461bcd60e51b815260040161061c906129f6565b60408051600180825281830190925260609160009190602080830190803683370190505090508281600081518110611fff57611fff612cd5565b602090810291909101015292915050565b6001600160a01b0384163b156119bf5760405163f23a6e6160e01b81526001600160a01b0385169063f23a6e61906120549089908990889088908890600401612966565b602060405180830381600087803b15801561206e57600080fd5b505af192505050801561209e575060408051601f3d908101601f1916820190925261209b91810190612753565b60015b6120aa57611ef4612d01565b6001600160e01b0319811663f23a6e6160e01b14611da45760405162461bcd60e51b815260040161061c906129f6565b8280546120e690612c43565b90600052602060002090601f016020900481019282612108576000855561214e565b82601f1061212157805160ff191683800117855561214e565b8280016001018555821561214e579182015b8281111561214e578251825591602001919060010190612133565b5061215a92915061215e565b5090565b5b8082111561215a576000815560010161215f565b600082601f83011261218457600080fd5b8135602061219182612bdc565b60405161219e8282612c78565b8381528281019150858301600585901b870184018810156121be57600080fd5b60005b858110156121dd578135845292840192908401906001016121c1565b5090979650505050505050565b803580151581146121fa57600080fd5b919050565b600082601f83011261221057600080fd5b81356001600160401b0381111561222957612229612ceb565b604051612240601f8301601f191660200182612c78565b81815284602083860101111561225557600080fd5b816020850160208301376000918101602001919091529392505050565b60006020828403121561228457600080fd5b8135610b1181612da5565b600080604083850312156122a257600080fd5b82356122ad81612da5565b915060208301356122bd81612da5565b809150509250929050565b600080600080600060a086880312156122e057600080fd5b85356122eb81612da5565b945060208601356122fb81612da5565b935060408601356001600160401b038082111561231757600080fd5b61232389838a01612173565b9450606088013591508082111561233957600080fd5b61234589838a01612173565b9350608088013591508082111561235b57600080fd5b50612368888289016121ff565b9150509295509295909350565b600080600080600060a0868803121561238d57600080fd5b853561239881612da5565b945060208601356123a881612da5565b9350604086013592506060860135915060808601356001600160401b038111156123d157600080fd5b612368888289016121ff565b600080604083850312156123f057600080fd5b82356123fb81612da5565b915060208301356001600160401b0381111561241657600080fd5b61242285828601612173565b9150509250929050565b6000806000806080858703121561244257600080fd5b843561244d81612da5565b935060208501356001600160401b038082111561246957600080fd5b61247588838901612173565b9450604087013591508082111561248b57600080fd5b61249788838901612173565b935060608701359150808211156124ad57600080fd5b506124ba878288016121ff565b91505092959194509250565b600080604083850312156124d957600080fd5b82356124e481612da5565b91506124f2602084016121ea565b90509250929050565b600080600080600060a0868803121561251357600080fd5b853561251e81612da5565b945060208601356001600160401b0381111561253957600080fd5b612545888289016121ff565b9450506040860135925060608601359150608086013560ff8116811461256a57600080fd5b809150509295509295909350565b6000806040838503121561258b57600080fd5b823561259681612da5565b946020939093013593505050565b600080600080608085870312156125ba57600080fd5b84356125c581612da5565b9350602085013592506040850135915060608501356001600160401b038111156125ee57600080fd5b6124ba878288016121ff565b600080600080600060a0868803121561261257600080fd5b853561261d81612da5565b9450602086013593506040860135925060608601356001600160401b038082111561264757600080fd5b61234589838a016121ff565b6000806040838503121561266657600080fd5b82356001600160401b038082111561267d57600080fd5b818501915085601f83011261269157600080fd5b8135602061269e82612bdc565b6040516126ab8282612c78565b8381528281019150858301600585901b870184018b10156126cb57600080fd5b600096505b848710156126f75780356126e381612da5565b8352600196909601959183019183016126d0565b509650508601359250508082111561270e57600080fd5b5061242285828601612173565b60006020828403121561272d57600080fd5b610b11826121ea565b60006020828403121561274857600080fd5b8135610b1181612dba565b60006020828403121561276557600080fd5b8151610b1181612dba565b60006020828403121561278257600080fd5b8151610b1181612da5565b60006020828403121561279f57600080fd5b81356001600160401b038111156127b557600080fd5b61142a848285016121ff565b6000602082840312156127d357600080fd5b5035919050565b600080604083850312156127ed57600080fd5b8235915060208301356001600160401b0381111561280a57600080fd5b612422858286016121ff565b600081518084526020808501945080840160005b838110156128465781518752958201959082019060010161282a565b509495945050505050565b60008151808452612869816020860160208601612c17565b601f01601f19169290920160200192915050565b6000825161288f818460208701612c17565b9190910192915050565b600083516128ab818460208801612c17565b60609390931b6001600160601b0319169190920190815260140192915050565b6001600160a01b0391909116815260200190565b6001600160a01b0384811682528316602082015260606040820181905260009061290b90830184612851565b95945050505050565b6001600160a01b0386811682528516602082015260a06040820181905260009061294090830186612816565b82810360608401526129528186612816565b905082810360808401526109548185612851565b6001600160a01b03868116825285166020820152604081018490526060810183905260a0608082018190526000906129a090830184612851565b979650505050505050565b602081526000610b116020830184612816565b6040815260006129d16040830185612816565b828103602084015261290b8185612816565b602081526000610b116020830184612851565b60208082526028908201527f455243313135353a204552433131353552656365697665722072656a656374656040820152676420746f6b656e7360c01b606082015260800190565b60208082526025908201527f455243313135353a207472616e7366657220746f20746865207a65726f206164604082015264647265737360d81b606082015260800190565b6020808252602a908201527f455243313135353a20696e73756666696369656e742062616c616e636520666f60408201526939103a3930b739b332b960b11b606082015260800190565b6020808252818101527f4f776e61626c653a2063616c6c6572206973206e6f7420746865206f776e6572604082015260600190565b60208082526028908201527f455243313135353a2069647320616e6420616d6f756e7473206c656e677468206040820152670dad2e6dac2e8c6d60c31b606082015260800190565b60208082526021908201527f455243313135353a206d696e7420746f20746865207a65726f206164647265736040820152607360f81b606082015260800190565b60208082526031908201527f455243313135355472616461626c652363726561746f724f6e6c793a204f4e4c6040820152701657d0d491505513d497d0531313d5d151607a1b606082015260800190565b60006001600160401b03821115612bf557612bf5612ceb565b5060051b60200190565b60008219821115612c1257612c12612cbf565b500190565b60005b83811015612c32578181015183820152602001612c1a565b838111156112145750506000910152565b600181811c90821680612c5757607f821691505b60208210811415610b1857634e487b7160e01b600052602260045260246000fd5b601f8201601f191681016001600160401b0381118282101715612c9d57612c9d612ceb565b6040525050565b6000600019821415612cb857612cb8612cbf565b5060010190565b634e487b7160e01b600052601160045260246000fd5b634e487b7160e01b600052603260045260246000fd5b634e487b7160e01b600052604160045260246000fd5b600060033d111561165c5760046000803e5060005160e01c90565b600060443d1015612d2a5790565b6040516003193d81016004833e81513d6001600160401b038083116024840183101715612d5957505050505090565b8285019150815181811115612d715750505050505090565b843d8701016020828501011115612d8b5750505050505090565b612d9a60208286010187612c78565b509095945050505050565b6001600160a01b03811681146106e657600080fd5b6001600160e01b0319811681146106e657600080fdfe4a39dc06d4c0dbc64b70af90fd698a233a518aa5d07e595d983b8c0526c8f7fbc3d58168c5ae7397731d063d5bbf3d657854427343f4c083240f7aacaa2d0f624d6574615472616e73616374696f6e2875696e74323536206e6f6e63652c616464726573732066726f6d2c62797465732066756e6374696f6e5369676e6174757265296bb7ff708619ba0610cba295a58592e0451dee2622938c8755667688daf3529b68747470733a2f2f6275696c64696e67732d6170692e6f70656e7365612e696f2f636f6e74726163742f6f70656e7365612d65726331313535a2646970667358221220dc36be2c98d4c83971d97a2a571bba164c4bfd409a48d6f5af45d71b19eb546964736f6c63430008070033454950373132446f6d61696e28737472696e67206e616d652c737472696e672076657273696f6e2c6164647265737320766572696679696e67436f6e74726163742c627974657333322073616c742968747470733a2f2f6275696c64696e67732d6170692e6f70656e7365612e696f2f6170692f6163636573736f72792f7b69647d",
  "immutableReferences": {},
  "source": "// SPDX-License-Identifier: MIT\r\n\r\npragma solidity ^0.8.0;\r\n\r\nimport \"./ERC1155Tradable.sol\";\r\n\r\n/**\r\n * @title BuildingAccessory\r\n * BuildingAccessory - a contract for Building Accessory semi-fungible tokens.\r\n */\r\ncontract BuildingAccessory is ERC1155Tradable {\r\n    constructor(address _proxyRegistryAddress)\r\n        ERC1155Tradable(\r\n            \"OpenSea Building Accessory\",\r\n            \"OSBA\",\r\n            \"https://buildings-api.opensea.io/api/accessory/{id}\",\r\n            _proxyRegistryAddress\r\n        ) {}\r\n\r\n    function contractURI() public pure returns (string memory) {\r\n        return \"https://buildings-api.opensea.io/contract/opensea-erc1155\";\r\n    }\r\n}\r\n",
  "sourcePath": "D:\\04_Work\\001\\NFT_presale\\smart_contract\\contracts\\BuildingAccessory.sol",
  "compiler": {
    "name": "solc",
    "version": "0.8.7+commit.e28d00a7.Emscripten.clang"
  },
  "schemaVersion": "3.4.3",
  "updatedAt": "2021-10-19T18:53:42.525Z",
  "devdoc": {
    "kind": "dev",
    "methods": {
      "balanceOf(address,uint256)": {
        "details": "See {IERC1155-balanceOf}. Requirements: - `account` cannot be the zero address."
      },
      "balanceOfBatch(address[],uint256[])": {
        "details": "See {IERC1155-balanceOfBatch}. Requirements: - `accounts` and `ids` must have the same length."
      },
      "batchMint(address,uint256[],uint256[],bytes)": {
        "details": "Mint tokens for each id in _ids",
        "params": {
          "_data": "Data to pass if receiver is contract",
          "_ids": "Array of ids to mint",
          "_quantities": "Array of amounts of tokens to mint per id",
          "_to": "The address to mint tokens to"
        }
      },
      "create(address,uint256,uint256,string,bytes)": {
        "details": "Creates a new token type and assigns _initialSupply to an address NOTE: remove onlyOwner if you want third parties to create new tokens on       your contract (which may change your IDs) NOTE: The token id must be passed. This allows lazy creation of tokens or       creating NFTs by setting the id's high bits with the method       described in ERC1155 or to use ids representing values other than       successive small integers. If you wish to create ids as successive       small integers you can either subclass this class to count onchain       or maintain the offchain cache of identifiers recommended in       ERC1155 and calculate successive ids from that.",
        "params": {
          "_data": "Data to pass if receiver is contract",
          "_id": "The id of the token to create (must not currenty exist).",
          "_initialOwner": "address of the first owner of the token",
          "_initialSupply": "amount to supply the first owner",
          "_uri": "Optional URI for this token type"
        },
        "returns": {
          "_0": "The newly created token ID"
        }
      },
      "mint(address,uint256,uint256,bytes)": {
        "details": "Mints some amount of tokens to an address",
        "params": {
          "_data": "Data to pass if receiver is contract",
          "_id": "Token ID to mint",
          "_quantity": "Amount of tokens to mint",
          "_to": "Address of the future owner of the token"
        }
      },
      "owner()": {
        "details": "Returns the address of the current owner."
      },
      "renounceOwnership()": {
        "details": "Leaves the contract without owner. It will not be possible to call `onlyOwner` functions anymore. Can only be called by the current owner. NOTE: Renouncing ownership will leave the contract without an owner, thereby removing any functionality that is only available to the owner."
      },
      "safeBatchTransferFrom(address,address,uint256[],uint256[],bytes)": {
        "details": "See {IERC1155-safeBatchTransferFrom}."
      },
      "safeTransferFrom(address,address,uint256,uint256,bytes)": {
        "details": "See {IERC1155-safeTransferFrom}."
      },
      "setApprovalForAll(address,bool)": {
        "details": "See {IERC1155-setApprovalForAll}."
      },
      "setCreator(address,uint256[])": {
        "details": "Change the creator address for given tokens",
        "params": {
          "_ids": "Array of Token IDs to change creator",
          "_to": "Address of the new creator"
        }
      },
      "setCustomURI(uint256,string)": {
        "details": "Will update the base URI for the token",
        "params": {
          "_newURI": "New URI for the token.",
          "_tokenId": "The token to update. _msgSender() must be its creator."
        }
      },
      "setURI(string)": {
        "details": "Sets a new URI for all token types, by relying on the token type ID substitution mechanism https://eips.ethereum.org/EIPS/eip-1155#metadata[defined in the EIP].",
        "params": {
          "_newURI": "New URI for all tokens"
        }
      },
      "supportsInterface(bytes4)": {
        "details": "See {IERC165-supportsInterface}."
      },
      "totalSupply(uint256)": {
        "details": "Returns the total quantity for a token ID",
        "params": {
          "_id": "uint256 ID of the token to query"
        },
        "returns": {
          "_0": "amount of token in existence"
        }
      },
      "transferOwnership(address)": {
        "details": "Transfers ownership of the contract to a new account (`newOwner`). Can only be called by the current owner."
      }
    },
    "title": "BuildingAccessory BuildingAccessory - a contract for Building Accessory semi-fungible tokens.",
    "version": 1
  },
  "userdoc": {
    "kind": "user",
    "methods": {
      "isApprovedForAll(address,address)": {
        "notice": "Override isApprovedForAll to whitelist user's OpenSea proxy accounts to enable gas-free listings."
      }
    },
    "version": 1
  }
}