{
  "contractName": "BuildingProvider",
  "abi": [
    {
      "inputs": [
        {
          "internalType": "address",
          "name": "_proxyRegistryAddress",
          "type": "address"
        },
        {
          "internalType": "address",
          "name": "_nftAddress",
          "type": "address"
        }
      ],
      "stateMutability": "nonpayable",
      "type": "constructor"
    },
    {
      "anonymous": false,
      "inputs": [
        {
          "indexed": true,
          "internalType": "address",
          "name": "previousOwner",
          "type": "address"
        },
        {
          "indexed": true,
          "internalType": "address",
          "name": "newOwner",
          "type": "address"
        }
      ],
      "name": "OwnershipTransferred",
      "type": "event"
    },
    {
      "anonymous": false,
      "inputs": [
        {
          "indexed": true,
          "internalType": "address",
          "name": "from",
          "type": "address"
        },
        {
          "indexed": true,
          "internalType": "address",
          "name": "to",
          "type": "address"
        },
        {
          "indexed": true,
          "internalType": "uint256",
          "name": "tokenId",
          "type": "uint256"
        }
      ],
      "name": "Transfer",
      "type": "event"
    },
    {
      "inputs": [],
      "name": "baseURI",
      "outputs": [
        {
          "internalType": "string",
          "name": "",
          "type": "string"
        }
      ],
      "stateMutability": "view",
      "type": "function"
    },
    {
      "inputs": [],
      "name": "lootBoxNftAddress",
      "outputs": [
        {
          "internalType": "address",
          "name": "",
          "type": "address"
        }
      ],
      "stateMutability": "view",
      "type": "function"
    },
    {
      "inputs": [],
      "name": "nftAddress",
      "outputs": [
        {
          "internalType": "address",
          "name": "",
          "type": "address"
        }
      ],
      "stateMutability": "view",
      "type": "function"
    },
    {
      "inputs": [],
      "name": "owner",
      "outputs": [
        {
          "internalType": "address",
          "name": "",
          "type": "address"
        }
      ],
      "stateMutability": "view",
      "type": "function"
    },
    {
      "inputs": [],
      "name": "proxyRegistryAddress",
      "outputs": [
        {
          "internalType": "address",
          "name": "",
          "type": "address"
        }
      ],
      "stateMutability": "view",
      "type": "function"
    },
    {
      "inputs": [],
      "name": "renounceOwnership",
      "outputs": [],
      "stateMutability": "nonpayable",
      "type": "function"
    },
    {
      "inputs": [],
      "name": "name",
      "outputs": [
        {
          "internalType": "string",
          "name": "",
          "type": "string"
        }
      ],
      "stateMutability": "pure",
      "type": "function"
    },
    {
      "inputs": [],
      "name": "symbol",
      "outputs": [
        {
          "internalType": "string",
          "name": "",
          "type": "string"
        }
      ],
      "stateMutability": "pure",
      "type": "function"
    },
    {
      "inputs": [],
      "name": "supportsProviderInterface",
      "outputs": [
        {
          "internalType": "bool",
          "name": "",
          "type": "bool"
        }
      ],
      "stateMutability": "pure",
      "type": "function"
    },
    {
      "inputs": [],
      "name": "numOptions",
      "outputs": [
        {
          "internalType": "uint256",
          "name": "",
          "type": "uint256"
        }
      ],
      "stateMutability": "view",
      "type": "function"
    },
    {
      "inputs": [
        {
          "internalType": "address",
          "name": "newOwner",
          "type": "address"
        }
      ],
      "name": "transferOwnership",
      "outputs": [],
      "stateMutability": "nonpayable",
      "type": "function"
    },
    {
      "inputs": [
        {
          "internalType": "uint256",
          "name": "_optionId",
          "type": "uint256"
        },
        {
          "internalType": "address",
          "name": "_toAddress",
          "type": "address"
        }
      ],
      "name": "mint",
      "outputs": [],
      "stateMutability": "nonpayable",
      "type": "function"
    },
    {
      "inputs": [
        {
          "internalType": "uint256",
          "name": "_optionId",
          "type": "uint256"
        }
      ],
      "name": "canMint",
      "outputs": [
        {
          "internalType": "bool",
          "name": "",
          "type": "bool"
        }
      ],
      "stateMutability": "view",
      "type": "function"
    },
    {
      "inputs": [
        {
          "internalType": "uint256",
          "name": "_optionId",
          "type": "uint256"
        }
      ],
      "name": "tokenURI",
      "outputs": [
        {
          "internalType": "string",
          "name": "",
          "type": "string"
        }
      ],
      "stateMutability": "view",
      "type": "function"
    },
    {
      "inputs": [
        {
          "internalType": "address",
          "name": "_from",
          "type": "address"
        },
        {
          "internalType": "address",
          "name": "_to",
          "type": "address"
        },
        {
          "internalType": "uint256",
          "name": "_tokenId",
          "type": "uint256"
        }
      ],
      "name": "transferFrom",
      "outputs": [],
      "stateMutability": "nonpayable",
      "type": "function"
    },
    {
      "inputs": [
        {
          "internalType": "address",
          "name": "_owner",
          "type": "address"
        },
        {
          "internalType": "address",
          "name": "_operator",
          "type": "address"
        }
      ],
      "name": "isApprovedForAll",
      "outputs": [
        {
          "internalType": "bool",
          "name": "",
          "type": "bool"
        }
      ],
      "stateMutability": "view",
      "type": "function"
    },
    {
      "inputs": [
        {
          "internalType": "uint256",
          "name": "_tokenId",
          "type": "uint256"
        }
      ],
      "name": "ownerOf",
      "outputs": [
        {
          "internalType": "address",
          "name": "_owner",
          "type": "address"
        }
      ],
      "stateMutability": "view",
      "type": "function"
    }
  ],
  "bytecode": "0x60e0604052602e60808181529062003a8560a03980516200002991600491602090910190620001e7565b50606460055560036006556000600755600160085560026009556004600a553480156200005557600080fd5b5060405162003ab338038062003ab38339810160408190526200007891620002b8565b62000083336200012e565b600180546001600160a01b038085166001600160a01b031992831617909255600280549284169290911691909117905560405182903090620000c59062000276565b6001600160a01b03928316815291166020820152604001604051809103906000f080158015620000f9573d6000803e3d6000fd5b50600380546001600160a01b0319166001600160a01b03928316179055600080546200012692166200017e565b505062000357565b600080546001600160a01b038381166001600160a01b0319831681178455604051919092169283917f8be0079c531659141344cd1fd0a4f28419497f9722a3daafe3b4186f6b6457e09190a35050565b60005b600654811015620001e25780826001600160a01b0316846001600160a01b03167fddf252ad1be2c89b69c2b068fc378daa952ba7f163c4a11628f55a4df523b3ef60405160405180910390a480620001d9816200032d565b91505062000181565b505050565b828054620001f590620002f0565b90600052602060002090601f01602090048101928262000219576000855562000264565b82601f106200023457805160ff191683800117855562000264565b8280016001018555821562000264579182015b828111156200026457825182559160200191906001019062000247565b506200027292915062000284565b5090565b612826806200125f83390190565b5b8082111562000272576000815560010162000285565b80516001600160a01b0381168114620002b357600080fd5b919050565b60008060408385031215620002cc57600080fd5b620002d7836200029b565b9150620002e7602084016200029b565b90509250929050565b600181811c908216806200030557607f821691505b602082108114156200032757634e487b7160e01b600052602260045260246000fd5b50919050565b60006000198214156200035057634e487b7160e01b600052601160045260246000fd5b5060010190565b610ef880620003676000396000f3fe608060405234801561001057600080fd5b50600436106100db5760003560e01c806306fdde03146100e057806323b872dd14610127578063478410561461013c5780634b97aed91461014f5780635bf8633a146101605780635dd871a3146101805780636352211e146101935780636c0360eb146101a6578063715018a6146101ae5780638da5cb5b146101b657806394bf804d146101be57806395d89b41146101d1578063c87b56dd146101f0578063cd7c032614610203578063e985e9c514610216578063ec07d02e14610229578063f2fde38b1461023c575b600080fd5b6040805180820190915260198152784f70656e5365614275696c64696e67204974656d2053616c6560381b60208201525b60405161011e9190610cfe565b60405180910390f35b61013a610135366004610b72565b61024f565b005b60015b604051901515815260200161011e565b60065460405190815260200161011e565b600254610173906001600160a01b031681565b60405161011e9190610cea565b61013f61018e366004610bd0565b610261565b6101736101a1366004610bd0565b6103c4565b6101116103d6565b61013a610464565b6101736104a8565b61013a6101cc366004610c02565b6104b7565b60408051808201909152600381526221a82360e91b6020820152610111565b6101116101fe366004610bd0565b61071e565b600154610173906001600160a01b031681565b61013f610224366004610b39565b610752565b600354610173906001600160a01b031681565b61013a61024a366004610b15565b61086e565b33925061025c81836104b7565b505050565b6000600654821061027457506000919050565b600254604080516318160ddd60e01b815290516001600160a01b039092169160009183916318160ddd91600480820192602092909190829003018186803b1580156102be57600080fd5b505afa1580156102d2573d6000803e3d6000fd5b505050506040513d601f19601f820116820180604052508101906102f69190610be9565b9050600060075485141561030c575060016103ab565b60085485141561031f5750600a546103ab565b6009548514156103ab57600354604080516319d554e160e01b815290516001600160a01b039092169182916319d554e1916004808301926020929190829003018186803b15801561036f57600080fd5b505afa158015610383573d6000803e3d6000fd5b505050506040513d601f19601f820116820180604052508101906103a79190610be9565b9150505b806005546103b99190610d92565b909110949350505050565b506000806103d06104a8565b92915050565b600480546103e390610dd5565b80601f016020809104026020016040519081016040528092919081815260200182805461040f90610dd5565b801561045c5780601f106104315761010080835404028352916020019161045c565b820191906000526020600020905b81548152906001019060200180831161043f57829003601f168201915b505050505081565b3361046d6104a8565b6001600160a01b03161461049c5760405162461bcd60e51b815260040161049390610d31565b60405180910390fd5b6104a660006108c0565b565b6000546001600160a01b031690565b6001546001600160a01b0316338163c45527916104d26104a8565b6040518263ffffffff1660e01b81526004016104ee9190610cea565b60206040518083038186803b15801561050657600080fd5b505afa15801561051a573d6000803e3d6000fd5b505050506040513d601f19601f8201168201806040525081019061053e9190610bb3565b6001600160a01b031614806105625750336105576104a8565b6001600160a01b0316145b8061058057506003546001600160a01b0316336001600160a01b0316145b61058c5761058c610e3f565b61059583610261565b61059e57600080fd5b6002546007546001600160a01b039091169084141561061a5760405163755edd1760e01b81526001600160a01b0382169063755edd17906105e3908690600401610cea565b600060405180830381600087803b1580156105fd57600080fd5b505af1158015610611573d6000803e3d6000fd5b50505050610718565b6008548414156106a85760005b600a548110156106a25760405163755edd1760e01b81526001600160a01b0383169063755edd179061065d908790600401610cea565b600060405180830381600087803b15801561067757600080fd5b505af115801561068b573d6000803e3d6000fd5b50505050808061069a90610e10565b915050610627565b50610718565b6009548414156107185760035460405163755edd1760e01b81526001600160a01b0390911690819063755edd17906106e4908790600401610cea565b600060405180830381600087803b1580156106fe57600080fd5b505af1158015610712573d6000803e3d6000fd5b50505050505b50505050565b6060600461072b83610910565b60405160200161073c929190610c43565b6040516020818303038152906040529050919050565b6000826001600160a01b03166107666104a8565b6001600160a01b031614801561078d5750816001600160a01b0316836001600160a01b0316145b1561079a575060016103d0565b6001546001600160a01b039081169084166107b36104a8565b6001600160a01b03161480156108555750826001600160a01b0316816001600160a01b031663c4552791866040518263ffffffff1660e01b81526004016107fa9190610cea565b60206040518083038186803b15801561081257600080fd5b505afa158015610826573d6000803e3d6000fd5b505050506040513d601f19601f8201168201806040525081019061084a9190610bb3565b6001600160a01b0316145b156108645760019150506103d0565b5060009392505050565b336108776104a8565b6001600160a01b03161461089d5760405162461bcd60e51b815260040161049390610d31565b60006108a76104a8565b90506108b282610a15565b6108bc8183610ab5565b5050565b600080546001600160a01b038381166001600160a01b0319831681178455604051919092169283917f8be0079c531659141344cd1fd0a4f28419497f9722a3daafe3b4186f6b6457e09190a35050565b6060816109345750506040805180820190915260018152600360fc1b602082015290565b8160005b811561095e578061094881610e10565b91506109579050600a83610d7e565b9150610938565b6000816001600160401b0381111561097857610978610e97565b6040519080825280601f01601f1916602001820160405280156109a2576020820181803683370190505b5090505b8415610a0d576109b7600183610d92565b91506109c4600a86610e2b565b6109cf906030610d66565b60f81b8183815181106109e4576109e4610e81565b60200101906001600160f81b031916908160001a905350610a06600a86610d7e565b94506109a6565b949350505050565b33610a1e6104a8565b6001600160a01b031614610a445760405162461bcd60e51b815260040161049390610d31565b6001600160a01b038116610aa95760405162461bcd60e51b815260206004820152602660248201527f4f776e61626c653a206e6577206f776e657220697320746865207a65726f206160448201526564647265737360d01b6064820152608401610493565b610ab2816108c0565b50565b60005b60065481101561025c5780826001600160a01b0316846001600160a01b03167fddf252ad1be2c89b69c2b068fc378daa952ba7f163c4a11628f55a4df523b3ef60405160405180910390a480610b0d81610e10565b915050610ab8565b600060208284031215610b2757600080fd5b8135610b3281610ead565b9392505050565b60008060408385031215610b4c57600080fd5b8235610b5781610ead565b91506020830135610b6781610ead565b809150509250929050565b600080600060608486031215610b8757600080fd5b8335610b9281610ead565b92506020840135610ba281610ead565b929592945050506040919091013590565b600060208284031215610bc557600080fd5b8151610b3281610ead565b600060208284031215610be257600080fd5b5035919050565b600060208284031215610bfb57600080fd5b5051919050565b60008060408385031215610c1557600080fd5b823591506020830135610b6781610ead565b60008151610c39818560208601610da9565b9290920192915050565b600080845481600182811c915080831680610c5f57607f831692505b6020808410821415610c7f57634e487b7160e01b86526022600452602486fd5b818015610c935760018114610ca457610cd1565b60ff19861689528489019650610cd1565b60008b81526020902060005b86811015610cc95781548b820152908501908301610cb0565b505084890196505b505050505050610ce18185610c27565b95945050505050565b6001600160a01b0391909116815260200190565b6020815260008251806020840152610d1d816040850160208701610da9565b601f01601f19169190910160400192915050565b6020808252818101527f4f776e61626c653a2063616c6c6572206973206e6f7420746865206f776e6572604082015260600190565b60008219821115610d7957610d79610e55565b500190565b600082610d8d57610d8d610e6b565b500490565b600082821015610da457610da4610e55565b500390565b60005b83811015610dc4578181015183820152602001610dac565b838111156107185750506000910152565b600181811c90821680610de957607f821691505b60208210811415610e0a57634e487b7160e01b600052602260045260246000fd5b50919050565b6000600019821415610e2457610e24610e55565b5060010190565b600082610e3a57610e3a610e6b565b500690565b634e487b7160e01b600052600160045260246000fd5b634e487b7160e01b600052601160045260246000fd5b634e487b7160e01b600052601260045260246000fd5b634e487b7160e01b600052603260045260246000fd5b634e487b7160e01b600052604160045260246000fd5b6001600160a01b0381168114610ab257600080fdfea26469706673582212208fed25c330954b0987862b5ded61307d1d7ad1a6a992c8411d510aaef093158064736f6c634300080700336080604052600a805460ff191690556000600f81905560036010556011553480156200002a57600080fd5b5060405162002826380380620028268339810160408190526200004d91620003cb565b6040518060400160405280600f81526020016e084ead2d8c8d2dcce98dedee884def608b1b815250604051806040016040528060078152602001660989e9ea8849eb60cb1b8152508382828160009080519060200190620000b092919062000308565b508051620000c690600190602084019062000308565b505050620000e3620000dd6200013560201b60201c565b62000151565b600e80546001600160a01b0319166001600160a01b0383161790556200010983620001a3565b5050601280546001600160a01b0319166001600160a01b03939093169290921790915550620004409050565b60006200014c6200020760201b620010461760201c565b905090565b600d80546001600160a01b038381166001600160a01b0319831681179093556040519116919082907f8be0079c531659141344cd1fd0a4f28419497f9722a3daafe3b4186f6b6457e090600090a35050565b600a5460ff1615620001ec5760405162461bcd60e51b815260206004820152600e60248201526d185b1c9958591e481a5b9a5d195960921b604482015260640160405180910390fd5b620001f78162000266565b50600a805460ff19166001179055565b6000333014156200026057600080368080601f0160208091040260200160405190810160405280939291908181526020018383808284376000920191909152505050503601516001600160a01b03169150620002639050565b50335b90565b6040518060800160405280604f8152602001620027d7604f9139805160209182012082519282019290922060408051808201825260018152603160f81b90840152805180840194909452838101919091527fc89efdaa54c0f20c7adf612882df0950f5a951637e0307cdcb4c672f298b8bc660608401523060808401524660a0808501919091528151808503909101815260c090930190528151910120600b55565b828054620003169062000403565b90600052602060002090601f0160209004810192826200033a576000855562000385565b82601f106200035557805160ff191683800117855562000385565b8280016001018555821562000385579182015b828111156200038557825182559160200191906001019062000368565b506200039392915062000397565b5090565b5b8082111562000393576000815560010162000398565b80516001600160a01b0381168114620003c657600080fd5b919050565b60008060408385031215620003df57600080fd5b620003ea83620003ae565b9150620003fa60208401620003ae565b90509250929050565b600181811c908216806200041857607f821691505b602082108114156200043a57634e487b7160e01b600052602260045260246000fd5b50919050565b61238780620004506000396000f3fe6080604052600436106101475760003560e01c806301ffc9a71461014c57806306fdde0314610181578063081812fc146101a3578063095ea7b3146101d05780630c53c51c146101f25780630f7e59701461020557806318160ddd1461023257806319d554e11461025157806320379ee51461026657806323b872dd1461027b5780632d0335ab1461029b5780632f745c59146102d15780633408e470146102f157806342842e0e146103045780634f6ccce7146103245780636352211e1461034457806370a0823114610364578063715018a614610384578063755edd17146103995780638a02be68146103b95780638da5cb5b146103d957806395d89b41146103ee578063a22cb46514610403578063b88d4fde14610423578063c87b56dd14610443578063d547cfb714610463578063e985e9c514610478578063f2fde38b14610498575b600080fd5b34801561015857600080fd5b5061016c610167366004611ec9565b6104b8565b60405190151581526020015b60405180910390f35b34801561018d57600080fd5b506101966104e3565b6040516101789190612068565b3480156101af57600080fd5b506101c36101be366004611f20565b610575565b6040516101789190611fe2565b3480156101dc57600080fd5b506101f06101eb366004611e9d565b610602565b005b610196610200366004611e20565b610725565b34801561021157600080fd5b50610196604051806040016040528060018152602001603160f81b81525081565b34801561023e57600080fd5b506008545b604051908152602001610178565b34801561025d57600080fd5b50601054610243565b34801561027257600080fd5b50600b54610243565b34801561028757600080fd5b506101f0610296366004611d41565b61090e565b3480156102a757600080fd5b506102436102b6366004611ceb565b6001600160a01b03166000908152600c602052604090205490565b3480156102dd57600080fd5b506102436102ec366004611e9d565b610946565b3480156102fd57600080fd5b5046610243565b34801561031057600080fd5b506101f061031f366004611d41565b6109dc565b34801561033057600080fd5b5061024361033f366004611f20565b6109f7565b34801561035057600080fd5b506101c361035f366004611f20565b610a8a565b34801561037057600080fd5b5061024361037f366004611ceb565b610b01565b34801561039057600080fd5b506101f0610b88565b3480156103a557600080fd5b506101f06103b4366004611ceb565b610bd3565b3480156103c557600080fd5b506101f06103d4366004611f20565b610c34565b3480156103e557600080fd5b506101c3610d10565b3480156103fa57600080fd5b50610196610d1f565b34801561040f57600080fd5b506101f061041e366004611ded565b610d2e565b34801561042f57600080fd5b506101f061043e366004611d82565b610e2c565b34801561044f57600080fd5b5061019661045e366004611f20565b610e6b565b34801561046f57600080fd5b50610196610ea5565b34801561048457600080fd5b5061016c610493366004611d08565b610ec5565b3480156104a457600080fd5b506101f06104b3366004611ceb565b610f99565b60006001600160e01b0319821663780e9d6360e01b14806104dd57506104dd826110a3565b92915050565b6060600080546104f2906121c2565b80601f016020809104026020016040519081016040528092919081815260200182805461051e906121c2565b801561056b5780601f106105405761010080835404028352916020019161056b565b820191906000526020600020905b81548152906001019060200180831161054e57829003601f168201915b5050505050905090565b6000610580826110f3565b6105e65760405162461bcd60e51b815260206004820152602c60248201527f4552433732313a20617070726f76656420717565727920666f72206e6f6e657860448201526b34b9ba32b73a103a37b5b2b760a11b60648201526084015b60405180910390fd5b506000908152600460205260409020546001600160a01b031690565b600061060d82610a8a565b9050806001600160a01b0316836001600160a01b0316141561067b5760405162461bcd60e51b815260206004820152602160248201527f4552433732313a20617070726f76616c20746f2063757272656e74206f776e656044820152603960f91b60648201526084016105dd565b806001600160a01b031661068d611110565b6001600160a01b031614806106a957506106a981610493611110565b6107165760405162461bcd60e51b815260206004820152603860248201527f4552433732313a20617070726f76652063616c6c6572206973206e6f74206f776044820152771b995c881b9bdc88185c1c1c9bdd995908199bdc88185b1b60421b60648201526084016105dd565b610720838361111f565b505050565b60408051606081810183526001600160a01b0388166000818152600c602090815290859020548452830152918101869052610763878287878761118d565b6107b95760405162461bcd60e51b815260206004820152602160248201527f5369676e657220616e64207369676e617475726520646f206e6f74206d6174636044820152600d60fb1b60648201526084016105dd565b6001600160a01b0387166000908152600c60205260409020546107dd90600161127d565b6001600160a01b0388166000908152600c60205260409081902091909155517f5845892132946850460bff5a0083f71031bc5bf9aadcd40f1de79423eac9b10b9061082d90899033908a90611ff6565b60405180910390a1600080306001600160a01b0316888a604051602001610855929190611f81565b60408051601f198184030181529082905261086f91611f65565b6000604051808303816000865af19150503d80600081146108ac576040519150601f19603f3d011682016040523d82523d6000602084013e6108b1565b606091505b5091509150816109025760405162461bcd60e51b815260206004820152601c60248201527b119d5b98dd1a5bdb8818d85b1b081b9bdd081cdd58d8d95cdcd99d5b60221b60448201526064016105dd565b98975050505050505050565b61091f610919611110565b82611290565b61093b5760405162461bcd60e51b81526004016105dd90612102565b610720838383611352565b600061095183610b01565b82106109b35760405162461bcd60e51b815260206004820152602b60248201527f455243373231456e756d657261626c653a206f776e657220696e646578206f7560448201526a74206f6620626f756e647360a81b60648201526084016105dd565b506001600160a01b03919091166000908152600660209081526040808320938352929052205490565b61072083838360405180602001604052806000815250610e2c565b6000610a0260085490565b8210610a655760405162461bcd60e51b815260206004820152602c60248201527f455243373231456e756d657261626c653a20676c6f62616c20696e646578206f60448201526b7574206f6620626f756e647360a01b60648201526084016105dd565b60088281548110610a7857610a7861226e565b90600052602060002001549050919050565b6000818152600260205260408120546001600160a01b0316806104dd5760405162461bcd60e51b815260206004820152602960248201527f4552433732313a206f776e657220717565727920666f72206e6f6e657869737460448201526832b73a103a37b5b2b760b91b60648201526084016105dd565b60006001600160a01b038216610b6c5760405162461bcd60e51b815260206004820152602a60248201527f4552433732313a2062616c616e636520717565727920666f7220746865207a65604482015269726f206164647265737360b01b60648201526084016105dd565b506001600160a01b031660009081526003602052604090205490565b610b90611110565b6001600160a01b0316610ba1610d10565b6001600160a01b031614610bc75760405162461bcd60e51b81526004016105dd906120cd565b610bd160006114eb565b565b610bdb611110565b6001600160a01b0316610bec610d10565b6001600160a01b031614610c125760405162461bcd60e51b81526004016105dd906120cd565b6000610c1c61153d565b9050610c28828261154e565b610c3061167a565b5050565b610c3c611110565b6001600160a01b0316610c4e82610a8a565b6001600160a01b031614610c6157600080fd5b60005b601054811015610d03576012546011546001600160a01b039091169081906394bf804d90610c90611110565b6040516001600160e01b031960e085901b16815260048101929092526001600160a01b03166024820152604401600060405180830381600087803b158015610cd757600080fd5b505af1158015610ceb573d6000803e3d6000fd5b50505050508080610cfb906121fd565b915050610c64565b50610d0d81611691565b50565b600d546001600160a01b031690565b6060600180546104f2906121c2565b610d36611110565b6001600160a01b0316826001600160a01b03161415610d935760405162461bcd60e51b815260206004820152601960248201527822a9219b99189d1030b8383937bb32903a379031b0b63632b960391b60448201526064016105dd565b8060056000610da0611110565b6001600160a01b03908116825260208083019390935260409182016000908120918716808252919093529120805460ff191692151592909217909155610de4611110565b6001600160a01b03167f17307eab39ab6107e8899845ad3d59bd9653f200f220920489ca2b5937696c3183604051610e20911515815260200190565b60405180910390a35050565b610e3d610e37611110565b83611290565b610e595760405162461bcd60e51b81526004016105dd90612102565b610e6584848484611726565b50505050565b6060610e75610ea5565b610e7e83611759565b604051602001610e8f929190611fb3565b6040516020818303038152906040529050919050565b606060405180606001604052806029815260200161230960299139905090565b600e5460405163c455279160e01b81526000916001600160a01b039081169190841690829063c455279190610efe908890600401611fe2565b60206040518083038186803b158015610f1657600080fd5b505afa158015610f2a573d6000803e3d6000fd5b505050506040513d601f19601f82011682018060405250810190610f4e9190611f03565b6001600160a01b03161415610f675760019150506104dd565b6001600160a01b0380851660009081526005602090815260408083209387168352929052205460ff165b949350505050565b610fa1611110565b6001600160a01b0316610fb2610d10565b6001600160a01b031614610fd85760405162461bcd60e51b81526004016105dd906120cd565b6001600160a01b03811661103d5760405162461bcd60e51b815260206004820152602660248201527f4f776e61626c653a206e6577206f776e657220697320746865207a65726f206160448201526564647265737360d01b60648201526084016105dd565b610d0d816114eb565b60003330141561109d57600080368080601f0160208091040260200160405190810160405280939291908181526020018383808284376000920191909152505050503601516001600160a01b031691506110a09050565b50335b90565b60006001600160e01b031982166380ac58cd60e01b14806110d457506001600160e01b03198216635b5e139f60e01b145b806104dd57506301ffc9a760e01b6001600160e01b03198316146104dd565b6000908152600260205260409020546001600160a01b0316151590565b600061111a611046565b905090565b600081815260046020526040902080546001600160a01b0319166001600160a01b038416908117909155819061115482610a8a565b6001600160a01b03167f8c5be1e5ebec7d5bd14f71427d1e84f3dd0314c0f7b2291e5b200ac8c7c3b92560405160405180910390a45050565b60006001600160a01b0386166111f35760405162461bcd60e51b815260206004820152602560248201527f4e61746976654d6574615472616e73616374696f6e3a20494e56414c49445f5360448201526424a3a722a960d91b60648201526084016105dd565b600161120661120187611856565b6118d3565b6040805160008152602081018083529290925260ff851690820152606081018690526080810185905260a0016020604051602081039080840390855afa158015611254573d6000803e3d6000fd5b505050602060405103516001600160a01b0316866001600160a01b031614905095945050505050565b60006112898284612153565b9392505050565b600061129b826110f3565b6112fc5760405162461bcd60e51b815260206004820152602c60248201527f4552433732313a206f70657261746f7220717565727920666f72206e6f6e657860448201526b34b9ba32b73a103a37b5b2b760a11b60648201526084016105dd565b600061130783610a8a565b9050806001600160a01b0316846001600160a01b031614806113425750836001600160a01b031661133784610575565b6001600160a01b0316145b80610f915750610f918185610ec5565b826001600160a01b031661136582610a8a565b6001600160a01b0316146113cd5760405162461bcd60e51b815260206004820152602960248201527f4552433732313a207472616e73666572206f6620746f6b656e2074686174206960448201526839903737ba1037bbb760b91b60648201526084016105dd565b6001600160a01b03821661142f5760405162461bcd60e51b8152602060048201526024808201527f4552433732313a207472616e7366657220746f20746865207a65726f206164646044820152637265737360e01b60648201526084016105dd565b61143a838383611903565b61144560008261111f565b6001600160a01b038316600090815260036020526040812080546001929061146e90849061217f565b90915550506001600160a01b038216600090815260036020526040812080546001929061149c908490612153565b909155505060008181526002602052604080822080546001600160a01b0319166001600160a01b03868116918217909255915184939187169160008051602061233283398151915291a4505050565b600d80546001600160a01b038381166001600160a01b0319831681179093556040519116919082907f8be0079c531659141344cd1fd0a4f28419497f9722a3daafe3b4186f6b6457e090600090a35050565b600f5460009061111a90600161127d565b6001600160a01b0382166115a45760405162461bcd60e51b815260206004820181905260248201527f4552433732313a206d696e7420746f20746865207a65726f206164647265737360448201526064016105dd565b6115ad816110f3565b156115f95760405162461bcd60e51b815260206004820152601c60248201527b115490cdcc8c4e881d1bdad95b88185b1c9958591e481b5a5b9d195960221b60448201526064016105dd565b61160560008383611903565b6001600160a01b038216600090815260036020526040812080546001929061162e908490612153565b909155505060008181526002602052604080822080546001600160a01b0319166001600160a01b0386169081179091559051839290600080516020612332833981519152908290a45050565b600f805490600061168a836121fd565b9190505550565b600061169c82610a8a565b90506116aa81600084611903565b6116b560008361111f565b6001600160a01b03811660009081526003602052604081208054600192906116de90849061217f565b909155505060008281526002602052604080822080546001600160a01b0319169055518391906001600160a01b03841690600080516020612332833981519152908390a45050565b611731848484611352565b61173d848484846119bb565b610e655760405162461bcd60e51b81526004016105dd9061207b565b60608161177d5750506040805180820190915260018152600360fc1b602082015290565b8160005b81156117a75780611791816121fd565b91506117a09050600a8361216b565b9150611781565b6000816001600160401b038111156117c1576117c1612284565b6040519080825280601f01601f1916602001820160405280156117eb576020820181803683370190505b5090505b8415610f915761180060018361217f565b915061180d600a86612218565b611818906030612153565b60f81b81838151811061182d5761182d61226e565b60200101906001600160f81b031916908160001a90535061184f600a8661216b565b94506117ef565b60006040518060800160405280604381526020016122c660439139805160209182012083518483015160408087015180519086012090516118b6950193845260208401929092526001600160a01b03166040830152606082015260800190565b604051602081830303815290604052805190602001209050919050565b60006118de600b5490565b60405161190160f01b60208201526022810191909152604281018390526062016118b6565b6001600160a01b03831661195e5761195981600880546000838152600960205260408120829055600182018355919091527ff3f7a9fe364faab93b216da50a3214154f22a0a2b415b23a84c8169e8b636ee30155565b611981565b816001600160a01b0316836001600160a01b031614611981576119818382611acf565b6001600160a01b0382166119985761072081611b6c565b826001600160a01b0316826001600160a01b031614610720576107208282611c1b565b60006001600160a01b0384163b15611ac457836001600160a01b031663150b7a026119e4611110565b8786866040518563ffffffff1660e01b8152600401611a06949392919061202b565b602060405180830381600087803b158015611a2057600080fd5b505af1925050508015611a50575060408051601f3d908101601f19168201909252611a4d91810190611ee6565b60015b611aaa573d808015611a7e576040519150601f19603f3d011682016040523d82523d6000602084013e611a83565b606091505b508051611aa25760405162461bcd60e51b81526004016105dd9061207b565b805181602001fd5b6001600160e01b031916630a85bd0160e11b149050610f91565b506001949350505050565b60006001611adc84610b01565b611ae6919061217f565b600083815260076020526040902054909150808214611b39576001600160a01b03841660009081526006602090815260408083208584528252808320548484528184208190558352600790915290208190555b5060009182526007602090815260408084208490556001600160a01b039094168352600681528383209183525290812055565b600854600090611b7e9060019061217f565b60008381526009602052604081205460088054939450909284908110611ba657611ba661226e565b906000526020600020015490508060088381548110611bc757611bc761226e565b6000918252602080832090910192909255828152600990915260408082208490558582528120556008805480611bff57611bff612258565b6001900381819060005260206000200160009055905550505050565b6000611c2683610b01565b6001600160a01b039093166000908152600660209081526040808320868452825280832085905593825260079052919091209190915550565b600082601f830112611c7057600080fd5b81356001600160401b0380821115611c8a57611c8a612284565b604051601f8301601f19908116603f01168101908282118183101715611cb257611cb2612284565b81604052838152866020858801011115611ccb57600080fd5b836020870160208301376000602085830101528094505050505092915050565b600060208284031215611cfd57600080fd5b81356112898161229a565b60008060408385031215611d1b57600080fd5b8235611d268161229a565b91506020830135611d368161229a565b809150509250929050565b600080600060608486031215611d5657600080fd5b8335611d618161229a565b92506020840135611d718161229a565b929592945050506040919091013590565b60008060008060808587031215611d9857600080fd5b8435611da38161229a565b93506020850135611db38161229a565b92506040850135915060608501356001600160401b03811115611dd557600080fd5b611de187828801611c5f565b91505092959194509250565b60008060408385031215611e0057600080fd5b8235611e0b8161229a565b915060208301358015158114611d3657600080fd5b600080600080600060a08688031215611e3857600080fd5b8535611e438161229a565b945060208601356001600160401b03811115611e5e57600080fd5b611e6a88828901611c5f565b9450506040860135925060608601359150608086013560ff81168114611e8f57600080fd5b809150509295509295909350565b60008060408385031215611eb057600080fd5b8235611ebb8161229a565b946020939093013593505050565b600060208284031215611edb57600080fd5b8135611289816122af565b600060208284031215611ef857600080fd5b8151611289816122af565b600060208284031215611f1557600080fd5b81516112898161229a565b600060208284031215611f3257600080fd5b5035919050565b60008151808452611f51816020860160208601612196565b601f01601f19169290920160200192915050565b60008251611f77818460208701612196565b9190910192915050565b60008351611f93818460208801612196565b60609390931b6001600160601b0319169190920190815260140192915050565b60008351611fc5818460208801612196565b835190830190611fd9818360208801612196565b01949350505050565b6001600160a01b0391909116815260200190565b6001600160a01b0384811682528316602082015260606040820181905260009061202290830184611f39565b95945050505050565b6001600160a01b038581168252841660208201526040810183905260806060820181905260009061205e90830184611f39565b9695505050505050565b6020815260006112896020830184611f39565b60208082526032908201527f4552433732313a207472616e7366657220746f206e6f6e20455243373231526560408201527131b2b4bb32b91034b6b83632b6b2b73a32b960711b606082015260800190565b6020808252818101527f4f776e61626c653a2063616c6c6572206973206e6f7420746865206f776e6572604082015260600190565b60208082526031908201527f4552433732313a207472616e736665722063616c6c6572206973206e6f74206f6040820152701ddb995c881b9bdc88185c1c1c9bdd9959607a1b606082015260800190565b600082198211156121665761216661222c565b500190565b60008261217a5761217a612242565b500490565b6000828210156121915761219161222c565b500390565b60005b838110156121b1578181015183820152602001612199565b83811115610e655750506000910152565b600181811c908216806121d657607f821691505b602082108114156121f757634e487b7160e01b600052602260045260246000fd5b50919050565b60006000198214156122115761221161222c565b5060010190565b60008261222757612227612242565b500690565b634e487b7160e01b600052601160045260246000fd5b634e487b7160e01b600052601260045260246000fd5b634e487b7160e01b600052603160045260246000fd5b634e487b7160e01b600052603260045260246000fd5b634e487b7160e01b600052604160045260246000fd5b6001600160a01b0381168114610d0d57600080fd5b6001600160e01b031981168114610d0d57600080fdfe4d6574615472616e73616374696f6e2875696e74323536206e6f6e63652c616464726573732066726f6d2c62797465732066756e6374696f6e5369676e61747572652968747470733a2f2f6275696c64696e67732d6170692e6f70656e7365612e696f2f6170692f626f782fddf252ad1be2c89b69c2b068fc378daa952ba7f163c4a11628f55a4df523b3efa26469706673582212205b5b6227a86a49cbd7f897155443bff080a807d6e8ab52b8542721d40308a5ba64736f6c63430008070033454950373132446f6d61696e28737472696e67206e616d652c737472696e672076657273696f6e2c6164647265737320766572696679696e67436f6e74726163742c627974657333322073616c742968747470733a2f2f6275696c64696e67732d6170692e6f70656e7365612e696f2f6170692f70726f76696465722f",
  "immutableReferences": {},
  "source": "// SPDX-License-Identifier: MIT\r\n\r\npragma solidity ^0.8.0;\r\n\r\nimport \"openzeppelin-solidity/contracts/access/Ownable.sol\";\r\nimport \"openzeppelin-solidity/contracts/utils/Strings.sol\";\r\nimport \"./IProviderERC721.sol\";\r\nimport \"./Building.sol\";\r\nimport \"./BuildingLootBox.sol\";\r\n\r\ncontract BuildingProvider is ProviderERC721, Ownable {\r\n    using Strings for string;\r\n\r\n    event Transfer(\r\n        address indexed from,\r\n        address indexed to,\r\n        uint256 indexed tokenId\r\n    );\r\n\r\n    address public proxyRegistryAddress;\r\n    address public nftAddress;\r\n    address public lootBoxNftAddress;\r\n    string public baseURI = \"https://buildings-api.opensea.io/api/provider/\";\r\n\r\n    /*\r\n     * Enforce the existence of only 100 OpenSea buildings.\r\n     */\r\n    uint256 BUILDING_SUPPLY = 100;\r\n\r\n    /*\r\n     * Three different options for minting Buildings (basic, premium, and gold).\r\n     */\r\n    uint256 NUM_OPTIONS = 3;\r\n    uint256 SINGLE_BUILDING_OPTION = 0;\r\n    uint256 MULTIPLE_BUILDING_OPTION = 1;\r\n    uint256 LOOTBOX_OPTION = 2;\r\n    uint256 NUM_BUILDINGS_IN_MULTIPLE_BUILDING_OPTION = 4;\r\n\r\n    constructor(address _proxyRegistryAddress, address _nftAddress) {\r\n        proxyRegistryAddress = _proxyRegistryAddress;\r\n        nftAddress = _nftAddress;\r\n        lootBoxNftAddress = address(\r\n            new BuildingLootBox(_proxyRegistryAddress, address(this))\r\n        );\r\n\r\n        fireTransferEvents(address(0), owner());\r\n    }\r\n\r\n    function name() override external pure returns (string memory) {\r\n        return \"OpenSeaBuilding Item Sale\";\r\n    }\r\n\r\n    function symbol() override external pure returns (string memory) {\r\n        return \"CPF\";\r\n    }\r\n\r\n    function supportsProviderInterface() override public pure returns (bool) {\r\n        return true;\r\n    }\r\n\r\n    function numOptions() override public view returns (uint256) {\r\n        return NUM_OPTIONS;\r\n    }\r\n\r\n    function transferOwnership(address newOwner) override public onlyOwner {\r\n        address _prevOwner = owner();\r\n        super.transferOwnership(newOwner);\r\n        fireTransferEvents(_prevOwner, newOwner);\r\n    }\r\n\r\n    function fireTransferEvents(address _from, address _to) private {\r\n        for (uint256 i = 0; i < NUM_OPTIONS; i++) {\r\n            emit Transfer(_from, _to, i);\r\n        }\r\n    }\r\n\r\n    function mint(uint256 _optionId, address _toAddress) override public {\r\n        // Must be sent from the owner proxy or owner.\r\n        ProxyRegistry proxyRegistry = ProxyRegistry(proxyRegistryAddress);\r\n        assert(\r\n            address(proxyRegistry.proxies(owner())) == _msgSender() ||\r\n                owner() == _msgSender() ||\r\n                _msgSender() == lootBoxNftAddress\r\n        );\r\n        require(canMint(_optionId));\r\n\r\n        Building openSeaBuilding = Building(nftAddress);\r\n        if (_optionId == SINGLE_BUILDING_OPTION) {\r\n            openSeaBuilding.mintTo(_toAddress);\r\n        } else if (_optionId == MULTIPLE_BUILDING_OPTION) {\r\n            for (\r\n                uint256 i = 0;\r\n                i < NUM_BUILDINGS_IN_MULTIPLE_BUILDING_OPTION;\r\n                i++\r\n            ) {\r\n                openSeaBuilding.mintTo(_toAddress);\r\n            }\r\n        } else if (_optionId == LOOTBOX_OPTION) {\r\n            BuildingLootBox openSeaBuildingLootBox = BuildingLootBox(\r\n                lootBoxNftAddress\r\n            );\r\n            openSeaBuildingLootBox.mintTo(_toAddress);\r\n        }\r\n    }\r\n\r\n    function canMint(uint256 _optionId) override public view returns (bool) {\r\n        if (_optionId >= NUM_OPTIONS) {\r\n            return false;\r\n        }\r\n\r\n        Building openSeaBuilding = Building(nftAddress);\r\n        uint256 buildingSupply = openSeaBuilding.totalSupply();\r\n\r\n        uint256 numItemsAllocated = 0;\r\n        if (_optionId == SINGLE_BUILDING_OPTION) {\r\n            numItemsAllocated = 1;\r\n        } else if (_optionId == MULTIPLE_BUILDING_OPTION) {\r\n            numItemsAllocated = NUM_BUILDINGS_IN_MULTIPLE_BUILDING_OPTION;\r\n        } else if (_optionId == LOOTBOX_OPTION) {\r\n            BuildingLootBox openSeaBuildingLootBox = BuildingLootBox(\r\n                lootBoxNftAddress\r\n            );\r\n            numItemsAllocated = openSeaBuildingLootBox.itemsPerLootbox();\r\n        }\r\n        return buildingSupply < (BUILDING_SUPPLY - numItemsAllocated);\r\n    }\r\n\r\n    function tokenURI(uint256 _optionId) override external view returns (string memory) {\r\n        return string(abi.encodePacked(baseURI, Strings.toString(_optionId)));\r\n    }\r\n\r\n    /**\r\n     * Hack to get things to work automatically on OpenSea.\r\n     * Use transferFrom so the frontend doesn't have to worry about different method names.\r\n     */\r\n    function transferFrom(\r\n        address _from,\r\n        address _to,\r\n        uint256 _tokenId\r\n    ) public {\r\n        _from = _msgSender(); // Temporary\r\n        mint(_tokenId, _to);\r\n    }\r\n\r\n    /**\r\n     * Hack to get things to work automatically on OpenSea.\r\n     * Use isApprovedForAll so the frontend doesn't have to worry about different method names.\r\n     */\r\n    function isApprovedForAll(address _owner, address _operator)\r\n        public\r\n        view\r\n        returns (bool)\r\n    {\r\n        if (owner() == _owner && _owner == _operator) {\r\n            return true;\r\n        }\r\n\r\n        ProxyRegistry proxyRegistry = ProxyRegistry(proxyRegistryAddress);\r\n        if (\r\n            owner() == _owner &&\r\n            address(proxyRegistry.proxies(_owner)) == _operator\r\n        ) {\r\n            return true;\r\n        }\r\n\r\n        return false;\r\n    }\r\n\r\n    /**\r\n     * Hack to get things to work automatically on OpenSea.\r\n     * Use isApprovedForAll so the frontend doesn't have to worry about different method names.\r\n     */\r\n    function ownerOf(uint256 _tokenId) public view returns (address _owner) {\r\n        _tokenId = 0;\r\n        return owner();\r\n    }\r\n}\r\n",
  "sourcePath": "D:\\04_Work\\001\\NFT_presale\\smart_contract\\contracts\\BuildingProvider.sol",
  "compiler": {
    "name": "solc",
    "version": "0.8.7+commit.e28d00a7.Emscripten.clang"
  },
  "schemaVersion": "3.4.3",
  "updatedAt": "2021-10-19T18:53:42.613Z",
  "devdoc": {
    "kind": "dev",
    "methods": {
      "canMint(uint256)": {
        "details": "Returns whether the option ID can be minted. Can return false if the developer wishes to restrict a total supply per option ID (or overall)."
      },
      "mint(uint256,address)": {
        "details": "Mints asset(s) in accordance to a specific address with a particular \"option\". This should be callable only by the contract owner or the owner's Wyvern Proxy (later universal login will solve this). Options should also be delineated 0 - (numOptions() - 1) for convenient indexing.",
        "params": {
          "_optionId": "the option id",
          "_toAddress": "address of the future owner of the asset(s)"
        }
      },
      "owner()": {
        "details": "Returns the address of the current owner."
      },
      "renounceOwnership()": {
        "details": "Leaves the contract without owner. It will not be possible to call `onlyOwner` functions anymore. Can only be called by the current owner. NOTE: Renouncing ownership will leave the contract without an owner, thereby removing any functionality that is only available to the owner."
      },
      "tokenURI(uint256)": {
        "details": "Returns a URL specifying some metadata about the option. This metadata can be of the same structure as the ERC721 metadata."
      },
      "transferOwnership(address)": {
        "details": "Transfers ownership of the contract to a new account (`newOwner`). Can only be called by the current owner."
      }
    },
    "version": 1
  },
  "userdoc": {
    "kind": "user",
    "methods": {
      "isApprovedForAll(address,address)": {
        "notice": "Hack to get things to work automatically on OpenSea. Use isApprovedForAll so the frontend doesn't have to worry about different method names."
      },
      "name()": {
        "notice": "Returns the name of this provider."
      },
      "numOptions()": {
        "notice": "Number of options the provider supports."
      },
      "ownerOf(uint256)": {
        "notice": "Hack to get things to work automatically on OpenSea. Use isApprovedForAll so the frontend doesn't have to worry about different method names."
      },
      "supportsProviderInterface()": {
        "notice": "Indicates that this is a provider contract. Ideally would use EIP 165 supportsInterface()"
      },
      "symbol()": {
        "notice": "Returns the symbol for this provider."
      },
      "transferFrom(address,address,uint256)": {
        "notice": "Hack to get things to work automatically on OpenSea. Use transferFrom so the frontend doesn't have to worry about different method names."
      }
    },
    "version": 1
  }
}