{
  "contractName": "MaterialProvider",
  "abi": [
    {
      "inputs": [
        {
          "internalType": "address",
          "name": "_proxyRegistryAddress",
          "type": "address"
        },
        {
          "internalType": "address",
          "name": "_nftAddress",
          "type": "address"
        },
        {
          "internalType": "address",
          "name": "_lootBoxAddress",
          "type": "address"
        }
      ],
      "stateMutability": "nonpayable",
      "type": "constructor"
    },
    {
      "anonymous": false,
      "inputs": [
        {
          "indexed": true,
          "internalType": "address",
          "name": "previousOwner",
          "type": "address"
        },
        {
          "indexed": true,
          "internalType": "address",
          "name": "newOwner",
          "type": "address"
        }
      ],
      "name": "OwnershipTransferred",
      "type": "event"
    },
    {
      "inputs": [],
      "name": "baseMetadataURI",
      "outputs": [
        {
          "internalType": "string",
          "name": "",
          "type": "string"
        }
      ],
      "stateMutability": "view",
      "type": "function"
    },
    {
      "inputs": [],
      "name": "deployer",
      "outputs": [
        {
          "internalType": "address",
          "name": "",
          "type": "address"
        }
      ],
      "stateMutability": "view",
      "type": "function"
    },
    {
      "inputs": [],
      "name": "isProxyUseForLive",
      "outputs": [
        {
          "internalType": "bool",
          "name": "",
          "type": "bool"
        }
      ],
      "stateMutability": "view",
      "type": "function"
    },
    {
      "inputs": [],
      "name": "locked",
      "outputs": [
        {
          "internalType": "bool",
          "name": "",
          "type": "bool"
        }
      ],
      "stateMutability": "view",
      "type": "function"
    },
    {
      "inputs": [],
      "name": "lootBoxAddress",
      "outputs": [
        {
          "internalType": "address",
          "name": "",
          "type": "address"
        }
      ],
      "stateMutability": "view",
      "type": "function"
    },
    {
      "inputs": [
        {
          "internalType": "uint256",
          "name": "",
          "type": "uint256"
        }
      ],
      "name": "maxSupplies",
      "outputs": [
        {
          "internalType": "uint256",
          "name": "",
          "type": "uint256"
        }
      ],
      "stateMutability": "view",
      "type": "function"
    },
    {
      "inputs": [],
      "name": "nftAddress",
      "outputs": [
        {
          "internalType": "address",
          "name": "",
          "type": "address"
        }
      ],
      "stateMutability": "view",
      "type": "function"
    },
    {
      "inputs": [],
      "name": "owner",
      "outputs": [
        {
          "internalType": "address",
          "name": "",
          "type": "address"
        }
      ],
      "stateMutability": "view",
      "type": "function"
    },
    {
      "inputs": [],
      "name": "presaleLive",
      "outputs": [
        {
          "internalType": "bool",
          "name": "",
          "type": "bool"
        }
      ],
      "stateMutability": "view",
      "type": "function"
    },
    {
      "inputs": [
        {
          "internalType": "uint256",
          "name": "",
          "type": "uint256"
        }
      ],
      "name": "presalePurchaseLimit",
      "outputs": [
        {
          "internalType": "uint256",
          "name": "",
          "type": "uint256"
        }
      ],
      "stateMutability": "view",
      "type": "function"
    },
    {
      "inputs": [
        {
          "internalType": "uint256",
          "name": "",
          "type": "uint256"
        },
        {
          "internalType": "address",
          "name": "",
          "type": "address"
        }
      ],
      "name": "presalerListPurchases",
      "outputs": [
        {
          "internalType": "uint256",
          "name": "",
          "type": "uint256"
        }
      ],
      "stateMutability": "view",
      "type": "function"
    },
    {
      "inputs": [
        {
          "internalType": "uint256",
          "name": "",
          "type": "uint256"
        }
      ],
      "name": "prices",
      "outputs": [
        {
          "internalType": "uint256",
          "name": "",
          "type": "uint256"
        }
      ],
      "stateMutability": "view",
      "type": "function"
    },
    {
      "inputs": [],
      "name": "proxyRegistryAddress",
      "outputs": [
        {
          "internalType": "address",
          "name": "",
          "type": "address"
        }
      ],
      "stateMutability": "view",
      "type": "function"
    },
    {
      "inputs": [],
      "name": "renounceOwnership",
      "outputs": [],
      "stateMutability": "nonpayable",
      "type": "function"
    },
    {
      "inputs": [],
      "name": "saleLive",
      "outputs": [
        {
          "internalType": "bool",
          "name": "",
          "type": "bool"
        }
      ],
      "stateMutability": "view",
      "type": "function"
    },
    {
      "inputs": [
        {
          "internalType": "string",
          "name": "_uri",
          "type": "string"
        }
      ],
      "name": "setBaseMetadataURI",
      "outputs": [],
      "stateMutability": "nonpayable",
      "type": "function"
    },
    {
      "inputs": [
        {
          "internalType": "bool",
          "name": "_bUse",
          "type": "bool"
        }
      ],
      "name": "setProxyUseForLive",
      "outputs": [],
      "stateMutability": "nonpayable",
      "type": "function"
    },
    {
      "inputs": [
        {
          "internalType": "address",
          "name": "newOwner",
          "type": "address"
        }
      ],
      "name": "transferOwnership",
      "outputs": [],
      "stateMutability": "nonpayable",
      "type": "function"
    },
    {
      "inputs": [
        {
          "internalType": "uint256",
          "name": "_option",
          "type": "uint256"
        },
        {
          "internalType": "uint256",
          "name": "_value",
          "type": "uint256"
        }
      ],
      "name": "setPurchaseLimit",
      "outputs": [],
      "stateMutability": "nonpayable",
      "type": "function"
    },
    {
      "inputs": [
        {
          "internalType": "uint256",
          "name": "_option",
          "type": "uint256"
        },
        {
          "internalType": "uint256",
          "name": "_value",
          "type": "uint256"
        }
      ],
      "name": "setPrice",
      "outputs": [],
      "stateMutability": "nonpayable",
      "type": "function"
    },
    {
      "inputs": [],
      "name": "name",
      "outputs": [
        {
          "internalType": "string",
          "name": "",
          "type": "string"
        }
      ],
      "stateMutability": "pure",
      "type": "function"
    },
    {
      "inputs": [],
      "name": "symbol",
      "outputs": [
        {
          "internalType": "string",
          "name": "",
          "type": "string"
        }
      ],
      "stateMutability": "pure",
      "type": "function"
    },
    {
      "inputs": [],
      "name": "supportsProviderInterface",
      "outputs": [
        {
          "internalType": "bool",
          "name": "",
          "type": "bool"
        }
      ],
      "stateMutability": "pure",
      "type": "function"
    },
    {
      "inputs": [],
      "name": "providerSchemaName",
      "outputs": [
        {
          "internalType": "string",
          "name": "",
          "type": "string"
        }
      ],
      "stateMutability": "pure",
      "type": "function"
    },
    {
      "inputs": [],
      "name": "numOptions",
      "outputs": [
        {
          "internalType": "uint256",
          "name": "",
          "type": "uint256"
        }
      ],
      "stateMutability": "pure",
      "type": "function"
    },
    {
      "inputs": [
        {
          "internalType": "uint256",
          "name": "_optionId",
          "type": "uint256"
        }
      ],
      "name": "uri",
      "outputs": [
        {
          "internalType": "string",
          "name": "",
          "type": "string"
        }
      ],
      "stateMutability": "view",
      "type": "function"
    },
    {
      "inputs": [
        {
          "internalType": "uint256",
          "name": "_optionId",
          "type": "uint256"
        },
        {
          "internalType": "uint256",
          "name": "_amount",
          "type": "uint256"
        }
      ],
      "name": "canMint",
      "outputs": [
        {
          "internalType": "bool",
          "name": "",
          "type": "bool"
        }
      ],
      "stateMutability": "view",
      "type": "function"
    },
    {
      "inputs": [
        {
          "internalType": "uint256",
          "name": "_optionId",
          "type": "uint256"
        },
        {
          "internalType": "address",
          "name": "_toAddress",
          "type": "address"
        },
        {
          "internalType": "uint256",
          "name": "_amount",
          "type": "uint256"
        },
        {
          "internalType": "bytes",
          "name": "_data",
          "type": "bytes"
        }
      ],
      "name": "mint",
      "outputs": [],
      "stateMutability": "nonpayable",
      "type": "function"
    },
    {
      "inputs": [
        {
          "internalType": "address",
          "name": "_owner",
          "type": "address"
        },
        {
          "internalType": "uint256",
          "name": "_optionId",
          "type": "uint256"
        }
      ],
      "name": "balanceOf",
      "outputs": [
        {
          "internalType": "uint256",
          "name": "",
          "type": "uint256"
        }
      ],
      "stateMutability": "view",
      "type": "function"
    },
    {
      "inputs": [
        {
          "internalType": "uint256",
          "name": "_option",
          "type": "uint256"
        },
        {
          "internalType": "uint256",
          "name": "tokenQuantity",
          "type": "uint256"
        },
        {
          "internalType": "bytes",
          "name": "_data",
          "type": "bytes"
        }
      ],
      "name": "presaleBuy",
      "outputs": [],
      "stateMutability": "payable",
      "type": "function"
    },
    {
      "inputs": [
        {
          "internalType": "uint256[]",
          "name": "_ids",
          "type": "uint256[]"
        },
        {
          "internalType": "uint256[]",
          "name": "_quantities",
          "type": "uint256[]"
        },
        {
          "internalType": "bytes",
          "name": "_data",
          "type": "bytes"
        }
      ],
      "name": "presaleBuyBatch",
      "outputs": [],
      "stateMutability": "payable",
      "type": "function"
    },
    {
      "inputs": [],
      "name": "toggleLockedStatus",
      "outputs": [],
      "stateMutability": "nonpayable",
      "type": "function"
    },
    {
      "inputs": [],
      "name": "togglePresaleStatus",
      "outputs": [],
      "stateMutability": "nonpayable",
      "type": "function"
    },
    {
      "inputs": [],
      "name": "toggleSaleStatus",
      "outputs": [],
      "stateMutability": "nonpayable",
      "type": "function"
    },
    {
      "inputs": [],
      "name": "withdraw",
      "outputs": [],
      "stateMutability": "payable",
      "type": "function"
    }
  ],
  "bytecode": "0x610100604052602560a081815290620026af60c03980516200002a916005916020909101906200037b565b506006805460ff191690553480156200004257600080fd5b50604051620026d4380380620026d483398101604081905262000065916200043e565b82828262000073336200032b565b505060018080556002805460038054600480546001600160a01b03199485166001600160a01b039b8c1617909555908316978916979097179055169290941691909117909155506009805461ffff1916909117905562036ee87fb39221ace053465ec3453ce2b36430bd138b997ecea25c1043da0c366812b828556201fbd07fb7c774451310d1be4108bc180d1b52823cb0ee0274a6c0081bcaf94f115fb96d55620124f87f3be6fd20d5acfde5b873b48692cd31f4d3c7e8ee8a813af4696af8859e5ca6c655619c407fb805995a7ec585a251200611a61d179cfd7fb105e1ab17dc415a7336783786f75561ea607fbcdda56b5d08466ec462cbbe0adfa57cb0a15fcc8940ef68f702f21b787bc93555662386f26fc100007fad67d757c34507f157cacfa2e3153e9f260a2244f30428821be7be64587ac55f5566470de4df8200007f6add646517a5b0f6793cd5891b7937d28a5b2981a5d88ebc7cd776088fea904155666a94d74f4300007f625b35f5e76f098dd7c3a05b10e2e5e78a4a01228d60c3b143426cdf36d264555566b1a2bc2ec500007f9321edea6e3be4df59a344b401fab4f888b556fda1f954244cff9204bad624b85566f8b0a10e4700007f91238f30f286c9a1c6e901c4eda3b214c381c846e3dbe48df95c21488e8e1fdb55600b60205260e17f72c6bfb7988af3a1efa6568f02a999bc52252641c659d85961ca3d372b57d5cf5560827fa50eece07c7db1631545c0069bd8f5f54d5935e215d59097edf258a44ba9163455604b7f64c15cc42be7899b001f818cf4433057002112c418d1d3a67cd5cb453051d33e5560287f12d0c11577e2f0950f57c455c117796550b79f444811db8ba2f69c57b646c784556005600052603c7febae6141bae5521e99e0a8d610356b0f501fea54980b59c84841db43ba7204f4556001600160601b03193360601b16608052620004c5565b600080546001600160a01b038381166001600160a01b0319831681178455604051919092169283917f8be0079c531659141344cd1fd0a4f28419497f9722a3daafe3b4186f6b6457e09190a35050565b828054620003899062000488565b90600052602060002090601f016020900481019282620003ad5760008555620003f8565b82601f10620003c857805160ff1916838001178555620003f8565b82800160010185558215620003f8579182015b82811115620003f8578251825591602001919060010190620003db565b50620004069291506200040a565b5090565b5b808211156200040657600081556001016200040b565b80516001600160a01b03811681146200043957600080fd5b919050565b6000806000606084860312156200045457600080fd5b6200045f8462000421565b92506200046f6020850162000421565b91506200047f6040850162000421565b90509250925092565b600181811c908216806200049d57607f821691505b60208210811415620004bf57634e487b7160e01b600052602260045260246000fd5b50919050565b60805160601c6121cb620004e460003960006105f601526121cb6000f3fe6080604052600436106102035760003560e01c80637bffb4ce11610118578063c77b66c2116100a0578063e081b7811161006f578063e081b78114610618578063e59f61a914610637578063f2fde38b1461064a578063f7d975771461066a578063fefd229d1461068a57600080fd5b8063c77b66c214610584578063cd7c0326146105a4578063cf309012146105c4578063d5f39488146105e457600080fd5b806387962dcc116100e757806387962dcc146104bd5780638da5cb5b146104ea57806395d89b4114610508578063bc31c1c114610537578063c5df056a1461056457600080fd5b80637bffb4ce1461044e5780637e518ec81461046357806383a9e049146104835780638531b06b1461049d57600080fd5b80633ccfd60b1161019b5780635b2bd79e1161016a5780635b2bd79e146103a55780635bf8633a146103ba57806361056716146103f2578063715018a61461040c57806371b2164d1461042157600080fd5b80633ccfd60b14610362578063478410561461036a5780634b97aed91461037e578063530ed6941461039257600080fd5b80630e89341c116101d75780630e89341c146102cd57806322e1dea9146102ed57806323ab94551461031d5780632ea53e721461034d57600080fd5b8062fdd58e14610208578063049c5c491461023b578063057536ae1461025257806306fdde031461028a575b600080fd5b34801561021457600080fd5b50610228610223366004611a4f565b6106aa565b6040519081526020015b60405180910390f35b34801561024757600080fd5b5061025061078b565b005b34801561025e57600080fd5b5061022861026d366004611bd5565b600a60209081526000928352604080842090915290825290205481565b34801561029657600080fd5b506040805180820190915260118152704d6174657269616c205072652d53616c6560781b60208201525b6040516102329190611f42565b3480156102d957600080fd5b506102c06102e8366004611ba3565b6107db565b3480156102f957600080fd5b5061030d610308366004611c9b565b61080f565b6040519015158152602001610232565b34801561032957600080fd5b506040805180820190915260078152664552433131353560c81b60208201526102c0565b34801561035957600080fd5b50610250610823565b61025061086c565b34801561037657600080fd5b50600161030d565b34801561038a57600080fd5b506005610228565b6102506103a0366004611cbd565b6108ee565b3480156103b157600080fd5b506102c0610987565b3480156103c657600080fd5b506003546103da906001600160a01b031681565b6040516001600160a01b039091168152602001610232565b3480156103fe57600080fd5b5060065461030d9060ff1681565b34801561041857600080fd5b50610250610a15565b34801561042d57600080fd5b5061022861043c366004611ba3565b600b6020526000908152604090205481565b34801561045a57600080fd5b50610250610a4b565b34801561046f57600080fd5b5061025061047e366004611b5a565b610a89565b34801561048f57600080fd5b5060095461030d9060ff1681565b3480156104a957600080fd5b506004546103da906001600160a01b031681565b3480156104c957600080fd5b506102286104d8366004611ba3565b60076020526000908152604090205481565b3480156104f657600080fd5b506000546001600160a01b03166103da565b34801561051457600080fd5b50604080518082019091526006815265118d5353919560d21b60208201526102c0565b34801561054357600080fd5b50610228610552366004611ba3565b60086020526000908152604090205481565b34801561057057600080fd5b5061025061057f366004611b03565b610aca565b34801561059057600080fd5b5061025061059f366004611c05565b610b07565b3480156105b057600080fd5b506002546103da906001600160a01b031681565b3480156105d057600080fd5b5060095461030d9062010000900460ff1681565b3480156105f057600080fd5b506103da7f000000000000000000000000000000000000000000000000000000000000000081565b34801561062457600080fd5b5060095461030d90610100900460ff1681565b610250610645366004611a7b565b610b7f565b34801561065657600080fd5b50610250610665366004611a32565b610c89565b34801561067657600080fd5b50610250610685366004611c9b565b610d21565b34801561069657600080fd5b506102506106a5366004611c9b565b610d8c565b60006106b583610df7565b1580156106d057506004546001600160a01b03848116911614155b156106dd57506000610785565b6003546001600160a01b031660008162fdd58e6107026000546001600160a01b031690565b6040516001600160e01b031960e084901b1681526001600160a01b0390911660048201526024810187905260440160206040518083038186803b15801561074857600080fd5b505afa15801561075c573d6000803e3d6000fd5b505050506040513d601f19601f820116820180604052508101906107809190611bbc565b925050505b92915050565b6000546001600160a01b031633146107be5760405162461bcd60e51b81526004016107b590611f85565b60405180910390fd5b6009805461ff001981166101009182900460ff1615909102179055565b606060056107e883610eed565b6040516020016107f9929190611d86565b6040516020818303038152906040529050919050565b600061081c338484610ff3565b9392505050565b6000546001600160a01b0316331461084d5760405162461bcd60e51b81526004016107b590611f85565b6009805462ff0000198116620100009182900460ff1615909102179055565b6000546001600160a01b031633146108965760405162461bcd60e51b81526004016107b590611f85565b604051600090339047908381818185875af1925050503d80600081146108d8576040519150601f19603f3d011682016040523d82523d6000602084013e6108dd565b606091505b50509050806108eb57600080fd5b50565b600260015414156109115760405162461bcd60e51b81526004016107b590611fba565b6002600155600083815260086020526040902054349061093290849061204e565b11156109735760405162461bcd60e51b815260206004820152601060248201526f0929ca6aa8c8c9286928a9ca8be8aa8960831b60448201526064016107b5565b61097e838383611014565b50506001805550565b60058054610994906120b0565b80601f01602080910402602001604051908101604052809291908181526020018280546109c0906120b0565b8015610a0d5780601f106109e257610100808354040283529160200191610a0d565b820191906000526020600020905b8154815290600101906020018083116109f057829003601f168201915b505050505081565b6000546001600160a01b03163314610a3f5760405162461bcd60e51b81526004016107b590611f85565b610a496000611222565b565b6000546001600160a01b03163314610a755760405162461bcd60e51b81526004016107b590611f85565b6009805460ff19811660ff90911615179055565b6000546001600160a01b03163314610ab35760405162461bcd60e51b81526004016107b590611f85565b8051610ac690600590602084019061189b565b5050565b6000546001600160a01b03163314610af45760405162461bcd60e51b81526004016107b590611f85565b6006805460ff1916911515919091179055565b60026001541415610b2a5760405162461bcd60e51b81526004016107b590611fba565b6002600181905550610b7485858585858080601f01602080910402602001604051908101604052809392919081815260200183838082843760009201919091525061127292505050565b505060018055505050565b60026001541415610ba25760405162461bcd60e51b81526004016107b590611fba565b60026001556000805b8451811015610c30576000858281518110610bc857610bc8612146565b602002602001015190506000858381518110610be657610be6612146565b60200260200101519050806008600084815260200190815260200160002054610c0f919061204e565b610c199085612022565b935050508080610c28906120eb565b915050610bab565b5034811115610c745760405162461bcd60e51b815260206004820152601060248201526f0929ca6aa8c8c9286928a9ca8be8aa8960831b60448201526064016107b5565b610c7f848484611343565b5050600180555050565b6000546001600160a01b03163314610cb35760405162461bcd60e51b81526004016107b590611f85565b6001600160a01b038116610d185760405162461bcd60e51b815260206004820152602660248201527f4f776e61626c653a206e6577206f776e657220697320746865207a65726f206160448201526564647265737360d01b60648201526084016107b5565b6108eb81611222565b6000546001600160a01b03163314610d4b5760405162461bcd60e51b81526004016107b590611f85565b81600081118015610d5d575060058111155b610d795760405162461bcd60e51b81526004016107b590611f55565b5060009182526008602052604090912055565b6000546001600160a01b03163314610db65760405162461bcd60e51b81526004016107b590611f85565b81600081118015610dc8575060058111155b610de45760405162461bcd60e51b81526004016107b590611f55565b506000918252600b602052604090912055565b6002546000906001600160a01b03908116908316610e1d6000546001600160a01b031690565b6001600160a01b0316148061081c575060065460ff16801561081c5750826001600160a01b0316816001600160a01b031663c4552791610e656000546001600160a01b031690565b6040516001600160e01b031960e084901b1681526001600160a01b03909116600482015260240160206040518083038186803b158015610ea457600080fd5b505afa158015610eb8573d6000803e3d6000fd5b505050506040513d601f19601f82011682018060405250810190610edc9190611b3d565b6001600160a01b0316149392505050565b606081610f115750506040805180820190915260018152600360fc1b602082015290565b8160005b8115610f3b5780610f25816120eb565b9150610f349050600a8361203a565b9150610f15565b60008167ffffffffffffffff811115610f5657610f5661215c565b6040519080825280601f01601f191660200182016040528015610f80576020820181803683370190505b5090505b8415610feb57610f9560018361206d565b9150610fa2600a86612106565b610fad906030612022565b60f81b818381518110610fc257610fc2612146565b60200101906001600160f81b031916908160001a905350610fe4600a8661203a565b9450610f84565b949350505050565b60008082118015610feb5750600061100b85856106aa565b11949350505050565b82600081118015611026575060058111155b6110425760405162461bcd60e51b81526004016107b590611f55565b6009543390610100900460ff1615801561105e575060095460ff165b61109b5760405162461bcd60e51b815260206004820152600e60248201526d14149154d0531157d0d313d4d15160921b60448201526064016107b5565b6110b66110b06000546001600160a01b031690565b866106aa565b84106110f35760405162461bcd60e51b815260206004820152600c60248201526b4f55545f4f465f53544f434b60a01b60448201526064016107b5565b6000858152600b6020908152604080832054600a83528184206001600160a01b03861685529092529091205461112a908690612022565b11156111675760405162461bcd60e51b815260206004820152600c60248201526b4558434545445f414c4c4f4360a01b60448201526064016107b5565b6003546001600160a01b03168063f242432a61118b6000546001600160a01b031690565b848989896040518663ffffffff1660e01b81526004016111af959493929190611e8b565b600060405180830381600087803b1580156111c957600080fd5b505af11580156111dd573d6000803e3d6000fd5b5050506000878152600a602090815260408083206001600160a01b038716845290915281208054889350909190611215908490612022565b9091555050505050505050565b600080546001600160a01b038381166001600160a01b0319831681178455604051919092169283917f8be0079c531659141344cd1fd0a4f28419497f9722a3daafe3b4186f6b6457e09190a35050565b61127d338584610ff3565b6112da5760405162461bcd60e51b815260206004820152602860248201527f4d6174657269616c50726f7669646572235f6d696e743a2043414e4e4f545f4d604482015267494e545f4d4f524560c01b60648201526084016107b5565b60058411156113245760405162461bcd60e51b8152602060048201526016602482015275151a19481d1e5c19481a59081a5cc81a5b9d985b1a5960521b60448201526064016107b5565b60035461133d906001600160a01b031684868585611726565b50505050565b8260005b81518110156113e857600082828151811061136457611364612146565b6020026020010151905060008111801561137f575060058111155b6113d55760405162461bcd60e51b815260206004820152602160248201527f4e4654205479706520494420697320696e76616c696420696e204944206c69736044820152601d60fa1b60648201526084016107b5565b50806113e0816120eb565b915050611347565b506009543390610100900460ff16158015611405575060095460ff165b6114425760405162461bcd60e51b815260206004820152600e60248201526d14149154d0531157d0d313d4d15160921b60448201526064016107b5565b83518551146114ad5760405162461bcd60e51b815260206004820152603160248201527f546865206c656e67746873206f6620494420616e642076616c7565206172726160448201527079732073686f756c642062652073616d6560781b60648201526084016107b5565b60005b84518110156116085760008682815181106114cd576114cd612146565b6020026020010151905060008683815181106114eb576114eb612146565b6020026020010151905061152961150a6000546001600160a01b031690565b89858151811061151c5761151c612146565b60200260200101516106aa565b87848151811061153b5761153b612146565b60200260200101511061157f5760405162461bcd60e51b815260206004820152600c60248201526b4f55545f4f465f53544f434b60a01b60448201526064016107b5565b6000828152600b6020908152604080832054600a83528184206001600160a01b0389168552909252909120546115b6908390612022565b11156115f35760405162461bcd60e51b815260206004820152600c60248201526b4558434545445f414c4c4f4360a01b60448201526064016107b5565b50508080611600906120eb565b9150506114b0565b506003546001600160a01b031680632eb2c2d661162d6000546001600160a01b031690565b848989896040518663ffffffff1660e01b8152600401611651959493929190611e2d565b600060405180830381600087803b15801561166b57600080fd5b505af115801561167f573d6000803e3d6000fd5b5050505060005b855181101561171d5760008782815181106116a3576116a3612146565b6020026020010151905060008783815181106116c1576116c1612146565b6020908102919091018101516000848152600a835260408082206001600160a01b038a168352909352918220805491935083929091611701908490612022565b9250508190555050508080611715906120eb565b915050611686565b50505050505050565b604051634f558e7960e01b81526004810184905285906001600160a01b03821690634f558e799060240160206040518083038186803b15801561176857600080fd5b505afa15801561177c573d6000803e3d6000fd5b505050506040513d601f19601f820116820180604052508101906117a09190611b20565b61182e576040516336a100d560e01b81526001600160a01b038216906336a100d5906117d6908890889088908890600401611f07565b602060405180830381600087803b1580156117f057600080fd5b505af1158015611804573d6000803e3d6000fd5b505050506040513d601f19601f820116820180604052508101906118289190611bbc565b50611893565b60405163731133e960e01b81526001600160a01b0382169063731133e990611860908890889088908890600401611ed0565b600060405180830381600087803b15801561187a57600080fd5b505af115801561188e573d6000803e3d6000fd5b505050505b505050505050565b8280546118a7906120b0565b90600052602060002090601f0160209004810192826118c9576000855561190f565b82601f106118e257805160ff191683800117855561190f565b8280016001018555821561190f579182015b8281111561190f5782518255916020019190600101906118f4565b5061191b92915061191f565b5090565b5b8082111561191b5760008155600101611920565b600067ffffffffffffffff83111561194e5761194e61215c565b611961601f8401601f1916602001611ff1565b905082815283838301111561197557600080fd5b828260208301376000602084830101529392505050565b600082601f83011261199d57600080fd5b8135602067ffffffffffffffff8211156119b9576119b961215c565b8160051b6119c8828201611ff1565b8381528281019086840183880185018910156119e357600080fd5b600093505b85841015611a065780358352600193909301929184019184016119e8565b50979650505050505050565b600082601f830112611a2357600080fd5b61081c83833560208501611934565b600060208284031215611a4457600080fd5b813561081c81612172565b60008060408385031215611a6257600080fd5b8235611a6d81612172565b946020939093013593505050565b600080600060608486031215611a9057600080fd5b833567ffffffffffffffff80821115611aa857600080fd5b611ab48783880161198c565b94506020860135915080821115611aca57600080fd5b611ad68783880161198c565b93506040860135915080821115611aec57600080fd5b50611af986828701611a12565b9150509250925092565b600060208284031215611b1557600080fd5b813561081c81612187565b600060208284031215611b3257600080fd5b815161081c81612187565b600060208284031215611b4f57600080fd5b815161081c81612172565b600060208284031215611b6c57600080fd5b813567ffffffffffffffff811115611b8357600080fd5b8201601f81018413611b9457600080fd5b610feb84823560208401611934565b600060208284031215611bb557600080fd5b5035919050565b600060208284031215611bce57600080fd5b5051919050565b60008060408385031215611be857600080fd5b823591506020830135611bfa81612172565b809150509250929050565b600080600080600060808688031215611c1d57600080fd5b853594506020860135611c2f81612172565b935060408601359250606086013567ffffffffffffffff80821115611c5357600080fd5b818801915088601f830112611c6757600080fd5b813581811115611c7657600080fd5b896020828501011115611c8857600080fd5b9699959850939650602001949392505050565b60008060408385031215611cae57600080fd5b50508035926020909101359150565b600080600060608486031215611cd257600080fd5b8335925060208401359150604084013567ffffffffffffffff811115611cf757600080fd5b611af986828701611a12565b600081518084526020808501945080840160005b83811015611d3357815187529582019590820190600101611d17565b509495945050505050565b60008151808452611d56816020860160208601612084565b601f01601f19169290920160200192915050565b60008151611d7c818560208601612084565b9290920192915050565b600080845481600182811c915080831680611da257607f831692505b6020808410821415611dc257634e487b7160e01b86526022600452602486fd5b818015611dd65760018114611de757611e14565b60ff19861689528489019650611e14565b60008b81526020902060005b86811015611e0c5781548b820152908501908301611df3565b505084890196505b505050505050611e248185611d6a565b95945050505050565b6001600160a01b0386811682528516602082015260a060408201819052600090611e5990830186611d03565b8281036060840152611e6b8186611d03565b90508281036080840152611e7f8185611d3e565b98975050505050505050565b6001600160a01b03868116825285166020820152604081018490526060810183905260a060808201819052600090611ec590830184611d3e565b979650505050505050565b60018060a01b0385168152836020820152826040820152608060608201526000611efd6080830184611d3e565b9695505050505050565b60018060a01b038516815283602082015282604082015260a06060820152600060a082015260c060808201526000611efd60c0830184611d3e565b60208152600061081c6020830184611d3e565b60208082526016908201527513919508151e5c19481251081a5cc81a5b9d985b1a5960521b604082015260600190565b6020808252818101527f4f776e61626c653a2063616c6c6572206973206e6f7420746865206f776e6572604082015260600190565b6020808252601f908201527f5265656e7472616e637947756172643a207265656e7472616e742063616c6c00604082015260600190565b604051601f8201601f1916810167ffffffffffffffff8111828210171561201a5761201a61215c565b604052919050565b600082198211156120355761203561211a565b500190565b60008261204957612049612130565b500490565b60008160001904831182151516156120685761206861211a565b500290565b60008282101561207f5761207f61211a565b500390565b60005b8381101561209f578181015183820152602001612087565b8381111561133d5750506000910152565b600181811c908216806120c457607f821691505b602082108114156120e557634e487b7160e01b600052602260045260246000fd5b50919050565b60006000198214156120ff576120ff61211a565b5060010190565b60008261211557612115612130565b500690565b634e487b7160e01b600052601160045260246000fd5b634e487b7160e01b600052601260045260246000fd5b634e487b7160e01b600052603260045260246000fd5b634e487b7160e01b600052604160045260246000fd5b6001600160a01b03811681146108eb57600080fd5b80151581146108eb57600080fdfea2646970667358221220bd3664f252930ddd7e2512dc2dd9c9de0ebc9fac205ce13f9027ad6d40adc70b64736f6c6343000807003368747470733a2f2f6275696c64696e67732d6170692e6f70656e7365612e696f2f6170692f",
  "immutableReferences": {
    "7167": [
      {
        "length": 32,
        "start": 1526
      }
    ]
  },
  "source": "// SPDX-License-Identifier: MIT\r\n\r\npragma solidity ^0.8.0;\r\n\r\n\r\nimport \"./AccessoryProvider.sol\";\r\ncontract MaterialProvider is AccessoryProvider{\r\n\r\n    uint256 constant NUM_ITEM_OPTIONS = 5;\r\n\r\n    uint256 constant ID_M_NAIL = 1;\r\n    uint256 constant ID_M_WOOD = 2;\r\n    uint256 constant ID_M_PAINT = 3;\r\n    uint256 constant ID_M_GLASS = 4;\r\n    uint256 constant ID_M_METAL = 5;\r\n\r\n\r\n    mapping(uint => uint256) public maxSupplies;\r\n    mapping(uint => uint256) public prices;\r\n\r\n\r\n    address public immutable deployer;\r\n\r\n    bool public presaleLive;\r\n    bool public saleLive;\r\n    bool public locked;\r\n    mapping(uint256 => mapping(address => uint256)) public presalerListPurchases;\r\n    mapping(uint256 => uint256) public presalePurchaseLimit;\r\n    mapping(string => bool) private _usedNonces;\r\n    //ERC1155Tradable private nftContract;\r\n    //ERC1155Tradable private lootBox;\r\n\r\n    constructor(\r\n        address _proxyRegistryAddress,\r\n        address _nftAddress,\r\n        address _lootBoxAddress\r\n    ) \r\n    AccessoryProvider(_proxyRegistryAddress, _nftAddress, _lootBoxAddress) {\r\n        proxyRegistryAddress = _proxyRegistryAddress;\r\n        nftAddress = _nftAddress;\r\n        lootBoxAddress = _lootBoxAddress;\r\n        //nftContract = ERC1155Tradable(_nftAddress);\r\n        //lootBox = ERC1155Tradable(_lootBoxAddress);\r\n        presaleLive = true;\r\n        saleLive = false;\r\n\r\n        maxSupplies[ID_M_NAIL] = 225000;\r\n        maxSupplies[ID_M_WOOD] = 130000;\r\n        maxSupplies[ID_M_PAINT] = 75000;\r\n        maxSupplies[ID_M_GLASS] = 40000;\r\n        maxSupplies[ID_M_METAL] = 60000;\r\n\r\n        prices[ID_M_NAIL]   = 0.01 ether;\r\n        prices[ID_M_WOOD]   = 0.02 ether;\r\n        prices[ID_M_PAINT]  = 0.03 ether;\r\n        prices[ID_M_GLASS]  = 0.05 ether;\r\n        prices[ID_M_METAL]  = 0.07 ether;\r\n\r\n        presalePurchaseLimit[ID_M_NAIL] = 225;\r\n        presalePurchaseLimit[ID_M_WOOD] = 130;\r\n        presalePurchaseLimit[ID_M_PAINT] = 75;\r\n        presalePurchaseLimit[ID_M_GLASS] = 40;\r\n        presalePurchaseLimit[ID_M_METAL] = 60;\r\n        \r\n        deployer = _msgSender();\r\n    }\r\n    \r\n    function setPurchaseLimit(uint256 _option, uint256 _value) external onlyOwner onlyValidOption(_option) {\r\n        presalePurchaseLimit[_option] = _value;\r\n    }\r\n    function setPrice(uint256 _option, uint256 _value) external onlyOwner onlyValidOption(_option) {\r\n        prices[_option] = _value;\r\n    }\r\n    function name() override external pure returns (string memory) {\r\n        return \"Material Pre-Sale\";\r\n    }\r\n\r\n    function symbol() override external pure returns (string memory) {\r\n        return \"F5MNFT\";\r\n    }\r\n\r\n    function supportsProviderInterface() override external pure returns (bool) {\r\n        return true;\r\n    }\r\n\r\n    function providerSchemaName() override external pure returns (string memory) {\r\n        return \"ERC1155\";\r\n    }\r\n\r\n    function numOptions() override external pure returns (uint256) {\r\n        return NUM_ITEM_OPTIONS;\r\n    }\r\n\r\n    function uri(uint256 _optionId) override external view returns (string memory) {\r\n        return\r\n            string(\r\n                abi.encodePacked(\r\n                    baseMetadataURI,\r\n                    Strings.toString(_optionId)\r\n                    )\r\n                );\r\n    }\r\n\r\n    function canMint(uint256 _optionId, uint256 _amount)\r\n        override\r\n        external\r\n        view\r\n        returns (bool)\r\n    {\r\n        return _canMint(_msgSender(), _optionId, _amount);\r\n    }\r\n    function mint(\r\n        uint256 _optionId,\r\n        address _toAddress,\r\n        uint256 _amount,\r\n        bytes calldata _data\r\n    )\r\n    override external nonReentrant(){\r\n        return _mint(_optionId, _toAddress, _amount, _data);\r\n    }\r\n    /**\r\n     * @dev Main minting logic implemented here!\r\n     */\r\n    function _mint(\r\n        uint256 _option,\r\n        address _toAddress,\r\n        uint256 _amount,\r\n        bytes memory _data\r\n    )   internal {\r\n        require(\r\n            _canMint(_msgSender(), _option, _amount),\r\n            \"MaterialProvider#_mint: CANNOT_MINT_MORE\"\r\n        );\r\n        require(_option<= NUM_ITEM_OPTIONS,\"The type id is invalid\");\r\n        _createOrMint(\r\n            nftAddress,\r\n            _toAddress,\r\n            _option,\r\n            _amount,\r\n            _data\r\n        );\r\n    }\r\n\r\n    \r\n    /**\r\n     * Get the provider's ownership of Option.\r\n     * Should be the amount it can still mint.\r\n     * NOTE: Called by `canMint`\r\n     */\r\n    function balanceOf(address _owner, uint256 _optionId)\r\n        override\r\n        public\r\n        view\r\n        returns (uint256)\r\n    {\r\n        if (!_isOwnerOrProxy(_owner) && _owner != lootBoxAddress) {\r\n                // Only the provider's owner or owner's proxy,\r\n                // or the lootbox can have supply\r\n                return 0;\r\n            }\r\n            // The pre-minted balance belongs to the address that minted this contract\r\n            ERC1155Tradable nftContract = ERC1155Tradable(nftAddress);\r\n            // OptionId is used as a token ID here\r\n            uint256 currentSupply = nftContract.balanceOf(owner(), _optionId);\r\n            return currentSupply;\r\n    }\r\n    function _canMint(\r\n        address _fromAddress,\r\n        uint256 _optionId,\r\n        uint256 _amount\r\n    ) internal view returns (bool) {\r\n        return _amount > 0 && balanceOf(_fromAddress, _optionId) >0;\r\n    }\r\n    function _presaleBuy(uint256 _option, uint256 tokenQuantity, bytes memory _data) internal onlyValidOption(_option) {\r\n        address toBuyer = _msgSender();\r\n        require(!saleLive && presaleLive, \"PRESALE_CLOSED\");\r\n        require(tokenQuantity < balanceOf(owner(), _option), \"OUT_OF_STOCK\");\r\n        require(presalerListPurchases[_option][toBuyer] + tokenQuantity <= presalePurchaseLimit[_option], \"EXCEED_ALLOC\");\r\n\r\n        ERC1155Tradable items = ERC1155Tradable(nftAddress);\r\n            // Option is used as a token ID here\r\n            items.safeTransferFrom(\r\n                owner(),\r\n                toBuyer,\r\n                _option,\r\n                tokenQuantity,\r\n                _data\r\n            );\r\n        presalerListPurchases[_option][toBuyer] += tokenQuantity;\r\n        \r\n\r\n    }\r\n    function presaleBuy(uint256 _option, uint256 tokenQuantity, bytes memory _data) \r\n            external nonReentrant payable {\r\n\r\n        require(prices[_option] * tokenQuantity <= msg.value, \"INSUFFICIENT_ETH\");\r\n       _presaleBuy(_option,tokenQuantity, _data);\r\n    }\r\n    function _presaleBatchBuy(uint256[] memory _options, uint256[] memory _values, bytes memory _data) internal onlyValidOptions(_options) {\r\n        address toBuyer = _msgSender();\r\n        require(!saleLive && presaleLive, \"PRESALE_CLOSED\");\r\n        require(_options.length == _values.length, \"The lengths of ID and value arrays should be same\");\r\n        for(uint i = 0; i < _values.length; i++) {\r\n            uint256 id = _options[i];\r\n            uint256 qt = _values[i];\r\n            require(_values[i] < balanceOf(owner(), _options[i]), \"OUT_OF_STOCK\");\r\n            require(presalerListPurchases[id][toBuyer] + qt <= presalePurchaseLimit[id], \"EXCEED_ALLOC\");\r\n        }\r\n        \r\n        ERC1155Tradable items = ERC1155Tradable(nftAddress);\r\n            // Option is used as a token ID here\r\n            items.safeBatchTransferFrom(\r\n                owner(),\r\n                toBuyer,\r\n                _options,\r\n                _values,\r\n                _data\r\n            );\r\n\r\n        for(uint i = 0; i < _values.length; i++) {\r\n            uint256 id = _options[i];\r\n            uint256 qt = _values[i];\r\n            presalerListPurchases[id][toBuyer] += qt;\r\n        }            \r\n    }\r\n\r\n    function presaleBuyBatch(uint256[] memory _ids,uint256[] memory _quantities, bytes memory _data) \r\n            external nonReentrant payable {\r\n        uint256 totalPay = 0;\r\n        for (uint256 i = 0; i < _ids.length; i++) {\r\n            uint256 _id = _ids[i];\r\n            uint256 quantity = _quantities[i];\r\n            totalPay += prices[_id] * quantity;\r\n        }\r\n        require(totalPay <= msg.value, \"INSUFFICIENT_ETH\");\r\n        //for (uint256 i = 0; i < _ids.length; i++) {\r\n        //    _presaleBuy(_ids[i],_quantities[i], _data);\r\n        //}\r\n        _presaleBatchBuy(_ids, _quantities, _data);\r\n    }\r\n    /*\r\n    function buy(bytes32 hash, bytes memory signature, string memory nonce, uint256 tokenQuantity) external payable {\r\n        require(saleLive, \"SALE_CLOSED\");\r\n        require(!presaleLive, \"ONLY_PRESALE\");\r\n        require(matchAddresSigner(hash, signature), \"DIRECT_MINT_DISALLOWED\");\r\n        require(!_usedNonces[nonce], \"HASH_USED\");\r\n        require(hashTransaction(msg.sender, tokenQuantity, nonce) == hash, \"HASH_FAIL\");\r\n        require(totalSupply() < SVS_MAX, \"OUT_OF_STOCK\");\r\n        require(publicAmountMinted + tokenQuantity <= SVS_PUBLIC, \"EXCEED_PUBLIC\");\r\n        require(tokenQuantity <= SVS_PER_MINT, \"EXCEED_SVS_PER_MINT\");\r\n        require(SVS_PRICE * tokenQuantity <= msg.value, \"INSUFFICIENT_ETH\");\r\n        \r\n        for(uint256 i = 0; i < tokenQuantity; i++) {\r\n            publicAmountMinted++;\r\n            _safeMint(msg.sender, totalSupply() + 1);\r\n        }\r\n        \r\n        _usedNonces[nonce] = true;\r\n    }\r\n    */\r\n    modifier onlyValidOption(uint _option) {\r\n        require(_option > 0 && _option <= NUM_ITEM_OPTIONS, \"NFT Type ID is invalid\");\r\n        _;\r\n    }\r\n    modifier onlyValidOptions(uint[] memory _options) {\r\n        for (uint256 i = 0; i < _options.length; i++) {\r\n            uint256 _id = _options[i];\r\n            require(_id > 0 && _id <= NUM_ITEM_OPTIONS, \"NFT Type ID is invalid in ID list\");\r\n        }\r\n        _;\r\n    }\r\n    modifier notLocked {\r\n        require(!locked, \"Contract metadata methods are locked\");\r\n        _;\r\n    }\r\n\r\n    function toggleLockedStatus() external onlyOwner {\r\n        locked = !locked;\r\n    }\r\n    function togglePresaleStatus() external onlyOwner {\r\n        presaleLive = !presaleLive;\r\n    }\r\n    \r\n    function toggleSaleStatus() external onlyOwner {\r\n        saleLive = !saleLive;\r\n    }\r\n    function withdraw() public payable onlyOwner {\r\n    (bool success, ) = payable(msg.sender).call{value: address(this).balance}(\"\");\r\n        require(success);\r\n    }\r\n}",
  "sourcePath": "D:\\04_Work\\001\\NFT_presale\\smart_contract\\contracts\\presale\\MaterialProvider.sol",
  "compiler": {
    "name": "solc",
    "version": "0.8.7+commit.e28d00a7.Emscripten.clang"
  },
  "schemaVersion": "3.4.3",
  "updatedAt": "2021-10-18T11:51:57.549Z",
  "devdoc": {
    "kind": "dev",
    "methods": {
      "canMint(uint256,uint256)": {
        "details": "Returns whether the option ID can be minted. Can return false if the developer wishes to restrict a total supply per option ID (or overall)."
      },
      "mint(uint256,address,uint256,bytes)": {
        "details": "Mints asset(s) in accordance to a specific address with a particular \"option\". This should be callable only by the contract owner or the owner's Wyvern Proxy (later universal login will solve this). Options should also be delineated 0 - (numOptions() - 1) for convenient indexing.",
        "params": {
          "_amount": "amount of the option to mint",
          "_data": "Extra data to pass during safeTransferFrom",
          "_optionId": "the option id",
          "_toAddress": "address of the future owner of the asset(s)"
        }
      },
      "owner()": {
        "details": "Returns the address of the current owner."
      },
      "renounceOwnership()": {
        "details": "Leaves the contract without owner. It will not be possible to call `onlyOwner` functions anymore. Can only be called by the current owner. NOTE: Renouncing ownership will leave the contract without an owner, thereby removing any functionality that is only available to the owner."
      },
      "transferOwnership(address)": {
        "details": "Transfers ownership of the contract to a new account (`newOwner`). Can only be called by the current owner."
      },
      "uri(uint256)": {
        "details": "Returns a URL specifying some metadata about the option. This metadata can be of the same structure as the ERC1155 metadata."
      }
    },
    "version": 1
  },
  "userdoc": {
    "kind": "user",
    "methods": {
      "balanceOf(address,uint256)": {
        "notice": "Get the provider's ownership of Option. Should be the amount it can still mint. NOTE: Called by `canMint`"
      },
      "name()": {
        "notice": "Returns the name of this provider."
      },
      "numOptions()": {
        "notice": "Number of options the provider supports."
      },
      "providerSchemaName()": {
        "notice": "Indicates the Wyvern schema name for assets in this lootbox, e.g. \"ERC1155\""
      },
      "supportsProviderInterface()": {
        "notice": "Indicates that this is a provider contract. Ideally would use EIP 165 supportsInterface()"
      },
      "symbol()": {
        "notice": "Returns the symbol for this provider."
      }
    },
    "version": 1
  }
}