{
  "contractName": "Material",
  "abi": [
    {
      "inputs": [
        {
          "internalType": "string",
          "name": "_name",
          "type": "string"
        },
        {
          "internalType": "string",
          "name": "_symbol",
          "type": "string"
        },
        {
          "internalType": "string",
          "name": "_uri",
          "type": "string"
        },
        {
          "internalType": "address",
          "name": "_proxyRegistryAddress",
          "type": "address"
        }
      ],
      "stateMutability": "nonpayable",
      "type": "constructor"
    },
    {
      "anonymous": false,
      "inputs": [
        {
          "indexed": true,
          "internalType": "address",
          "name": "account",
          "type": "address"
        },
        {
          "indexed": true,
          "internalType": "address",
          "name": "operator",
          "type": "address"
        },
        {
          "indexed": false,
          "internalType": "bool",
          "name": "approved",
          "type": "bool"
        }
      ],
      "name": "ApprovalForAll",
      "type": "event"
    },
    {
      "anonymous": false,
      "inputs": [
        {
          "indexed": false,
          "internalType": "address",
          "name": "userAddress",
          "type": "address"
        },
        {
          "indexed": false,
          "internalType": "address payable",
          "name": "relayerAddress",
          "type": "address"
        },
        {
          "indexed": false,
          "internalType": "bytes",
          "name": "functionSignature",
          "type": "bytes"
        }
      ],
      "name": "MetaTransactionExecuted",
      "type": "event"
    },
    {
      "anonymous": false,
      "inputs": [
        {
          "indexed": true,
          "internalType": "address",
          "name": "previousOwner",
          "type": "address"
        },
        {
          "indexed": true,
          "internalType": "address",
          "name": "newOwner",
          "type": "address"
        }
      ],
      "name": "OwnershipTransferred",
      "type": "event"
    },
    {
      "anonymous": false,
      "inputs": [
        {
          "indexed": true,
          "internalType": "address",
          "name": "operator",
          "type": "address"
        },
        {
          "indexed": true,
          "internalType": "address",
          "name": "from",
          "type": "address"
        },
        {
          "indexed": true,
          "internalType": "address",
          "name": "to",
          "type": "address"
        },
        {
          "indexed": false,
          "internalType": "uint256[]",
          "name": "ids",
          "type": "uint256[]"
        },
        {
          "indexed": false,
          "internalType": "uint256[]",
          "name": "values",
          "type": "uint256[]"
        }
      ],
      "name": "TransferBatch",
      "type": "event"
    },
    {
      "anonymous": false,
      "inputs": [
        {
          "indexed": true,
          "internalType": "address",
          "name": "operator",
          "type": "address"
        },
        {
          "indexed": true,
          "internalType": "address",
          "name": "from",
          "type": "address"
        },
        {
          "indexed": true,
          "internalType": "address",
          "name": "to",
          "type": "address"
        },
        {
          "indexed": false,
          "internalType": "uint256",
          "name": "id",
          "type": "uint256"
        },
        {
          "indexed": false,
          "internalType": "uint256",
          "name": "value",
          "type": "uint256"
        }
      ],
      "name": "TransferSingle",
      "type": "event"
    },
    {
      "anonymous": false,
      "inputs": [
        {
          "indexed": false,
          "internalType": "string",
          "name": "value",
          "type": "string"
        },
        {
          "indexed": true,
          "internalType": "uint256",
          "name": "id",
          "type": "uint256"
        }
      ],
      "name": "URI",
      "type": "event"
    },
    {
      "inputs": [],
      "name": "ERC712_VERSION",
      "outputs": [
        {
          "internalType": "string",
          "name": "",
          "type": "string"
        }
      ],
      "stateMutability": "view",
      "type": "function"
    },
    {
      "inputs": [
        {
          "internalType": "address",
          "name": "account",
          "type": "address"
        },
        {
          "internalType": "uint256",
          "name": "id",
          "type": "uint256"
        }
      ],
      "name": "balanceOf",
      "outputs": [
        {
          "internalType": "uint256",
          "name": "",
          "type": "uint256"
        }
      ],
      "stateMutability": "view",
      "type": "function"
    },
    {
      "inputs": [
        {
          "internalType": "address[]",
          "name": "accounts",
          "type": "address[]"
        },
        {
          "internalType": "uint256[]",
          "name": "ids",
          "type": "uint256[]"
        }
      ],
      "name": "balanceOfBatch",
      "outputs": [
        {
          "internalType": "uint256[]",
          "name": "",
          "type": "uint256[]"
        }
      ],
      "stateMutability": "view",
      "type": "function"
    },
    {
      "inputs": [
        {
          "internalType": "address",
          "name": "_to",
          "type": "address"
        },
        {
          "internalType": "uint256[]",
          "name": "_ids",
          "type": "uint256[]"
        },
        {
          "internalType": "uint256[]",
          "name": "_quantities",
          "type": "uint256[]"
        },
        {
          "internalType": "bytes",
          "name": "_data",
          "type": "bytes"
        }
      ],
      "name": "batchMint",
      "outputs": [],
      "stateMutability": "nonpayable",
      "type": "function"
    },
    {
      "inputs": [],
      "name": "contractURI",
      "outputs": [
        {
          "internalType": "string",
          "name": "",
          "type": "string"
        }
      ],
      "stateMutability": "view",
      "type": "function"
    },
    {
      "inputs": [
        {
          "internalType": "address",
          "name": "_initialOwner",
          "type": "address"
        },
        {
          "internalType": "uint256",
          "name": "_id",
          "type": "uint256"
        },
        {
          "internalType": "uint256",
          "name": "_initialSupply",
          "type": "uint256"
        },
        {
          "internalType": "string",
          "name": "_uri",
          "type": "string"
        },
        {
          "internalType": "bytes",
          "name": "_data",
          "type": "bytes"
        }
      ],
      "name": "create",
      "outputs": [
        {
          "internalType": "uint256",
          "name": "",
          "type": "uint256"
        }
      ],
      "stateMutability": "nonpayable",
      "type": "function"
    },
    {
      "inputs": [
        {
          "internalType": "uint256",
          "name": "",
          "type": "uint256"
        }
      ],
      "name": "creators",
      "outputs": [
        {
          "internalType": "address",
          "name": "",
          "type": "address"
        }
      ],
      "stateMutability": "view",
      "type": "function"
    },
    {
      "inputs": [
        {
          "internalType": "address",
          "name": "userAddress",
          "type": "address"
        },
        {
          "internalType": "bytes",
          "name": "functionSignature",
          "type": "bytes"
        },
        {
          "internalType": "bytes32",
          "name": "sigR",
          "type": "bytes32"
        },
        {
          "internalType": "bytes32",
          "name": "sigS",
          "type": "bytes32"
        },
        {
          "internalType": "uint8",
          "name": "sigV",
          "type": "uint8"
        }
      ],
      "name": "executeMetaTransaction",
      "outputs": [
        {
          "internalType": "bytes",
          "name": "",
          "type": "bytes"
        }
      ],
      "stateMutability": "payable",
      "type": "function"
    },
    {
      "inputs": [
        {
          "internalType": "uint256",
          "name": "_id",
          "type": "uint256"
        }
      ],
      "name": "exists",
      "outputs": [
        {
          "internalType": "bool",
          "name": "",
          "type": "bool"
        }
      ],
      "stateMutability": "view",
      "type": "function"
    },
    {
      "inputs": [],
      "name": "getChainId",
      "outputs": [
        {
          "internalType": "uint256",
          "name": "",
          "type": "uint256"
        }
      ],
      "stateMutability": "view",
      "type": "function"
    },
    {
      "inputs": [],
      "name": "getDomainSeperator",
      "outputs": [
        {
          "internalType": "bytes32",
          "name": "",
          "type": "bytes32"
        }
      ],
      "stateMutability": "view",
      "type": "function"
    },
    {
      "inputs": [
        {
          "internalType": "address",
          "name": "user",
          "type": "address"
        }
      ],
      "name": "getNonce",
      "outputs": [
        {
          "internalType": "uint256",
          "name": "nonce",
          "type": "uint256"
        }
      ],
      "stateMutability": "view",
      "type": "function"
    },
    {
      "inputs": [
        {
          "internalType": "address",
          "name": "_owner",
          "type": "address"
        },
        {
          "internalType": "address",
          "name": "_operator",
          "type": "address"
        }
      ],
      "name": "isApprovedForAll",
      "outputs": [
        {
          "internalType": "bool",
          "name": "isOperator",
          "type": "bool"
        }
      ],
      "stateMutability": "view",
      "type": "function"
    },
    {
      "inputs": [],
      "name": "isProxyUseForLive",
      "outputs": [
        {
          "internalType": "bool",
          "name": "",
          "type": "bool"
        }
      ],
      "stateMutability": "view",
      "type": "function"
    },
    {
      "inputs": [
        {
          "internalType": "address",
          "name": "_to",
          "type": "address"
        },
        {
          "internalType": "uint256",
          "name": "_id",
          "type": "uint256"
        },
        {
          "internalType": "uint256",
          "name": "_quantity",
          "type": "uint256"
        },
        {
          "internalType": "bytes",
          "name": "_data",
          "type": "bytes"
        }
      ],
      "name": "mint",
      "outputs": [],
      "stateMutability": "nonpayable",
      "type": "function"
    },
    {
      "inputs": [],
      "name": "name",
      "outputs": [
        {
          "internalType": "string",
          "name": "",
          "type": "string"
        }
      ],
      "stateMutability": "view",
      "type": "function"
    },
    {
      "inputs": [],
      "name": "owner",
      "outputs": [
        {
          "internalType": "address",
          "name": "",
          "type": "address"
        }
      ],
      "stateMutability": "view",
      "type": "function"
    },
    {
      "inputs": [],
      "name": "renounceOwnership",
      "outputs": [],
      "stateMutability": "nonpayable",
      "type": "function"
    },
    {
      "inputs": [
        {
          "internalType": "address",
          "name": "from",
          "type": "address"
        },
        {
          "internalType": "address",
          "name": "to",
          "type": "address"
        },
        {
          "internalType": "uint256[]",
          "name": "ids",
          "type": "uint256[]"
        },
        {
          "internalType": "uint256[]",
          "name": "amounts",
          "type": "uint256[]"
        },
        {
          "internalType": "bytes",
          "name": "data",
          "type": "bytes"
        }
      ],
      "name": "safeBatchTransferFrom",
      "outputs": [],
      "stateMutability": "nonpayable",
      "type": "function"
    },
    {
      "inputs": [
        {
          "internalType": "address",
          "name": "from",
          "type": "address"
        },
        {
          "internalType": "address",
          "name": "to",
          "type": "address"
        },
        {
          "internalType": "uint256",
          "name": "id",
          "type": "uint256"
        },
        {
          "internalType": "uint256",
          "name": "amount",
          "type": "uint256"
        },
        {
          "internalType": "bytes",
          "name": "data",
          "type": "bytes"
        }
      ],
      "name": "safeTransferFrom",
      "outputs": [],
      "stateMutability": "nonpayable",
      "type": "function"
    },
    {
      "inputs": [
        {
          "internalType": "address",
          "name": "operator",
          "type": "address"
        },
        {
          "internalType": "bool",
          "name": "approved",
          "type": "bool"
        }
      ],
      "name": "setApprovalForAll",
      "outputs": [],
      "stateMutability": "nonpayable",
      "type": "function"
    },
    {
      "inputs": [
        {
          "internalType": "address",
          "name": "_to",
          "type": "address"
        },
        {
          "internalType": "uint256[]",
          "name": "_ids",
          "type": "uint256[]"
        }
      ],
      "name": "setCreator",
      "outputs": [],
      "stateMutability": "nonpayable",
      "type": "function"
    },
    {
      "inputs": [
        {
          "internalType": "uint256",
          "name": "_tokenId",
          "type": "uint256"
        },
        {
          "internalType": "string",
          "name": "_newURI",
          "type": "string"
        }
      ],
      "name": "setCustomURI",
      "outputs": [],
      "stateMutability": "nonpayable",
      "type": "function"
    },
    {
      "inputs": [
        {
          "internalType": "bool",
          "name": "_bUse",
          "type": "bool"
        }
      ],
      "name": "setProxyUseForLive",
      "outputs": [],
      "stateMutability": "nonpayable",
      "type": "function"
    },
    {
      "inputs": [
        {
          "internalType": "string",
          "name": "_newURI",
          "type": "string"
        }
      ],
      "name": "setURI",
      "outputs": [],
      "stateMutability": "nonpayable",
      "type": "function"
    },
    {
      "inputs": [
        {
          "internalType": "bytes4",
          "name": "interfaceId",
          "type": "bytes4"
        }
      ],
      "name": "supportsInterface",
      "outputs": [
        {
          "internalType": "bool",
          "name": "",
          "type": "bool"
        }
      ],
      "stateMutability": "view",
      "type": "function"
    },
    {
      "inputs": [],
      "name": "symbol",
      "outputs": [
        {
          "internalType": "string",
          "name": "",
          "type": "string"
        }
      ],
      "stateMutability": "view",
      "type": "function"
    },
    {
      "inputs": [
        {
          "internalType": "uint256",
          "name": "",
          "type": "uint256"
        }
      ],
      "name": "tokenSupply",
      "outputs": [
        {
          "internalType": "uint256",
          "name": "",
          "type": "uint256"
        }
      ],
      "stateMutability": "view",
      "type": "function"
    },
    {
      "inputs": [
        {
          "internalType": "uint256",
          "name": "_id",
          "type": "uint256"
        }
      ],
      "name": "totalSupply",
      "outputs": [
        {
          "internalType": "uint256",
          "name": "",
          "type": "uint256"
        }
      ],
      "stateMutability": "view",
      "type": "function"
    },
    {
      "inputs": [
        {
          "internalType": "address",
          "name": "newOwner",
          "type": "address"
        }
      ],
      "name": "transferOwnership",
      "outputs": [],
      "stateMutability": "nonpayable",
      "type": "function"
    },
    {
      "inputs": [
        {
          "internalType": "uint256",
          "name": "_id",
          "type": "uint256"
        }
      ],
      "name": "uri",
      "outputs": [
        {
          "internalType": "string",
          "name": "",
          "type": "string"
        }
      ],
      "stateMutability": "view",
      "type": "function"
    },
    {
      "inputs": [
        {
          "internalType": "string",
          "name": "_contractURI",
          "type": "string"
        }
      ],
      "name": "setContractURI",
      "outputs": [],
      "stateMutability": "nonpayable",
      "type": "function"
    }
  ],
  "bytecode": "0x6003805460ff19908116909155600d8054909116905560e060405260396080818152906200352460a03980516200003f91600e9160209091019062000376565b503480156200004d57600080fd5b506040516200355d3803806200355d8339810160408190526200007091620004d3565b838383838162000080816200018a565b50620000956200008f620001a3565b620001bf565b8351620000aa90600b90602087019062000376565b508251620000c090600c90602086019062000376565b50600780546001600160a01b0319166001600160a01b038316179055600b80546200017c9190620000f19062000586565b80601f01602080910402602001604051908101604052809291908181526020018280546200011f9062000586565b8015620001705780601f10620001445761010080835404028352916020019162000170565b820191906000526020600020905b8154815290600101906020018083116200015257829003601f168201915b50506200021192505050565b5050505050505050620005d9565b80516200019f90600290602084019062000376565b5050565b6000620001ba6200027560201b6200168d1760201c565b905090565b600680546001600160a01b038381166001600160a01b0319831681179093556040519116919082907f8be0079c531659141344cd1fd0a4f28419497f9722a3daafe3b4186f6b6457e090600090a35050565b60035460ff16156200025a5760405162461bcd60e51b815260206004820152600e60248201526d185b1c9958591e481a5b9a5d195960921b604482015260640160405180910390fd5b6200026581620002d4565b506003805460ff19166001179055565b600033301415620002ce57600080368080601f0160208091040260200160405190810160405280939291908181526020018383808284376000920191909152505050503601516001600160a01b03169150620002d19050565b50335b90565b6040518060800160405280604f8152602001620034d5604f9139805160209182012082519282019290922060408051808201825260018152603160f81b90840152805180840194909452838101919091527fc89efdaa54c0f20c7adf612882df0950f5a951637e0307cdcb4c672f298b8bc660608401523060808401524660a0808501919091528151808503909101815260c090930190528151910120600455565b828054620003849062000586565b90600052602060002090601f016020900481019282620003a85760008555620003f3565b82601f10620003c357805160ff1916838001178555620003f3565b82800160010185558215620003f3579182015b82811115620003f3578251825591602001919060010190620003d6565b506200040192915062000405565b5090565b5b8082111562000401576000815560010162000406565b600082601f8301126200042e57600080fd5b81516001600160401b03808211156200044b576200044b620005c3565b604051601f8301601f19908116603f01168101908282118183101715620004765762000476620005c3565b816040528381526020925086838588010111156200049357600080fd5b600091505b83821015620004b7578582018301518183018401529082019062000498565b83821115620004c95760008385830101525b9695505050505050565b60008060008060808587031215620004ea57600080fd5b84516001600160401b03808211156200050257600080fd5b62000510888389016200041c565b955060208701519150808211156200052757600080fd5b62000535888389016200041c565b945060408701519150808211156200054c57600080fd5b506200055b878288016200041c565b606087015190935090506001600160a01b03811681146200057b57600080fd5b939692955090935050565b600181811c908216806200059b57607f821691505b60208210811415620005bd57634e487b7160e01b600052602260045260246000fd5b50919050565b634e487b7160e01b600052604160045260246000fd5b612eec80620005e96000396000f3fe6080604052600436106101e25760003560e01c80636105671611610102578063bd85b03911610095578063e8a3d48511610064578063e8a3d485146105bf578063e985e9c5146105d4578063f242432a146105f4578063f2fde38b1461061457600080fd5b8063bd85b0391461051c578063c5df056a14610549578063cd53d08e14610569578063d2a6b51a1461059f57600080fd5b8063938e3d7b116100d1578063938e3d7b146104a757806395d89b41146104c7578063a22cb465146104dc578063b48ab8b6146104fc57600080fd5b80636105671614610426578063715018a614610440578063731133e9146104555780638da5cb5b1461047557600080fd5b80632693ebf21161017a57806336a100d51161014957806336a100d5146103995780633adf80b4146103b95780634e1273f4146103d95780634f558e791461040657600080fd5b80632693ebf2146103035780632d0335ab146103305780632eb2c2d6146103665780633408e4701461038657600080fd5b80630c53c51c116101b65780630c53c51c1461028e5780630e89341c146102a15780630f7e5970146102c157806320379ee5146102ee57600080fd5b8062fdd58e146101e757806301ffc9a71461021a57806302fe53051461024a57806306fdde031461026c575b600080fd5b3480156101f357600080fd5b5061020761020236600461262a565b610634565b6040519081526020015b60405180910390f35b34801561022657600080fd5b5061023a6102353660046127e8565b6106ce565b6040519015158152602001610211565b34801561025657600080fd5b5061026a61026536600461283f565b61071e565b005b34801561027857600080fd5b50610281610773565b6040516102119190612a86565b61028161029c3660046125ad565b610801565b3480156102ad57600080fd5b506102816102bc366004612873565b6109eb565b3480156102cd57600080fd5b50610281604051806040016040528060018152602001603160f81b81525081565b3480156102fa57600080fd5b50600454610207565b34801561030f57600080fd5b5061020761031e366004612873565b60096020526000908152604090205481565b34801561033c57600080fd5b5061020761034b366004612324565b6001600160a01b031660009081526005602052604090205490565b34801561037257600080fd5b5061026a61038136600461237a565b610bb9565b34801561039257600080fd5b5046610207565b3480156103a557600080fd5b506102076103b43660046126ac565b610c62565b3480156103c557600080fd5b5061026a6103d436600461288c565b610dc9565b3480156103e557600080fd5b506103f96103f4366004612705565b610e68565b6040516102119190612a4e565b34801561041257600080fd5b5061023a610421366004612873565b610f91565b34801561043257600080fd5b50600d5461023a9060ff1681565b34801561044c57600080fd5b5061026a610fb0565b34801561046157600080fd5b5061026a610470366004612656565b611005565b34801561048157600080fd5b506006546001600160a01b03165b6040516001600160a01b039091168152602001610211565b3480156104b357600080fd5b5061026a6104c236600461283f565b611085565b3480156104d357600080fd5b506102816110e5565b3480156104e857600080fd5b5061026a6104f7366004612578565b6110f2565b34801561050857600080fd5b5061026a6105173660046124de565b611206565b34801561052857600080fd5b50610207610537366004612873565b60009081526009602052604090205490565b34801561055557600080fd5b5061026a6105643660046127cd565b611336565b34801561057557600080fd5b5061048f610584366004612873565b6008602052600090815260409020546001600160a01b031681565b3480156105ab57600080fd5b5061026a6105ba36600461248f565b611392565b3480156105cb57600080fd5b50610281611449565b3480156105e057600080fd5b5061023a6105ef366004612341565b611456565b34801561060057600080fd5b5061026a61060f366004612427565b61153d565b34801561062057600080fd5b5061026a61062f366004612324565b6115d6565b60006001600160a01b0383166106a55760405162461bcd60e51b815260206004820152602b60248201527f455243313135353a2062616c616e636520717565727920666f7220746865207a60448201526a65726f206164647265737360a81b60648201526084015b60405180910390fd5b506000818152602081815260408083206001600160a01b03861684529091529020545b92915050565b60006001600160e01b03198216636cdb3d1360e11b14806106ff57506001600160e01b031982166303a24d0760e21b145b806106c857506301ffc9a760e01b6001600160e01b03198316146106c8565b6107266116ea565b6001600160a01b03166107416006546001600160a01b031690565b6001600160a01b0316146107675760405162461bcd60e51b815260040161069c90612b70565b610770816116f9565b50565b600b805461078090612ce6565b80601f01602080910402602001604051908101604052809291908181526020018280546107ac90612ce6565b80156107f95780601f106107ce576101008083540402835291602001916107f9565b820191906000526020600020905b8154815290600101906020018083116107dc57829003601f168201915b505050505081565b60408051606081810183526001600160a01b0388166000818152600560209081529085902054845283015291810186905261083f878287878761170c565b6108955760405162461bcd60e51b815260206004820152602160248201527f5369676e657220616e64207369676e617475726520646f206e6f74206d6174636044820152600d60fb1b606482015260840161069c565b6001600160a01b0387166000908152600560205260409020546108b99060016117fc565b6001600160a01b0388166000908152600560205260409081902091909155517f5845892132946850460bff5a0083f71031bc5bf9aadcd40f1de79423eac9b10b9061090990899033908a90612982565b60405180910390a1600080306001600160a01b0316888a60405160200161093192919061294b565b60408051601f198184030181529082905261094b9161292f565b6000604051808303816000865af19150503d8060008114610988576040519150601f19603f3d011682016040523d82523d6000602084013e61098d565b606091505b5091509150816109df5760405162461bcd60e51b815260206004820152601c60248201527f46756e6374696f6e2063616c6c206e6f74207375636365737366756c00000000604482015260640161069c565b98975050505050505050565b6000818152600860205260409020546060906001600160a01b0316610a615760405162461bcd60e51b815260206004820152602660248201527f455243313135355472616461626c65237572693a204e4f4e4558495354454e546044820152652faa27a5a2a760d11b606482015260840161069c565b6000828152600a602052604081208054610a7a90612ce6565b80601f0160208091040260200160405190810160405280929190818152602001828054610aa690612ce6565b8015610af35780601f10610ac857610100808354040283529160200191610af3565b820191906000526020600020905b815481529060010190602001808311610ad657829003601f168201915b50505050509050600081511115610ba3576000838152600a602052604090208054610b1d90612ce6565b80601f0160208091040260200160405190810160405280929190818152602001828054610b4990612ce6565b8015610b965780601f10610b6b57610100808354040283529160200191610b96565b820191906000526020600020905b815481529060010190602001808311610b7957829003601f168201915b5050505050915050919050565b610bac83611808565b9392505050565b50919050565b610bc16116ea565b6001600160a01b0316856001600160a01b03161480610be75750610be7856105ef6116ea565b610c4e5760405162461bcd60e51b815260206004820152603260248201527f455243313135353a207472616e736665722063616c6c6572206973206e6f74206044820152711bdddb995c881b9bdc88185c1c1c9bdd995960721b606482015260840161069c565b610c5b858585858561189c565b5050505050565b6000610c6c6116ea565b6001600160a01b0316610c876006546001600160a01b031690565b6001600160a01b031614610cad5760405162461bcd60e51b815260040161069c90612b70565b6000858152600860205260409020546001600160a01b031615610d125760405162461bcd60e51b815260206004820152601860248201527f746f6b656e205f696420616c7265616479206578697374730000000000000000604482015260640161069c565b610d1a6116ea565b600086815260086020526040902080546001600160a01b0319166001600160a01b0392909216919091179055825115610da6576000858152600a602090815260409091208451610d6c9286019061218c565b50847f6bb7ff708619ba0610cba295a58592e0451dee2622938c8755667688daf3529b84604051610d9d9190612a86565b60405180910390a25b610db286868685611a43565b505050600082815260096020526040902055919050565b81610dd26116ea565b6000828152600860205260409020546001600160a01b03908116911614610e0b5760405162461bcd60e51b815260040161069c90612c2e565b6000838152600a602090815260409091208351610e2a9285019061218c565b50827f6bb7ff708619ba0610cba295a58592e0451dee2622938c8755667688daf3529b83604051610e5b9190612a86565b60405180910390a2505050565b60608151835114610ecd5760405162461bcd60e51b815260206004820152602960248201527f455243313135353a206163636f756e747320616e6420696473206c656e677468604482015268040dad2e6dac2e8c6d60bb1b606482015260840161069c565b600083516001600160401b03811115610ee857610ee8612d8e565b604051908082528060200260200182016040528015610f11578160200160208202803683370190505b50905060005b8451811015610f8957610f5c858281518110610f3557610f35612d78565b6020026020010151858381518110610f4f57610f4f612d78565b6020026020010151610634565b828281518110610f6e57610f6e612d78565b6020908102919091010152610f8281612d47565b9050610f17565b509392505050565b6000818152600860205260408120546001600160a01b031615156106c8565b610fb86116ea565b6001600160a01b0316610fd36006546001600160a01b031690565b6001600160a01b031614610ff95760405162461bcd60e51b815260040161069c90612b70565b6110036000611b1e565b565b8261100e6116ea565b6000828152600860205260409020546001600160a01b039081169116146110475760405162461bcd60e51b815260040161069c90612c2e565b61105385858585611a43565b60008481526009602052604090205461106c90846117fc565b6000948552600960205260409094209390935550505050565b61108d6116ea565b6001600160a01b03166110a86006546001600160a01b031690565b6001600160a01b0316146110ce5760405162461bcd60e51b815260040161069c90612b70565b80516110e190600e90602084019061218c565b5050565b600c805461078090612ce6565b816001600160a01b03166111046116ea565b6001600160a01b0316141561116d5760405162461bcd60e51b815260206004820152602960248201527f455243313135353a2073657474696e6720617070726f76616c20737461747573604482015268103337b91039b2b63360b91b606482015260840161069c565b806001600061117a6116ea565b6001600160a01b03908116825260208083019390935260409182016000908120918716808252919093529120805460ff1916921515929092179091556111be6116ea565b6001600160a01b03167f17307eab39ab6107e8899845ad3d59bd9653f200f220920489ca2b5937696c31836040516111fa911515815260200190565b60405180910390a35050565b60005b835181101561132357600084828151811061122657611226612d78565b602002602001015190506112386116ea565b6000828152600860205260409020546001600160a01b039081169116146112b95760405162461bcd60e51b815260206004820152602f60248201527f455243313135355472616461626c652362617463684d696e743a204f4e4c595f60448201526e10d491505513d497d0531313d5d151608a1b606482015260840161069c565b60008483815181106112cd576112cd612d78565b602002602001015190506112fd8160096000858152602001908152602001600020546117fc90919063ffffffff16565b60009283526009602052604090922091909155508061131b81612d47565b915050611209565b5061133084848484611b70565b50505050565b61133e6116ea565b6001600160a01b03166113596006546001600160a01b031690565b6001600160a01b03161461137f5760405162461bcd60e51b815260040161069c90612b70565b600d805460ff1916911515919091179055565b6001600160a01b0382166113fd5760405162461bcd60e51b815260206004820152602c60248201527f455243313135355472616461626c652373657443726561746f723a20494e564160448201526b2624a22fa0a2222922a9a99760a11b606482015260840161069c565b60005b815181101561144457600082828151811061141d5761141d612d78565b602002602001015190506114318482611cc6565b508061143c81612d47565b915050611400565b505050565b600e805461078090612ce6565b600754600d546000916001600160a01b03169060ff1680156114fc575060405163c455279160e01b81526001600160a01b038581166004830152808516919083169063c45527919060240160206040518083038186803b1580156114b957600080fd5b505afa1580156114cd573d6000803e3d6000fd5b505050506040513d601f19601f820116820180604052508101906114f19190612822565b6001600160a01b0316145b1561150b5760019150506106c8565b6001600160a01b0380851660009081526001602090815260408083209387168352929052205460ff165b949350505050565b6115456116ea565b6001600160a01b0316856001600160a01b0316148061156b575061156b856105ef6116ea565b6115c95760405162461bcd60e51b815260206004820152602960248201527f455243313135353a2063616c6c6572206973206e6f74206f776e6572206e6f7260448201526808185c1c1c9bdd995960ba1b606482015260840161069c565b610c5b8585858585611d37565b6115de6116ea565b6001600160a01b03166115f96006546001600160a01b031690565b6001600160a01b03161461161f5760405162461bcd60e51b815260040161069c90612b70565b6001600160a01b0381166116845760405162461bcd60e51b815260206004820152602660248201527f4f776e61626c653a206e6577206f776e657220697320746865207a65726f206160448201526564647265737360d01b606482015260840161069c565b61077081611b1e565b6000333014156116e457600080368080601f0160208091040260200160405190810160405280939291908181526020018383808284376000920191909152505050503601516001600160a01b031691506116e79050565b50335b90565b60006116f461168d565b905090565b80516110e190600290602084019061218c565b60006001600160a01b0386166117725760405162461bcd60e51b815260206004820152602560248201527f4e61746976654d6574615472616e73616374696f6e3a20494e56414c49445f5360448201526424a3a722a960d91b606482015260840161069c565b600161178561178087611e5f565b611edc565b6040805160008152602081018083529290925260ff851690820152606081018690526080810185905260a0016020604051602081039080840390855afa1580156117d3573d6000803e3d6000fd5b505050602060405103516001600160a01b0316866001600160a01b031614905095945050505050565b6000610bac8284612ca2565b60606002805461181790612ce6565b80601f016020809104026020016040519081016040528092919081815260200182805461184390612ce6565b80156118905780601f1061186557610100808354040283529160200191611890565b820191906000526020600020905b81548152906001019060200180831161187357829003601f168201915b50505050509050919050565b81518351146118bd5760405162461bcd60e51b815260040161069c90612ba5565b6001600160a01b0384166118e35760405162461bcd60e51b815260040161069c90612ae1565b60006118ed6116ea565b905060005b84518110156119d557600085828151811061190f5761190f612d78565b60200260200101519050600085838151811061192d5761192d612d78565b602090810291909101810151600084815280835260408082206001600160a01b038e16835290935291909120549091508181101561197d5760405162461bcd60e51b815260040161069c90612b26565b6000838152602081815260408083206001600160a01b038e8116855292528083208585039055908b168252812080548492906119ba908490612ca2565b92505081905550505050806119ce90612d47565b90506118f2565b50846001600160a01b0316866001600160a01b0316826001600160a01b03167f4a39dc06d4c0dbc64b70af90fd698a233a518aa5d07e595d983b8c0526c8f7fb8787604051611a25929190612a61565b60405180910390a4611a3b818787878787611f0c565b505050505050565b6001600160a01b038416611a695760405162461bcd60e51b815260040161069c90612bed565b6000611a736116ea565b9050611a8e81600087611a8588612077565b610c5b88612077565b6000848152602081815260408083206001600160a01b038916845290915281208054859290611abe908490612ca2565b909155505060408051858152602081018590526001600160a01b0380881692600092918516917fc3d58168c5ae7397731d063d5bbf3d657854427343f4c083240f7aacaa2d0f62910160405180910390a4610c5b816000878787876120c2565b600680546001600160a01b038381166001600160a01b0319831681179093556040519116919082907f8be0079c531659141344cd1fd0a4f28419497f9722a3daafe3b4186f6b6457e090600090a35050565b6001600160a01b038416611b965760405162461bcd60e51b815260040161069c90612bed565b8151835114611bb75760405162461bcd60e51b815260040161069c90612ba5565b6000611bc16116ea565b905060005b8451811015611c5e57838181518110611be157611be1612d78565b6020026020010151600080878481518110611bfe57611bfe612d78565b602002602001015181526020019081526020016000206000886001600160a01b03166001600160a01b031681526020019081526020016000206000828254611c469190612ca2565b90915550819050611c5681612d47565b915050611bc6565b50846001600160a01b031660006001600160a01b0316826001600160a01b03167f4a39dc06d4c0dbc64b70af90fd698a233a518aa5d07e595d983b8c0526c8f7fb8787604051611caf929190612a61565b60405180910390a4610c5b81600087878787611f0c565b80611ccf6116ea565b6000828152600860205260409020546001600160a01b03908116911614611d085760405162461bcd60e51b815260040161069c90612c2e565b50600090815260086020526040902080546001600160a01b0319166001600160a01b0392909216919091179055565b6001600160a01b038416611d5d5760405162461bcd60e51b815260040161069c90612ae1565b6000611d676116ea565b9050611d78818787611a8588612077565b6000848152602081815260408083206001600160a01b038a16845290915290205483811015611db95760405162461bcd60e51b815260040161069c90612b26565b6000858152602081815260408083206001600160a01b038b8116855292528083208785039055908816825281208054869290611df6908490612ca2565b909155505060408051868152602081018690526001600160a01b03808916928a821692918616917fc3d58168c5ae7397731d063d5bbf3d657854427343f4c083240f7aacaa2d0f62910160405180910390a4611e568288888888886120c2565b50505050505050565b6000604051806080016040528060438152602001612e746043913980516020918201208351848301516040808701518051908601209051611ebf950193845260208401929092526001600160a01b03166040830152606082015260800190565b604051602081830303815290604052805190602001209050919050565b6000611ee760045490565b60405161190160f01b6020820152602281019190915260428101839052606201611ebf565b6001600160a01b0384163b15611a3b5760405163bc197c8160e01b81526001600160a01b0385169063bc197c8190611f5090899089908890889088906004016129b7565b602060405180830381600087803b158015611f6a57600080fd5b505af1925050508015611f9a575060408051601f3d908101601f19168201909252611f9791810190612805565b60015b61204757611fa6612da4565b806308c379a01415611fe05750611fbb612dbf565b80611fc65750611fe2565b8060405162461bcd60e51b815260040161069c9190612a86565b505b60405162461bcd60e51b815260206004820152603460248201527f455243313135353a207472616e7366657220746f206e6f6e20455243313135356044820152732932b1b2b4bb32b91034b6b83632b6b2b73a32b960611b606482015260840161069c565b6001600160e01b0319811663bc197c8160e01b14611e565760405162461bcd60e51b815260040161069c90612a99565b604080516001808252818301909252606091600091906020808301908036833701905050905082816000815181106120b1576120b1612d78565b602090810291909101015292915050565b6001600160a01b0384163b15611a3b5760405163f23a6e6160e01b81526001600160a01b0385169063f23a6e61906121069089908990889088908890600401612a09565b602060405180830381600087803b15801561212057600080fd5b505af1925050508015612150575060408051601f3d908101601f1916820190925261214d91810190612805565b60015b61215c57611fa6612da4565b6001600160e01b0319811663f23a6e6160e01b14611e565760405162461bcd60e51b815260040161069c90612a99565b82805461219890612ce6565b90600052602060002090601f0160209004810192826121ba5760008555612200565b82601f106121d357805160ff1916838001178555612200565b82800160010185558215612200579182015b828111156122005782518255916020019190600101906121e5565b5061220c929150612210565b5090565b5b8082111561220c5760008155600101612211565b600082601f83011261223657600080fd5b8135602061224382612c7f565b6040516122508282612d1b565b8381528281019150858301600585901b8701840188101561227057600080fd5b60005b8581101561228f57813584529284019290840190600101612273565b5090979650505050505050565b803580151581146122ac57600080fd5b919050565b600082601f8301126122c257600080fd5b81356001600160401b038111156122db576122db612d8e565b6040516122f2601f8301601f191660200182612d1b565b81815284602083860101111561230757600080fd5b816020850160208301376000918101602001919091529392505050565b60006020828403121561233657600080fd5b8135610bac81612e48565b6000806040838503121561235457600080fd5b823561235f81612e48565b9150602083013561236f81612e48565b809150509250929050565b600080600080600060a0868803121561239257600080fd5b853561239d81612e48565b945060208601356123ad81612e48565b935060408601356001600160401b03808211156123c957600080fd5b6123d589838a01612225565b945060608801359150808211156123eb57600080fd5b6123f789838a01612225565b9350608088013591508082111561240d57600080fd5b5061241a888289016122b1565b9150509295509295909350565b600080600080600060a0868803121561243f57600080fd5b853561244a81612e48565b9450602086013561245a81612e48565b9350604086013592506060860135915060808601356001600160401b0381111561248357600080fd5b61241a888289016122b1565b600080604083850312156124a257600080fd5b82356124ad81612e48565b915060208301356001600160401b038111156124c857600080fd5b6124d485828601612225565b9150509250929050565b600080600080608085870312156124f457600080fd5b84356124ff81612e48565b935060208501356001600160401b038082111561251b57600080fd5b61252788838901612225565b9450604087013591508082111561253d57600080fd5b61254988838901612225565b9350606087013591508082111561255f57600080fd5b5061256c878288016122b1565b91505092959194509250565b6000806040838503121561258b57600080fd5b823561259681612e48565b91506125a46020840161229c565b90509250929050565b600080600080600060a086880312156125c557600080fd5b85356125d081612e48565b945060208601356001600160401b038111156125eb57600080fd5b6125f7888289016122b1565b9450506040860135925060608601359150608086013560ff8116811461261c57600080fd5b809150509295509295909350565b6000806040838503121561263d57600080fd5b823561264881612e48565b946020939093013593505050565b6000806000806080858703121561266c57600080fd5b843561267781612e48565b9350602085013592506040850135915060608501356001600160401b038111156126a057600080fd5b61256c878288016122b1565b600080600080600060a086880312156126c457600080fd5b85356126cf81612e48565b9450602086013593506040860135925060608601356001600160401b03808211156126f957600080fd5b6123f789838a016122b1565b6000806040838503121561271857600080fd5b82356001600160401b038082111561272f57600080fd5b818501915085601f83011261274357600080fd5b8135602061275082612c7f565b60405161275d8282612d1b565b8381528281019150858301600585901b870184018b101561277d57600080fd5b600096505b848710156127a957803561279581612e48565b835260019690960195918301918301612782565b50965050860135925050808211156127c057600080fd5b506124d485828601612225565b6000602082840312156127df57600080fd5b610bac8261229c565b6000602082840312156127fa57600080fd5b8135610bac81612e5d565b60006020828403121561281757600080fd5b8151610bac81612e5d565b60006020828403121561283457600080fd5b8151610bac81612e48565b60006020828403121561285157600080fd5b81356001600160401b0381111561286757600080fd5b611535848285016122b1565b60006020828403121561288557600080fd5b5035919050565b6000806040838503121561289f57600080fd5b8235915060208301356001600160401b038111156128bc57600080fd5b6124d4858286016122b1565b600081518084526020808501945080840160005b838110156128f8578151875295820195908201906001016128dc565b509495945050505050565b6000815180845261291b816020860160208601612cba565b601f01601f19169290920160200192915050565b60008251612941818460208701612cba565b9190910192915050565b6000835161295d818460208801612cba565b60609390931b6bffffffffffffffffffffffff19169190920190815260140192915050565b6001600160a01b038481168252831660208201526060604082018190526000906129ae90830184612903565b95945050505050565b6001600160a01b0386811682528516602082015260a0604082018190526000906129e3908301866128c8565b82810360608401526129f581866128c8565b905082810360808401526109df8185612903565b6001600160a01b03868116825285166020820152604081018490526060810183905260a060808201819052600090612a4390830184612903565b979650505050505050565b602081526000610bac60208301846128c8565b604081526000612a7460408301856128c8565b82810360208401526129ae81856128c8565b602081526000610bac6020830184612903565b60208082526028908201527f455243313135353a204552433131353552656365697665722072656a656374656040820152676420746f6b656e7360c01b606082015260800190565b60208082526025908201527f455243313135353a207472616e7366657220746f20746865207a65726f206164604082015264647265737360d81b606082015260800190565b6020808252602a908201527f455243313135353a20696e73756666696369656e742062616c616e636520666f60408201526939103a3930b739b332b960b11b606082015260800190565b6020808252818101527f4f776e61626c653a2063616c6c6572206973206e6f7420746865206f776e6572604082015260600190565b60208082526028908201527f455243313135353a2069647320616e6420616d6f756e7473206c656e677468206040820152670dad2e6dac2e8c6d60c31b606082015260800190565b60208082526021908201527f455243313135353a206d696e7420746f20746865207a65726f206164647265736040820152607360f81b606082015260800190565b60208082526031908201527f455243313135355472616461626c652363726561746f724f6e6c793a204f4e4c6040820152701657d0d491505513d497d0531313d5d151607a1b606082015260800190565b60006001600160401b03821115612c9857612c98612d8e565b5060051b60200190565b60008219821115612cb557612cb5612d62565b500190565b60005b83811015612cd5578181015183820152602001612cbd565b838111156113305750506000910152565b600181811c90821680612cfa57607f821691505b60208210811415610bb357634e487b7160e01b600052602260045260246000fd5b601f8201601f191681016001600160401b0381118282101715612d4057612d40612d8e565b6040525050565b6000600019821415612d5b57612d5b612d62565b5060010190565b634e487b7160e01b600052601160045260246000fd5b634e487b7160e01b600052603260045260246000fd5b634e487b7160e01b600052604160045260246000fd5b600060033d11156116e75760046000803e5060005160e01c90565b600060443d1015612dcd5790565b6040516003193d81016004833e81513d6001600160401b038160248401118184111715612dfc57505050505090565b8285019150815181811115612e145750505050505090565b843d8701016020828501011115612e2e5750505050505090565b612e3d60208286010187612d1b565b509095945050505050565b6001600160a01b038116811461077057600080fd5b6001600160e01b03198116811461077057600080fdfe4d6574615472616e73616374696f6e2875696e74323536206e6f6e63652c616464726573732066726f6d2c62797465732066756e6374696f6e5369676e617475726529a2646970667358221220aa00a4e07526ede94100fd4a73755805bc41bd1469899ea9c36e53a620d1deca64736f6c63430008070033454950373132446f6d61696e28737472696e67206e616d652c737472696e672076657273696f6e2c6164647265737320766572696679696e67436f6e74726163742c627974657333322073616c742968747470733a2f2f6275696c64696e67732d6170692e6f70656e7365612e696f2f636f6e74726163742f6f70656e7365612d65726331313535",
  "immutableReferences": {},
  "source": "// SPDX-License-Identifier: MIT\r\n\r\npragma solidity ^0.8.0;\r\n\r\nimport \"../ERC1155Tradable.sol\";\r\n\r\n/**\r\n * @title Material\r\n * Material - a contract for Building Accessory semi-fungible tokens.\r\n */\r\ncontract Material is ERC1155Tradable {\r\n    string public contractURI =\"https://buildings-api.opensea.io/contract/opensea-erc1155\";\r\n    constructor(\r\n        string memory _name,\r\n        string memory _symbol,\r\n        string memory _uri,\r\n        address _proxyRegistryAddress)\r\n        ERC1155Tradable(\r\n            _name,\r\n            _symbol,\r\n            _uri,\r\n            _proxyRegistryAddress\r\n        ) {}\r\n\r\n    function setContractURI(string memory _contractURI) public onlyOwner {\r\n        contractURI = _contractURI;\r\n    }\r\n}\r\n",
  "sourcePath": "D:\\04_Work\\001\\NFT_presale\\smart_contract\\contracts\\presale\\Material.sol",
  "compiler": {
    "name": "solc",
    "version": "0.8.7+commit.e28d00a7.Emscripten.clang"
  },
  "schemaVersion": "3.4.3",
  "updatedAt": "2021-10-18T11:51:57.528Z",
  "devdoc": {
    "kind": "dev",
    "methods": {
      "balanceOf(address,uint256)": {
        "details": "See {IERC1155-balanceOf}. Requirements: - `account` cannot be the zero address."
      },
      "balanceOfBatch(address[],uint256[])": {
        "details": "See {IERC1155-balanceOfBatch}. Requirements: - `accounts` and `ids` must have the same length."
      },
      "batchMint(address,uint256[],uint256[],bytes)": {
        "details": "Mint tokens for each id in _ids",
        "params": {
          "_data": "Data to pass if receiver is contract",
          "_ids": "Array of ids to mint",
          "_quantities": "Array of amounts of tokens to mint per id",
          "_to": "The address to mint tokens to"
        }
      },
      "create(address,uint256,uint256,string,bytes)": {
        "details": "Creates a new token type and assigns _initialSupply to an address NOTE: remove onlyOwner if you want third parties to create new tokens on       your contract (which may change your IDs) NOTE: The token id must be passed. This allows lazy creation of tokens or       creating NFTs by setting the id's high bits with the method       described in ERC1155 or to use ids representing values other than       successive small integers. If you wish to create ids as successive       small integers you can either subclass this class to count onchain       or maintain the offchain cache of identifiers recommended in       ERC1155 and calculate successive ids from that.",
        "params": {
          "_data": "Data to pass if receiver is contract",
          "_id": "The id of the token to create (must not currenty exist).",
          "_initialOwner": "address of the first owner of the token",
          "_initialSupply": "amount to supply the first owner",
          "_uri": "Optional URI for this token type"
        },
        "returns": {
          "_0": "The newly created token ID"
        }
      },
      "mint(address,uint256,uint256,bytes)": {
        "details": "Mints some amount of tokens to an address",
        "params": {
          "_data": "Data to pass if receiver is contract",
          "_id": "Token ID to mint",
          "_quantity": "Amount of tokens to mint",
          "_to": "Address of the future owner of the token"
        }
      },
      "owner()": {
        "details": "Returns the address of the current owner."
      },
      "renounceOwnership()": {
        "details": "Leaves the contract without owner. It will not be possible to call `onlyOwner` functions anymore. Can only be called by the current owner. NOTE: Renouncing ownership will leave the contract without an owner, thereby removing any functionality that is only available to the owner."
      },
      "safeBatchTransferFrom(address,address,uint256[],uint256[],bytes)": {
        "details": "See {IERC1155-safeBatchTransferFrom}."
      },
      "safeTransferFrom(address,address,uint256,uint256,bytes)": {
        "details": "See {IERC1155-safeTransferFrom}."
      },
      "setApprovalForAll(address,bool)": {
        "details": "See {IERC1155-setApprovalForAll}."
      },
      "setCreator(address,uint256[])": {
        "details": "Change the creator address for given tokens",
        "params": {
          "_ids": "Array of Token IDs to change creator",
          "_to": "Address of the new creator"
        }
      },
      "setCustomURI(uint256,string)": {
        "details": "Will update the base URI for the token",
        "params": {
          "_newURI": "New URI for the token.",
          "_tokenId": "The token to update. _msgSender() must be its creator."
        }
      },
      "setURI(string)": {
        "details": "Sets a new URI for all token types, by relying on the token type ID substitution mechanism https://eips.ethereum.org/EIPS/eip-1155#metadata[defined in the EIP].",
        "params": {
          "_newURI": "New URI for all tokens"
        }
      },
      "supportsInterface(bytes4)": {
        "details": "See {IERC165-supportsInterface}."
      },
      "totalSupply(uint256)": {
        "details": "Returns the total quantity for a token ID",
        "params": {
          "_id": "uint256 ID of the token to query"
        },
        "returns": {
          "_0": "amount of token in existence"
        }
      },
      "transferOwnership(address)": {
        "details": "Transfers ownership of the contract to a new account (`newOwner`). Can only be called by the current owner."
      }
    },
    "title": "Material Material - a contract for Building Accessory semi-fungible tokens.",
    "version": 1
  },
  "userdoc": {
    "kind": "user",
    "methods": {
      "isApprovedForAll(address,address)": {
        "notice": "Override isApprovedForAll to whitelist user's OpenSea proxy accounts to enable gas-free listings."
      }
    },
    "version": 1
  }
}