{
  "contractName": "MockProxyRegistry",
  "abi": [
    {
      "anonymous": false,
      "inputs": [
        {
          "indexed": true,
          "internalType": "address",
          "name": "previousOwner",
          "type": "address"
        },
        {
          "indexed": true,
          "internalType": "address",
          "name": "newOwner",
          "type": "address"
        }
      ],
      "name": "OwnershipTransferred",
      "type": "event"
    },
    {
      "inputs": [],
      "name": "owner",
      "outputs": [
        {
          "internalType": "address",
          "name": "",
          "type": "address"
        }
      ],
      "stateMutability": "view",
      "type": "function"
    },
    {
      "inputs": [
        {
          "internalType": "address",
          "name": "",
          "type": "address"
        }
      ],
      "name": "proxies",
      "outputs": [
        {
          "internalType": "address",
          "name": "",
          "type": "address"
        }
      ],
      "stateMutability": "view",
      "type": "function"
    },
    {
      "inputs": [],
      "name": "renounceOwnership",
      "outputs": [],
      "stateMutability": "nonpayable",
      "type": "function"
    },
    {
      "inputs": [
        {
          "internalType": "address",
          "name": "newOwner",
          "type": "address"
        }
      ],
      "name": "transferOwnership",
      "outputs": [],
      "stateMutability": "nonpayable",
      "type": "function"
    },
    {
      "inputs": [
        {
          "internalType": "address",
          "name": "_address",
          "type": "address"
        },
        {
          "internalType": "address",
          "name": "_proxyForAddress",
          "type": "address"
        }
      ],
      "name": "setProxy",
      "outputs": [],
      "stateMutability": "nonpayable",
      "type": "function"
    }
  ],
  "bytecode": "0x608060405234801561001057600080fd5b5061001a3361001f565b61006f565b600080546001600160a01b038381166001600160a01b0319831681178455604051919092169283917f8be0079c531659141344cd1fd0a4f28419497f9722a3daafe3b4186f6b6457e09190a35050565b6103558061007e6000396000f3fe608060405234801561001057600080fd5b50600436106100575760003560e01c8063715018a61461005c5780638da5cb5b14610066578063a9d4630c1461008a578063c45527911461009d578063f2fde38b146100c6575b600080fd5b6100646100d9565b005b61006e61011d565b6040516001600160a01b03909116815260200160405180910390f35b6100646100983660046102b7565b61012c565b61006e6100ab366004610295565b6001602052600090815260409020546001600160a01b031681565b6100646100d4366004610295565b610189565b336100e261011d565b6001600160a01b0316146101115760405162461bcd60e51b8152600401610108906102ea565b60405180910390fd5b61011b6000610229565b565b6000546001600160a01b031690565b3361013561011d565b6001600160a01b03161461015b5760405162461bcd60e51b8152600401610108906102ea565b6001600160a01b03918216600090815260016020526040902080546001600160a01b03191691909216179055565b3361019261011d565b6001600160a01b0316146101b85760405162461bcd60e51b8152600401610108906102ea565b6001600160a01b03811661021d5760405162461bcd60e51b815260206004820152602660248201527f4f776e61626c653a206e6577206f776e657220697320746865207a65726f206160448201526564647265737360d01b6064820152608401610108565b61022681610229565b50565b600080546001600160a01b038381166001600160a01b0319831681178455604051919092169283917f8be0079c531659141344cd1fd0a4f28419497f9722a3daafe3b4186f6b6457e09190a35050565b80356001600160a01b038116811461029057600080fd5b919050565b6000602082840312156102a757600080fd5b6102b082610279565b9392505050565b600080604083850312156102ca57600080fd5b6102d383610279565b91506102e160208401610279565b90509250929050565b6020808252818101527f4f776e61626c653a2063616c6c6572206973206e6f7420746865206f776e657260408201526060019056fea2646970667358221220148ce3f00d93ea6eaf92dd8d96f51f3b6110cac5f6d6f08ba0d86ed17d51df7164736f6c63430008070033",
  "immutableReferences": {},
  "source": "// SPDX-License-Identifier: MIT\r\n\r\npragma solidity ^0.8.0;\r\n\r\n\r\nimport 'openzeppelin-solidity/contracts/access/Ownable.sol';\r\n\r\n\r\n/**\r\n * @dev A simple mock ProxyRegistry for use in local tests with minimal security\r\n */\r\ncontract MockProxyRegistry is Ownable {\r\n  mapping(address => address) public proxies;\r\n\r\n\r\n  /***********************************|\r\n  |  Public Configuration Functions   |\r\n  |__________________________________*/\r\n\r\n  /**\r\n   * @notice Allow the owner to set a proxy for testing\r\n   * @param _address           The address that the proxy will act on behalf of\r\n   * @param _proxyForAddress  The proxy that will act on behalf of the address\r\n   */\r\n  function setProxy(address _address, address _proxyForAddress)\r\n      external\r\n      onlyOwner()\r\n  {\r\n      proxies[_address] = _proxyForAddress;\r\n  }\r\n}\r\n",
  "sourcePath": "D:\\04_Work\\001\\NFT_presale\\smart_contract\\contracts\\test\\MockProxyRegistry.sol",
  "compiler": {
    "name": "solc",
    "version": "0.8.7+commit.e28d00a7.Emscripten.clang"
  },
  "schemaVersion": "3.4.3",
  "updatedAt": "2021-10-19T18:53:42.777Z",
  "devdoc": {
    "details": "A simple mock ProxyRegistry for use in local tests with minimal security",
    "kind": "dev",
    "methods": {
      "owner()": {
        "details": "Returns the address of the current owner."
      },
      "renounceOwnership()": {
        "details": "Leaves the contract without owner. It will not be possible to call `onlyOwner` functions anymore. Can only be called by the current owner. NOTE: Renouncing ownership will leave the contract without an owner, thereby removing any functionality that is only available to the owner."
      },
      "setProxy(address,address)": {
        "params": {
          "_address": "The address that the proxy will act on behalf of",
          "_proxyForAddress": "The proxy that will act on behalf of the address"
        }
      },
      "transferOwnership(address)": {
        "details": "Transfers ownership of the contract to a new account (`newOwner`). Can only be called by the current owner."
      }
    },
    "version": 1
  },
  "userdoc": {
    "kind": "user",
    "methods": {
      "setProxy(address,address)": {
        "notice": "Allow the owner to set a proxy for testing"
      }
    },
    "version": 1
  }
}