{
  "contractName": "ProxyRegistry",
  "abi": [
    {
      "inputs": [
        {
          "internalType": "address",
          "name": "",
          "type": "address"
        }
      ],
      "name": "proxies",
      "outputs": [
        {
          "internalType": "contract OwnableDelegateProxy",
          "name": "",
          "type": "address"
        }
      ],
      "stateMutability": "view",
      "type": "function"
    }
  ],
  "bytecode": "0x608060405234801561001057600080fd5b5060d38061001f6000396000f3fe6080604052348015600f57600080fd5b506004361060285760003560e01c8063c455279114602d575b600080fd5b60536038366004606f565b6000602081905290815260409020546001600160a01b031681565b6040516001600160a01b03909116815260200160405180910390f35b600060208284031215608057600080fd5b81356001600160a01b0381168114609657600080fd5b939250505056fea2646970667358221220e0d4d31ca3ed2d1c9a37f1018701ecdee275c9f1a849d540708953d254a0a42c64736f6c63430008070033",
  "immutableReferences": {},
  "source": "// SPDX-License-Identifier: MIT\r\n\r\npragma solidity ^0.8.0;\r\ncontract OwnableDelegateProxy {\r\n    \r\n}\r\ncontract ProxyRegistry {\r\n    mapping(address => OwnableDelegateProxy) public proxies;\r\n}",
  "sourcePath": "D:\\04_Work\\001\\NFT_presale\\smart_contract\\contracts\\common\\meta-transactions\\ProxyRegistry.sol",
  "compiler": {
    "name": "solc",
    "version": "0.8.7+commit.e28d00a7.Emscripten.clang"
  },
  "schemaVersion": "3.4.3",
  "updatedAt": "2021-10-19T18:53:42.709Z",
  "devdoc": {
    "kind": "dev",
    "methods": {},
    "version": 1
  },
  "userdoc": {
    "kind": "user",
    "methods": {},
    "version": 1
  }
}