{
  "contractName": "TestForReentrancyAttack",
  "abi": [
    {
      "inputs": [],
      "stateMutability": "nonpayable",
      "type": "constructor"
    },
    {
      "inputs": [],
      "name": "providerAddress",
      "outputs": [
        {
          "internalType": "address",
          "name": "",
          "type": "address"
        }
      ],
      "stateMutability": "view",
      "type": "function"
    },
    {
      "inputs": [
        {
          "internalType": "address",
          "name": "_providerAddress",
          "type": "address"
        }
      ],
      "name": "setProviderAddress",
      "outputs": [],
      "stateMutability": "nonpayable",
      "type": "function"
    },
    {
      "inputs": [
        {
          "internalType": "address",
          "name": "",
          "type": "address"
        },
        {
          "internalType": "address",
          "name": "",
          "type": "address"
        },
        {
          "internalType": "uint256",
          "name": "_id",
          "type": "uint256"
        },
        {
          "internalType": "uint256",
          "name": "",
          "type": "uint256"
        },
        {
          "internalType": "bytes",
          "name": "",
          "type": "bytes"
        }
      ],
      "name": "onERC1155Received",
      "outputs": [
        {
          "internalType": "bytes4",
          "name": "",
          "type": "bytes4"
        }
      ],
      "stateMutability": "nonpayable",
      "type": "function"
    },
    {
      "inputs": [
        {
          "internalType": "bytes4",
          "name": "interfaceID",
          "type": "bytes4"
        }
      ],
      "name": "supportsInterface",
      "outputs": [
        {
          "internalType": "bool",
          "name": "",
          "type": "bool"
        }
      ],
      "stateMutability": "pure",
      "type": "function"
    },
    {
      "inputs": [
        {
          "internalType": "address",
          "name": "",
          "type": "address"
        },
        {
          "internalType": "address",
          "name": "",
          "type": "address"
        },
        {
          "internalType": "uint256[]",
          "name": "",
          "type": "uint256[]"
        },
        {
          "internalType": "uint256[]",
          "name": "",
          "type": "uint256[]"
        },
        {
          "internalType": "bytes",
          "name": "",
          "type": "bytes"
        }
      ],
      "name": "onERC1155BatchReceived",
      "outputs": [
        {
          "internalType": "bytes4",
          "name": "",
          "type": "bytes4"
        }
      ],
      "stateMutability": "pure",
      "type": "function"
    }
  ],
  "bytecode": "0x608060405234801561001057600080fd5b506105a0806100206000396000f3fe608060405234801561001057600080fd5b50600436106100575760003560e01c806301ffc9a71461005c578063706e525714610084578063bc197c81146100af578063dc5d7fc5146100e7578063f23a6e611461011e575b600080fd5b61006f61006a3660046104e1565b610131565b60405190151581526020015b60405180910390f35b600054610097906001600160a01b031681565b6040516001600160a01b03909116815260200161007b565b6100ce6100bd36600461033d565b63bc197c8160e01b95945050505050565b6040516001600160e01b0319909116815260200161007b565b61011c6100f536600461031b565b600080546001600160a01b0319166001600160a01b03929092169190911790556003600155565b005b6100ce61012c36600461043c565b610168565b60006001600160e01b031982166301ffc9a760e01b148061016257506001600160e01b03198216630271189760e51b145b92915050565b604051627eeac760e11b8152306004820152602481018590526000908190339062fdd58e9060440160206040518083038186803b1580156101a857600080fd5b505afa1580156101bc573d6000803e3d6000fd5b505050506040513d601f19601f820116820180604052508101906101e0919061050b565b905060015481101561026657600080546040516363bdb36160e11b815260016004820181905230602483015260448201526080606482015260848101929092526001600160a01b03169063c77b66c29060a401600060405180830381600087803b15801561024d57600080fd5b505af1158015610261573d6000803e3d6000fd5b505050505b5063f23a6e6160e01b979650505050505050565b80356001600160a01b038116811461029157600080fd5b919050565b600082601f8301126102a757600080fd5b813560206001600160401b038211156102c2576102c2610554565b8160051b6102d1828201610524565b8381528281019086840183880185018910156102ec57600080fd5b600093505b8584101561030f5780358352600193909301929184019184016102f1565b50979650505050505050565b60006020828403121561032d57600080fd5b6103368261027a565b9392505050565b600080600080600060a0868803121561035557600080fd5b61035e8661027a565b9450602061036d81880161027a565b945060408701356001600160401b038082111561038957600080fd5b6103958a838b01610296565b955060608901359150808211156103ab57600080fd5b6103b78a838b01610296565b945060808901359150808211156103cd57600080fd5b818901915089601f8301126103e157600080fd5b8135818111156103f3576103f3610554565b610405601f8201601f19168501610524565b91508082528a8482850101111561041b57600080fd5b80848401858401376000848284010152508093505050509295509295909350565b60008060008060008060a0878903121561045557600080fd5b61045e8761027a565b955061046c6020880161027a565b9450604087013593506060870135925060808701356001600160401b038082111561049657600080fd5b818901915089601f8301126104aa57600080fd5b8135818111156104b957600080fd5b8a60208285010111156104cb57600080fd5b6020830194508093505050509295509295509295565b6000602082840312156104f357600080fd5b81356001600160e01b03198116811461033657600080fd5b60006020828403121561051d57600080fd5b5051919050565b604051601f8201601f191681016001600160401b038111828210171561054c5761054c610554565b604052919050565b634e487b7160e01b600052604160045260246000fdfea2646970667358221220a8fad14e1d558ba752b5f107039e74995e6cce2136efdd8f8e15c859e564afcd64736f6c63430008070033",
  "immutableReferences": {},
  "source": "// SPDX-License-Identifier: MIT\r\n\r\npragma solidity ^0.8.0;\r\n\r\nimport \"openzeppelin-solidity/contracts/token/ERC1155/IERC1155Receiver.sol\";\r\n\r\nimport \"../BuildingAccessoryProvider.sol\";\r\n\r\n\r\ncontract TestForReentrancyAttack is IERC1155Receiver {\r\n    // bytes4(keccak256(\"onERC1155Received(address,address,uint256,uint256,bytes)\"))\r\n    bytes4 constant internal ERC1155_RECEIVED_SIG = 0xf23a6e61;\r\n    // bytes4(keccak256(\"onERC1155BatchReceived(address,address,uint256[],uint256[],bytes)\"))\r\n    bytes4 constant internal ERC1155_BATCH_RECEIVED_SIG = 0xbc197c81;\r\n    // bytes4(keccak256(\"onERC1155Received(address,address,uint256,uint256,bytes)\")) ^ bytes4(keccak256(\"onERC1155BatchReceived(address,address,uint256[],uint256[],bytes)\"))\r\n    bytes4 constant internal INTERFACE_ERC1155_RECEIVER_FULL = 0x4e2312e0;\r\n    //bytes4(keccak256('supportsInterface(bytes4)'))\r\n    bytes4 constant internal INTERFACE_ERC165 = 0x01ffc9a7;\r\n\r\n    address public providerAddress;\r\n    uint256 private totalToMint;\r\n\r\n    constructor() {}\r\n\r\n    function setProviderAddress(address _providerAddress) external {\r\n        providerAddress = _providerAddress;\r\n        totalToMint = 3;\r\n    }\r\n\r\n    /*function attack(uint256 _totalToMint) external {\r\n        require(_totalToMint >= 2, \"_totalToMint must be >= 2\");\r\n        totalToMint = _totalToMint;\r\n        BuildingAccessoryProvider(providerAddress).mint(1, address(this), 1, \"\");\r\n        }*/\r\n\r\n    // We attempt a reentrancy attack here by recursively calling the\r\n    // BuildingAccessoryProvider that created the BuildingAccessory ERC1155 token\r\n    // that we are receiving here.\r\n    // We expect this to fail if the BuildingAccessoryProvider.mint() function\r\n    // defends against reentrancy.\r\n\r\n    function onERC1155Received(\r\n        address /*_operator*/,\r\n        address /*_from*/,\r\n        uint256 _id,\r\n        uint256 /*_amount*/,\r\n        bytes calldata /*_data*/\r\n    )\r\n        override\r\n        external\r\n        returns(bytes4)\r\n    {\r\n        uint256 balance = IERC1155(msg.sender).balanceOf(address(this), _id);\r\n        if(balance < totalToMint)\r\n        {\r\n            // 1 is the provider lootbox option, not the token id\r\n            BuildingAccessoryProvider(providerAddress)\r\n                .mint(1, address(this), 1, \"\");\r\n        }\r\n        return ERC1155_RECEIVED_SIG;\r\n    }\r\n\r\n    function supportsInterface(bytes4 interfaceID)\r\n        override\r\n        external\r\n        pure\r\n        returns (bool)\r\n    {\r\n        return interfaceID == INTERFACE_ERC165 ||\r\n            interfaceID == INTERFACE_ERC1155_RECEIVER_FULL;\r\n    }\r\n\r\n    // We don't use this but we need it for the interface\r\n\r\n    function onERC1155BatchReceived(address /*_operator*/, address /*_from*/, uint256[] memory /*_ids*/, uint256[] memory /*_values*/, bytes memory /*_data*/)\r\n        override public pure returns(bytes4)\r\n    {\r\n        return ERC1155_BATCH_RECEIVED_SIG;\r\n    }\r\n}\r\n",
  "sourcePath": "D:\\04_Work\\001\\NFT_presale\\smart_contract\\contracts\\test\\TestForReentrancyAttack.sol",
  "compiler": {
    "name": "solc",
    "version": "0.8.7+commit.e28d00a7.Emscripten.clang"
  },
  "schemaVersion": "3.4.3",
  "updatedAt": "2021-10-19T18:53:42.781Z",
  "devdoc": {
    "kind": "dev",
    "methods": {},
    "version": 1
  },
  "userdoc": {
    "kind": "user",
    "methods": {},
    "version": 1
  }
}